:100000000C94FE030C94DE120C940F130C9440130A
:100010000C9471130C94A2130C94D3130C94041429
:100020000C9435140C942A040C942A040C942A047D
:100030000C942A040C942A040C942A040C942A0488
:100040000C942A040C942A040C942A040C942A0478
:100050000C942A040C942A040C942A040C94511134
:100060000C942A040C946C170C9498180C942A0481
:100070000C942A040C942A040C942A040C942A0448
:100080000C942A040C942A040C942A040C942A0438
:100090000C94A5170C94D7180C942A040C942A04D9
:1000A0000C942A040C942A040C942A040C942A0418
:1000B0000C942A040C942A040C942A040C942A0408
:1000C0000C942A040C942A040C942A040C94DE1731
:1000D0000C9416190C942A040C9417180C945519A6
:1000E0000C942A0400002100240027002A002D007F
:1000F0003000330001010000040107010A01000083
:100100002200250028002B002E00310034000201BF
:100110000000050108010B0100002000230026005B
:1001200029002C002F00320000010000030106010D
:10013000090105050505070508080808020202026D
:100140000A0A080804040404010101010101010173
:100150000303030303030303040707070C0C0C0C3E
:100160000C0C0C0C02020202060606060606060627
:100170000B0B0B0B0B0B0B0B0102102020080810B4
:100180002040102040800201020108040201010207
:1001900004081020408080402010080402018004E0
:1001A000020180402010080402010804020101023B
:1001B0000408102040800102040810204080000044
:1001C000090A02080B0C0D070603040100000000D9
:1001D000000000000000000000000000000000001F
:1001E0000000000000000000000011100F000000DF
:1001F00000000000000000000000000000000000FF
:100200000000000000000000003E5B4F5B3E3E6BC4
:100210004F6B3E1C3E7C3E1C183C7E3C181C577DA0
:10022000571C1C5E7F5E1C00183C1800FFE7C3E7EC
:10023000FF0018241800FFE7DBE7FF30483A060EFE
:100240002629792926407F050507407F05253F5A45
:100250003CE73C5A7F3E1C1C08081C1C3E7F1422B5
:100260007F22145F5F005F5F06097F017F00668960
:10027000956A606060606094A2FFA29408047E04A6
:100280000810207E201008082A1C08081C2A0808CC
:100290001E101010100C1E0C1E0C30383E3830068C
:1002A0000E3E0E06000000000000005F0000000788
:1002B000000700147F147F14242A7F2A12231308B6
:1002C000646236495620500008070300001C224192
:1002D000000041221C002A1C7F1C2A08083E080836
:1002E00000807030000808080808000060600020E6
:1002F000100804023E5149453E00427F40007249C9
:100300004949462141494D331814127F102745456C
:1003100045393C4A49493141211109073649494982
:1003200036464949291E00001400000040340000F0
:100330000008142241141414141400412214080259
:10034000015909063E415D594E7C1211127C7F49CC
:100350004949363E414141227F4141413E7F494921
:1003600049417F090909013E414151737F0808084D
:100370007F00417F41002040413F017F081422411E
:100380007F404040407F021C027F7F0408107F3E78
:100390004141413E7F090909063E4151215E7F09E5
:1003A000192946264949493203017F01033F40404C
:1003B000403F1F2040201F3F4038403F6314081437
:1003C0006303047804036159494D43007F4141416F
:1003D0000204081020004141417F04020102044050
:1003E00040404040000307080020545478407F28D4
:1003F0004444383844444428384444287F385454CA
:10040000541800087E090218A4A49C787F080404EC
:100410007800447D40002040403D007F102844008B
:1004200000417F40007C047804787C08040478381C
:1004300044444438FC1824241818242418FC7C084C
:10044000040408485454542404043F44243C4040C9
:10045000207C1C2040201C3C4030403C442810287C
:10046000444C9090907C4464544C440008364100C5
:100470000000770000004136080002010204023C3F
:100480002623263C1EA1A161123A4040207A38540E
:100490005455592155557941215454784121555489
:1004A000784020545579400C1E52721239555555DA
:1004B00059395454545939555454580000457C41C5
:1004C0000002457D420001457C40F0292429F0F0DE
:1004D000282528F07C545545002054547C547C0A2F
:1004E000097F4932494949323248484832324A48FC
:1004F00048303A4141217A3A42402078009DA0A0FC
:100500007D39444444393D4040403D3C24FF24244F
:10051000487E4943662B2FFC2F2BFF0929F620C06C
:10052000887E090320545479410000447D413048BD
:10053000484A32384040227A007A0A0A727D0D1900
:10054000317D2629292F28262929292630484D4062
:1005500020380808080808080808382F10C8ACBA5E
:100560002F102834FA00007B000008142A142222DD
:10057000142A1408AA005500AAAA55AA55AA0000D0
:1005800000FF00101010FF00141414FF001010FFE3
:1005900000FF1010F010F0141414FC001414F700F5
:1005A000FF0000FF00FF1414F404FC141417101FC4
:1005B00010101F101F1414141F00101010F0000052
:1005C00000001F101010101F10101010F01000006D
:1005D00000FF101010101010101010FF100000007D
:1005E000FF140000FF00FF00001F10170000FC04B4
:1005F000F414141710171414F404F40000FF00F797
:1006000014141414141414F700F7141414171410F9
:10061000101F101F141414F4141010F010F0000028
:100620001F101F0000001F14000000FC140000F049
:1006300010F01010FF10FF141414FF141010101FEE
:1006400000000000F010FFFFFFFFFFF0F0F0F0F0FF
:10065000FFFFFF0000000000FFFF0F0F0F0F0F381C
:10066000444438447C2A2A3E147E02020606027E56
:10067000027E0263554941633844443C04407E2075
:100680001E2006027E020299A5E7A5991C2A492A86
:100690001C4C7201724C304A4D4D30304878483015
:1006A000BC625A463D3E494949007E0101017E2A0D
:1006B0002A2A2A2A44445F444440514A4440404440
:1006C0004A51400000FF0103E080FF000008086B72
:1006D0006B083612362436060F090F06000018186C
:1006E0000000001010003040FF0101001F01011E3A
:1006F00000191D1712003C3C3C3C00000000000F9C
:100700000180961180FFB103012C2DB203012C2D25
:10071000B306012C2D012C2DB40107C003A20284C5
:10072000C101C5C2020A00C3028A2AC4028AEEC5F8
:10073000010E20003601C83A0105022A0400020019
:10074000812B04000100A0022A040000007F2B047A
:100750000000009F04E010021C07123732292D29E7
:10076000252B3900010310E110031D07062E2C294B
:100770002D2E2E373F0000021013800A29806412AC
:100780000180321180FF3A81050AB1830006030A15
:10079000360108B6021502B40100C08202700AC117
:1007A0000105C2020102C5823C380AFC021115E0B3
:1007B0001009160920211B131917151E2B040502F9
:1007C0000EE1900B14081E221D181E1B1A242B0666
:1007D00006020F0A2A04000200812B040002008195
:1007E00013800A2980FF7C3C3E5E2B3D3F2F5B5DE2
:1007F0003B2C2A225C009C07BF1AC62311241FBE73
:10080000CFEFD1E2DEBFCDBF00E00CBF16E0A0E02D
:10081000B2E0E0E5FDE700E00BBF02C007900D92FB
:10082000A438B107D9F71BE0A4E8B6E001C01D92D7
:10083000AE3EB107E1F717E0CCEFD7E004C0229756
:10084000FE010E94A23EC63FD107C9F70E945C1775
:100850000C94023B0C94000010928D0610928E06B0
:1008600010928F06109290061092910610929206A6
:10087000109293061092940610928A06109289069E
:1008800010928C0610928B061092860610928506A6
:10089000109288061092870680912F068093840616
:1008A000089580912F06853028F480912F068F5F60
:1008B00080932F0680912F06089580912F0688231C
:1008C00029F080912F06815080932F0680912F066A
:1008D0000895FC01DB018091890690918A062091A0
:1008E000850630918606821B930B918380838091CD
:1008F0008B0690918C062091870630918806821B8A
:10090000930B8D939C9381E0089597FF03C0E0E0E3
:10091000F0E010C0E0918406F0E0EE0FFF1FED560E
:10092000FA4F0190F081E02DE058F0408E179F07BC
:1009300008F4FC01F0938606E093850677FF03C078
:1009400060E070E010C0E0918406F0E0EE0FFF1F61
:10095000E156FA4F0190F081E02DE05AF040E617A1
:10096000F70708F4BF01709388066093870608951F
:10097000AF92BF92CF92DF92EF92FF920F931F93AD
:100980004091890650918A064250504020918B0632
:1009900030918C06225030408091840666E0869F1C
:1009A000C001112460918506709186068A01061B9C
:1009B000170B60918706709188067901E61AF70A8D
:1009C00085559A4F66E976E0F5E0CF2ED12CE5E02B
:1009D000AE2EB12C0E9450371F910F91FF90EF90D7
:1009E000DF90CF90BF90AF900895AF92BF92CF921B
:1009F000DF92EF92FF920F931F938091840626E07F
:100A0000829FC00111244091850650918606209155
:100A100087063091880685559A4F66E976E000E0B2
:100A200010E0EE24FF24B0E8CB2ED12CA0EAAA2EB1
:100A3000B12C0E9450371F910F91FF90EF90DF90E3
:100A4000CF90BF90AF9008950F931F936091890648
:100A500070918A068091850690918606681B790BB5
:100A600040918B0650918C06809187069091880664
:100A7000481B590B86E996E022E030E000E018EFD1
:100A80000E94221D1F910F910895AF92BF92CF92A5
:100A9000DF92EF92FF920F931F935A016B01A82FE1
:100AA000BB27A7FDB09500D00F926FEC75E0FD015C
:100AB00084E0EE0FFF1F8A95E1F7E60FF71F208114
:100AC000318142815381AA0FBB1FCD01019613E0F2
:100AD000880F991F1A95E1F7680F791FFB01E080D5
:100AE000F18002811381A156BA4F8D919C91A0E0B3
:100AF000B0E0EDB7FEB781839283A383B483C601D0
:100B0000B501AA24BB2465010E94B0150F900F9077
:100B10000F900F901F910F91FF90EF90DF90CF906B
:100B2000BF90AF900895AF92BF92CF92DF92EF92B5
:100B3000FF920F931F935A016B01A82FBB27A7FDAC
:100B4000B09500D00F92FD0104E0EE0FFF1F0A9553
:100B5000E1F78FEC95E0E80FF91F2481358146819C
:100B60005781E484F58406851785AA0FBB1FAD560F
:100B7000BA4F8D919C91A0E0B0E0EDB7FEB78183B4
:100B80009283A383B483C601B501AA24BB24650163
:100B90000E94B0150F900F900F900F901F910F9122
:100BA000FF90EF90DF90CF90BF90AF900895AF92FD
:100BB000BF92CF92DF92EF92FF920F931F937B0130
:100BC0008C0159016A0180918406B801A7010E9435
:100BD0009305709386066093850680918406B6011E
:100BE000A5010E944505209185063091860637FFB4
:100BF00003C0E0E0F0E010C0E0918406F0E0EE0F0A
:100C0000FF1FED56FA4F0190F081E02DE058F040C3
:100C10002E173F0708F4F901F0938606E093850646
:100C200077FF03C060E070E010C0E0918406F0E060
:100C3000EE0FFF1FE156FA4F0190F081E02DE05AD0
:100C4000F040E617F70708F4BF0170938806609339
:100C500087061F910F91FF90EF90DF90CF90BF908C
:100C6000AF90089580912F068093840640918D0661
:100C700050918E0660918F06709190060E949305A8
:100C800070938A066093890640919106509192066E
:100C90006091930670919406809184060E944505A8
:100CA00070938C0660938B06809184060895AF92B2
:100CB000BF92CF92DF92EF92FF920F931F93A82FD4
:100CC000BB27A7FDB09500D00F92CD01880F991FCB
:100CD000FC01E156FA4FE080F18000E010E0EFEC1B
:100CE000F5E034E0AA0FBB1F3A95E1F7AE0FBF1F46
:100CF000AD90BD90CD90DC90019623E0880F991FB8
:100D00002A95E1F7E80FF91F80819181A281B381D3
:100D1000EDB7FEB781839283A383B483CB01BA017D
:100D200020E030E040E050E00E94B0150F900F90BE
:100D30000F900F901F910F91FF90EF90DF90CF9049
:100D4000BF90AF900895AF92BF92CF92DF92EF9293
:100D5000FF920F931F93992787FD909500D00F92D4
:100D6000FC01EE0FFF1FED56FA4FE080F18000E02E
:100D700010E0B4E0880F991FBA95E1F7EFECF5E0C9
:100D8000DF01A80FB91F1496AD90BD90CD90DC90F7
:100D90001797E80FF91F84859585A685B785EDB768
:100DA000FEB781839283A383B483CB01BA0120E091
:100DB00030E040E050E00E94B0150F900F900F908F
:100DC0000F901F910F91FF90EF90DF90CF90BF9009
:100DD000AF90089597FF03C080E090E00EC0E091CF
:100DE0008406F0E0EE0FFF1FED56FA4F0190F08100
:100DF000E02DE817F90708F4CF0190938A06809355
:100E0000890677FF03C060E070E00EC0E0918406C1
:100E1000F0E0EE0FFF1FE156FA4F0190F081E02D58
:100E2000E617F70708F4BF0170938C0660938B06F2
:100E3000AC0160E070E0809184060E94A30660939C
:100E40008D0670938E0680938F0690939006409146
:100E50008B0650918C0660E070E0809184060E94C1
:100E60005706609391067093920680939306909331
:100E7000940608954091890650918A0620918B0628
:100E800030918C06260F371F840F951FB9010E94E1
:100E9000EA060895CF92DF92EF92FF920F931F938D
:100EA000DF93CF93CDB7DEB7EDB6FEB6CEB6809169
:100EB0003006882359F18DB79EB7805091400FB608
:100EC000F8949EBF0FBE8DBF0DB71EB70F5F1F4FAB
:100ED000FE013E96C80160E071E04C855D859F0192
:100EE0000E943D3B8AE199E06CE372E00E94461764
:100EF0008AE199E0B8010E9449172E2D3C2DC901C5
:100F00000FB6F8949EBF0FBE8DBF08C08DB79EB7B9
:100F10009C010FB6F8943EBF0FBE2DBF0FB6F894DC
:100F2000FEBE0FBEEDBECF91DF911F910F91FF90DE
:100F3000EF90DF90CF90089586E996E066E047E075
:100F400028E00E94AC1F1092CA061092CB061092A5
:100F5000CC061092CD061092CE061092CF061092BB
:100F6000D0061092D1061092D2061092D30610929B
:100F7000D4061092D5061092D6061092D70610927B
:100F8000D8061092D9060E9499116093DD067093DD
:100F9000DE068093DF069093E00608959091950613
:100FA00080912F06981711F40E945D040895909186
:100FB000950680912F06981711F40E945104089508
:100FC000EF92FF920F931F93CF93DF93EC017B017E
:100FD00080E00E947C1520913306309134068C010C
:100FE000021B130B81E00E947C1520913506309185
:100FF0003606821B930B9C01C8010496099710F4D6
:1010000000E010E0C9010496099710F420E030E0F8
:10101000C80160E870E00E94503E79836883C9018E
:1010200060E870E00E94503EF701718360830E9487
:1010300099117B018C018091DD069091DE06A091D3
:10104000DF06B091E006E816F9060A071B0740F430
:10105000E092DD06F092DE060093DF061093E006D4
:101060008091370690913806A0913906B0913A06E2
:101070002091DD063091DE064091DF065091E006BA
:10108000820F931FA41FB51F8E159F05A007B107E0
:1010900010F080E019C0E092DD06F092DE060093C9
:1010A000DF061093E00684E00E944C1520E0892BB7
:1010B00009F421E08091DC06882321F080E02223DE
:1010C00009F481E02093DC06DF91CF911F910F910D
:1010D000FF90EF90089584E060E00E94661484E041
:1010E00061E00E94191581E00E947C1590933406FE
:1010F0008093330680E00E947C159093360680939F
:101100003506089586E999E065E00E942A2688233D
:1011100029F50F920F928FE392E0EDB7FEB792831D
:1011200081830E944A0787E592E0EDB7FEB792837C
:1011300081830E944A078BE692E0EDB7FEB7928367
:1011400081830E944A0783E892E0EDB7FEB792835D
:1011500081830E944A070F900F90FFCF0F920F924A
:101160008CEB92E0EDB7FEB7928381830E944A0731
:101170000F900F9008950F931F9306E916E0C80192
:1011800061E00E94A323C80160E00E945622C801CA
:1011900060E070E040E050E00E949A1FC80160E00B
:1011A00070E00E94A61FC80161E00E94A01FC80154
:1011B0006FE170E00E9490201F910F910895EF92CF
:1011C000FF920F931F93CF93DF93EC018091DA0688
:1011D0009091DB068C179D0789F1D093DB06C093B5
:1011E000DA0686E996E060E070E044E950E020E845
:1011F00030E00CE010E0E0EEEE2EE7E0FE2E0E9484
:10120000DE2186E996E061E00E94A01F86E996E073
:101210006FE178EF0E94A61F86E996E060E070E03B
:1012200046E950E00E949A1F86E996E061E00E943C
:10123000A01F86E996E0BE010E944917DF91CF9179
:101240001F910F91FF90EF9008958BEC92E00E9418
:10125000DF08089504C08AE199E00E944B1A8AE1F0
:1012600099E00E941A1A892BB1F708958F929F92E4
:10127000AF92BF92CF92DF92EF92FF920F931F93A4
:10128000DF93CF93CDB7DEB728970FB6F894DEBFC4
:101290000FBECDBF8DB79EB74091EA0B5091EB0BBF
:1012A0004115510511F09A0104C020918F0530912C
:1012B00090056091310670913206821B930B861760
:1012C000970730F52DB73EB74115510521F44091F0
:1012D0008F055091900500D000D0EDB7FEB7319644
:1012E0008CEC92E0ADB7BEB712969C938E9311979B
:1012F000241B350B33832283758364830E944A0742
:10130000EDB7FEB736960FB6F894FEBF0FBEEDBF31
:101310008091C106882311F4992404C01092C1065B
:10132000992493941A8219821C821B82F8949091BA
:101330002F06809195068824981711F088248394AD
:101340007894882009F441C03091840680912F065A
:101350003817E9F020912F0600D000D0EDB7FEB786
:1013600031968DED92E0ADB7BEB712969C938E93F9
:10137000119732831382248315820E944A07EDB7A6
:10138000FEB736960FB6F894FEBF0FBEEDBF0E94B3
:1013900032064091400650914106569547958091FE
:1013A000890690918A06209142063091430636952F
:1013B000279560918B0670918C06621B730B841BC2
:1013C000950B0E94850499249394CE010196BE0149
:1013D0006D5F7F4F0E94E007D82E89819A81892B0B
:1013E00029F48B819C81892B09F457C0E0908506F4
:1013F000F09086060091870610918806CE0105962A
:10140000BE01695F7F4F0E946904882309F445C0CB
:101410008D819E818A30910548F4E0908506F09098
:10142000860680EE9FEFE80EF91E0DC08637910507
:1014300010F420E009C0E0908506F0908606A0E256
:10144000B0E0EA0EFB1E21E08F8198858A3091057D
:1014500038F40091870610918806005210400CC0A5
:101460008637910538F00091870610918806005E56
:101470001F4F02C0222339F0C701B8010E94850422
:10148000992493940AC00E94B8046B817C8189815D
:101490009A810E943A070E942405DD2009F41BC2AC
:1014A000EDB7FEB73A970FB6F894FEBF0FBEEDBF8B
:1014B000319684EF92E0ADB7BEB712969C938E93AF
:1014C00011978091910690919206A0919306B09108
:1014D000940682839383A483B58380918D06909133
:1014E0008E06A0918F06B091900686839783A08781
:1014F000B1870E944A07E0908D06F0908E06009119
:101500008F0610919006A0909106B0909206C09020
:101510009306D0909406EDB7FEB73A960FB6F894BE
:10152000FEBF0FBEEDBF8091C8069091C906892B02
:10153000E1F58DB79EB70A970FB6F8949EBF0FBE20
:101540008DBFEDB7FEB7319683E193E0ADB7BEB77F
:1015500012969C938E931197E282F38204831583F3
:10156000A682B782C086D1860E944A07A092CE0684
:10157000B092CF06C092D006D092D106E092CA06B1
:10158000F092CB060093CC061093CD0681E090E05C
:101590009093C9068093C806EDB7FEB73A960FB68A
:1015A000F894FEBF0FBEEDBF90C18DB79EB70A97EE
:1015B0000FB6F8949EBF0FBE8DBFEDB7FEB7319644
:1015C0008FE293E0ADB7BEB712969C938E931197BE
:1015D000E282F38204831583A682B782C086D18615
:1015E0000E944A07A092D606B092D706C092D806AB
:1015F000D092D906E092D206F092D3060093D40698
:101600001093D5061092C9061092C806EDB7FEB722
:1016100038970FB6F894FEBF0FBEEDBF319689E440
:1016200093E0ADB7BEB712969C938E9311978091BD
:10163000CE069091CF06A091D006B091D1068283BC
:101640009383A483B5838091CA069091CB06A09121
:10165000CC06B091CD0686839783A087B187A286FA
:10166000B386C486D5868091D2069091D306A09188
:10167000D406B091D50686879787A08BB18B0E9440
:101680004A07EDB7FEB772960FB6F894FEBF0FBECD
:10169000EDBF8AE199E067E773E00E944617409149
:1016A000CE065091CF066091D0067091D1068AE1A6
:1016B00099E02AE030E00E94D3168AE199E06AE7D7
:1016C00073E00E9446174091CA065091CB06609184
:1016D000CC067091CD068AE199E02AE030E00E94C4
:1016E000D3168AE199E06AE773E00E9446174091B9
:1016F000D6065091D7066091D8067091D9068AE136
:1017000099E02AE030E00E94D3168AE199E06AE786
:1017100073E00E9446174091D2065091D306609123
:10172000D4067091D5068AE199E02AE030E00E9463
:1017300013170F920F928CE793E0ADB7BEB71296D6
:101740009C938E9311970E944A070F900F902091BF
:10175000CA063091CB064091CC065091CD066091DF
:10176000CE067091CF068091D0069091D106A090C0
:10177000D206B090D306C090D406D090D506E090A3
:10178000D606F090D7060091D8061091D9060E948F
:101790006110BC01181619060CF089C08091C206B0
:1017A0009091C3068617970728F49093C5068093F7
:1017B000C40604C07093C5066093C4064091C20677
:1017C0005091C3068091C6069091C7060E94CD0E27
:1017D00097FD5AC00F920F928DE893E0EDB7FEB7D8
:1017E000928381830E944A0700E010E0EE24FF24E8
:1017F0000F900F90F3EACF2EF3E0DF2E3CC0209144
:10180000C6063091C7062E0D3F1D8DB79EB70C97AB
:101810000FB6F8949EBF0FBE8DBFEDB7FEB73196E1
:10182000ADB7BEB71296DC92CE92119713830283A6
:10183000D90114964D915D916D917C9117974483D8
:101840005583668377832D913D914D915C912087DF
:101850003187428753870E944A070F5F1F4FE8E096
:10186000F0E0EE0EFF1E8DB79EB70C960FB6F89403
:101870009EBF0FBE8DBF8091C4069091C50608170C
:10188000190708F4BCCF10C00F920F928FEA93E0B3
:10189000ADB7BEB712969C938E9311970E944A07DC
:1018A0000F900F900E942A09992493940EC00F92D2
:1018B0000F9280ED93E0EDB7FEB7928381830E9493
:1018C0004A070F900F900E942A090E942A098AE174
:1018D00099E00E94741A9920F1F00E94F5040E9488
:1018E00024050E9425098820B1F0F894809184068F
:1018F00080932F068093950678940F920F9280EE36
:1019000093E0ADB7BEB712969C938E9311970E9449
:101910004A070F900F908091C8069091C906892BB5
:1019200019F480EF93E002C086EF93E00E94DF0895
:1019300028960FB6F894DEBF0FBECDBFCF91DF91D2
:101940001F910F91FF90EF90DF90CF90BF90AF90DD
:101950009F908F900895CF92DF92EF92FF920F9316
:101960001F93CF93DF938AE199E040E855E260E06E
:1019700070E00E9494198AE199E06AEF73E00E9496
:1019800049178AE199E00E94741A0E94BB080E94DC
:1019900082080E946B080E942C04C0908406CC2D03
:1019A000D0E074E0CC0FDD1F7A95E1F76FECC62E26
:1019B00065E0D62ECC0EDD1EFE01ED52FA4FD601AB
:1019C0001C966D917D918D919C911F972081318105
:1019D00042815381620F731F841F951F22E030E004
:1019E00040E050E00E94853E79018A01C952DA4FF9
:1019F000688179818A819B81F601208131814281D0
:101A00005381620F731F841F951F22E030E040E076
:101A100050E00E94853EC801B7010E94D705809121
:101A20004006909141069695879540918506509184
:101A300086066091420670914306769567952091DF
:101A4000870630918806620F731F840F951F0E94CE
:101A5000EA0681E08093C10682E060E00E9466149D
:101A600082E061E00E94191583E060E00E94661444
:101A700083E061E00E94191581E067ED77E042E0C4
:101A800050E00E94621280E06EEC77E042E050E0AD
:101A90000E94621268EE73E080E090E00E94A7115D
:101AA0008CE291E09093C3068093C2068DB79EB7F7
:101AB0002091EA0B3091EB0B2115310511F0A901B2
:101AC00004C040918F05509190056091310670914E
:101AD0003206841B950B861B970B80569940B0F4F9
:101AE0008DB79EB72115310521F420918F053091D6
:101AF0009005821B930B861B970B03E096958795A9
:101B00000A95E1F79093C3068093C2068091C206BE
:101B10009091C30613E0880F991F1A95E1F70E9470
:101B20009E388093C6069093C70600D00F9286E039
:101B300094E0ADB7BEB712969C938E9311978091A7
:101B4000C2069091C30614969C938E9313970E949D
:101B50004A071092C5061092C4064DB75EB7209191
:101B6000EA0B3091EB0B0F900F900F900F90211517
:101B7000310521F420918F053091900500D00F920E
:101B800087E194E0EDB7FEB792838183421B530B4C
:101B9000548343830E944A070F900F900F900F9039
:101BA000DF91CF911F910F91FF90EF90DF90CF9039
:101BB0000895EF92FF920F931F93CF93DF93EC0161
:101BC00060E070E04AE050E00E94D3397B018C0174
:101BD000611571058105910551F52091E80B309152
:101BE000E90B2232310519F500D000D0EDB7FEB770
:101BF000319683E294E0ADB7BEB712969C938E9374
:101C0000119733832283D583C4830E944A078DB7FB
:101C10009EB706960FB6F8949EBF0FBE8DBF60911B
:101C2000E80B7091E90B80E090E00E94F71BB70190
:101C3000C801DF91CF911F910F91FF90EF90089510
:101C40004F925F926F927F928F929F92BF92CF92AC
:101C5000DF92EF92FF920F931F93CF93DF934B018D
:101C60006A01290138017C01E60EF71E00E010E050
:101C7000E801C80DD91DF701B080BB2099F0C20161
:101C8000801B910B0297A0F06B2D772767FD709555
:101C9000C3010E941A3B0F5F1F4F0894E11CF11C07
:101CA000009711F0219604C0F601B1926F01E0CFC8
:101CB000F6011082CE01DF91CF911F910F91FF901D
:101CC000EF90DF90CF90BF909F908F907F906F901C
:101CD0005F904F9008956F927F928F929F92AF92F4
:101CE000BF92CF92DF92EF92FF920F931F93CF9309
:101CF000DF934C013B0179018A010E9499115B013C
:101D00006C01AE0CBF1CC01ED11EC0E0D0E0089418
:101D1000610871082BC00E949911A616B706C80663
:101D2000D9067CF40F920F928FE494E0EDB7FEB7E2
:101D3000928381830E944A07C0E0D0E00F900F9009
:101D40001CC08AE199E00E941A1A892B21F38AE1CA
:101D500099E00E944B1AF401EC0FFD1F80838D3037
:101D600041F08A3031F0882321F02196C615D7053D
:101D700040F38C0E9D1EF4011082CE01DF91CF91B5
:101D80001F910F91FF90EF90DF90CF90BF90AF9099
:101D90009F908F907F906F9008952F923F924F92D7
:101DA0005F926F927F928F929F92AF92BF92EF92CB
:101DB000FF920F931F93DF93CF93CDB7DEB72B978F
:101DC0000FB6F894DEBF0FBECDBF782E692E2B0163
:101DD0008A012DB73EB73B872A878DB79EB780977C
:101DE0000FB6F8949EBF0FBE8DBFEDB6FEB6089439
:101DF000E11CF11CADB7BEB790970FB6F894BEBF0B
:101E00000FBEADBF8DB69EB60894811C911C8AE1B1
:101E100099E067E574E00E94461700D000D0EDB766
:101E2000FEB731968AE594E0ADB7BEB712969C93A3
:101E30008E93119753824282158304830E944A072E
:101E4000EDB7FEB736960FB6F894FEBF0FBEEDBFE6
:101E50001414150414F417FF1EC000D000D0EDB701
:101E6000FEB7319685E894E0ADB7BEB712969C9365
:101E70008E93119753824282158304830E944A07EE
:101E80002FEF3FEFEDB7FEB736960FB6F894FEBFD3
:101E90000FBEEDBFF7C03E2C2F2CB82CA92C872DE0
:101EA000962D9C01490166247724832D922D60E2B2
:101EB00070E020E137E240E050E00E946B0E892B99
:101EC00029F40F920F928DE994E079C00F920F924E
:101ED0002BEB34E0EDB7FEB7328321830E944A0733
:101EE000ADB7BEB711963C92119712962C920E94F4
:101EF0004A070F900F90832D922D62E070E04B2DDA
:101F00005A2D20E230E009EC14E00E94200E8C01F2
:101F10008B2D9A2D0E94D90D6E837F838887998798
:101F2000832D922DB8014B2D5A2D20E230E009EC83
:101F300014E00E94200E8B2D9A2D0E94D90D7B015A
:101F40008C018AE199E067E574E00E9446178E8172
:101F50009F81A885B985F40184839583A683B7837F
:101F6000D401ED92FD920D931C9313970894611C7C
:101F7000711CE8E0F0E08E0E9F1E641475040CF4F2
:101F800094CF2DB73EB7205230400FB6F8943EBFE5
:101F90000FBE2DBFEDB6FEB60894E11CF11C832DDB
:101FA000922D60E270E020E137E240E050E00E94D4
:101FB0006B0E892B89F40F920F928BEC94E0ADB7E6
:101FC000BEB712969C938E9311970E944A072FEFEB
:101FD0003FEF0F900F9056C00F920F922BEB34E013
:101FE000EDB7FEB7328321830E944A07BE2CAF2C87
:101FF0000F900F90832D922D60E070E0A70120E2FA
:1020000030E009EC14E00E94200E0F920F92ADB761
:10201000BEB71196EC9211971296FC920E944A0755
:10202000DE011396E1E0F5E083E001900D9281502E
:10203000E1F780910405909105059A8389830F90BB
:102040000F908B2D9A2DBE016D5F7F4F0E94253B17
:102050000097B1F48B2D9A2DBE016F5F7F4F0E94C8
:10206000253B009769F40F920F928CED94E0EDB749
:10207000FEB7928381830E944A0720E030E0A9CF17
:1020800021E030E0C9012A853B850FB6F8943EBFB8
:102090000FBE2DBF2B960FB6F894DEBF0FBECDBF7F
:1020A000CF91DF911F910F91FF90EF90BF90AF9074
:1020B0009F908F907F906F905F904F903F902F9068
:1020C0000895AF92BF92CF92DF92EF92FF920F935B
:1020D0001F93DF93CF93CDB7DEB762970FB6F89417
:1020E000DEBF0FBECDBF2B833C834D835E836F83EA
:1020F000788789879A87AB86BC86CD86DE86EF8611
:10210000F88A098B1A8BADB6BEB68DB79EB780978D
:102110000FB6F8949EBF0FBE8DBFCDB6DEB6089445
:10212000C11CD11CEDB7FEB7B0970FB6F894FEBF37
:102130000FBEEDBFEDB6FEB60894E11CF11C809118
:102140005105909152059A8389830F920F9286E0F0
:1021500095E0EDB7FEB7928381830E944A070F9006
:102160000F90C60160E270E028EE33E040E050E0FE
:102170000E946B0E892B29F40F920F928BEC94E046
:102180006FC00F920F928BEB94E0EDB7FEB7928386
:1021900081830E944A07EDB7FEB7C182D2820E94B6
:1021A0004A070F900F90C60160E070E0A70120E29F
:1021B00030E009EC14E00E94200E8C010F920F9287
:1021C000EDB7FEB7E182F2820E944A070F900F90AE
:1021D000C701BE016F5F7F4F0E94253B0097E1F56D
:1021E0000F920F9280E295E0EDB7FEB79283818364
:1021F0000E944A070F900F90C601B801A70120E284
:1022000030E009EC14E00E94200E0F920F92EDB71F
:10221000FEB7E182F2820E944A070F900F90C70139
:102220000E94D90D7B018C0100D000D08EE295E098
:10223000EDB7FEB792838183E382F4820583168330
:102240000E944A0797018DB79EB706960FB6F8947D
:102250009EBF0FBE8DBF0EC00F920F9281E495E01E
:10226000EDB7FEB7928381830E944A072FEF3FEFBD
:102270000F900F90C9010FB6F894BEBE0FBEADBE51
:1022800062960FB6F894DEBF0FBECDBFCF91DF913F
:102290001F910F91FF90EF90DF90CF90BF90AF9084
:1022A00008951F920F920FB60F9211242F933F9310
:1022B0008F939F93AF93BF938091E5069091E6062D
:1022C000A091E706B091E8063091E9060196A11DBC
:1022D000B11D232F2D5F2D3720F02D570196A11D05
:1022E000B11D2093E9068093E5069093E606A0933E
:1022F000E706B093E8068091E1069091E206A0918E
:10230000E306B091E4060196A11DB11D8093E1069C
:102310009093E206A093E306B093E406BF91AF91D9
:102320009F918F913F912F910F900FBE0F901F9013
:1023300018958FB7F8942091E5063091E606409104
:10234000E7065091E8068FBFB901CA0108959B01C5
:10235000AC017FB7F8948091E1069091E206A091DC
:10236000E306B091E40666B5A89B05C06F3F19F07F
:102370000196A11DB11D7FBFBA2FA92F982F8827C5
:10238000860F911DA11DB11D62E0880F991FAA1F24
:10239000BB1F6A95D1F7BC012DC0FFB7F89480919F
:1023A000E1069091E206A091E306B091E406E6B55D
:1023B000A89B05C0EF3F19F00196A11DB11DFFBFFD
:1023C000BA2FA92F982F88278E0F911DA11DB11DFF
:1023D000E2E0880F991FAA1FBB1FEA95D1F7861B61
:1023E000970B885E9340C8F22150304040405040E7
:1023F00068517C4F211531054105510571F608954D
:10240000789484B5826084BD84B5816084BD85B5CF
:10241000826085BD85B5816085BDEEE6F0E0808196
:1024200081608083E1E8F0E01082808182608083B7
:10243000808181608083E0E8F0E08081816080833A
:10244000E1EBF0E0808184608083E0EBF0E080816C
:1024500081608083E1E9F0E0808182608083808117
:1024600081608083E0E9F0E0808181608083E1EA3F
:10247000F0E0808182608083808181608083E0EAF7
:10248000F0E0808181608083E1E2F1E08081826020
:102490008083808181608083E0E2F1E080818160DF
:1024A0008083EAE7F0E080818460808380818260BD
:1024B00080838081816080838081806880831092A6
:1024C000C1000895883008F078C0E82FF0E0EE0FE2
:1024D000FF1FE651F94F718360838330D9F0843058
:1024E00030F4813009F444C0823060F439C0853062
:1024F00051F18530D8F0863009F446C0873009F0B4
:102500005CC04FC0809169008C7F842B80936900F0
:10251000E89A089580916900440F551F440F551F94
:10252000837F842B80936900E99A089580916900E4
:1025300074E0440F551F7A95E1F78F7C842B8093CC
:102540006900EA9A08958091690066E0440F551F7A
:102550006A95E1F78F73842B80936900EB9A089555
:1025600080916A008C7F842B80936A00EC9A089596
:1025700080916A00440F551F440F551F837F842BA1
:1025800080936A00ED9A089580916A0024E0440FD8
:10259000551F2A95E1F78F7C842B80936A00EE9A71
:1025A000089580916A0096E0440F551F9A95E1F7CF
:1025B0008F73842B80936A00EF9A08951F920F9275
:1025C0000FB60F920BB60F9211242F933F934F9398
:1025D0005F936F937F938F939F93AF93BF93EF938B
:1025E000FF938091EE069091EF06892B29F0E09100
:1025F000EE06F091EF061995FF91EF91BF91AF9123
:102600009F918F917F916F915F914F913F912F910A
:102610000F900BBE0F900FBE0F901F9018951F923A
:102620000F920FB60F920BB60F9211242F933F9378
:102630004F935F936F937F938F939F93AF93BF93CA
:10264000EF93FF938091F0069091F106892B29F08A
:10265000E091F006F091F1061995FF91EF91BF918D
:10266000AF919F918F917F916F915F914F913F912A
:102670002F910F900BBE0F900FBE0F901F901895CB
:102680001F920F920FB60F920BB60F9211242F9339
:102690003F934F935F936F937F938F939F93AF93EA
:1026A000BF93EF93FF938091F2069091F306892BED
:1026B00029F0E091F206F091F3061995FF91EF9160
:1026C000BF91AF919F918F917F916F915F914F914A
:1026D0003F912F910F900BBE0F900FBE0F901F9048
:1026E00018951F920F920FB60F920BB60F921124EE
:1026F0002F933F934F935F936F937F938F939F930A
:10270000AF93BF93EF93FF938091F4069091F506FA
:10271000892B29F0E091F406F091F5061995FF91C7
:10272000EF91BF91AF919F918F917F916F915F9149
:102730004F913F912F910F900BBE0F900FBE0F90B6
:102740001F9018951F920F920FB60F920BB60F9213
:1027500011242F933F934F935F936F937F938F93A6
:102760009F93AF93BF93EF93FF938091EA0690916D
:10277000EB06892B29F0E091EA06F091EB0619951A
:10278000FF91EF91BF91AF919F918F917F916F9149
:102790005F914F913F912F910F900BBE0F900FBE05
:1027A0000F901F9018951F920F920FB60F920BB6B5
:1027B0000F9211242F933F934F935F936F937F93C7
:1027C0008F939F93AF93BF93EF93FF938091EC060A
:1027D0009091ED06892B29F0E091EC06F091ED0641
:1027E0001995FF91EF91BF91AF919F918F917F913B
:1027F0006F915F914F913F912F910F900BBE0F9072
:102800000FBE0F901F9018951F920F920FB60F9248
:102810000BB60F9211242F933F934F935F936F93B7
:102820007F938F939F93AF93BF93EF93FF93809189
:10283000F6069091F706892B29F0E091F606F091C3
:10284000F7061995FF91EF91BF91AF919F918F91ED
:102850007F916F915F914F913F912F910F900BBEA0
:102860000F900FBE0F901F9018951F920F920FB6EA
:102870000F920BB60F9211242F933F934F935F93B8
:102880006F937F938F939F93AF93BF93EF93FF9338
:102890008091F8069091F906892B29F0E091F806CD
:1028A000F091F9061995FF91EF91BF91AF919F912A
:1028B0008F917F916F915F914F913F912F910F90E9
:1028C0000BBE0F900FBE0F901F901895CF93DF9304
:1028D000482F50E0CA0188589E4FFC0134914E5C4D
:1028E0005E4FFA018491882369F190E0880F991F67
:1028F000FC01EC51FF4FA591B491FC01E250FF4F58
:10290000C591D491662351F42FB7F8948C91932FED
:10291000909589238C93888189230BC0623061F460
:102920002FB7F8948C91932F909589238C9388815D
:10293000832B88832FBF06C09FB7F8948C91832B7D
:102940008C939FBFDF91CF910895893009F449C0DE
:102950008A30A0F4843051F1853040F4823079F12E
:10296000833000F5813009F063C026C0873079F1EB
:10297000883098F5863009F05BC025C08D3009F4A9
:1029800042C08E3028F48B30B1F18C30C0F52DC0B0
:10299000803109F442C0813109F445C08F3009F01B
:1029A00047C037C0809180008F7703C0809180003E
:1029B0008F7D80938000089584B58F7702C084B5A1
:1029C0008F7D84BD08958091B0008F7703C0809182
:1029D000B0008F7D8093B0000895809190008F7734
:1029E00007C0809190008F7D03C080919000877F09
:1029F0008093900008958091A0008F7707C0809108
:102A0000A0008F7D03C08091A000877F8093A000ED
:102A10000895809120018F7703C0809120018F7DE0
:102A200080932001089580912001877F8093200169
:102A30000895FF920F931F93F62E482F50E0CA017E
:102A400082549E4FFC012491CA0188589E4FFC017C
:102A500014914E5C5E4FFA0104910023C9F02223C9
:102A600019F0822F0E94A514E02FF0E0EE0FFF1F57
:102A7000E250FF4FA591B4919FB7F894FF2021F445
:102A80008C911095812302C08C91812B8C939FBFD8
:102A90001F910F91FF9008950F931F93482F50E0BF
:102AA000CA0182549E4FFC012491CA0188589E4F4E
:102AB000FC0104914E5C5E4FFA011491112319F44C
:102AC00020E030E015C0222319F0822F0E94A514C7
:102AD000812F90E0880F991F885E9E4FFC01A59181
:102AE000B4918C9120E030E0802311F021E030E0BF
:102AF000C9011F910F910895382F863308F036537E
:102B000020917B00832F86958695869590E0817035
:102B1000907043E0880F991F4A95E1F7277F282B93
:102B200020937B00377080913B068295880F880F39
:102B3000807C832B80937C0080917A0080648093DA
:102B40007A0080917A0086FDFCCF20917800409138
:102B50007900942F80E030E0282B392BC9010895AB
:102B60002F923F924F925F926F927F928F929F929D
:102B7000AF92BF92CF92DF92EF92FF920F931F938B
:102B8000DF93CF93CDB7DEB73B014C0119012A018A
:102B90006E897F89888D998D6A197B098C099D09B9
:102BA000621A730A840A950AA40193010E941D3EC9
:102BB000E218F30804091509A80197010E94853E4F
:102BC0002A0D3B1D4C1D5D1DB901CA01CF91DF913E
:102BD0001F910F91FF90EF90DF90CF90BF90AF903B
:102BE0009F908F907F906F905F904F903F902F902D
:102BF0000895CF92DF92EF92FF920F931F93CF939E
:102C0000DF937C016B018A01C0E0D0E00FC0D601E8
:102C10006D916D01D701ED91FC910190F081E02D56
:102C2000C7011995C80FD91F015010400115110592
:102C300071F7CE01DF91CF911F910F91FF90EF902F
:102C4000DF90CF900895EF92FF920F931F938C0126
:102C5000DC01ED91FC910190F081E02D6DE0199582
:102C60007C01D801ED91FC910190F081E02DC8012B
:102C70006AE019959C012E0D3F1DC9011F910F910E
:102C8000FF90EF900895EF92FF920F931F937C01B6
:102C9000DC01ED91FC910190F081E02D19958C0102
:102CA000C7010E942316080F191FC8011F910F9119
:102CB000FF90EF900895CF93DF93DB010D900020FC
:102CC000E9F71197A61BB70BEC01E881F9810280A7
:102CD000F381E02DAD011995DF91CF9108954F92C9
:102CE0005F927F928F929F92AF92BF92CF92DF922C
:102CF000EF92FF920F931F93DF93CF93CDB7DEB781
:102D0000A1970FB6F894DEBF0FBECDBF2C01742E75
:102D1000CB01223008F42AE019A231E2C32ED12CD3
:102D2000CC0EDD1E822E9924AA24BB24672D752F7C
:102D3000A50194010E94633E79018A01C801B7018F
:102D4000A50194010E941D3E472D461B0894C10811
:102D5000D1084A3014F4405D01C0495CF60140835B
:102D6000E114F1040105110521F07E2C5F2DC8014D
:102D7000DDCFC201B6010E945B16A1960FB6F89492
:102D8000DEBF0FBECDBFCF91DF911F910F91FF909E
:102D9000EF90DF90CF90BF90AF909F908F907F90FB
:102DA0005F904F900895CF92DF92EF92FF920F9332
:102DB0001F93CF93DF93EC016A017B01211531054D
:102DC00041F4E881F9810190F081E02D642F19959B
:102DD0001FC02A303105D1F477FF17C0E881F9818F
:102DE0000190F081E02D6DE219958C014427552763
:102DF000BA014C195D096E097F09CE012AE00E94D3
:102E00006F169801280F391F04C02AE00E946F1620
:102E10009C01C901DF91CF911F910F91FF90EF901D
:102E2000DF90CF900895EF92FF920F931F937C0154
:102E30000E94D3168C01C7010E9423169C01200F0B
:102E4000311FC9011F910F91FF90EF900895CF920C
:102E5000DF92EF92FF920F931F936C017B019A0117
:102E60000027F7FC0095102FB801A7010E94D31688
:102E70008C01C6010E942316080F191FC8011F915B
:102E80000F91FF90EF90DF90CF9008950E945B1616
:102E90000895EF92FF920F931F937C010E945B169F
:102EA0008C01C7010E942316080F191FC8011F912A
:102EB0000F91FF90EF900895CF93DF930E9400123F
:102EC0000E94AB0CCFE4D8E10E9436092097E1F3D1
:102ED0000E944F18F9CF08951F920F920FB60F92CC
:102EE0000BB60F9211242F933F934F938F939F9381
:102EF000EF93FF934091C60020913A0730913B0732
:102F00002F5F3F4F2F73307080913C0790913D07AA
:102F10002817390759F0E0913A07F0913B07E6503E
:102F2000F94F408330933B0720933A07FF91EF918D
:102F30009F918F914F913F912F910F900BBE0F90CA
:102F40000FBE0F901F90189508951F920F920FB605
:102F50000F920BB60F9211242F933F934F938F93A1
:102F60009F93EF93FF934091CE002091C207309141
:102F7000C3072F5F3F4F2F7330708091C40790912C
:102F8000C5072817390759F0E091C207F091C30728
:102F9000EE57F84F40833093C3072093C207FF9149
:102FA000EF919F918F914F913F912F910F900BBE79
:102FB0000F900FBE0F901F90189508951F920F92BB
:102FC0000FB60F920BB60F9211242F933F934F938E
:102FD0008F939F93EF93FF934091D60020914A08DF
:102FE00030914B082F5F3F4F2F73307080914C080A
:102FF00090914D082817390759F0E0914A08F0914F
:103000004B08E65FF74F408330934B0820934A0804
:10301000FF91EF919F918F914F913F912F910F9041
:103020000BBE0F900FBE0F901F90189508951F9222
:103030000F920FB60F920BB60F9211242F933F935E
:103040004F938F939F93EF93FF934091360120917D
:10305000D2083091D3082F5F3F4F2F73307080918B
:10306000D4089091D5082817390759F0E091D20873
:10307000F091D308EE56F74F40833093D308209356
:10308000D208FF91EF919F918F914F913F912F9196
:103090000F900BBE0F900FBE0F901F901895E091F0
:1030A0002609F0912709E05CFF4F819191912081E1
:1030B0003181821B930B8F739070892B11F00E94CA
:1030C0006B17E0914509F0914609E05CFF4F819153
:1030D000919120813181821B930B8F739070892B8A
:1030E00011F00E94A417E0916409F0916509E05C79
:1030F000FF4F8191919120813181821B930B8F73BE
:103100009070892B11F00E94DD17E0918309F091F6
:103110008409E05CFF4F8191919120813181821B74
:10312000930B8F739070892B11F00E9416180895DD
:103130001F920F920FB60F920BB60F9211242F937E
:103140003F938F939F93EF93FF9320917E0730914E
:103150007F0780918007909181072817390731F404
:103160008091C1008F7D8093C10014C0E0918007E1
:10317000F0918107E25CF84F208180918007909167
:10318000810701968F7390709093810780938007D9
:103190002093C600FF91EF919F918F913F912F91C6
:1031A0000F900BBE0F900FBE0F901F9018951F929F
:1031B0000F920FB60F920BB60F9211242F933F93DD
:1031C0008F939F93EF93FF93209106083091070808
:1031D00080910808909109082817390731F48091E7
:1031E000C9008F7D8093C90014C0E0910808F09158
:1031F0000908EA53F84F2081809108089091090846
:1032000001968F739070909309088093080820931B
:10321000CE00FF91EF919F918F913F912F910F9051
:103220000BBE0F900FBE0F901F9018951F920F921C
:103230000FB60F920BB60F9211242F933F938F93DB
:103240009F93EF93FF9320918E0830918F08809188
:103250009008909191082817390731F48091D10096
:103260008F7D8093D10014C0E0919008F091910877
:10327000E25BF74F20818091900890919108019630
:103280008F73907090939108809390082093D6004C
:10329000FF91EF919F918F913F912F910F900BBED6
:1032A0000F900FBE0F901F9018951F920F920FB6A0
:1032B0000F920BB60F9211242F933F938F939F93EE
:1032C000EF93FF9320911609309117098091180907
:1032D000909119092817390731F4809131018F7DB8
:1032E0008093310114C0E0911809F0911909EA5254
:1032F000F74F2081809118099091190901968F73D9
:103300009070909319098093180920933601FF91CA
:10331000EF919F918F913F912F910F900BBE0F9046
:103320000FBE0F901F901895AF92BF92DF92EF9251
:10333000FF920F931F93CF93DF93EC017A018B01E0
:10334000DD24403081EE580780E0680780E0780790
:1033500011F0DD24D39491E0A92EB12CEC89FD89E4
:10336000DD2069F0C5010E8C02C0880F991F0A94F8
:10337000E2F7808360E079E08DE390E005C01082A1
:1033800060E874E88EE190E0A80197010E94633E36
:1033900021503040404050405695479537952795ED
:1033A00080E12030380720F0DD2011F0DD24D6CF79
:1033B000E889F9893083EA89FB892083EE89FF89CE
:1033C000408121E030E0C9010A8C02C0880F991FBA
:1033D0000A94E2F7482B4083EE89FF894081C901B6
:1033E0000B8C02C0880F991F0A94E2F7482B408388
:1033F000EE89FF894081C9010C8C02C0880F991F9A
:103400000A94E2F7482B4083EE89FF8980810D8C76
:1034100002C0220F331F0A94E2F72095282320834D
:10342000DF91CF911F910F91FF90EF90DF90BF90B0
:10343000AF900895DC011C96ED91FC911D97E05C26
:10344000FF4F2191319180819181281B390B2F737E
:103450003070C9010895DC011C96ED91FC911D9717
:10346000E05CFF4F20813181E054F040DF01AE5B32
:10347000BF4F8D919C9111972817390719F42FEFA1
:103480003FEF07C08D919C91E80FF91F8081282F95
:1034900030E0C9010895DC011C96ED91FC911D9767
:1034A000E05CFF4F20813181E054F040DF01AE5BF2
:1034B000BF4F8D919C9111972817390719F42FEF61
:1034C0003FEF10C08D919C911197E80FF91F20815B
:1034D0008D919C91119701968F73907011969C938A
:1034E0008E9330E0C9010895FC0186859785DC0143
:1034F000A05CBF4FFC01EE5BFF4F2D913C911197FB
:103500008081918128173907C1F70895CF93DF9300
:10351000EC01EE85FF85E05CFF4F20813181E054B6
:10352000F0402F5F3F4F2F733070DF01AE5BBF4F16
:103530008D919C91119728173907D1F3E05CFF4FCB
:1035400080819181E054F040E80FF91F6083EE859F
:10355000FF85E05CFF4F31832083EE89FF89208166
:1035600081E090E00D8C02C0880F991F0A94E2F769
:10357000282B208381E090E0DF91CF9108951F9365
:1035800010921D0910921C0928EE33E040E050E033
:1035900020931E0930931F0940932009509321095D
:1035A00068E476E070931B0960931A098AEF96E04D
:1035B00090932709809326098EE397E09093290939
:1035C0008093280985EC90E090932B0980932A0939
:1035D00084EC90E090932D0980932C0980EC90E08E
:1035E00090932F0980932E0981EC90E090933109FC
:1035F0008093300986EC90E09093330980933209F0
:1036000014E010933409B3E0B0933509A7E0A09318
:103610003609F5E0F0933709E1E0E09338091092BC
:103620003C0910923B0920933D0930933E09409399
:103630003F095093400970933A096093390982E831
:1036400097E0909346098093450986EC97E0909324
:103650004809809347098DEC90E090934A09809344
:1036600049098CEC90E090934C0980934B0988ECCD
:1036700090E090934E0980934D0989EC90E09093EF
:10368000500980934F098EEC90E0909352098093FB
:10369000510910935309B0935409A0935509F0931D
:1036A0005609E093570910925B0910925A0920932A
:1036B0005C0930935D0940935E0950935F097093F4
:1036C0005909609358098AE098E0909365098093BE
:1036D00064098EE498E0909367098093660985ED0C
:1036E00090E0909369098093680984ED90E090934D
:1036F0006B0980936A0980ED90E090936D09809347
:103700006C0981ED90E090936F0980936E0986EDCE
:1037100090E0909371098093700910937209B093AF
:103720007309A0937409F0937509E09376091092D8
:103730007A091092790920937B0930937C09409390
:103740007D0950937E09709378096093770982E927
:1037500098E0909384098093830986ED98E0909394
:1037600086098093850985E391E090938809809389
:10377000870984E391E090938A098093890980E323
:1037800091E090938C0980938B0981E391E0909371
:103790008E0980938D0986E391E090939009809340
:1037A0008F0910939109B0939209A0939309F09314
:1037B0009409E09395091F910895CF93DF93C0E09A
:1037C000D0E006C0C60FD71F6150704080409040C7
:1037D0006115710581059105A9F78AE199E063E515
:1037E00075E00E944617CE01DF91CF910895CF93E7
:1037F000DF93EB01892B39F58AE199E064E575E007
:103800000E944917F8948DE061E00E9466148AE1F5
:1038100099E0BE014AE050E00E9427178DE060E089
:103820000E94191560E472E48FE090E00E94DD1BB5
:103830008DE061E00E94191560E472E48FE090E091
:103840000E94DD1BE4CFDF91CF910895FC017583C9
:103850006483718760875783468353874287158ABD
:10386000158614861786168621E0248B8FEF9FEF2E
:10387000938B828B918B808B268B08952F923F9216
:103880004F925F926F927F928F929F92AF92BF9270
:10389000CF92DF92EF92FF920F931F93DF93CF931C
:1038A000CDB7DEB72E970FB6F894DEBF0FBECDBFF3
:1038B0009E878D871B015E834D83A701260171E0E2
:1038C000C72ED12CC21AD30AC901880F991F6627A7
:1038D0007727681B790B7A8369836D807E800894D3
:1038E0006108710883E0882E912C8E0C9F1C790151
:1038F00081E090E09C838B83AA24BB2410E0D80154
:10390000A170B070B887AF83FA013196FA87E98762
:10391000B801627070707C876B8777C0D7FC0AC073
:103920000894E108F10889819A8102969A83898333
:10393000C80ED91E0894A11CB11CAB81BC81129683
:10394000BC83AB83EF81F885EF2B41F1AD85BE855C
:10395000ED91FC911197B501620D731D4D815E8152
:103960004E195F099701220F331F89859A85280F09
:10397000391F0284F385E02DCD0182011995AD85B3
:10398000BE85ED91FC911197B701620D731D028404
:10399000F385E02DCD01A30194011995EB85FC85FC
:1039A000EF2B41F1AD85BE85ED91FC911197B101F1
:1039B0006A197B094D815E814E195F099701220FBB
:1039C000331F89859A85280F391F0284F385E02DDE
:1039D000CD0182011995AD85BE85ED91FC911197C0
:1039E000B1016E197F090284F385E02DCD01A30199
:1039F00094011995EB81FC81CE0EDF1E08946108BD
:103A0000710862E070E0860E971EAE14BF040CF4DD
:103A100085CF2E960FB6F894DEBF0FBECDBFCF91E7
:103A2000DF911F910F91FF90EF90DF90CF90BF90AB
:103A3000AF909F908F907F906F905F904F903F904E
:103A40002F9008956F927F928F929F92AF92BF9224
:103A5000CF92DF92EF92FF920F931F937C014B0165
:103A60003A0159016801DC01ED91FC91421B530BB5
:103A7000220F331F2F5F3F4F0284F385E02D1995EE
:103A8000C701B401A301950103E0EE24FF240E94C5
:103A90003E1C1F910F91FF90EF90DF90CF90BF9051
:103AA000AF909F908F907F906F9008952F923F924C
:103AB0004F925F926F927F928F929F92AF92BF923E
:103AC000CF92DF92EF92FF920F931F93DF93CF93EA
:103AD00000D00F92CDB7DEB73C017C836B836A01C7
:103AE0005901FA82E982222433249801241B350BE0
:103AF00037FF03C0309521953F4FC5014B815C8155
:103B0000841B950B97FF03C0909581959F4F82175B
:103B100093075CF481E0282E312CC601CB80DC8039
:103B20009C838B83C80185015C018B819C81A816D5
:103B3000B90644F4C501AB80BC809C838B83C8016B
:103B400086016C012501AB81BC814A1A5B0A7801B0
:103B5000EC18FD08F7FE04C0F094E194F108F3942A
:103B6000C016D10624F088248A94982C03C0B1E0B2
:103B70008B2E912CC20162E070E00E94503E8B01BE
:103B800025C0D301ED91FC912114310441F0048052
:103B9000F581E02DC301B6014B815C8107C0048033
:103BA000F581E02DC3016B817C81A60129813A81D9
:103BB00019950E191F0917FF04C0C80CD91C040D54
:103BC000151DEB81FC813196FC83EB834B815C817D
:103BD000A416B506B4F60F900F900F900F90CF91EA
:103BE000DF911F910F91FF90EF90DF90CF90BF90EA
:103BF000AF909F908F907F906F905F904F903F908D
:103C00002F9008954F925F926F927F928F929F9222
:103C1000AF92BF92CF92DF92EF92FF920F931F93DA
:103C20006C015B014A0139012801DC01ED91FC9135
:103C30000484F585E02D87011995D601ED91FC915D
:103C4000A40141505040440D551D0484F585E02DDC
:103C5000C601B50193011995D601ED91FC9102843D
:103C6000F385E02DC601B501A40192011995D60195
:103C7000ED91FC910894A108B108A60CB71C028430
:103C8000F385E02DC601B501A401920119951F919C
:103C90000F91FF90EF90DF90CF90BF90AF909F90EB
:103CA0008F907F906F905F904F9008952F923F92EA
:103CB0004F925F926F927F928F929F92AF92BF923C
:103CC000CF92DF92EF92FF920F931F93DF93CF93E8
:103CD000CDB7DEB72F970FB6F894DEBF0FBECDBFBE
:103CE0005C015E834D8318870F83FA86E986CB8655
:103CF000DC0118968D919C911997681779070CF043
:103D0000A4C01A968D919C911B97481759070CF0E7
:103D10009CC0EC2DF0E0FF87EE87CF01880F991F44
:103D2000880F991F8E0F9F1F860F971F1816190651
:103D30000CF08BC0CF01A3E0880F991FAA95E1F783
:103D4000840F951F181619060CF07FC085E0289F78
:103D5000A00111245A8349832B011B011C825C8121
:103D6000553011F480E005C0E981FA81EC5FFD4F28
:103D700084912C863D866D807E8043011B82C82EF7
:103D8000DD2480FF1CC0D501ED91FC91BB85B130D5
:103D900049F40480F581E02DC501B201A3012F8112
:103DA000388522C00088F189E02DC5016C857D85AC
:103DB000A4012E853F858901EF80F88423C0E98521
:103DC000FA852F813885E217F307E9F0D501ED91E7
:103DD000FC91BB85B13051F40480F581E02DC50123
:103DE000B201A30129853A8519950DC00088F18992
:103DF000E02DC5016C857D85A4012E853F85890157
:103E0000E984FA841995EB81EF5FEB832E853F857A
:103E1000820E931E0894611C711CE83021F0D59429
:103E2000C7948C2DACCF3C813F5F3C834E855F8532
:103E3000240E351E0894411C511C89819A810196DB
:103E40009A838983363009F08ACF2F960FB6F8947B
:103E5000DEBF0FBECDBFCF91DF911F910F91FF90BD
:103E6000EF90DF90CF90BF90AF909F908F907F901A
:103E70006F905F904F903F902F900895CF92EF9268
:103E8000FF920F931F93CF93DF93EC01262F6A309D
:103E900061F42C8930E003E0220F331F0A95E1F72B
:103EA0008E859F85820F931F37C06D30C9F16C8559
:103EB0007D854E855F8508891989EA88FB88CC88CD
:103EC0000E94561E2C8986E0289FB00111248C8503
:103ED0009D85680F791F7D876C878E89882301F106
:103EE000422F50E08AEF9FEF9C01429FC001439F09
:103EF000900D529F900D112428853985820F931FB4
:103F0000861797076CF413E0440F551F1A95E1F7D5
:103F10008E859F85840F951F9F878E871D861C86A3
:103F200081E090E0DF91CF911F910F91FF90EF9092
:103F3000CF900895FC017587648757874687089559
:103F4000FC01662309F461E0648B0895FC01718B28
:103F5000608B738B628B0895FC011382128288E55B
:103F600096E09183808360A341A322A381E0878BA5
:103F700014A213A20895DC0157968C9157978823B9
:103F800029F06EBD0DB407FEFDCF089530E840E086
:103F900050E070E0832F90E0862397235896ED91B0
:103FA000FC91599795962C919597892B21F08081BA
:103FB000822B808304C080812095282320835A96F9
:103FC000ED91FC915B97808196969C919697892BB9
:103FD00080835A96ED91FC915B97908196968C9197
:103FE000969780958923808336954F5F5F4F483041
:103FF000510581F608950F931F938C01DC015E96A5
:10400000ED91FC915F97908198968C91989780950F
:10401000892380835C96ED91FC915D9790819796C2
:104020008C91809589238083C8010E94BB1FD80191
:104030005C96ED91FC915D97808197969C91892B80
:1040400080831F910F9108950F931F938C01DC01C2
:104050005E96ED91FC915F97808198969C919897E0
:10406000892B80835C96ED91FC915D97908197966A
:104070008C91809589238083C8010E94BB1FD80141
:104080005C96ED91FC915D97808197969C91892B30
:1040900080831F910F910895CF92DF92EF92FF924C
:1040A0000F931F937C01162FC42ED22E6AE20E941A
:1040B000FB1FC70160E00E942420F70161A5610F8A
:1040C000C7010E942420C70160E00E942420F7015C
:1040D00061A56D0DC7010E942420C7016BE20E94FB
:1040E000FB1FC70160E00E942420F70162A56C0D50
:1040F000C7010E942420C70160E00E942420F7012C
:1041000062A5600FC7010E942420C7016CE20E94D3
:10411000FB1F1F910F91FF90EF90DF90CF900895BC
:10412000EF92FF920F931F93CF93DF93EC017B01EC
:10413000288521500A85015060E040E00E944C2013
:10414000EE8DFF8D808198A5892B8083EC8DFD8D70
:1041500090818FA18095892380831A850EC0088560
:1041600009C0CE016F2D0E94BB1FCE016E2D0E9493
:10417000BB1F01500023A9F71150112381F7EC8DCB
:10418000FD8D80819FA1892B8083DF91CF911F912D
:104190000F91FF90EF900895FF920F931F938C0162
:1041A000F62E672FDC015E96ED91FC915F97808182
:1041B00098969C919897892B80835C96ED91FC91C1
:1041C0005D97908197968C91809589238083C80113
:1041D0000E94BB1FC8016F2D0E94BB1FD8015C96B7
:1041E000ED91FC915D97808197969C91892B8083BE
:1041F0001F910F91FF900895FF920F931F93CF93FC
:10420000DF93EC01F22E132F77FD2EC08885998560
:10421000681779074CF557FD27C08A859B85481795
:10422000590714F5262F2F5F042F0F5FCE010E9430
:104230004C20EE8DFF8D808198A5892B8083EC8D9D
:10424000FD8D90818FA1809589238083CE01612F80
:104250000E94BB1FCE016F2D0E94BB1FEC8DFD8DF8
:1042600080819FA1892B8083DF91CF911F910F9136
:10427000FF900895DF92EF92FF920F931F93CF93D9
:10428000DF93EC01FB017901D02E888599856817B1
:104290007907D4F52A853B8542175307ACF5C7014A
:1042A000840F951F281739071CF47901E41AF50AC1
:1042B000042F01500E0DCE016E2F2E2F0E944C2088
:1042C000EE8DFF8D808198A5892B8083EC8DFD8DEF
:1042D00090818FA180958923808308C0CE01612FB2
:1042E0000E94BB1FCE016D2D0E94BB1F0894E108E8
:1042F000F1088FEFE8168FEFF80681F7EC8DFD8D52
:1043000080819FA1892B8083DF91CF911F910F9195
:10431000FF90EF90DF900895DF92EF92FF920F935E
:104320001F93CF93DF93EC01FA017901D02E2885FA
:10433000398562177307D4F58A859B854817590715
:10434000ACF5C701860F971F281739071CF47901B0
:10435000E61AF70A262F21502E0DCE014E2F0E2FD2
:104360000E944C20EE8DFF8D808198A5892B808343
:10437000EC8DFD8D90818FA180958923808308C06D
:10438000CE01612F0E94BB1FCE016D2D0E94BB1F6D
:104390000894E108F1088FEFE8168FEFF80681F72F
:1043A000EC8DFD8D80819FA1892B8083DF91CF9142
:1043B0001F910F91FF90EF90DF900895AF92BF9201
:1043C000CF92DF92EF92FF920F931F93CF93DF93E1
:1043D0006C015901E801DC0118962D913C91199767
:1043E000621773070CF057C01A96ED91FC911B975A
:1043F0004E175F070CF04FC0C501860F971F281797
:1044000039071CF45901A61AB70ACE01840F951F6B
:10441000E817F9071CF4EF01C41BD50B262F215018
:104420002A0D042F01500C0FC6010E944C20D6010A
:104430005E96ED91FC915F97808198969C919897FC
:10444000892B80835C96ED91FC915D979081979686
:104450008C918095892380838E010EC0C6016F2DBB
:104460000E94BB1FC6016E2D0E94BB1F21971C1608
:104470001D06A4F3015010401016110614F4E501B6
:10448000F6CFD6015C96ED91FC915D978081979671
:104490009C91892B8083DF91CF911F910F91FF9089
:1044A000EF90DF90CF90BF90AF9008951F93CF9380
:1044B000DF93EC01162F66E30E94FB1F13701D8B28
:1044C000113051F0113028F0123049F01330F1F46E
:1044D00011C0CE0168EC05C0CE0168EA0DC0CE0166
:1044E00068E00E94242080E890E09987888780EA2D
:1044F00090E00AC0CE0168E60E94242080EA90E0A5
:104500009987888780E890E09B878A87DF91CF91A1
:104510001F910895662311F460E201C061E20E94D8
:10452000FB1F0895AF92BF92CF92DF92EF92FF925E
:104530000F931F93CF93DF935C01FB01EB01219657
:10454000D49031C08E010F5F1F4FFE016491C501F1
:104550000E94FB1F78010894E11CF11CF801C49033
:104560000C2D0F77E701102F08C0FE012196E49172
:10457000C5016E2F0E94242011501123B1F7E701CD
:10458000C00FD11DC7FE0EC0FE018491682F70E0E0
:104590006F3F710511F464EF71E0219680E090E0C7
:1045A0000E94A711DA94DD2069F6DF91CF911F9167
:1045B0000F91FF90EF90DF90CF90BF90AF90089554
:1045C0000F931F93CF93DF93EC018B0160E870E0B2
:1045D00040EA50E00E94261C1AA619A689A161E0B3
:1045E0000E94661488A161E00E946614E8A12E2F43
:1045F00030E0F901EE5CFE4FE491F0E0EE0FFF1FBA
:10460000E250FF4F859194919D8F8C8F28583E4F9B
:10461000F90184918FA3E9A12E2F30E0F901EE5C1E
:10462000FE4FE491F0E0EE0FFF1FE250FF4F859147
:1046300094919F8F8E8F28583E4FF901849188A7BF
:104640008F89882361F00E94313780E00E942037F3
:1046500081E00E94123780E00E941B373DC08CA190
:1046600061E00E9466148BA161E00E946614ECA1D7
:104670008E2F90E0FC01EE5CFE4FE491F0E0EE0F37
:10468000FF1FE250FF4FA591B491BB8FAA8F8858AE
:104690009E4FFC0144914EA3EBA12E2F30E0F90177
:1046A000EE5CFE4FE491F0E0EE0FFF1FE250FF4F93
:1046B00085919491998F888F28583E4FF901849164
:1046C0008DA38C91409548234C93E88DF98D908172
:1046D0008DA1809589238083EC8DFD8D90818FA1A4
:1046E0008095892380838AA1882309F161E00E9453
:1046F00066148AA161E00E94191564EF71E080E000
:1047000090E00E94A7118AA160E00E94191564EF51
:1047100071E080E090E00E94A7118AA161E00E9410
:10472000191564EF71E080E090E00E94A711011577
:10473000110521F0CE01B8010E949222DF91CF91A4
:104740001F910F9108951F93CF93DF93EC01162FC4
:104750006FEF76E00E94E022112351F4CE016AE36C
:1047600077E00E94922282E089A781E08AA705C0B3
:10477000CE0167E477E00E949222CE0164E577E003
:104780000E949222DF91CF911F91089582E090E0E4
:10479000A0E0B0E08093960990939709A0939809C0
:1047A000B09399091092AD091092B7091092B60909
:1047B00080E896E09093B5098093B4091092B90906
:1047C0001092D6091092D7091092DA091092DC09DA
:1047D00008952F923F924F925F926F927F928F92A5
:1047E0009F92AF92BF92CF92DF92EF92FF920F9380
:1047F0001F93DF93CF93CDB7DEB7C754D0400FB62A
:10480000F894DEBF0FBECDBF582E492EFB013A01F2
:10481000190180A191A1998B888B20E836E03F8710
:104820002E8782A18A8B83A18B8B84A195A1A6A1BF
:10483000B7A18C8B9D8BAE8BBF8B80A591A5A2A5BC
:10484000B3A5888F998FAA8FBB8F84A595A5A6A5A0
:10485000B7A58C8F9D8FAE8FBF8F80A988A381A9AC
:1048600092A9A3A9B4A989A39AA3ABA3BCA385A920
:1048700096A9A7A9B0AD8DA39EA3AFA3B8A781ADFC
:1048800092AD9AA789A71EA61DA63CA72BA718AA7A
:104890007A018E01025F1F4F3BE2A32EB12CAC0EBA
:1048A000BD1E4E010894811C911C35C0D7018C910E
:1048B0008F3221F40894E11CF11C2DC0422F4E19B7
:1048C0004D3008F04CE0C42EDD24C401B701A60130
:1048D0000E942E3BF401EC0DFD1D1082C5010E94CB
:1048E000F128C501B801A40121E00E94392E8823D6
:1048F00051F4E52DF42D1382128280E896E0918325
:104900008083158266C0EC0CFD1CC8010E94F12852
:10491000C50158018C01C7016FE270E00E941A3B8B
:104920009C01009719F6E618F708F101F182E08280
:10493000E52DF42DD80112968D919C9113979383B8
:10494000828380E896E09183808314968C911497FB
:10495000848315968C911597858316962D913D919C
:104960004D915C91199726833783408751871A961A
:104970002D913D914D915C911D97228733874487FE
:1049800055871E962D913D914D915C9151972687AB
:104990003787408B518B52968C915297828B5396CE
:1049A0002D913D914D915C915697238B348B458B86
:1049B000568B57962D913D914D915C915A97278B2F
:1049C000308F418F528F5B968D919C915C97948F25
:1049D000838F852D942DC95BDF4F0FB6F894DEBF12
:1049E0000FBECDBFCF91DF911F910F91FF90EF9040
:1049F000DF90CF90BF90AF909F908F907F906F90FF
:104A00005F904F903F902F9008959F92AF92BF92EA
:104A1000CF92DF92EF92FF920F931F93DF93CF938A
:104A2000CDB7DEB7C657D0400FB6F894DEBF0FBE85
:104A3000CDBFC82E992E8A01D22E43E0A42EB12CD0
:104A4000AC0EBD1EC501A8019E012F5F3F4F0E9405
:104A5000E923E980FA80E00EF11EF701808140E849
:104A600056E02885882309F03FC08D819E819BA355
:104A70008AA359A348A38F818CA32DA389859A85E6
:104A8000AB85BC858EA39FA3A8A7B9A78D859E855E
:104A9000AF85B8898AA79BA7ACA7BDA789899A8942
:104AA000AB89BC898EA79FA7A8ABB9AB8D898AAB10
:104AB0008E899F89A88DB98D8BAB9CABADABBEABFE
:104AC0008A8D9B8DAC8DBD8D8FAB98AFA9AFBAAFE2
:104AD0008E8D9F8D9CAF8BAF8C2D992DBE01605E0E
:104AE0007F4F46E655E09FC0FE01FF96118210827F
:104AF0005EAF4DAFFE01EE5BFF4F10822223A9F0A7
:104B00002250CE01CD96223048F464EB79E0A70123
:104B10002D2D0E94392E882381F407C0B501A701ED
:104B20002D2D0E94392E882329F48C2D992D0E9439
:104B30005D267BC0C5010E94F128F6E0DF2259F016
:104B4000FE01E05BFF4F4081518162817381CE01A4
:104B5000CD960E94E1279E01265A3F4FFE01FF9607
:104B600080819181F9019383828380E896E091832B
:104B70008083FE01EF5BFF4F8081F9018483FE019A
:104B8000EE5BFF4F8081F9018583FE01ED5BFF4FF6
:104B900080819181A281B381F90186839783A08767
:104BA000B187FE01E95BFF4F80819181A281B381D2
:104BB000F90182879387A487B587FE01E55BFF4FE4
:104BC00080819181A281B381F90186879787A08B2B
:104BD000B18BFE01E15BFF4F8081F901828BFE0109
:104BE000E05BFF4F80819181A281B381F901838BCA
:104BF000948BA58BB68BFE01EC5AFF4F808191817F
:104C0000A281B381F901878B908FA18FB28FFE01B2
:104C1000E85AFF4F80819181F901948F838F8C2D09
:104C2000992DB901A7010E9467278C2D992DCA588B
:104C3000DF4F0FB6F894DEBF0FBECDBFCF91DF912F
:104C40001F910F91FF90EF90DF90CF90BF90AF90AA
:104C50009F900895EF92FF920F931F93CF93DF934E
:104C6000EC01462F8C01055C1F4FC80161E00E94DA
:104C70007A318823D1F0FC2EED2ECE01B80141E02F
:104C80000E94E732882339F4CE01B80140E00E9447
:104C9000E732882351F0CE014E966F2D7E2D0E9473
:104CA000272B882319F081E001C080E0DF91CF91AC
:104CB0001F910F91FF90EF900895FC0113821282D3
:104CC00088EE93E0A0E0B0E084839583A683B78369
:104CD00080E796E091838083128E118E148608956A
:104CE000FC0180E796E0918380830895DF93CF9362
:104CF0000F92CDB7DEB7FC016983A081B181129616
:104D00002D913C911397BE016F5F7F4F41E050E0C2
:104D1000F90119950F90CF91DF910895DC01599613
:104D2000ED91FC915A97309719F420E030E018C0CB
:104D3000238934894589568982859385A485B585DB
:104D4000281B390B4A0B5B0B2030B0E83B07B0E067
:104D50004B07B0E05B0720F02FEF3FE740E050E06B
:104D6000C9010895DC015996ED91FC915A9730974D
:104D700011F480E008958581811181E00895CF9339
:104D8000DF93EC01898D9A8D009741F00E94F12804
:104D9000898D9A8D0E943B391A8E198EDF91CF91A1
:104DA0000895FC01818D928D009711F480E00895A3
:104DB0000E94E1270895FC01818D928D009711F0EA
:104DC0000E94A7280895FC01818D928D009719F407
:104DD00020E030E003C00E94C8299C01C901089569
:104DE000DF93CF930F92CDB7DEB7FC01818D928D0B
:104DF000009749F0BE016F5F7F4F41E050E00E9495
:104E0000C829019719F02FEF3FEF03C08981282FA0
:104E100030E0C9010F90CF91DF910895EF92FF929A
:104E20000F931F93DF93CF930F92CDB7DEB77C0123
:104E3000DC0159968D919C915A97009719F400E0E6
:104E400010E01FC0BE016F5F7F4F41E050E00E9445
:104E5000C829019719F00FEF1FEF13C08981082FA0
:104E600010E0D7015996ED91FC915A9742855385F0
:104E7000648575854150504060407040CF010E946C
:104E8000E127C8010F90CF91DF911F910F91FF9003
:104E9000EF900895CF93DF93EC01E98DFA8D309771
:104EA00061F013821282CF010E940D2C9C01E98DCA
:104EB000FA8D82819381892B31F081E090E09B8390
:104EC0008A8320E030E0C901DF91CF910895EF920D
:104ED000FF920F931F93CF93DF93EC01F62EE72EF3
:104EE0008A011B821A8288EE93E0A0E0B0E08C83F6
:104EF0009D83AE83BF8380E796E0998388838DE1AD
:104F000090E00E949E389A8F898F009791F0DC0183
:104F10008F2D9E2D9C01F9018DE101900D92815004
:104F2000E1F7CE010C96B8014CE050E00E942E3B18
:104F3000188EDF91CF911F910F91FF90EF90089500
:104F4000CF93DF93EC01DB0180E090E020E2FD01F4
:104F5000E80FF91F208301968B309105C1F757E0C8
:104F600040E021C02E3219F086EE97E007C05A309B
:104F700019F15AE048E017C03217F1F0FC01019630
:104F800034913323C9F75417B8F02132A8F02F37E2
:104F900098F4822F81568A3108F42052FD01E40FE3
:104FA000F11D20834F5F29912223E1F690E08C913F
:104FB000803219F091E001C090E0892FDF91CF910C
:104FC00008956F927F928F929F92AF92BF92CF92ED
:104FD000DF92EF92FF920F931F93CF93DF93EC0139
:104FE0007A018B012D81222309F480C08B899C8951
:104FF000AD89BE8984179507A607B70708F476C060
:1050000085C0E114F1040105110549F41E821F82D7
:10501000188619861A861B861C861D8665C02A85F9
:105020003B854C855D85EB8DFC8D858590E00996F3
:10503000215030404040504039014A01082E04C000
:1050400096948794779467940A94D2F72F5F3F4F92
:105050004F4F5F4F0894E108F1080109110957010A
:10506000680104C0D694C794B794A7948A95D2F7E0
:105070000894E11CF11C011D111DA614B704C804FD
:10508000D90428F0211531054105510549F48F89CE
:10509000988DA98DBA8D8E839F83A887B98716C0F6
:1050A000A618B708C808D90811C04E815F81688565
:1050B00079858B8D9C8D94010E94C8340894A10839
:1050C000B108C108D108882331F410C086E0882EC9
:1050D000912C8C0E9D1EA114B104C104D10429F79A
:1050E000EA86FB860C871D8781E001C080E0DF91A6
:1050F000CF911F910F91FF90EF90DF90CF90BF90D5
:10510000AF909F908F907F906F900895223009F01C
:1051100078CFE6CFCF93DF93EC01462F6E857F8566
:10512000888999890E94AC32882319F420E030E004
:105130000AC08A89282F30E095E0220F331F9A9504
:10514000E1F72F51364FC901DF91CF9108950F93A9
:105150001F93CF93DF938C01FC0185818823D9F1C4
:10516000848187FF35C0C80161E00E948A28EC0174
:10517000009789F1F8018581823040F48389948910
:10518000A589B6898C8F9D8FAE8FBF8FF8018789D7
:10519000908D9B8F8A8F8789908DA18DB28DCD0147
:1051A000AA27BB279D8B8C8BE091DF09F091E0094A
:1051B000309751F0BE016A5E7F4FCE014896199537
:1051C000888D998D9B8B8A8BF80184818F7784835E
:1051D0000E944D3201C080E0DF91CF911F910F916D
:1051E0000895CF93DF93EC010E94A728882311F044
:1051F0001D8281E0DF91CF9108956F927F928F920F
:105200009F92AF92BF92CF92DF92EF92FF920F9355
:105210001F93DF93CF9300D00F92CDB7DEB77C0101
:105220005A016B01DC0115968C911597813009F0BC
:105230008FC014968C9181FF8BC09EC00097A105F2
:10524000B10511F481E085C0F70162847384848420
:105250009584C701B601A5010E94E127882309F4BE
:1052600077C0D7015B968D919C915C97A114B10496
:10527000C104D10489F457964D915D916D917C9153
:105280005A970E943B35882309F462C0F701178AB8
:10529000108E118E128E3DC0D70116964D915D91E4
:1052A0006D917C9119979E012F5F3F4F0E94C834EA
:1052B000882309F44DC0D7015B96ED91FC915C9772
:1052C00049815A816B817C818789803129F088EFFF
:1052D0009FEFAFEFBFE004C088EF9FEFA0E0B0E02A
:1052E000481759076A077B07A0F4CF010E943B3596
:1052F000882371F1F7014681578160857185838D1F
:10530000948D0FEF1FEF2FEF3FE00E942C34882386
:10531000F9F0D7015396AD92BD92CD92DC9256979B
:1053200014968C911497806814968C93C7010E94F0
:10533000A728882369F0B601A5016A147B048C04B0
:105340009D0410F4B401A301C7010E94E12701C02C
:1053500080E00F900F900F900F90CF91DF911F91F1
:105360000F91FF90EF90DF90CF90BF90AF909F9004
:105370008F907F906F900895F70183899489A58914
:10538000B68984179507A607B70708F057CFE0CF6F
:105390002F923F924F925F926F927F928F929F9245
:1053A000AF92BF92CF92DF92EF92FF920F931F9333
:1053B000CF93DF93EC012A018D81882309F4C6C0C5
:1053C0008C8180FFC3C0D8C025014E185F084B01F7
:1053D00076E0272E312C2C0E3D1E3201B1C02A85DD
:1053E0003B854C855D856FEFA62E61E0B62EA2222F
:1053F000B3228D8179018A0199E016950795F7947A
:10540000E7949A95D1F7EB8DFC8D823049F4428D6B
:10541000538D648D758D4E0D5F1D601F711F3FC0D4
:10542000D480DA94DE20A114B104D9F4DD20C9F4CB
:10543000211531054105510549F48F89988DA98DB4
:10544000BA8D8E839F83A887B9870BC04E815F81F9
:1054500068857985CF0191010E94C834882309F4B9
:1054600075C0EB8DFC8D4E815F81688579854250DA
:10547000504060407040058404C0440F551F661FB3
:10548000771F0A94D2F786859785A089B189480F3E
:10549000591F6A1F7B1F4D0D511D611D711D80E03D
:1054A00092E08A199B0963018615970508F46C013F
:1054B0008C8186FD06C080E0C81682E0D80609F01F
:1054C00073C080913C0690913D06A0913E06B0913C
:1054D0003F06481759076A077B0709F465C08091A2
:1054E000E10B9091E20B9501860174010E94CD3091
:1054F000882361F18C0C9D1C12C095012F51364FF1
:10550000A9014C0D5D1DD401F90102C081918D935B
:10551000E417F507D9F7E21BF30B8E0E9F1E9601D9
:1055200040E050E08A859B85AC85BD85820F931F46
:10553000A41FB51F8A879B87AC87BD876C187D0821
:105540006114710409F04BCFA20102C04FEF5FEF6D
:10555000CA01DF91CF911F910F91FF90EF90DF90E3
:10556000CF90BF90AF909F908F907F906F905F9003
:105570004F903F902F900895AB88BC88CD88DE88EF
:10558000EA84FB840C851D859A0140E050E0D60139
:10559000C5018E199F09A00BB10B82179307A407B1
:1055A000B50708F411CF13CFCB01BA0140E00E9438
:1055B000AC32882309F0A1CFC9CFCF92DF92EF920E
:1055C000FF920F931F93DF93CF930F92CDB7DEB768
:1055D0006C01FC018581823070F0E284F3840485E3
:1055E0001585C601BE016F5F7F4F41E050E00E940C
:1055F000C829019769F020E030E0C9010F90CF91F0
:10560000DF911F910F91FF90EF90DF90CF90089561
:10561000F60182859385A485B5854F96A11DB11DA0
:1056200082879387A487B587F5E016950795F79449
:10563000E794FA95D1F78E2D8F70282F30E0E5E0B2
:10564000220F331FEA95E1F72F51364FD6CF0F9334
:105650001F93CF93DF93EC018B018D81882309F099
:1056600041C0FB0187898031B1F482E08D831F8ABC
:10567000188E198E1A8E808D918DA0E0B0E045E0D5
:10568000880F991FAA1FBB1F4A95D1F78B8B9C8B44
:10569000AD8BBE8B15C0803229F583E08D83FB0175
:1056A000428D538D648D758D4F8B588F698F7A8F96
:1056B0009E012D5E3F4FC8010E949435882391F0D2
:1056C0001C8F0B8F81E08C831E821F8218861986A7
:1056D0001A861B861C861D861E861F86188A198AB6
:1056E0001A8A01C080E0DF91CF911F910F91089538
:1056F0001F93CF93DF93EC01142FE62FF0E075E0BA
:10570000EE0FFF1F7A95E1F7EF51F64F8385817118
:1057100021F0842F827409F054C06A8B80913C067A
:1057200090913D06A0913E06B0913F068E879F87DF
:10573000A88BB98B84899589A0E0B0E0BC0155277E
:105740004427828D938DA0E0B0E0482B592B6A2B23
:105750007B2B4F8B588F698F7A8F838590E0887170
:105760009070009751F4848D958DA68DB78D8B8B9D
:105770009C8BAD8BBE8B81E00CC0409711F59E01D8
:105780002D5E3F4F8B8D9C8D0E9494358823C9F0F0
:1057900084E08D83812F8F708C831E821F821886F8
:1057A00019861A861B861C861D8616FD02C081E09E
:1057B00009C0CE0140E050E060E070E00E94FD28AA
:1057C00001C080E0DF91CF911F910895CF93DF93C7
:1057D000EC019C012A5F3F4F8B8D9C8D41E050E096
:1057E00060E070E00E9403368823A1F08F89988DD5
:1057F000A98DBA8D0097A105B10559F48E819F81BD
:10580000A885B9858F8B988FA98FBA8F8C81806876
:105810008C8381E0DF91CF9108952F923F924F9238
:105820005F927F928F929F92AF92BF92CF92DF92C0
:10583000EF92FF920F931F93DF93CF9300D000D08E
:10584000CDB7DEB76C01162F072F5E834D83DC01C9
:1058500015968C911597813009F070C114968C9132
:1058600081FF6CC18EC1F6014389548965897689AF
:1058700082859385A485B58584179507A607B70704
:1058800031F0C6010E94E127882309F457C1812F16
:10589000902F9C0129012D803E8017C1D6015B9677
:1058A000ED91FC915C97DA01C90119E0B695A795D5
:1058B000979587951A95D1F774807A9478227FEF1F
:1058C000872E71E0972E82229322772009F04EC016
:1058D0008114910409F04AC0D60116964D915D914C
:1058E0006D917C911997411551056105710581F400
:1058F00057968D919D910D90BC91A02D0097A1057B
:10590000B10549F1F60186839783A087B1872EC040
:10591000CF019E012F5F3F4F0E94C834882309F4B6
:1059200014C129813A814B815C81D6015B96ED914E
:10593000FC915C978789803129F088EF9FEFAFEF6A
:10594000BFE004C088EF9FEFA0E0B0E02817390760
:105950004A075B0730F0C6010E94E62B882331F42A
:10596000EDC0F601268337834087518780E092E0BF
:105970008819990951018215930508F45C01D60133
:105980005B96ED91FC915C971696ED90FD900D91D4
:105990001C9119978EEF9FEFAFEFBFEFE80EF91E46
:1059A0000A1F1B1F058404C0EE0CFF1C001F111FE3
:1059B0000A94D2F786859785A089B189E80EF91EE9
:1059C0000A1F1B1FE70CF11C011D111D90E0A916F9
:1059D00092E0B90651F580913C0690913D06A09168
:1059E0003E06B0913F068E159F05A007B10761F4F2
:1059F0008FEF9FEFAFEFBFEF80933C0690933D0694
:105A0000A0933E06B0933F068091E10B9091E20B8C
:105A1000B801A70192010E947030882309F48EC05A
:105A2000A0E0B2E04A0E5B1E3EC08114910409F56D
:105A3000F601228533854485558583899489A58916
:105A4000B689281739074A075B0798F00E944D323C
:105A5000882309F473C0E0923C06F0923D0600935F
:105A60003E0610933F068091E30B81608093E30B29
:105A700008C0C801B70141E00E94AC32882309F494
:105A80005DC094012F51364FA9014A0D5B1DD20113
:105A9000F90102C08D918193E417F507D9F7E21B54
:105AA000F30B4E0E5F1E2A183B08950140E050E0B4
:105AB000F60182859385A485B585820F931FA41F67
:105AC000B51F82879387A487B587D6011A962D9133
:105AD0003D914D915C911D972114310409F0DECE6A
