:100000000C94FE030C94EE0F0C941F100C945010E3
:100010000C9481100C94B2100C94E3100C941411F5
:100020000C9445110C942A040C942A040C942A0470
:100030000C942A040C942A040C942A040C942A0488
:100040000C942A040C942A040C942A040C942A0478
:100050000C942A040C942A040C942A040C94610E27
:100060000C942A040C94A5130C94D1140C942A0417
:100070000C942A040C942A040C942A040C942A0448
:100080000C942A040C942A040C942A040C942A0438
:100090000C94DE130C9410150C942A040C942A046E
:1000A0000C942A040C942A040C942A040C942A0418
:1000B0000C942A040C942A040C942A040C942A0408
:1000C0000C942A040C942A040C942A040C941714FB
:1000D0000C944F150C942A040C9450140C948E1507
:1000E0000C942A0400002100240027002A002D007F
:1000F0003000330001010000040107010A01000083
:100100002200250028002B002E00310034000201BF
:100110000000050108010B0100002000230026005B
:1001200029002C002F00320000010000030106010D
:10013000090105050505070508080808020202026D
:100140000A0A080804040404010101010101010173
:100150000303030303030303040707070C0C0C0C3E
:100160000C0C0C0C02020202060606060606060627
:100170000B0B0B0B0B0B0B0B0102102020080810B4
:100180002040102040800201020108040201010207
:1001900004081020408080402010080402018004E0
:1001A000020180402010080402010804020101023B
:1001B0000408102040800102040810204080000044
:1001C000090A02080B0C0D070603040100000000D9
:1001D000000000000000000000000000000000001F
:1001E0000000000000000000000011100F000000DF
:1001F00000000000000000000000000000000000FF
:100200000000000000000000003E5B4F5B3E3E6BC4
:100210004F6B3E1C3E7C3E1C183C7E3C181C577DA0
:10022000571C1C5E7F5E1C00183C1800FFE7C3E7EC
:10023000FF0018241800FFE7DBE7FF30483A060EFE
:100240002629792926407F050507407F05253F5A45
:100250003CE73C5A7F3E1C1C08081C1C3E7F1422B5
:100260007F22145F5F005F5F06097F017F00668960
:10027000956A606060606094A2FFA29408047E04A6
:100280000810207E201008082A1C08081C2A0808CC
:100290001E101010100C1E0C1E0C30383E3830068C
:1002A0000E3E0E06000000000000005F0000000788
:1002B000000700147F147F14242A7F2A12231308B6
:1002C000646236495620500008070300001C224192
:1002D000000041221C002A1C7F1C2A08083E080836
:1002E00000807030000808080808000060600020E6
:1002F000100804023E5149453E00427F40007249C9
:100300004949462141494D331814127F102745456C
:1003100045393C4A49493141211109073649494982
:1003200036464949291E00001400000040340000F0
:100330000008142241141414141400412214080259
:10034000015909063E415D594E7C1211127C7F49CC
:100350004949363E414141227F4141413E7F494921
:1003600049417F090909013E414151737F0808084D
:100370007F00417F41002040413F017F081422411E
:100380007F404040407F021C027F7F0408107F3E78
:100390004141413E7F090909063E4151215E7F09E5
:1003A000192946264949493203017F01033F40404C
:1003B000403F1F2040201F3F4038403F6314081437
:1003C0006303047804036159494D43007F4141416F
:1003D0000204081020004141417F04020102044050
:1003E00040404040000307080020545478407F28D4
:1003F0004444383844444428384444287F385454CA
:10040000541800087E090218A4A49C787F080404EC
:100410007800447D40002040403D007F102844008B
:1004200000417F40007C047804787C08040478381C
:1004300044444438FC1824241818242418FC7C084C
:10044000040408485454542404043F44243C4040C9
:10045000207C1C2040201C3C4030403C442810287C
:10046000444C9090907C4464544C440008364100C5
:100470000000770000004136080002010204023C3F
:100480002623263C1EA1A161123A4040207A38540E
:100490005455592155557941215454784121555489
:1004A000784020545579400C1E52721239555555DA
:1004B00059395454545939555454580000457C41C5
:1004C0000002457D420001457C40F0292429F0F0DE
:1004D000282528F07C545545002054547C547C0A2F
:1004E000097F4932494949323248484832324A48FC
:1004F00048303A4141217A3A42402078009DA0A0FC
:100500007D39444444393D4040403D3C24FF24244F
:10051000487E4943662B2FFC2F2BFF0929F620C06C
:10052000887E090320545479410000447D413048BD
:10053000484A32384040227A007A0A0A727D0D1900
:10054000317D2629292F28262929292630484D4062
:1005500020380808080808080808382F10C8ACBA5E
:100560002F102834FA00007B000008142A142222DD
:10057000142A1408AA005500AAAA55AA55AA0000D0
:1005800000FF00101010FF00141414FF001010FFE3
:1005900000FF1010F010F0141414FC001414F700F5
:1005A000FF0000FF00FF1414F404FC141417101FC4
:1005B00010101F101F1414141F00101010F0000052
:1005C00000001F101010101F10101010F01000006D
:1005D00000FF101010101010101010FF100000007D
:1005E000FF140000FF00FF00001F10170000FC04B4
:1005F000F414141710171414F404F40000FF00F797
:1006000014141414141414F700F7141414171410F9
:10061000101F101F141414F4141010F010F0000028
:100620001F101F0000001F14000000FC140000F049
:1006300010F01010FF10FF141414FF141010101FEE
:1006400000000000F010FFFFFFFFFFF0F0F0F0F0FF
:10065000FFFFFF0000000000FFFF0F0F0F0F0F381C
:10066000444438447C2A2A3E147E02020606027E56
:10067000027E0263554941633844443C04407E2075
:100680001E2006027E020299A5E7A5991C2A492A86
:100690001C4C7201724C304A4D4D30304878483015
:1006A000BC625A463D3E494949007E0101017E2A0D
:1006B0002A2A2A2A44445F444440514A4440404440
:1006C0004A51400000FF0103E080FF000008086B72
:1006D0006B083612362436060F090F06000018186C
:1006E0000000001010003040FF0101001F01011E3A
:1006F00000191D1712003C3C3C3C00000000000F9C
:100700000180961180FFB103012C2DB203012C2D25
:10071000B306012C2D012C2DB40107C003A20284C5
:10072000C101C5C2020A00C3028A2AC4028AEEC5F8
:10073000010E20003601C83A0105022A0400020019
:10074000812B04000100A0022A040000007F2B047A
:100750000000009F04E010021C07123732292D29E7
:10076000252B3900010310E110031D07062E2C294B
:100770002D2E2E373F0000021013800A29806412AC
:100780000180321180FF3A81050AB1830006030A15
:10079000360108B6021502B40100C08202700AC117
:1007A0000105C2020102C5823C380AFC021115E0B3
:1007B0001009160920211B131917151E2B040502F9
:1007C0000EE1900B14081E221D181E1B1A242B0666
:1007D00006020F0A2A04000200812B040002008195
:1007E00013800A2980FF7C3C3E5E2B3D3F2F5B5DE2
:1007F0003B2C2A225C009C07F816B61F11241FBE52
:10080000CFEFD1E2DEBFCDBF00E00CBF15E0A0E02E
:10081000B2E0EAEAF2E700E00BBF02C007900D92F7
:10082000AE3AB107D9F71BE0AEEAB5E001C01D92C0
:10083000A631B107E1F717E0CCEFD7E004C022976B
:10084000FE010E944F39C63FD107C9F70E94951398
:100850000C94C3350C9400001092B7051092B805A3
:100860001092B9051092BA051092BB051092BC0502
:100870001092BD051092BE051092B4051092B305FA
:100880001092B6051092B5051092B0051092AF0502
:100890001092B2051092B105809158058093AE0573
:1008A000089580915805853028F4809158058F5F10
:1008B00080935805809158050895809158058823A4
:1008C00029F08091580581508093580580915805F2
:1008D0000895FC01DB018091B3059091B40520914E
:1008E000AF053091B005821B930B9183808380917B
:1008F000B5059091B6052091B1053091B205821BE6
:10090000930B8D939C9381E0089597FF03C0E0E0E3
:10091000F0E010C0E091AE05F0E0EE0FFF1FE454F0
:10092000FB4F0190F081E02DE058F0408E179F07BB
:1009300008F4FC01F093B005E093AF0577FF03C026
:1009400060E070E010C0E091AE05F0E0EE0FFF1F38
:10095000E853FB4F0190F081E02DE05AF040E6179C
:10096000F70708F4BF017093B2056093B1050895CD
:10097000AF92BF92CF92DF92EF92FF920F931F93AD
:100980004091B3055091B405425050402091B505B7
:100990003091B605225030408091AE0566E0869FCA
:1009A000C00111246091AF057091B0058A01061B4A
:1009B000170B6091B1057091B2057901E61AF70A3B
:1009C0008C529B4F60EC75E0F5E0CF2ED12CE5E02A
:1009D000AE2EB12C0E9440331F910F91FF90EF90EB
:1009E000DF90CF90BF90AF900895AF92BF92CF921B
:1009F000DF92EF92FF920F931F938091AE0526E056
:100A0000829FC00111244091AF055091B005209103
:100A1000B1053091B2058C529B4F60EC75E000E05F
:100A200010E0EE24FF24B0E8CB2ED12CA0EAAA2EB1
:100A3000B12C0E9440331F910F91FF90EF90DF90F7
:100A4000CF90BF90AF9008950F931F936091B3051F
:100A50007091B4058091AF059091B005681B790B3A
:100A60004091B5055091B6058091B1059091B205C0
:100A7000481B590B80EC95E022E030E000E018EFD5
:100A80000E9412191F910F910895AF92BF92CF92B9
:100A9000DF92EF92FF920F931F935A016B01A82FE1
:100AA000BB27A7FDB09500D00F9268EF74E0FD0161
:100AB00084E0EE0FFF1F8A95E1F7E60FF71F208114
:100AC000318142815381AA0FBB1FCD01019613E0F2
:100AD000880F991F1A95E1F7680F791FFB01E080D5
:100AE000F18002811381A853BB4F8D919C91A0E0AE
:100AF000B0E0EDB7FEB781839283A383B483C601D0
:100B0000B501AA24BB2465010E94C0120F900F906A
:100B10000F900F901F910F91FF90EF90DF90CF906B
:100B2000BF90AF900895AF92BF92CF92DF92EF92B5
:100B3000FF920F931F935A016B01A82FBB27A7FDAC
:100B4000B09500D00F92FD0104E0EE0FFF1F0A9553
:100B5000E1F788EF94E0E80FF91F248135814681A1
:100B60005781E484F58406851785AA0FBB1FA4541A
:100B7000BB4F8D919C91A0E0B0E0EDB7FEB78183B3
:100B80009283A383B483C601B501AA24BB24650163
:100B90000E94C0120F900F900F900F901F910F9115
:100BA000FF90EF90DF90CF90BF90AF900895AF92FD
:100BB000BF92CF92DF92EF92FF920F931F937B0130
:100BC0008C0159016A018091AE05B801A7010E940C
:100BD00093057093B0056093AF058091AE05B601A3
:100BE000A5010E9445052091AF053091B00537FF62
:100BF00003C0E0E0F0E010C0E091AE05F0E0EE0FE1
:100C0000FF1FE454FB4F0190F081E02DE058F040CD
:100C10002E173F0708F4F901F093B005E093AF05F4
:100C200077FF03C060E070E010C0E091AE05F0E037
:100C3000EE0FFF1FE853FB4F0190F081E02DE05ACB
:100C4000F040E617F70708F4BF017093B205609310
:100C5000B1051F910F91FF90EF90DF90CF90BF9063
:100C6000AF900895809158058093AE054091B705E7
:100C70005091B8056091B9057091BA050E9493052D
:100C80007093B4056093B3054091BB055091BC05CA
:100C90006091BD057091BE058091AE050E9445052D
:100CA0007093B6056093B5058091AE050895AF9237
:100CB000BF92CF92DF92EF92FF920F931F93A82FD4
:100CC000BB27A7FDB09500D00F92CD01880F991FCB
:100CD000FC01E853FB4FE080F18000E010E0E8EF1A
:100CE000F4E034E0AA0FBB1F3A95E1F7AE0FBF1F47
:100CF000AD90BD90CD90DC90019623E0880F991FB8
:100D00002A95E1F7E80FF91F80819181A281B381D3
:100D1000EDB7FEB781839283A383B483CB01BA017D
:100D200020E030E040E050E00E94C0120F900F90B1
:100D30000F900F901F910F91FF90EF90DF90CF9049
:100D4000BF90AF900895AF92BF92CF92DF92EF9293
:100D5000FF920F931F93992787FD909500D00F92D4
:100D6000FC01EE0FFF1FE454FB4FE080F18000E038
:100D700010E0B4E0880F991FBA95E1F7E8EFF4E0CE
:100D8000DF01A80FB91F1496AD90BD90CD90DC90F7
:100D90001797E80FF91F84859585A685B785EDB768
:100DA000FEB781839283A383B483CB01BA0120E091
:100DB00030E040E050E00E94C0120F900F900F9082
:100DC0000F901F910F91FF90EF90DF90CF90BF9009
:100DD000AF90089597FF03C080E090E00EC0E091CF
:100DE000AE05F0E0EE0FFF1FE454FB4F0190F081E1
:100DF000E02DE817F90708F4CF019093B40580932C
:100E0000B30577FF03C060E070E00EC0E091AE056F
:100E1000F0E0EE0FFF1FE853FB4F0190F081E02D53
:100E2000E617F70708F4BF017093B6056093B505A0
:100E3000AC0160E070E08091AE050E94A306609373
:100E4000B7057093B8058093B9059093BA054091A2
:100E5000B5055091B60560E070E08091AE050E9446
:100E600057066093BB057093BC058093BD059093B6
:100E7000BE0508954091B3055091B4052091B50584
:100E80003091B605260F371F840F951FB9010E94B8
:100E9000EA060895CF92DF92EF92FF920F931F938D
:100EA000DF93CF93CDB7DEB7EDB6FEB6CEB6809169
:100EB0005905882359F18DB79EB7805091400FB6E0
:100EC000F8949EBF0FBE8DBF0DB71EB70F5F1F4FAB
:100ED000FE013E96C80160E071E04C855D859F0192
:100EE0000E94ED3584E498E06CE372E00E947F1389
:100EF00084E498E0B8010E9482132E2D3C2DC90194
:100F00000FB6F8949EBF0FBE8DBF08C08DB79EB7B9
:100F10009C010FB6F8943EBF0FBE2DBF0FB6F894DC
:100F2000FEBE0FBEEDBECF91DF911F910F91FF90DE
:100F3000EF90DF90CF90089580EC95E066E047E079
:100F400028E00E949C1B1092F4051092F505109267
:100F5000F6051092F7051092F8051092F905109217
:100F6000FA051092FB051092FC051092FD051092F7
:100F7000FE051092FF0510920006109201061092D5
:100F80000206109203060E94A90E60930706709352
:100F900008068093090690930A0608959091BF056C
:100FA00080915805981711F40E945D04089590915E
:100FB000BF0580915805981711F40E9451040895B7
:100FC000EF92FF920F931F93CF93DF93EC017B017E
:100FD00080E00E948C1220915C0530915D058C01AF
:100FE000021B130B81E00E948C1220915E05309150
:100FF0005F05821B930B9C01C8010496099710F4AE
:1010000000E010E0C9010496099710F420E030E0F8
:10101000C80160E870E00E94FD3879836883C901E7
:1010200060E870E00E94FD38F701718360830E94E0
:10103000A90E7B018C018091070690910806A09172
:101040000906B0910A06E816F9060A071B0740F4DC
:10105000E0920706F09208060093090610930A062C
:101060008091600590916105A0916205B091630542
:1010700020910706309108064091090650910A0612
:10108000820F931FA41FB51F8E159F05A007B107E0
:1010900010F080E019C0E0920706F0920806009375
:1010A000090610930A0684E00E945C1220E0892B56
:1010B00009F421E080910606882321F080E02223B4
:1010C00009F481E020930606DF91CF911F910F91E3
:1010D000FF90EF90089584E060E00E94761184E034
:1010E00061E00E94291281E00E948C1290935D05BC
:1010F00080935C0580E00E948C1290935F05809342
:101100005E05089580EC98E065E00E941A2288232D
:1011100029F50F920F928FE392E0EDB7FEB792831D
:1011200081830E944A0787E592E0EDB7FEB792837C
:1011300081830E944A078BE692E0EDB7FEB7928367
:1011400081830E944A0783E892E0EDB7FEB792835D
:1011500081830E944A070F900F90FFCF0F920F924A
:101160008CEB92E0EDB7FEB7928381830E944A0731
:101170000F900F9008950F931F9300EC15E0C80196
:1011800061E00E94931FC80160E00E94461EC801F2
:1011900060E070E040E050E00E948A1BC80160E01F
:1011A00070E00E94961BC80161E00E94901BC8017C
:1011B0006FE170E00E94801C1F910F910895EF92E3
:1011C000FF920F931F93CF93DF93EC01809104065E
:1011D000909105068C179D0789F1D0930506C09361
:1011E000040680EC95E060E070E044E950E020E81F
:1011F00030E00CE010E0E0EEEE2EE7E0FE2E0E9484
:10120000CE1D80EC95E061E00E94901B80EC95E0A3
:101210006FE178EF0E94961B80EC95E060E070E053
:1012200046E950E00E948A1B80EC95E061E00E9454
:10123000901B80EC95E0BE010E948213DF91CF915C
:101240001F910F91FF90EF9008958BEC92E00E9418
:10125000DF0808958F929F92AF92BF92CF92DF9254
:10126000EF92FF920F931F93DF93CF93CDB7DEB72B
:1012700028970FB6F894DEBF0FBECDBF8DB79EB7CF
:101280004091120B5091130B4115510511F09A0129
:1012900004C02091B8043091B90460915A0570914E
:1012A0005B05821B930B8617970730F52DB73EB76A
:1012B0004115510521F44091B8045091B90400D072
:1012C00000D0EDB7FEB731968CEC92E0ADB7BEB76B
:1012D00012969C938E931197241B350B3383228394
:1012E000758364830E944A07EDB7FEB736960FB642
:1012F000F894FEBF0FBEEDBF8091EB05882311F47B
:10130000992404C01092EB05992493941A821982AF
:101310001C821B82F894909158058091BF05882407
:10132000981711F0882483947894882009F441C098
:101330003091AE05809158053817E9F02091580595
:1013400000D000D0EDB7FEB731968DED92E0ADB78D
:10135000BEB712969C938E93119732831382248387
:1013600015820E944A07EDB7FEB736960FB6F8947D
:10137000FEBF0FBEEDBF0E9432064091690550913D
:101380006A05569547958091B3059091B4052091D3
:101390006B0530916C05369527956091B505709178
:1013A000B605621B730B841B950B0E948504992460
:1013B0009394CE010196BE016D5F7F4F0E94E007BE
:1013C000D82E89819A81892B29F48B819C81892B44
:1013D00009F457C0E090AF05F090B0050091B10559
:1013E0001091B205CE010596BE01695F7F4F0E9444
:1013F0006904882309F445C08D819E818A30910556
:1014000048F4E090AF05F090B00580EE9FEFE80E55
:10141000F91E0DC08637910510F420E009C0E09058
:10142000AF05F090B005A0E2B0E0EA0EFB1E21E0AF
:101430008F8198858A30910538F40091B10510911B
:10144000B205005210400CC08637910538F000916B
:10145000B1051091B205005E1F4F02C0222339F082
:10146000C701B8010E948504992493940AC00E9480
:10147000B8046B817C8189819A810E943A070E941D
:101480002405DD2009F478C1EDB7FEB73A970FB611
:10149000F894FEBF0FBEEDBF319684EF92E0ADB77A
:1014A000BEB712969C938E9311978091BB05909135
:1014B000BC05A091BD05B091BE0582839383A48332
:1014C000B5838091B7059091B805A091B905B09109
:1014D000BA0586839783A087B1870E944A07A090A8
:1014E000B705B090B805C090B905D090BA05E090A6
:1014F000BB05F090BC050091BD051091BE05EDB790
:10150000FEB73A960FB6F894FEBF0FBEEDBF8091BE
:10151000F2059091F305892BE1F58DB79EB70A97F7
:101520000FB6F8949EBF0FBE8DBFEDB7FEB73196D4
:1015300083E193E0ADB7BEB712969C938E9311975B
:10154000A282B382C482D582E682F78200871187A5
:101550000E944A07E092F805F092F9050093FA0517
:101560001093FB05A092F405B092F505C092F60524
:10157000D092F70581E090E09093F3058093F20517
:10158000EDB7FEB73A960FB6F894FEBF0FBEEDBFAB
:10159000F3C08DB79EB70A970FB6F8949EBF0FBEE3
:1015A0008DBFEDB7FEB731968FE293E0ADB7BEB712
:1015B00012969C938E931197A282B382C482D58295
:1015C000E682F782008711870E944A07E0920006B0
:1015D000F09201060093020610930306A092FC0508
:1015E000B092FD05C092FE05D092FF051092F30562
:1015F0001092F205EDB7FEB738960FB6F894FEBF1D
:101600000FBEEDBF89E493E0928381830E944A0775
:101610000F900F902091F4053091F5054091F6055B
:101620005091F7056091F8057091F9058091FA05E0
:101630009091FB05A090FC05B090FD05C090FE05C3
:10164000D090FF05E0900006F090010600910206A0
:10165000109103060E94C80D8C0100D00F928AE5FC
:1016600093E0ADB7BEB712969C938E9311971496E4
:101670001C930E9313970E944A070F900F900F90A0
:101680000F90101611060CF077C08091EC05909128
:10169000ED058017910728F49093EF058093EE05F0
:1016A00004C01093EF050093EE054091EC055091B6
:1016B000ED058091F0059091F105B8010E942A0D89
:1016C00097FD5CC00F920F928EE693E0EDB7FEB7E8
:1016D000928381830E944A0700E010E0EE24FF24F9
:1016E0000F900F90F4E8CF2EF3E0DF2E3CC0209156
:1016F000F0053091F1052E0D3F1D8DB79EB70C976B
:101700000FB6F8949EBF0FBE8DBFEDB7FEB73196F2
:10171000ADB7BEB71296DC92CE92119713830283B7
:10172000D90114964D915D916D917C9117974483E9
:101730005583668377832D913D914D915C912087F0
:101740003187428753870E944A070F5F1F4FE8E0A7
:10175000F0E0EE0EFF1E8DB79EB70C960FB6F89414
:101760009EBF0FBE8DBF8091EE059091EF050817CB
:10177000190708F4BCCF02C09920F1F00E94F504CB
:101780000E9424050E9425098820B1F0F8948091D8
:10179000AE05809358058093BF0578940F920F9201
:1017A00080E993E0ADB7BEB712969C938E931197E4
:1017B0000E944A070F900F908091F2059091F305D7
:1017C000892B19F480EA93E002C086EA93E00E9434
:1017D000DF0828960FB6F894DEBF0FBECDBFCF91BD
:1017E000DF911F910F91FF90EF90DF90CF90BF900E
:1017F000AF909F908F900895CF92DF92EF92FF92DB
:101800000F931F93CF93DF9384E498E040E855E271
:1018100060E070E00E94CD1584E498E06AEA73E02D
:101820000E94821384E498E00E94AD160E94BB08D7
:101830000E9482080E946B080E942C04C090AE0592
:10184000CC2DD0E074E0CC0FDD1F7A95E1F768EF86
:10185000C62E64E0D62ECC0EDD1EFE01E450FB4FFA
:10186000D6011C966D917D918D919C911F97208141
:10187000318142815381620F731F841F951F22E0C3
:1018800030E040E050E00E94323979018A01C050D6
:10189000DB4F688179818A819B81F60120813181CA
:1018A00042815381620F731F841F951F22E030E035
:1018B00040E050E00E943239C801B7010E94D705CC
:1018C0008091690590916A05969587954091AF053D
:1018D0005091B00560916B0570916C057695679598
:1018E0002091B1053091B205620F731F840F951FCF
:1018F0000E94EA0681E08093EB0582E060E00E94AE
:10190000761182E061E00E94291283E060E00E948B
:10191000761183E061E00E94291281E067ED77E0B3
:1019200042E050E00E94720F80E06EEC77E042E00F
:1019300050E00E94720F68EE73E080E090E00E9439
:10194000B70E84E690E09093ED058093EC058DB79B
:101950009EB72091120B3091130B2115310511F018
:10196000A90104C04091B8045091B90460915A058E
:1019700070915B05841B950B861B970B80529340DF
:10198000B0F48DB79EB72115310521F42091B8042C
:101990003091B904821B930B861B970B03E096953D
:1019A00087950A95E1F79093ED058093EC0580917A
:1019B000EC059091ED0513E0880F991F1A95E1F75A
:1019C0000E948E348093F0059093F10500D00F9221
:1019D00086EB93E0ADB7BEB712969C938E931197AA
:1019E0008091EC059091ED0514969C938E9313973E
:1019F0000E944A071092EF051092EE054DB75EB7B0
:101A00002091120B3091130B0F900F900F900F90AD
:101A10002115310521F42091B8043091B90400D08A
:101A20000F9287EC93E0EDB7FEB792838183421B60
:101A3000530B548343830E944A070F900F900F90DB
:101A40000F90DF91CF911F910F91FF90EF90DF905A
:101A5000CF9008958F929F92AF92BF92CF92DF92D4
:101A6000EF92FF920F931F93CF93DF93182F092FBD
:101A70006B015A0100D000D0EDB7FEB7319683ED6F
:101A800093E0ADB7BEB712969C938E931197738374
:101A90006283558344830E944A078DB79EB706969A
:101AA0000FB6F8949EBF0FBE8DBF1C141D0414F416
:101AB000B7FE1EC000D000D0EDB7FEB731968EEF56
:101AC00093E0ADB7BEB712969C938E931197D382D5
:101AD000C282B582A4820E944A072FEF3FEF8DB7E2
:101AE0009EB706960FB6F8949EBF0FBE8DBF42C03C
:101AF000812F902F9C01E901EE24FF24870186E1CC
:101B0000882E84E0982EADB7BEB71A970FB6F8941A
:101B1000BEBF0FBEADBFEDB7FEB7319612969C9219
:101B20008E921197E282F38204831583E682F78214
:101B3000008711870E944A078DB79EB70A960FB695
:101B4000F8949EBF0FBE8DBFEA14FB0444F4EC82F0
:101B5000FD820E831F83E882F9820A831B83089427
:101B6000E11CF11C011D111D2896EC14FD045CF212
:101B700020E030E0C901DF91CF911F910F91FF90DC
:101B8000EF90DF90CF90BF90AF909F908F9008958F
:101B90004F925F926F927F928F929F92AF92BF927D
:101BA000CF92DF92EF92FF920F931F93DF93CF9329
:101BB000CDB7DEB760970FB6F894DEBF0FBECDBFCE
:101BC00029833A834B835C836D837E838F839887DD
:101BD000A986BA86CB86DC86ED86FE860F87188BB3
:101BE0004DB65EB62D813E814F815885E980FA80E1
:101BF0000B811C81AD84BE84CF84D88869847A84AB
:101C00008B849C848DB79EB780970FB6F8949EBF47
:101C10000FBE8DBFADB7BEB752970FB6F894BEBF1B
:101C20000FBEADBFEDB7FEB731968EE494E01296CD
:101C30009C938E9311972283338344835583E6824A
:101C4000F78200871187A286B386C486D58666860A
:101C50007786808A918A0E944A07EDB7FEB73E9642
:101C60000FB6F894FEBF0FBEEDBF8CE794E09283F1
:101C7000818388E090E0948383830E944A070F90D9
:101C80000F900F900F9088E090E00FB6F8945EBE32
:101C90000FBE4DBE60960FB6F894DEBF0FBECDBF2F
:101CA000CF91DF911F910F91FF90EF90DF90CF9038
:101CB000BF90AF909F908F907F906F905F904F906C
:101CC00008951F920F920FB60F9211242F933F93F6
:101CD0008F939F93AF93BF9380910F0690911006BF
:101CE000A0911106B0911206309113060196A11D24
:101CF000B11D232F2D5F2D3720F02D570196A11DEB
:101D0000B11D2093130680930F0690931006A093A5
:101D10001106B093120680910B0690910C06A091CB
:101D20000D06B0910E060196A11DB11D80930B0604
:101D300090930C06A0930D06B0930E06BF91AF9141
:101D40009F918F913F912F910F900FBE0F901F90F9
:101D500018958FB7F89420910F0630911006409196
:101D60001106509112068FBFB901CA0108959B0157
:101D7000AC017FB7F89480910B0690910C06A0916E
:101D80000D06B0910E0666B5A89B05C06F3F19F011
:101D90000196A11DB11D7FBFBA2FA92F982F8827AB
:101DA000860F911DA11DB11D62E0880F991FAA1F0A
:101DB000BB1F6A95D1F7BC012DC0FFB7F894809185
:101DC0000B0690910C06A0910D06B0910E06E6B59B
:101DD000A89B05C0EF3F19F00196A11DB11DFFBFE3
:101DE000BA2FA92F982F88278E0F911DA11DB11DE5
:101DF000E2E0880F991FAA1FBB1FEA95D1F7861B47
:101E0000970B885E9340C8F22150304040405040CC
:101E100068517C4F211531054105510571F6089532
:101E2000789484B5826084BD84B5816084BD85B5B5
:101E3000826085BD85B5816085BDEEE6F0E080817C
:101E400081608083E1E8F0E010828081826080839D
:101E5000808181608083E0E8F0E080818160808320
:101E6000E1EBF0E0808184608083E0EBF0E0808152
:101E700081608083E1E9F0E08081826080838081FD
:101E800081608083E0E9F0E0808181608083E1EA25
:101E9000F0E0808182608083808181608083E0EADD
:101EA000F0E0808181608083E1E2F1E08081826006
:101EB0008083808181608083E0E2F1E080818160C5
:101EC0008083EAE7F0E080818460808380818260A3
:101ED000808380818160808380818068808310928C
:101EE000C1000895883008F078C0E82FF0E0EE0FC8
:101EF000FF1FEC5EF94F718360838330D9F084302B
:101F000030F4813009F444C0823060F439C0853047
:101F100051F18530D8F0863009F446C0873009F099
:101F20005CC04FC0809169008C7F842B80936900D6
:101F3000E89A089580916900440F551F440F551F7A
:101F4000837F842B80936900E99A089580916900CA
:101F500074E0440F551F7A95E1F78F7C842B8093B2
:101F60006900EA9A08958091690066E0440F551F60
:101F70006A95E1F78F73842B80936900EB9A08953B
:101F800080916A008C7F842B80936A00EC9A08957C
:101F900080916A00440F551F440F551F837F842B87
:101FA00080936A00ED9A089580916A0024E0440FBE
:101FB000551F2A95E1F78F7C842B80936A00EE9A57
:101FC000089580916A0096E0440F551F9A95E1F7B5
:101FD0008F73842B80936A00EF9A08951F920F925B
:101FE0000FB60F920BB60F9211242F933F934F937E
:101FF0005F936F937F938F939F93AF93BF93EF9371
:10200000FF938091180690911906892B29F0E09191
:102010001806F09119061995FF91EF91BF91AF91B4
:102020009F918F917F916F915F914F913F912F91F0
:102030000F900BBE0F900FBE0F901F9018951F9220
:102040000F920FB60F920BB60F9211242F933F935E
:102050004F935F936F937F938F939F93AF93BF93B0
:10206000EF93FF9380911A0690911B06892B29F01C
:10207000E0911A06F0911B061995FF91EF91BF911F
:10208000AF919F918F917F916F915F914F913F9110
:102090002F910F900BBE0F900FBE0F901F901895B1
:1020A0001F920F920FB60F920BB60F9211242F931F
:1020B0003F934F935F936F937F938F939F93AF93D0
:1020C000BF93EF93FF9380911C0690911D06892B7F
:1020D00029F0E0911C06F0911D061995FF91EF91F2
:1020E000BF91AF919F918F917F916F915F914F9130
:1020F0003F912F910F900BBE0F900FBE0F901F902E
:1021000018951F920F920FB60F920BB60F921124D3
:102110002F933F934F935F936F937F938F939F93EF
:10212000AF93BF93EF93FF9380911E0690911F068C
:10213000892B29F0E0911E06F0911F061995FF9159
:10214000EF91BF91AF919F918F917F916F915F912F
:102150004F913F912F910F900BBE0F900FBE0F909C
:102160001F9018951F920F920FB60F920BB60F92F9
:1021700011242F933F934F935F936F937F938F938C
:102180009F93AF93BF93EF93FF9380911406909129
:102190001506892B29F0E0911406F0911506199582
:1021A000FF91EF91BF91AF919F918F917F916F912F
:1021B0005F914F913F912F910F900BBE0F900FBEEB
:1021C0000F901F9018951F920F920FB60F920BB69B
:1021D0000F9211242F933F934F935F936F937F93AD
:1021E0008F939F93AF93BF93EF93FF9380911606C6
:1021F00090911706892B29F0E0911606F0911706A9
:102200001995FF91EF91BF91AF919F918F917F9120
:102210006F915F914F913F912F910F900BBE0F9057
:102220000FBE0F901F9018951F920F920FB60F922E
:102230000BB60F9211242F933F934F935F936F939D
:102240007F938F939F93AF93BF93EF93FF9380916F
:10225000200690912106892B29F0E0912006F0912B
:1022600021061995FF91EF91BF91AF919F918F91A9
:102270007F916F915F914F913F912F910F900BBE86
:102280000F900FBE0F901F9018951F920F920FB6D0
:102290000F920BB60F9211242F933F934F935F939E
:1022A0006F937F938F939F93AF93BF93EF93FF931E
:1022B0008091220690912306892B29F0E091220635
:1022C000F09123061995FF91EF91BF91AF919F91E6
:1022D0008F917F916F915F914F913F912F910F90CF
:1022E0000BBE0F900FBE0F901F901895CF93DF93EA
:1022F000482F50E0CA0188589E4FFC0134914E5C33
:102300005E4FFA018491882369F190E0880F991F4C
:10231000FC01EC51FF4FA591B491FC01E250FF4F3D
:10232000C591D491662351F42FB7F8948C91932FD3
:10233000909589238C93888189230BC0623061F446
:102340002FB7F8948C91932F909589238C93888143
:10235000832B88832FBF06C09FB7F8948C91832B63
:102360008C939FBFDF91CF910895893009F449C0C4
:102370008A30A0F4843051F1853040F4823079F114
:10238000833000F5813009F063C026C0873079F1D1
:10239000883098F5863009F05BC025C08D3009F48F
:1023A00042C08E3028F48B30B1F18C30C0F52DC096
:1023B000803109F442C0813109F445C08F3009F001
:1023C00047C037C0809180008F7703C08091800024
:1023D0008F7D80938000089584B58F7702C084B587
:1023E0008F7D84BD08958091B0008F7703C0809168
:1023F000B0008F7D8093B0000895809190008F771A
:1024000007C0809190008F7D03C080919000877FEE
:102410008093900008958091A0008F7707C08091ED
:10242000A0008F7D03C08091A000877F8093A000D3
:102430000895809120018F7703C0809120018F7DC6
:1024400080932001089580912001877F809320014F
:102450000895FF920F931F93F62E482F50E0CA0164
:1024600082549E4FFC012491CA0188589E4FFC0162
:1024700014914E5C5E4FFA0104910023C9F02223AF
:1024800019F0822F0E94B511E02FF0E0EE0FFF1F30
:10249000E250FF4FA591B4919FB7F894FF2021F42B
:1024A0008C911095812302C08C91812B8C939FBFBE
:1024B0001F910F91FF9008950F931F93482F50E0A5
:1024C000CA0182549E4FFC012491CA0188589E4F34
:1024D000FC0104914E5C5E4FFA011491112319F432
:1024E00020E030E015C0222319F0822F0E94B511A0
:1024F000812F90E0880F991F885E9E4FFC01A59167
:10250000B4918C9120E030E0802311F021E030E0A4
:10251000C9011F910F910895382F863308F0365363
:1025200020917B00832F86958695869590E081701B
:10253000907043E0880F991F4A95E1F7277F282B79
:1025400020937B003770809164058295880F880FF7
:10255000807C832B80937C0080917A0080648093C0
:102560007A0080917A0086FDFCCF2091780040911E
:102570007900942F80E030E0282B392BC901089591
:102580002F923F924F925F926F927F928F929F9283
:10259000AF92BF92CF92DF92EF92FF920F931F9371
:1025A000DF93CF93CDB7DEB73B014C0119012A0170
:1025B0006E897F89888D998D6A197B098C099D099F
:1025C000621A730A840A950AA40193010E94CA3808
:1025D000E218F30804091509A80197010E9432398D
:1025E0002A0D3B1D4C1D5D1DB901CA01CF91DF9124
:1025F0001F910F91FF90EF90DF90CF90BF90AF9021
:102600009F908F907F906F905F904F903F902F9012
:102610000895CF92DF92EF92FF920F931F93CF9383
:10262000DF937C016B018A01C0E0D0E00FC0D601CE
:102630006D916D01D701ED91FC910190F081E02D3C
:10264000C7011995C80FD91F015010400115110578
:1026500071F7CE01DF91CF911F910F91FF90EF9015
:10266000DF90CF900895EF92FF920F931F938C010C
:10267000DC01ED91FC910190F081E02D6DE0199568
:102680007C01D801ED91FC910190F081E02DC80111
:102690006AE019959C012E0D3F1DC9011F910F91F4
:1026A000FF90EF900895EF92FF920F931F937C019C
:1026B000DC01ED91FC910190F081E02D19958C01E8
:1026C000C7010E943313080F191FC8011F910F91F2
:1026D000FF90EF900895CF93DF93DB010D900020E2
:1026E000E9F71197A61BB70BEC01E881F98102808D
:1026F000F381E02DAD011995DF91CF9108950E94EE
:102700006B130895EF92FF920F931F937C010E9429
:102710006B138C01C7010E943313080F191FC801E6
:102720001F910F91FF90EF900895CF93DF930E9438
:10273000100F0E94FC0BC8E8D4E10E942A092097E0
:10274000E1F30E948814F9CF08951F920F920FB6FB
:102750000F920BB60F9211242F933F934F938F93A9
:102760009F93EF93FF934091C600209164063091B0
:1027700065062F5F3F4F2F733070809166069091F2
:1027800067062817390759F0E0916406F09165064D
:10279000EC5DF94F40833093650620936406FF910A
:1027A000EF919F918F914F913F912F910F900BBE81
:1027B0000F900FBE0F901F90189508951F920F92C3
:1027C0000FB60F920BB60F9211242F933F934F9396
:1027D0008F939F93EF93FF934091CE002091EC064F
:1027E0003091ED062F5F3F4F2F7330708091EE06D2
:1027F0009091EF062817390759F0E091EC06F09117
:10280000ED06E455F94F40833093ED062093EC0636
:10281000FF91EF919F918F914F913F912F910F9049
:102820000BBE0F900FBE0F901F90189508951F922A
:102830000F920FB60F920BB60F9211242F933F9366
:102840004F938F939F93EF93FF934091D6002091E6
:102850007407309175072F5F3F4F2F733070809151
:102860007607909177072817390759F0E091740798
:10287000F0917507EC5CF84F408330937507209317
:102880007407FF91EF919F918F914F913F912F91FD
:102890000F900BBE0F900FBE0F901F9018950895CC
:1028A0001F920F920FB60F920BB60F9211242F9317
:1028B0003F934F938F939F93EF93FF9340913601F4
:1028C0002091FC073091FD072F5F3F4F2F73307031
:1028D0008091FE079091FF072817390759F0E09182
:1028E000FC07F091FD07E454F84F40833093FD0757
:1028F0002093FC07FF91EF919F918F914F913F9112
:102900002F910F900BBE0F900FBE0F901F90189538
:10291000E0915008F0915108E05CFF4F8191919156
:1029200020813181821B930B8F739070892B11F062
:102930000E94A413E0916F08F0917008E05CFF4FD3
:102940008191919120813181821B930B8F739070C3
:10295000892B11F00E94DD13E0918E08F0918F0811
:10296000E05CFF4F8191919120813181821B930B1B
:102970008F739070892B11F00E941614E091AD08AE
:10298000F091AE08E05CFF4F8191919120813181FF
:10299000821B930B8F739070892B11F00E944F1440
:1029A00008951F920F920FB60F920BB60F9211243B
:1029B0002F933F938F939F93EF93FF932091A806BC
:1029C0003091A9068091AA069091AB062817390785
:1029D00031F48091C1008F7D8093C10014C0E091DB
:1029E000AA06F091AB06E859F94F20818091AA061A
:1029F0009091AB0601968F7390709093AB06809385
:102A0000AA062093C600FF91EF919F918F913F916D
:102A10002F910F900BBE0F900FBE0F901F90189527
:102A20001F920F920FB60F920BB60F9211242F9395
:102A30003F938F939F93EF93FF93209130073091B3
:102A4000310780913207909133072817390731F405
:102A50008091C9008F7D8093C90014C0E091320736
:102A6000F0913307E051F94F208180913207909126
:102A7000330701968F7390709093330780933207DA
:102A80002093CE00FF91EF919F918F913F912F91D5
:102A90000F900BBE0F900FBE0F901F9018951F92B6
:102AA0000F920FB60F920BB60F9211242F933F93F4
:102AB0008F939F93EF93FF932091B8073091B907BD
:102AC0008091BA079091BB072817390731F480919C
:102AD000D1008F7D8093D10014C0E091BA07F091AE
:102AE000BB07E858F84F20818091BA079091BB0747
:102AF00001968F7390709093BB078093BA072093D1
:102B0000D600FF91EF919F918F913F912F910F9060
:102B10000BBE0F900FBE0F901F9018951F920F9233
:102B20000FB60F920BB60F9211242F933F938F93F2
:102B30009F93EF93FF93209140083091410880913B
:102B40004208909143082817390731F480913101E8
:102B50008F7D8093310114C0E0914208F0914308C9
:102B6000E050F84F208180914208909143080196EF
:102B70008F7390709093430880934208209336019E
:102B8000FF91EF919F918F913F912F910F900BBEED
:102B90000F900FBE0F901F901895AF92BF92DF92CB
:102BA000EF92FF920F931F93CF93DF93EC017A0183
:102BB0008B01DD24403081EE580780E0680780E01B
:102BC000780711F0DD24D39491E0A92EB12CEC8983
:102BD000FD89DD2069F0C5010E8C02C0880F991FA8
:102BE0000A94E2F7808360E079E08DE390E005C02D
:102BF000108260E874E88EE190E0A80197010E94DD
:102C000010392150304040405040569547953795F7
:102C1000279580E12030380720F0DD2011F0DD24F9
:102C2000D6CFE889F9893083EA89FB892083EE8948
:102C3000FF89408121E030E0C9010A8C02C0880F81
:102C4000991F0A94E2F7482B4083EE89FF8940815F
:102C5000C9010B8C02C0880F991F0A94E2F7482B18
:102C60004083EE89FF894081C9010C8C02C0880F26
:102C7000991F0A94E2F7482B4083EE89FF898081EF
:102C80000D8C02C0220F331F0A94E2F720952823EF
:102C90002083DF91CF911F910F91FF90EF90DF90F4
:102CA000BF90AF900895DC011C96ED91FC911D97AB
:102CB000E05CFF4F2191319180819181281B390B7C
:102CC0002F733070C9010895DC011C96ED91FC91C1
:102CD0001D97E05CFF4F20813181E054F040DF011F
:102CE000AE5BBF4F8D919C9111972817390719F44E
:102CF0002FEF3FEF07C08D919C91E80FF91F808166
:102D0000282F30E0C9010895DC011C96ED91FC915B
:102D10001D97E05CFF4F20813181E054F040DF01DE
:102D2000AE5BBF4F8D919C9111972817390719F40D
:102D30002FEF3FEF10C08D919C911197E80FF91F75
:102D400020818D919C91119701968F7390701196AF
:102D50009C938E9330E0C9010895FC018685978588
:102D6000DC01A05CBF4FFC01EE5BFF4F2D913C915D
:102D700011978081918128173907C1F70895CF9362
:102D8000DF93EC01EE85FF85E05CFF4F2081318110
:102D9000E054F0402F5F3F4F2F733070DF01AE5B88
:102DA000BF4F8D919C91119728173907D1F3E05CA3
:102DB000FF4F80819181E054F040E80FF91F60835C
:102DC000EE85FF85E05CFF4F31832083EE89FF892C
:102DD000208181E090E00D8C02C0880F991F0A9439
:102DE000E2F7282B208381E090E0DF91CF910895D6
:102DF0001F93109247081092460828EE33E040E0F7
:102E000050E0209348083093490840934A08509373
:102E10004B0861E775E0709345086093440884E2CD
:102E200096E0909351088093500888E696E090933E
:102E300053088093520885EC90E090935508809356
:102E4000540884EC90E0909357088093560880ECE7
:102E500090E0909359088093580881EC90E090930B
:102E60005B0880935A0886EC90E090935D0880930D
:102E70005C0814E010935E08B3E0B0935F08A7E02D
:102E8000A0936008F5E0F0936108E1E0E093620848
:102E900010926608109265082093670830936808BE
:102EA0004093690850936A087093640860936308BC
:102EB0008CEA96E09093700880936F0880EF96E01C
:102EC00090937208809371088DEC90E09093740851
:102ED000809373088CEC90E090937608809375084B
:102EE00088EC90E0909378088093770889EC90E0E4
:102EF00090937A08809379088EEC90E090937C0808
:102F000080937B0810937D08B0937E08A0937F0880
:102F1000F0938008E093810810928508109284084D
:102F20002093860830938708409388085093890837
:102F3000709383086093820884E397E090938F08EE
:102F400080938E0888E797E090939108809390088B
:102F500085ED90E0909393088093920884ED90E043
:102F6000909395088093940880ED90E09093970853
:102F70008093960881ED90E090939908809398084B
:102F800086ED90E090939B0880939A0810939C089C
:102F9000B0939D08A0939E08F0939F08E093A0082B
:102FA0001092A4081092A3082093A5083093A608B5
:102FB0004093A7085093A8087093A2086093A108B3
:102FC0008CEB97E09093AE088093AD0880E098E09A
:102FD0009093B0088093AF0885E391E09093B20896
:102FE0008093B10884E391E09093B4088093B30890
:102FF00080E391E09093B6088093B50881E391E077
:103000009093B8088093B70886E391E09093BA084C
:103010008093B9081093BB08B093BC08A093BD0877
:10302000F093BE08E093BF081F910895FC017583DB
:103030006483718760875783468353874287158AE5
:10304000158614861786168621E0248B8FEF9FEF56
:10305000938B828B918B808B268B08952F923F923E
:103060004F925F926F927F928F929F92AF92BF9298
:10307000CF92DF92EF92FF920F931F93DF93CF9344
:10308000CDB7DEB72E970FB6F894DEBF0FBECDBF1B
:103090009E878D871B015E834D83A701260171E00A
:1030A000C72ED12CC21AD30AC901880F991F6627CF
:1030B0007727681B790B7A8369836D807E800894FB
:1030C0006108710883E0882E912C8E0C9F1C790179
:1030D00081E090E09C838B83AA24BB2410E0D8017C
:1030E000A170B070B887AF83FA013196FA87E9878B
:1030F000B801627070707C876B8777C0D7FC0AC09C
:103100000894E108F10889819A8102969A8389835B
:10311000C80ED91E0894A11CB11CAB81BC811296AB
:10312000BC83AB83EF81F885EF2B41F1AD85BE8584
:10313000ED91FC911197B501620D731D4D815E817A
:103140004E195F099701220F331F89859A85280F31
:10315000391F0284F385E02DCD0182011995AD85DB
:10316000BE85ED91FC911197B701620D731D02842C
:10317000F385E02DCD01A30194011995EB85FC8524
:10318000EF2B41F1AD85BE85ED91FC911197B10119
:103190006A197B094D815E814E195F099701220FE3
:1031A000331F89859A85280F391F0284F385E02D06
:1031B000CD0182011995AD85BE85ED91FC911197E8
:1031C000B1016E197F090284F385E02DCD01A301C1
:1031D00094011995EB81FC81CE0EDF1E08946108E5
:1031E000710862E070E0860E971EAE14BF040CF406
:1031F00085CF2E960FB6F894DEBF0FBECDBFCF9110
:10320000DF911F910F91FF90EF90DF90CF90BF90D3
:10321000AF909F908F907F906F905F904F903F9076
:103220002F9008956F927F928F929F92AF92BF924C
:10323000CF92DF92EF92FF920F931F937C014B018D
:103240003A0159016801DC01ED91FC91421B530BDD
:10325000220F331F2F5F3F4F0284F385E02D199516
:10326000C701B401A301950103E0EE24FF240E94ED
:103270002E181F910F91FF90EF90DF90CF90BF908D
:10328000AF909F908F907F906F9008952F923F9274
:103290004F925F926F927F928F929F92AF92BF9266
:1032A000CF92DF92EF92FF920F931F93DF93CF9312
:1032B00000D00F92CDB7DEB73C017C836B836A01EF
:1032C0005901FA82E982222433249801241B350B08
:1032D00037FF03C0309521953F4FC5014B815C817D
:1032E000841B950B97FF03C0909581959F4F821784
:1032F00093075CF481E0282E312CC601CB80DC8062
:103300009C838B83C80185015C018B819C81A816FD
:10331000B90644F4C501AB80BC809C838B83C80193
:1033200086016C012501AB81BC814A1A5B0A7801D8
:10333000EC18FD08F7FE04C0F094E194F108F39452
:10334000C016D10624F088248A94982C03C0B1E0DA
:103350008B2E912CC20162E070E00E94FD388B013F
:1033600025C0D301ED91FC912114310441F004807A
:10337000F581E02DC301B6014B815C8107C004805B
:10338000F581E02DC3016B817C81A60129813A8101
:1033900019950E191F0917FF04C0C80CD91C040D7C
:1033A000151DEB81FC813196FC83EB834B815C81A5
:1033B000A416B506B4F60F900F900F900F90CF9112
:1033C000DF911F910F91FF90EF90DF90CF90BF9012
:1033D000AF909F908F907F906F905F904F903F90B5
:1033E0002F9008954F925F926F927F928F929F924B
:1033F000AF92BF92CF92DF92EF92FF920F931F9303
:103400006C015B014A0139012801DC01ED91FC915D
:103410000484F585E02D87011995D601ED91FC9185
:10342000A40141505040440D551D0484F585E02D04
:10343000C601B50193011995D601ED91FC91028465
:10344000F385E02DC601B501A40192011995D601BD
:10345000ED91FC910894A108B108A60CB71C028458
:10346000F385E02DC601B501A401920119951F91C4
:103470000F91FF90EF90DF90CF90BF90AF909F9013
:103480008F907F906F905F904F9008952F923F9212
:103490004F925F926F927F928F929F92AF92BF9264
:1034A000CF92DF92EF92FF920F931F93DF93CF9310
:1034B000CDB7DEB72F970FB6F894DEBF0FBECDBFE6
:1034C0005C015E834D8318870F83FA86E986CB867D
:1034D000DC0118968D919C911997681779070CF06B
:1034E000A4C01A968D919C911B97481759070CF010
:1034F0009CC0EC2DF0E0FF87EE87CF01880F991F6D
:10350000880F991F8E0F9F1F860F971F1816190679
:103510000CF08BC0CF01A3E0880F991FAA95E1F7AB
:10352000840F951F181619060CF07FC085E0289FA0
:10353000A00111245A8349832B011B011C825C8149
:10354000553011F480E005C0E981FA81EC5FFD4F50
:1035500084912C863D866D807E8043011B82C82E1F
:10356000DD2480FF1CC0D501ED91FC91BB85B130FD
:1035700049F40480F581E02DC501B201A3012F813A
:10358000388522C00088F189E02DC5016C857D85D4
:10359000A4012E853F858901EF80F88423C0E98549
:1035A000FA852F813885E217F307E9F0D501ED910F
:1035B000FC91BB85B13051F40480F581E02DC5014B
:1035C000B201A30129853A8519950DC00088F189BA
:1035D000E02DC5016C857D85A4012E853F8589017F
:1035E000E984FA841995EB81EF5FEB832E853F85A3
:1035F000820E931E0894611C711CE83021F0D59452
:10360000C7948C2DACCF3C813F5F3C834E855F855A
:10361000240E351E0894411C511C89819A81019603
:103620009A838983363009F08ACF2F960FB6F894A3
:10363000DEBF0FBECDBFCF91DF911F910F91FF90E5
:10364000EF90DF90CF90BF90AF909F908F907F9042
:103650006F905F904F903F902F900895CF92EF9290
:10366000FF920F931F93CF93DF93EC01262F6A30C5
:1036700061F42C8930E003E0220F331F0A95E1F753
:103680008E859F85820F931F37C06D30C9F16C8581
:103690007D854E855F8508891989EA88FB88CC88F5
:1036A0000E94461A2C8986E0289FB00111248C853F
:1036B0009D85680F791F7D876C878E89882301F12E
:1036C000422F50E08AEF9FEF9C01429FC001439F31
:1036D000900D529F900D112428853985820F931FDC
:1036E000861797076CF413E0440F551F1A95E1F7FE
:1036F0008E859F85840F951F9F878E871D861C86CC
:1037000081E090E0DF91CF911F910F91FF90EF90BA
:10371000CF900895FC017587648757874687089581
:10372000FC01662309F461E0648B0895FC01718B50
:10373000608B738B628B0895FC011382128281E887
:1037400095E09183808360A341A322A381E0878BCE
:1037500014A213A20895DC0157968C9157978823E1
:1037600029F06EBD0DB407FEFDCF089530E840E0AE
:1037700050E070E0832F90E0862397235896ED91D8
:10378000FC91599795962C919597892B21F08081E2
:10379000822B808304C080812095282320835A9621
:1037A000ED91FC915B97808196969C919697892BE1
:1037B00080835A96ED91FC915B97908196968C91BF
:1037C000969780958923808336954F5F5F4F483069
:1037D000510581F608950F931F938C01DC015E96CD
:1037E000ED91FC915F97908198968C919897809538
:1037F000892380835C96ED91FC915D9790819796EB
:103800008C91809589238083C8010E94AB1BD801CD
:103810005C96ED91FC915D97808197969C91892BA8
:1038200080831F910F9108950F931F938C01DC01EA
:103830005E96ED91FC915F97808198969C91989708
:10384000892B80835C96ED91FC915D979081979692
:103850008C91809589238083C8010E94AB1BD8017D
:103860005C96ED91FC915D97808197969C91892B58
:1038700080831F910F910895CF92DF92EF92FF9274
:103880000F931F937C01162FC42ED22E6AE20E9442
:10389000EB1BC70160E00E94141CF70161A5610FDA
:1038A000C7010E94141CC70160E00E94141CF701AC
:1038B00061A56D0DC7010E94141CC7016BE20E9437
:1038C000EB1BC70160E00E94141CF70162A56C0DA0
:1038D000C7010E94141CC70160E00E94141CF7017C
:1038E00062A5600FC7010E94141CC7016CE20E9410
:1038F000EB1B1F910F91FF90EF90DF90CF900895F9
:10390000EF92FF920F931F93CF93DF93EC017B0114
:10391000288521500A85015060E040E00E943C1C4F
:10392000EE8DFF8D808198A5892B8083EC8DFD8D98
:1039300090818FA18095892380831A850EC0088588
:1039400009C0CE016F2D0E94AB1BCE016E2D0E94CF
:10395000AB1B01500023A9F71150112381F7EC8D07
:10396000FD8D80819FA1892B8083DF91CF911F9155
:103970000F91FF90EF900895FF920F931F938C018A
:10398000F62E672FDC015E96ED91FC915F978081AA
:1039900098969C919897892B80835C96ED91FC91E9
:1039A0005D97908197968C91809589238083C8013B
:1039B0000E94AB1BC8016F2D0E94AB1BD8015C9607
:1039C000ED91FC915D97808197969C91892B8083E6
:1039D0001F910F91FF900895FF920F931F93CF9324
:1039E000DF93EC01F22E132F77FD2EC08885998589
:1039F000681779074CF557FD27C08A859B854817BE
:103A0000590714F5262F2F5F042F0F5FCE010E9458
:103A10003C1CEE8DFF8D808198A5892B8083EC8DD9
:103A2000FD8D90818FA1809589238083CE01612FA8
:103A30000E94AB1BCE016F2D0E94AB1BEC8DFD8D48
:103A400080819FA1892B8083DF91CF911F910F915E
:103A5000FF900895DF92EF92FF920F931F93CF9301
:103A6000DF93EC01FB017901D02E888599856817D9
:103A70007907D4F52A853B8542175307ACF5C70172
:103A8000840F951F281739071CF47901E41AF50AE9
:103A9000042F01500E0DCE016E2F2E2F0E943C1CC4
:103AA000EE8DFF8D808198A5892B8083EC8DFD8D17
:103AB00090818FA180958923808308C0CE01612FDA
:103AC0000E94AB1BCE016D2D0E94AB1B0894E10838
:103AD000F1088FEFE8168FEFF80681F7EC8DFD8D7A
:103AE00080819FA1892B8083DF91CF911F910F91BE
:103AF000FF90EF90DF900895DF92EF92FF920F9387
:103B00001F93CF93DF93EC01FA017901D02E288522
:103B1000398562177307D4F58A859B85481759073D
:103B2000ACF5C701860F971F281739071CF47901D8
:103B3000E61AF70A262F21502E0DCE014E2F0E2FFA
:103B40000E943C1CEE8DFF8D808198A5892B80837F
:103B5000EC8DFD8D90818FA180958923808308C095
:103B6000CE01612F0E94AB1BCE016D2D0E94AB1BBD
:103B70000894E108F1088FEFE8168FEFF80681F757
:103B8000EC8DFD8D80819FA1892B8083DF91CF916A
:103B90001F910F91FF90EF90DF900895AF92BF9229
:103BA000CF92DF92EF92FF920F931F93CF93DF9309
:103BB0006C015901E801DC0118962D913C9119978F
:103BC000621773070CF057C01A96ED91FC911B9782
:103BD0004E175F070CF04FC0C501860F971F2817BF
:103BE00039071CF45901A61AB70ACE01840F951F94
:103BF000E817F9071CF4EF01C41BD50B262F215041
:103C00002A0D042F01500C0FC6010E943C1CD60146
:103C10005E96ED91FC915F97808198969C91989724
:103C2000892B80835C96ED91FC915D9790819796AE
:103C30008C918095892380838E010EC0C6016F2DE3
:103C40000E94AB1BC6016E2D0E94AB1B21971C1658
:103C50001D06A4F3015010401016110614F4E501DE
:103C6000F6CFD6015C96ED91FC915D978081979699
:103C70009C91892B8083DF91CF911F910F91FF90B1
:103C8000EF90DF90CF90BF90AF9008951F93CF93A8
:103C9000DF93EC01162F66E30E94EB1B13701D8B64
:103CA000113051F0113028F0123049F01330F1F496
:103CB00011C0CE0168EC05C0CE0168EA0DC0CE018E
:103CC00068E00E94141C80E890E09987888780EA69
:103CD00090E00AC0CE0168E60E94141C80EA90E0E1
:103CE0009987888780E890E09B878A87DF91CF91CA
:103CF0001F910895662311F460E201C061E20E9401
:103D0000EB1B0895AF92BF92CF92DF92EF92FF929A
:103D10000F931F93CF93DF935C01FB01EB0121967F
:103D2000D49031C08E010F5F1F4FFE016491C50119
:103D30000E94EB1B78010894E11CF11CF801C4906F
:103D40000C2D0F77E701102F08C0FE012196E4919A
:103D5000C5016E2F0E94141C11501123B1F7E70109
:103D6000C00FD11DC7FE0EC0FE018491682F70E008
:103D70006F3F710511F464EF71E0219680E090E0EF
:103D80000E94B70EDA94DD2069F6DF91CF911F9182
:103D90000F91FF90EF90DF90CF90BF90AF9008957C
:103DA0000F931F93CF93DF93EC018B0160E870E0DA
:103DB00040EA50E00E9416181AA619A689A161E0EF
:103DC0000E94761188A161E00E947611E8A12E2F51
:103DD00030E0F901EE5CFE4FE491F0E0EE0FFF1FE2
:103DE000E250FF4F859194919D8F8C8F28583E4FC4
:103DF000F90184918FA3E9A12E2F30E0F901EE5C47
:103E0000FE4FE491F0E0EE0FFF1FE250FF4F85916F
:103E100094919F8F8E8F28583E4FF901849188A7E7
:103E20008F89882361F00E94213380E00E94103343
:103E300081E00E94023380E00E940B333DC08CA1E0
:103E400061E00E9476118BA161E00E947611ECA1E5
:103E50008E2F90E0FC01EE5CFE4FE491F0E0EE0F5F
:103E6000FF1FE250FF4FA591B491BB8FAA8F8858D6
:103E70009E4FFC0144914EA3EBA12E2F30E0F9019F
:103E8000EE5CFE4FE491F0E0EE0FFF1FE250FF4FBB
:103E900085919491998F888F28583E4FF90184918C
:103EA0008DA38C91409548234C93E88DF98D90819A
:103EB0008DA1809589238083EC8DFD8D90818FA1CC
:103EC0008095892380838AA1882309F161E00E947B
:103ED00076118AA161E00E94291264EF71E080E00E
:103EE00090E00E94B70E8AA160E00E94291264EF60
:103EF00071E080E090E00E94B70E8AA161E00E942C
:103F0000291264EF71E080E090E00E94B70E011585
:103F1000110521F0CE01B8010E94821EDF91CF91E0
:103F20001F910F9108951F93CF93DF93EC01162FEC
:103F30006FEF76E00E94D01E112351F4CE016AE3A8
:103F400077E00E94821E82E089A781E08AA705C0EF
:103F5000CE0167E477E00E94821ECE0164E577E03F
:103F60000E94821EDF91CF911F91089582E090E020
:103F7000A0E0B0E08093C0089093C108A093C2086D
:103F8000B093C3081092D7081092E1081092E0088D
:103F900089EA95E09093DF088093DE081092E308A9
:103FA000109200091092010910920409109206095A
:103FB00008952F923F924F925F926F927F928F92CD
:103FC0009F92AF92BF92CF92DF92EF92FF920F93A8
:103FD0001F93DF93CF93CDB7DEB7C754D0400FB652
:103FE000F894DEBF0FBECDBF582E492EFB013A011B
:103FF000190180A191A1998B888B29EA35E03F872F
:104000002E8782A18A8B83A18B8B84A195A1A6A1E7
:10401000B7A18C8B9D8BAE8BBF8B80A591A5A2A5E4
:10402000B3A5888F998FAA8FBB8F84A595A5A6A5C8
:10403000B7A58C8F9D8FAE8FBF8F80A988A381A9D4
:1040400092A9A3A9B4A989A39AA3ABA3BCA385A948
:1040500096A9A7A9B0AD8DA39EA3AFA3B8A781AD24
:1040600092AD9AA789A71EA61DA63CA72BA718AAA2
:104070007A018E01025F1F4F3BE2A32EB12CAC0EE2
:10408000BD1E4E010894811C911C35C0D7018C9136
:104090008F3221F40894E11CF11C2DC0422F4E19DF
:1040A0004D3008F04CE0C42EDD24C401B701A60158
:1040B0000E94DE35F401EC0DFD1D1082C5010E9449
:1040C000E124C501B801A40121E00E94292A882326
:1040D00051F4E52DF42D1382128289EA95E0918343
:1040E0008083158266C0EC0CFD1CC8010E94E1248F
:1040F000C50158018C01C7016FE270E00E94D33501
:104100009C01009719F6E618F708F101F182E082A8
:10411000E52DF42DD80112968D919C9113979383E0
:10412000828389EA95E09183808314968C91149719
:10413000848315968C911597858316962D913D91C4
:104140004D915C91199726833783408751871A9642
:104150002D913D914D915C911D9722873387448726
:1041600055871E962D913D914D915C9151972687D3
:104170003787408B518B52968C915297828B5396F6
:104180002D913D914D915C915697238B348B458BAE
:10419000568B57962D913D914D915C915A97278B57
:1041A000308F418F528F5B968D919C915C97948F4D
:1041B000838F852D942DC95BDF4F0FB6F894DEBF3A
:1041C0000FBECDBFCF91DF911F910F91FF90EF9068
:1041D000DF90CF90BF90AF909F908F907F906F9027
:1041E0005F904F903F902F9008959F92AF92BF9213
:1041F000CF92DF92EF92FF920F931F93DF93CF93B3
:10420000CDB7DEB7C657D0400FB6F894DEBF0FBEAD
:10421000CDBFC82E992E8A01D22E43E0A42EB12CF8
:10422000AC0EBD1EC501A8019E012F5F3F4F0E942D
:10423000D91FE980FA80E00EF11EF701808149EA7A
:1042400055E02885882309F03FC08D819E819BA37E
:104250008AA359A348A38F818CA32DA389859A850E
:10426000AB85BC858EA39FA3A8A7B9A78D859E8586
:10427000AF85B8898AA79BA7ACA7BDA789899A896A
:10428000AB89BC898EA79FA7A8ABB9AB8D898AAB38
:104290008E899F89A88DB98D8BAB9CABADABBEAB26
:1042A0008A8D9B8DAC8DBD8D8FAB98AFA9AFBAAF0A
:1042B0008E8D9F8D9CAF8BAF8C2D992DBE01605E36
:1042C0007F4F4FE854E09FC0FE01FF96118210829D
:1042D0005EAF4DAFFE01EE5BFF4F10822223A9F0CF
:1042E0002250CE01CD96223048F46EED78E0A70141
:1042F0002D2D0E94292A882381F407C0B501A7012A
:104300002D2D0E94292A882329F48C2D992D0E9475
:104310004D227BC0C5010E94E124F6E0DF2259F066
:10432000FE01E05BFF4F4081518162817381CE01CC
:10433000CD960E94D1239E01265A3F4FFE01FF9643
:1043400080819181F9019383828389EA95E0918349
:104350008083FE01EF5BFF4F8081F9018483FE01C2
:10436000EE5BFF4F8081F9018583FE01ED5BFF4F1E
:1043700080819181A281B381F90186839783A0878F
:10438000B187FE01E95BFF4F80819181A281B381FA
:10439000F90182879387A487B587FE01E55BFF4F0C
:1043A00080819181A281B381F90186879787A08B53
:1043B000B18BFE01E15BFF4F8081F901828BFE0131
:1043C000E05BFF4F80819181A281B381F901838BF2
:1043D000948BA58BB68BFE01EC5AFF4F80819181A7
:1043E000A281B381F901878B908FA18FB28FFE01DB
:1043F000E85AFF4F80819181F901948F838F8C2D32
:10440000992DB901A7010E9457238C2D992DCA58C7
:10441000DF4F0FB6F894DEBF0FBECDBFCF91DF9157
:104420001F910F91FF90EF90DF90CF90BF90AF90D2
:104430009F900895EF92FF920F931F93CF93DF9376
:10444000EC01462F8C01055C1F4FC80161E00E9402
:104450006A2D8823D1F0FC2EED2ECE01B80141E06B
:104460000E94D72E882339F4CE01B80140E00E9483
:10447000D72E882351F0CE014E966F2D7E2D0E94AF
:104480001727882319F081E001C080E0DF91CF91E8
:104490001F910F91FF90EF900895FC0113821282FB
:1044A00088EE93E0A0E0B0E084839583A683B78391
:1044B00089E995E091838083128E118E1486089588
:1044C000FC0189E995E0918380830895DF93CF9380
:1044D0000F92CDB7DEB7FC016983A081B18112963E
:1044E0002D913C911397BE016F5F7F4F41E050E0EB
:1044F000F90119950F90CF91DF910895DC0159963C
:10450000ED91FC915A97309719F420E030E018C0F3
:10451000238934894589568982859385A485B58503
:10452000281B390B4A0B5B0B2030B0E83B07B0E08F
:104530004B07B0E05B0720F02FEF3FE740E050E093
:10454000C9010895DC015996ED91FC915A97309775
:1045500011F480E008958581811181E00895CF9361
:10456000DF93EC01898D9A8D009741F00E94E12440
:10457000898D9A8D0E942B351A8E198EDF91CF91DD
:104580000895FC01818D928D009711F480E00895CB
:104590000E94D1230895FC01818D928D009711F026
:1045A0000E9497240895FC01818D928D009719F443
:1045B00020E030E003C00E94B8259C01C9010895A5
:1045C000DF93CF930F92CDB7DEB7FC01818D928D33
:1045D000009749F0BE016F5F7F4F41E050E00E94BD
:1045E000B825019719F02FEF3FEF03C08981282FDD
:1045F00030E0C9010F90CF91DF910895EF92FF92C3
:104600000F931F93DF93CF930F92CDB7DEB77C014B
:10461000DC0159968D919C915A97009719F400E00E
:1046200010E01FC0BE016F5F7F4F41E050E00E946D
:10463000B825019719F00FEF1FEF13C08981082FDC
:1046400010E0D7015996ED91FC915A974285538518
:10465000648575854150504060407040CF010E9494
:10466000D123C8010F90CF91DF911F910F91FF903F
:10467000EF900895CF93DF93EC01E98DFA8D309799
:1046800061F013821282CF010E94FD279C01E98D07
:10469000FA8D82819381892B31F081E090E09B83B8
:1046A0008A8320E030E0C901DF91CF910895EF9235
:1046B000FF920F931F93CF93DF93EC01F62EE72E1B
:1046C0008A011B821A8288EE93E0A0E0B0E08C831E
:1046D0009D83AE83BF8389E995E0998388838DE1CB
:1046E00090E00E948E349A8F898F009791F0DC01C0
:1046F0008F2D9E2D9C01F9018DE101900D9281502D
:10470000E1F7CE010C96B8014CE050E00E94DE3596
:10471000188EDF91CF911F910F91FF90EF90089528
:10472000CF93DF93EC01DB0180E090E020E2FD011C
:10473000E80FF91F208301968B309105C1F757E0F0
:1047400040E021C02E3219F086EE97E007C05A30C3
:1047500019F15AE048E017C03217F1F0FC01019658
:1047600034913323C9F75417B8F02132A8F02F370A
:1047700098F4822F81568A3108F42052FD01E40F0B
:10478000F11D20834F5F29912223E1F690E08C9167
:10479000803219F091E001C090E0892FDF91CF9134
:1047A00008956F927F928F929F92AF92BF92CF9215
:1047B000DF92EF92FF920F931F93CF93DF93EC0161
:1047C0007A018B012D81222309F480C08B899C8979
:1047D000AD89BE8984179507A607B70708F476C088
:1047E00085C0E114F1040105110549F41E821F8200
:1047F000188619861A861B861C861D8665C02A8522
:104800003B854C855D85EB8DFC8D858590E009961B
:10481000215030404040504039014A01082E04C028
:1048200096948794779467940A94D2F72F5F3F4FBA
:104830004F4F5F4F0894E108F10801091109570132
:10484000680104C0D694C794B794A7948A95D2F708
:104850000894E11CF11C011D111DA614B704C80425
:10486000D90428F0211531054105510549F48F89F6
:10487000988DA98DBA8D8E839F83A887B98716C01E
:10488000A618B708C808D90811C04E815F8168858D
:1048900079858B8D9C8D94010E94B8300894A10875
:1048A000B108C108D108882331F410C086E0882EF1
:1048B000912C8C0E9D1EA114B104C104D10429F7C2
:1048C000EA86FB860C871D8781E001C080E0DF91CE
:1048D000CF911F910F91FF90EF90DF90CF90BF90FD
:1048E000AF909F908F907F906F900895223009F045
:1048F00078CFE6CFCF93DF93EC01462F6E857F858F
:10490000888999890E949C2E882319F420E030E040
:104910000AC08A89282F30E095E0220F331F9A952C
:10492000E1F7255F364FC901DF91CF9108950F93CD
:104930001F93CF93DF938C01FC0185818823D9F1EC
:10494000848187FF35C0C80161E00E947A24EC01B0
:10495000009789F1F8018581823040F48389948938
:10496000A589B6898C8F9D8FAE8FBF8FF8018789FF
:10497000908D9B8F8A8F8789908DA18DB28DCD016F
:10498000AA27BB279D8B8C8BE0910909F0910A091E
:10499000309751F0BE016A5E7F4FCE01489619955F
:1049A000888D998D9B8B8A8BF80184818F77848386
:1049B0000E943D2E01C080E0DF91CF911F910F91A9
:1049C0000895CF93DF93EC010E949724882311F080
:1049D0001D8281E0DF91CF9108956F927F928F9237
:1049E0009F92AF92BF92CF92DF92EF92FF920F937E
:1049F0001F93DF93CF9300D00F92CDB7DEB77C012A
:104A00005A016B01DC0115968C911597813009F0E4
:104A10008FC014968C9181FF8BC09EC00097A1051A
:104A2000B10511F481E085C0F70162847384848448
:104A30009584C701B601A5010E94D123882309F4FA
:104A400077C0D7015B968D919C915C97A114B104BE
:104A5000C104D10489F457964D915D916D917C917B
:104A60005A970E942B31882309F462C0F701178AF4
:104A7000108E118E128E3DC0D70116964D915D910C
:104A80006D917C9119979E012F5F3F4F0E94B83026
:104A9000882309F44DC0D7015B96ED91FC915C979A
:104AA00049815A816B817C818789803129F088EF27
:104AB0009FEFAFEFBFE004C088EF9FEFA0E0B0E052
:104AC000481759076A077B07A0F4CF010E942B31D2
:104AD000882371F1F7014681578160857185838D47
:104AE000948D0FEF1FEF2FEF3FE00E941C308823C3
:104AF000F9F0D7015396AD92BD92CD92DC925697C4
:104B000014968C911497806814968C93C7010E9418
:104B10009724882369F0B601A5016A147B048C04EC
:104B20009D0410F4B401A301C7010E94D12301C068
:104B300080E00F900F900F900F90CF91DF911F9119
:104B40000F91FF90EF90DF90CF90BF90AF909F902C
:104B50008F907F906F900895F70183899489A5893C
:104B6000B68984179507A607B70708F057CFE0CF97
:104B70002F923F924F925F926F927F928F929F926D
:104B8000AF92BF92CF92DF92EF92FF920F931F935B
:104B9000CF93DF93EC012A018D81882309F4C6C0ED
:104BA0008C8180FFC3C0D8C025014E185F084B011F
:104BB00076E0272E312C2C0E3D1E3201B1C02A8505
:104BC0003B854C855D856FEFA62E61E0B62EA22257
:104BD000B3228D8179018A0199E016950795F794A2
:104BE000E7949A95D1F7EB8DFC8D823049F4428D94
:104BF000538D648D758D4E0D5F1D601F711F3FC0FD
:104C0000D480DA94DE20A114B104D9F4DD20C9F4F3
:104C1000211531054105510549F48F89988DA98DDC
:104C2000BA8D8E839F83A887B9870BC04E815F8121
:104C300068857985CF0191010E94B830882309F4F5
:104C400075C0EB8DFC8D4E815F8168857985425002
:104C5000504060407040058404C0440F551F661FDB
:104C6000771F0A94D2F786859785A089B189480F66
:104C7000591F6A1F7B1F4D0D511D611D711D80E065
:104C800092E08A199B0963018615970508F46C0167
:104C90008C8186FD06C080E0C81682E0D80609F047
:104CA00073C08091650590916605A0916705B091EC
:104CB0006805481759076A077B0709F465C08091A2
:104CC0000B0B90910C0B9501860174010E94BD2C79
:104CD000882361F18C0C9D1C12C09501255F364F15
:104CE000A9014C0D5D1DD401F90102C081918D9384
:104CF000E417F507D9F7E21BF30B8E0E9F1E960102
:104D000040E050E08A859B85AC85BD85820F931F6E
:104D1000A41FB51F8A879B87AC87BD876C187D0849
:104D20006114710409F04BCFA20102C04FEF5FEF95
:104D3000CA01DF91CF911F910F91FF90EF90DF900B
:104D4000CF90BF90AF909F908F907F906F905F902B
:104D50004F903F902F900895AB88BC88CD88DE8817
:104D6000EA84FB840C851D859A0140E050E0D60161
:104D7000C5018E199F09A00BB10B82179307A407D9
:104D8000B50708F411CF13CFCB01BA0140E00E9460
:104D90009C2E882309F0A1CFC9CFCF92DF92EF924A
:104DA000FF920F931F93DF93CF930F92CDB7DEB790
:104DB0006C01FC018581823070F0E284F38404850B
:104DC0001585C601BE016F5F7F4F41E050E00E9434
:104DD000B825019769F020E030E0C9010F90CF912C
:104DE000DF911F910F91FF90EF90DF90CF9008958A
:104DF000F60182859385A485B5854F96A11DB11DC9
:104E000082879387A487B587F5E016950795F79471
:104E1000E794FA95D1F78E2D8F70282F30E0E5E0DA
:104E2000220F331FEA95E1F7255F364FD6CF0F9358
:104E30001F93CF93DF93EC018B018D81882309F0C1
:104E400041C0FB0187898031B1F482E08D831F8AE4
:104E5000188E198E1A8E808D918DA0E0B0E045E0FD
:104E6000880F991FAA1FBB1F4A95D1F78B8B9C8B6C
:104E7000AD8BBE8B15C0803229F583E08D83FB019D
:104E8000428D538D648D758D4F8B588F698F7A8FBE
:104E90009E012D5E3F4FC8010E948431882391F00E
:104EA0001C8F0B8F81E08C831E821F8218861986CF
:104EB0001A861B861C861D861E861F86188A198ADE
:104EC0001A8A01C080E0DF91CF911F910F91089560
:104ED0001F93CF93DF93EC01142FE62FF0E075E0E2
:104EE000EE0FFF1F7A95E1F7E55FF64F838581713D
:104EF00021F0842F827409F054C06A8B809165057B
:104F000090916605A0916705B09168058E879F878F
:104F1000A88BB98B84899589A0E0B0E0BC015527A6
:104F20004427828D938DA0E0B0E0482B592B6A2B4B
:104F30007B2B4F8B588F698F7A8F838590E0887198
:104F40009070009751F4848D958DA68DB78D8B8BC5
:104F50009C8BAD8BBE8B81E00CC0409711F59E0100
:104F60002D5E3F4F8B8D9C8D0E9484318823C9F02C
:104F700084E08D83812F8F708C831E821F82188620
:104F800019861A861B861C861D8616FD02C081E0C6
:104F900009C0CE0140E050E060E070E00E94ED24E6
:104FA00001C080E0DF91CF911F910895CF93DF93EF
:104FB000EC019C012A5F3F4F8B8D9C8D41E050E0BE
:104FC00060E070E00E94F3318823A1F08F89988D12
:104FD000A98DBA8D0097A105B10559F48E819F81E5
:104FE000A885B9858F8B988FA98FBA8F8C8180689F
:104FF0008C8381E0DF91CF9108952F923F924F9261
:105000005F927F928F929F92AF92BF92CF92DF92E8
:10501000EF92FF920F931F93DF93CF9300D000D0B6
:10502000CDB7DEB76C01162F072F5E834D83DC01F1
:1050300015968C911597813009F070C114968C915A
:1050400081FF6CC18EC1F6014389548965897689D7
:1050500082859385A485B58584179507A607B7072C
:1050600031F0C6010E94D123882309F457C1812F52
:10507000902F9C0129012D803E8017C1D6015B969F
:10508000ED91FC915C97DA01C90119E0B695A795FD
:10509000979587951A95D1F774807A9478227FEF47
:1050A000872E71E0972E82229322772009F04EC03E
:1050B0008114910409F04AC0D60116964D915D9174
:1050C0006D917C911997411551056105710581F428
:1050D00057968D919D910D90BC91A02D0097A105A3
:1050E000B10549F1F60186839783A087B1872EC069
:1050F000CF019E012F5F3F4F0E94B830882309F4F3
:1051000014C129813A814B815C81D6015B96ED9176
:10511000FC915C978789803129F088EF9FEFAFEF92
:10512000BFE004C088EF9FEFA0E0B0E02817390788
:105130004A075B0730F0C6010E94D627882331F466
:10514000EDC0F601268337834087518780E092E0E7
:105150008819990951018215930508F45C01D6015B
:105160005B96ED91FC915C971696ED90FD900D91FC
:105170001C9119978EEF9FEFAFEFBFEFE80EF91E6E
:105180000A1F1B1F058404C0EE0CFF1C001F111F0B
:105190000A94D2F786859785A089B189E80EF91E11
:1051A0000A1F1B1FE70CF11C011D111D90E0A91621
:1051B00092E0B90651F58091650590916605A09140
:1051C0006705B09168058E159F05A007B10761F4CA
:1051D0008FEF9FEFAFEFBFEF80936505909366056C
:1051E000A0936705B093680580910B0B90910C0B11
:1051F000B801A70192010E94602C882309F48EC097
:10520000A0E0B2E04A0E5B1E3EC08114910409F595
:10521000F601228533854485558583899489A5893E
:10522000B689281739074A075B0798F00E943D2E78
:10523000882309F473C0E0926505F0926605009337
:1052400067051093680580910D0B816080930D0BAD
:1052500008C0C801B70141E00E949C2E882309F4D0
:105260005DC09401255F364FA9014A0D5B1DD20137
:10527000F90102C08D918193E417F507D9F7E21B7C
:10528000F30B4E0E5F1E2A183B08950140E050E0DC
:10529000F60182859385A485B585820F931FA41F8F
:1052A000B51F82879387A487B587D6011A962D915B
:1052B0003D914D915C911D972114310409F0DECE92
:1052C00053968D919D910D90BC91A02D82179307BF
:1052D000A407B50748F4F601238B348B458B568B16
:1052E00084818068848311C08091090990910A09A2
:1052F000892B59F08D819E81892B39F0D601149626
:105300008C911497806814968C93F601848183FFA6
:105310000EC0C6010E949724882349F481E090E0E2
:10532000D60113969C938E9312971E821D828D81B7
:105330009E8126960FB6F894DEBF0FBECDBFCF91EB
:10534000DF911F910F91FF90EF90DF90CF90BF9072
:10535000AF909F908F907F905F904F903F902F9055
:10536000089582FD70CE83CEDF93CF930F92CDB799
:10537000DEB76983BE016F5F7F4F41E050E00E945E
:10538000FD270F90CF91DF910895DF92EF92FF926A
:105390000F931F93CF93DF93EC010E94D6278823AE
:1053A00009F44EC0EB8DFC8DEE80FF8008851985D9
:1053B0008EEF9FEFAFEFBFEFE80EF91E0A1F1B1F26
:1053C000058404C0EE0CFF1C001F111F0A94D2F7C5
:1053D00086859785A089B189E80EF91E0A1F1B1FD3
:1053E000D4800894E108F108010911090BC0C80133
:1053F000B7016D0D711D811D911D0E94782E8823AE
:10540000F9F0DA94DD2099F7EB8DFC8D20E032E0A5
:1054100040E050E0058404C0220F331F441F551F95
:105420000A94D2F78B899C89AD89BE89820F931F1C
:10543000A41FB51F8B8B9C8BAD8BBE8B81E001C0F5
:1054400080E0DF91CF911F910F91FF90EF90DF905F
:1054500008956F927F928F929F92AF92BF92CF9258
:10546000DF92EF92FF920F931F93DF93CF93CDB70D
:10547000DEB72B970FB6F894DEBF0FBECDBF5C0131
:105480006B01822EDC0115968C91882309F0D2C025
:10549000CA018E010F5F1F4FB8010E94902388231D
:1054A00009F4C8C0F601838D948DD5015C969C9358
:1054B0008E935B971682178210861186D6011A96F4
:1054C0001D921D921D921C921D979924380141C076
:1054D000C6010E94CD26FC01009709F4ABC085E00F
:1054E00016950795F794E7948A95D1F71E2D1F70AE
:1054F0008081882311F0853ED1F4992091F4D50163
:1055000052961C9352972091650530916605409103
:105510006705509168051E962D933D934D935C93BE
:1055200051978081882399F49924939421C0C301D1
:10553000BF014BE050E00E94C635009751F4882D22
:105540008073803309F476C0C501612F6FC0992440
:105550009394F601E284F384048515858389948904
:10556000A589B689E816F9060A071B0708F4B0CF23
:10557000882D8271823109F05DC0992041F0C5010A
:1055800061E00E947A248C01009789F453C0D6010F
:1055900015968C91823009F44DC0C6010E94C52930
:1055A000882309F447C0F501128A0BE019E080E274
:1055B000D8011D928A95E9F7D801FE0131968BE05A
:1055C00001900D928150E1F7E0910909F0910A09EB
:1055D000309739F0B801625F7F4FC8014096199546
:1055E00009C081E298E2F801918B808B80E098E01D
:1055F00097878687D80150968D919C9151975396A5
:105600009C938E93529759969C938E9358971E967F
:105610008D919C911F9757969C938E9356970E94BD
:105620003D2E882339F0C501F5016289482D0E947D
:10563000682701C080E02B960FB6F894DEBF0FBE3E
:10564000CDBFCF91DF911F910F91FF90EF90DF9031
:10565000CF90BF90AF909F908F907F906F90089564
:10566000FC01673020F086E1858380E00895262FD5
:1056700030E060FD02C0663019F48DB58E7F02C047
:105680008DB581608DBD8CB58C7F8CBD4CB522FDF8
:1056900002C090E001C092E036952795822F81707C
:1056A000842B892B8CBD81E00895FF920F931F936B
:1056B000CF93DF938B010E94A90EEB01FF24FA9494
:1056C000FEBC0DB407FEFDCF8EB58F3F11F481E017
:1056D00008C00E94A90E6C1B7D0B6017710780F338
:1056E00080E0DF91CF911F910F91FF900895FC0111
:1056F000848160E00E9429120895FC01848161E0A8
:105700000E9429120895DC016EBDFA0120E030E00C
:105710000DB407FEFDCF80818EBD0DB407FEFDCF19
:1057200081818EBD2E5F3F4F329682E02030380758
:1057300079F70DB407FEFDCF8FEF8EBD0DB407FED8
:10574000FDCF8FEF8EBD0DB407FEFDCF8FEF8EBD69
:105750000DB407FEFDCF8EB51A968C931A978F71F4
:10576000853011F481E0089581E115968C931597A9
:10577000CD010E947D2B80E00895FF920F931F932F
:10578000CF93DF93EC010E94A90E8B01FF24FA94C2
:1057900009C00E94A90E601B710B6D52714010F080
:1057A0008FE00DC0FEBC0DB407FEFDCF8EB58A871D
:1057B0008F3F79F38E3F11F481E006C08DE08D8339
:1057C000CE010E947D2B80E0DF91CF911F910F9140
:1057D000FF900895CF93DF93EC018E818823D1F061
:1057E0008FEF8EBD2F8138854FEF04C00DB407FEBB
:1057F000FDCF4EBD2F5F3F4FC901019781509240B1
:10580000A8F338872F830DB407FEFDCFCE010E9489
:105810007D2B1E82DF91CF910895DF92EF92FF9250
:105820000F931F93CF93DF93EC01D62E79018A015A
:105830000E94EA2BCE010E94772BCE016CE271E030
:105840000E94552B8D2D80648EBD0DB407FEFDCFBB
:1058500028E130E0D801C701022E04C0B695A79513
:10586000979587950A94D2F78EBD0DB407FEFDCFAC
:10587000285030408FEF283F380761F7DD2011F4C2
:1058800085E906C088E0D81611F487E801C08FEFDB
:105890008EBD0DB407FEFDCF90E02FEF2EBD0DB4F1
:1058A00007FEFDCF8EB587FF02C09150B9F78A87FA
:1058B000DF91CF911F910F91FF90EF90DF900895AE
:1058C000CF92DF92EF92FF920F931F93CF93DF93CC
:1058D000EC017A018B0169014115510561057105E2
:1058E00011F482E137C08B85833039F029E0EE0C6A
:1058F000FF1C001F111F2A95D1F7CE0168E1A801F6
:1059000097010E940D2C882311F084E023C0CE0162
:105910006EEFA6010E94832B8823E9F0CE0168E593
:1059200072E00E94552B882311F485E113C0CE014B
:105930006DE020E030E040E050E00E940D2C882334
:1059400041F48FEF8EBD0DB407FEFDCF8EB58823D9
:1059500079F084E18D83CE010E947D2B80E0DF9180
:10596000CF911F910F91FF90EF90DF90CF9008950E
:10597000CE010E947D2B81E0F2CF8F929F92AF9259
:10598000BF92CF92DF92EF92FF920F931F93CF932C
:10599000DF93EC015A016B0149010115110509F46E
:1059A0007BC0C801820F931F8150924008F06FC0E6
:1059B0008E81882371F088819981AA81BB814817E3
:1059C00059076A077B0729F48F81988588169906FD
:1059D00018F5A882B982CA82DB828B85833039F0C0
:1059E00069E0AA0CBB1CCC1CDD1C6A95D1F7CE016A
:1059F00061E1A60195010E940D2C882319F083E036
:105A00008D8345C0CE010E94BD2B882309F43FC081
:105A100018861F8281E08E838FEF8EBD8F819885DF
:105A20002FEF05C00DB407FEFDCF2EBD01968815E2
:105A30009905C0F398878F83D801119720E030E053
:105A40009FEF0BC00DB407FEFDCF8EB5F701E20F3F
:105A5000F31F80839EBD2F5F3F4F2A173B0790F3B4
:105A60000DB407FEFDCF8EB5AE0DBF1D8C932F81FB
:105A70003885200F311F38872F838985882319F0B7
:105A80002050324048F0CE010E94EA2B05C0CE01E2
:105A90000E947D2B80E001C081E0DF91CF911F91BA
:105AA0000F91FF90EF90DF90CF90BF90AF909F90BD
:105AB0008F900895EF92FF920F931F93790120E04A
:105AC00030E000E012E00E94BD2C1F910F91FF908A
:105AD000EF900895BF92CF92DF92EF92FF920F93D3
