:100000000C94FE030C94EA110C941B120C944C12E9
:100010000C947D120C94AE120C94DF120C941013FD
:100020000C9441130C942A040C942A040C942A0472
:100030000C942A040C942A040C942A040C942A0488
:100040000C942A040C942A040C942A040C942A0478
:100050000C942A040C942A040C942A040C945D1029
:100060000C942A040C9478160C94A4170C942A046B
:100070000C942A040C942A040C942A040C942A0448
:100080000C942A040C942A040C942A040C942A0438
:100090000C94B1160C94E3170C942A040C942A04C3
:1000A0000C942A040C942A040C942A040C942A0418
:1000B0000C942A040C942A040C942A040C942A0408
:1000C0000C942A040C942A040C942A040C94EA1626
:1000D0000C9422180C942A040C9423170C94611885
:1000E0000C942A0400002100240027002A002D007F
:1000F0003000330001010000040107010A01000083
:100100002200250028002B002E00310034000201BF
:100110000000050108010B0100002000230026005B
:1001200029002C002F00320000010000030106010D
:10013000090105050505070508080808020202026D
:100140000A0A080804040404010101010101010173
:100150000303030303030303040707070C0C0C0C3E
:100160000C0C0C0C02020202060606060606060627
:100170000B0B0B0B0B0B0B0B0102102020080810B4
:100180002040102040800201020108040201010207
:1001900004081020408080402010080402018004E0
:1001A000020180402010080402010804020101023B
:1001B0000408102040800102040810204080000044
:1001C000090A02080B0C0D070603040100000000D9
:1001D000000000000000000000000000000000001F
:1001E0000000000000000000000011100F000000DF
:1001F00000000000000000000000000000000000FF
:100200000000000000000000003E5B4F5B3E3E6BC4
:100210004F6B3E1C3E7C3E1C183C7E3C181C577DA0
:10022000571C1C5E7F5E1C00183C1800FFE7C3E7EC
:10023000FF0018241800FFE7DBE7FF30483A060EFE
:100240002629792926407F050507407F05253F5A45
:100250003CE73C5A7F3E1C1C08081C1C3E7F1422B5
:100260007F22145F5F005F5F06097F017F00668960
:10027000956A606060606094A2FFA29408047E04A6
:100280000810207E201008082A1C08081C2A0808CC
:100290001E101010100C1E0C1E0C30383E3830068C
:1002A0000E3E0E06000000000000005F0000000788
:1002B000000700147F147F14242A7F2A12231308B6
:1002C000646236495620500008070300001C224192
:1002D000000041221C002A1C7F1C2A08083E080836
:1002E00000807030000808080808000060600020E6
:1002F000100804023E5149453E00427F40007249C9
:100300004949462141494D331814127F102745456C
:1003100045393C4A49493141211109073649494982
:1003200036464949291E00001400000040340000F0
:100330000008142241141414141400412214080259
:10034000015909063E415D594E7C1211127C7F49CC
:100350004949363E414141227F4141413E7F494921
:1003600049417F090909013E414151737F0808084D
:100370007F00417F41002040413F017F081422411E
:100380007F404040407F021C027F7F0408107F3E78
:100390004141413E7F090909063E4151215E7F09E5
:1003A000192946264949493203017F01033F40404C
:1003B000403F1F2040201F3F4038403F6314081437
:1003C0006303047804036159494D43007F4141416F
:1003D0000204081020004141417F04020102044050
:1003E00040404040000307080020545478407F28D4
:1003F0004444383844444428384444287F385454CA
:10040000541800087E090218A4A49C787F080404EC
:100410007800447D40002040403D007F102844008B
:1004200000417F40007C047804787C08040478381C
:1004300044444438FC1824241818242418FC7C084C
:10044000040408485454542404043F44243C4040C9
:10045000207C1C2040201C3C4030403C442810287C
:10046000444C9090907C4464544C440008364100C5
:100470000000770000004136080002010204023C3F
:100480002623263C1EA1A161123A4040207A38540E
:100490005455592155557941215454784121555489
:1004A000784020545579400C1E52721239555555DA
:1004B00059395454545939555454580000457C41C5
:1004C0000002457D420001457C40F0292429F0F0DE
:1004D000282528F07C545545002054547C547C0A2F
:1004E000097F4932494949323248484832324A48FC
:1004F00048303A4141217A3A42402078009DA0A0FC
:100500007D39444444393D4040403D3C24FF24244F
:10051000487E4943662B2FFC2F2BFF0929F620C06C
:10052000887E090320545479410000447D413048BD
:10053000484A32384040227A007A0A0A727D0D1900
:10054000317D2629292F28262929292630484D4062
:1005500020380808080808080808382F10C8ACBA5E
:100560002F102834FA00007B000008142A142222DD
:10057000142A1408AA005500AAAA55AA55AA0000D0
:1005800000FF00101010FF00141414FF001010FFE3
:1005900000FF1010F010F0141414FC001414F700F5
:1005A000FF0000FF00FF1414F404FC141417101FC4
:1005B00010101F101F1414141F00101010F0000052
:1005C00000001F101010101F10101010F01000006D
:1005D00000FF101010101010101010FF100000007D
:1005E000FF140000FF00FF00001F10170000FC04B4
:1005F000F414141710171414F404F40000FF00F797
:1006000014141414141414F700F7141414171410F9
:10061000101F101F141414F4141010F010F0000028
:100620001F101F0000001F14000000FC140000F049
:1006300010F01010FF10FF141414FF141010101FEE
:1006400000000000F010FFFFFFFFFFF0F0F0F0F0FF
:10065000FFFFFF0000000000FFFF0F0F0F0F0F381C
:10066000444438447C2A2A3E147E02020606027E56
:10067000027E0263554941633844443C04407E2075
:100680001E2006027E020299A5E7A5991C2A492A86
:100690001C4C7201724C304A4D4D30304878483015
:1006A000BC625A463D3E494949007E0101017E2A0D
:1006B0002A2A2A2A44445F444440514A4440404440
:1006C0004A51400000FF0103E080FF000008086B72
:1006D0006B083612362436060F090F06000018186C
:1006E0000000001010003040FF0101001F01011E3A
:1006F00000191D1712003C3C3C3C00000000000F9C
:100700000180961180FFB103012C2DB203012C2D25
:10071000B306012C2D012C2DB40107C003A20284C5
:10072000C101C5C2020A00C3028A2AC4028AEEC5F8
:10073000010E20003601C83A0105022A0400020019
:10074000812B04000100A0022A040000007F2B047A
:100750000000009F04E010021C07123732292D29E7
:10076000252B3900010310E110031D07062E2C294B
:100770002D2E2E373F0000021013800A29806412AC
:100780000180321180FF3A81050AB1830006030A15
:10079000360108B6021502B40100C08202700AC117
:1007A0000105C2020102C5823C380AFC021115E0B3
:1007B0001009160920211B131917151E2B040502F9
:1007C0000EE1900B14081E221D181E1B1A242B0666
:1007D00006020F0A2A04000200812B040002008195
:1007E00013800A2980FF7C3C3E5E2B3D3F2F5B5DE2
:1007F0003B2C2A225C009C07CB19D22211241FBE5D
:10080000CFEFD1E2DEBFCDBF00E00CBF15E0A0E02E
:10081000B2E0E8E6FBE700E00BBF02C007900D92F4
:10082000AE3EB107D9F71BE0AEEEB5E001C01D92B8
:10083000A835B107E1F717E0CCEFD7E004C0229765
:10084000FE010E94AE3DC63FD107C9F70E9468165F
:100850000C940E3A0C9400001092F7051092F805D3
:100860001092F9051092FA051092FB051092FC0502
:100870001092FD051092FE051092F4051092F305FA
:100880001092F6051092F5051092F0051092EF0502
:100890001092F2051092F105809199058093EE0572
:1008A000089580919905853028F4809199058F5F8E
:1008B00080939905809199050895809199058823E1
:1008C00029F080919905815080939905809199052F
:1008D0000895FC01DB018091F3059091F4052091CE
:1008E000EF053091F005821B930B918380838091FB
:1008F000F5059091F6052091F1053091F205821BE6
:10090000930B8D939C9381E0089597FF03C0E0E0E3
:10091000F0E010C0E091EE05F0E0EE0FFF1FE350B5
:10092000FB4F0190F081E02DE058F0408E179F07BB
:1009300008F4FC01F093F005E093EF0577FF03C0A6
:1009400060E070E010C0E091EE05F0E0EE0FFF1FF8
:10095000E75FFA4F0190F081E02DE05AF040E61792
:10096000F70708F4BF017093F2056093F10508954D
:10097000AF92BF92CF92DF92EF92FF920F931F93AD
:100980004091F3055091F405425050402091F505F7
:100990003091F605225030408091EE0566E0869F4A
:1009A000C00111246091EF057091F0058A01061BCA
:1009B000170B6091F1057091F2057901E61AF70ABB
:1009C0008B5E9A4F60E076E0F5E0CF2ED12CE5E02B
:1009D000AE2EB12C0E945C361F910F91FF90EF90CC
:1009E000DF90CF90BF90AF900895AF92BF92CF921B
:1009F000DF92EF92FF920F931F938091EE0526E016
:100A0000829FC00111244091EF055091F005209183
:100A1000F1053091F2058B5E9A4F60E076E000E0E0
:100A200010E0EE24FF24B0E8CB2ED12CA0EAAA2EB1
:100A3000B12C0E945C361F910F91FF90EF90DF90D8
:100A4000CF90BF90AF9008950F931F936091F305DF
:100A50007091F4058091EF059091F005681B790B7A
:100A60004091F5055091F6058091F1059091F205C0
:100A7000481B590B80E096E022E030E000E018EFE0
:100A80000E942E1C1F910F910895AF92BF92CF929A
:100A9000DF92EF92FF920F931F935A016B01A82FE1
:100AA000BB27A7FDB09500D00F9269E375E0FD016B
:100AB00084E0EE0FFF1F8A95E1F7E60FF71F208114
:100AC000318142815381AA0FBB1FCD01019613E0F2
:100AD000880F991F1A95E1F7680F791FFB01E080D5
:100AE000F18002811381A75FBA4F8D919C91A0E0A4
:100AF000B0E0EDB7FEB781839283A383B483C601D0
:100B0000B501AA24BB2465010E94BC140F900F906C
:100B10000F900F901F910F91FF90EF90DF90CF906B
:100B2000BF90AF900895AF92BF92CF92DF92EF92B5
:100B3000FF920F931F935A016B01A82FBB27A7FDAC
:100B4000B09500D00F92FD0104E0EE0FFF1F0A9553
:100B5000E1F789E395E0E80FF91F248135814681AB
:100B60005781E484F58406851785AA0FBB1FA3501F
:100B7000BB4F8D919C91A0E0B0E0EDB7FEB78183B3
:100B80009283A383B483C601B501AA24BB24650163
:100B90000E94BC140F900F900F900F901F910F9117
:100BA000FF90EF90DF90CF90BF90AF900895AF92FD
:100BB000BF92CF92DF92EF92FF920F931F937B0130
:100BC0008C0159016A018091EE05B801A7010E94CC
:100BD00093057093F0056093EF058091EE05B601E3
:100BE000A5010E9445052091EF053091F00537FFE2
:100BF00003C0E0E0F0E010C0E091EE05F0E0EE0FA1
:100C0000FF1FE350FB4F0190F081E02DE058F040D2
:100C10002E173F0708F4F901F093F005E093EF0574
:100C200077FF03C060E070E010C0E091EE05F0E0F7
:100C3000EE0FFF1FE75FFA4F0190F081E02DE05AC1
:100C4000F040E617F70708F4BF017093F2056093D0
:100C5000F1051F910F91FF90EF90DF90CF90BF9023
:100C6000AF900895809199058093EE054091F70526
:100C70005091F8056091F9057091FA050E9493056D
:100C80007093F4056093F3054091FB055091FC05CA
:100C90006091FD057091FE058091EE050E9445056D
:100CA0007093F6056093F5058091EE050895AF9277
:100CB000BF92CF92DF92EF92FF920F931F93A82FD4
:100CC000BB27A7FDB09500D00F92CD01880F991FCB
:100CD000FC01E75FFA4FE080F18000E010E0E9E31B
:100CE000F5E034E0AA0FBB1F3A95E1F7AE0FBF1F46
:100CF000AD90BD90CD90DC90019623E0880F991FB8
:100D00002A95E1F7E80FF91F80819181A281B381D3
:100D1000EDB7FEB781839283A383B483CB01BA017D
:100D200020E030E040E050E00E94BC140F900F90B3
:100D30000F900F901F910F91FF90EF90DF90CF9049
:100D4000BF90AF900895AF92BF92CF92DF92EF9293
:100D5000FF920F931F93992787FD909500D00F92D4
:100D6000FC01EE0FFF1FE350FB4FE080F18000E03D
:100D700010E0B4E0880F991FBA95E1F7E9E3F5E0D8
:100D8000DF01A80FB91F1496AD90BD90CD90DC90F7
:100D90001797E80FF91F84859585A685B785EDB768
:100DA000FEB781839283A383B483CB01BA0120E091
:100DB00030E040E050E00E94BC140F900F900F9084
:100DC0000F901F910F91FF90EF90DF90CF90BF9009
:100DD000AF90089597FF03C080E090E00EC0E091CF
:100DE000EE05F0E0EE0FFF1FE350FB4F0190F081A6
:100DF000E02DE817F90708F4CF019093F4058093EC
:100E0000F30577FF03C060E070E00EC0E091EE05EF
:100E1000F0E0EE0FFF1FE75FFA4F0190F081E02D49
:100E2000E617F70708F4BF017093F6056093F50520
:100E3000AC0160E070E08091EE050E94A306609333
:100E4000F7057093F8058093F9059093FA054091A2
:100E5000F5055091F60560E070E08091EE050E9486
:100E600057066093FB057093FC058093FD059093F6
:100E7000FE0508954091F3055091F4052091F50584
:100E80003091F605260F371F840F951FB9010E9478
:100E9000EA060895CF92DF92EF92FF920F931F938D
:100EA000DF93CF93CDB7DEB7EDB6FEB6CEB6809169
:100EB0009A05882359F18DB79EB7805091400FB69F
:100EC000F8949EBF0FBE8DBF0DB71EB70F5F1F4FAB
:100ED000FE013E96C80160E071E04C855D859F0192
:100EE0000E94493A84E898E06CE372E00E9452164E
:100EF00084E898E0B8010E9455162E2D3C2DC901BA
:100F00000FB6F8949EBF0FBE8DBF08C08DB79EB7B9
:100F10009C010FB6F8943EBF0FBE2DBF0FB6F894DC
:100F2000FEBE0FBEEDBECF91DF911F910F91FF90DE
:100F3000EF90DF90CF90089580E096E066E047E084
:100F400028E00E94B81E10923406109235061092C6
:100F50003606109237061092380610923906109213
:100F60003A0610923B0610923C0610923D061092F3
:100F70003E0610923F0610924006109241061092D3
:100F80004206109243060E94A51060934706709394
:100F900048068093490690934A0608959091FF056C
:100FA00080919905981711F40E945D04089590911D
:100FB000FF0580919905981711F40E945104089536
:100FC000EF92FF920F931F93CF93DF93EC017B017E
:100FD00080E00E94881420919D0530919E058C012F
:100FE000021B130B81E00E94881420919F05309111
:100FF000A005821B930B9C01C8010496099710F46D
:1010000000E010E0C9010496099710F420E030E0F8
:10101000C80160E870E00E945C3D79836883C90183
:1010200060E870E00E945C3DF701718360830E947C
:10103000A5107B018C018091470690914806A091F4
:101040004906B0914A06E816F9060A071B0740F45C
:10105000E0924706F09248060093490610934A062C
:101060008091A1059091A205A091A305B091A4053E
:1010700020914706309148064091490650914A0612
:10108000820F931FA41FB51F8E159F05A007B107E0
:1010900010F080E019C0E0924706F09248060093F5
:1010A000490610934A0684E00E94581420E0892BD8
:1010B00009F421E080914606882321F080E0222374
:1010C00009F481E020934606DF91CF911F910F91A3
:1010D000FF90EF90089584E060E00E94721384E036
:1010E00061E00E94251481E00E94881490939E057F
:1010F00080939D0580E00E9488149093A0058093C2
:101100009F05089580E099E065E00E9436258823D8
:1011100029F50F920F928FE392E0EDB7FEB792831D
:1011200081830E944A0787E592E0EDB7FEB792837C
:1011300081830E944A078BE692E0EDB7FEB7928367
:1011400081830E944A0783E892E0EDB7FEB792835D
:1011500081830E944A070F900F90FFCF0F920F924A
:101160008CEB92E0EDB7FEB7928381830E944A0731
:101170000F900F9008950F931F9300E016E0C801A1
:1011800061E00E94AF22C80160E00E946221C801B4
:1011900060E070E040E050E00E94A61EC80160E000
:1011A00070E00E94B21EC80161E00E94AC1EC8013E
:1011B0006FE170E00E949C1F1F910F910895EF92C4
:1011C000FF920F931F93CF93DF93EC01809144061E
:1011D000909145068C179D0789F1D0934506C093E1
:1011E000440680E096E060E070E044E950E020E8EA
:1011F00030E00CE010E0E0EEEE2EE7E0FE2E0E9484
:10120000EA2080E096E061E00E94AC1E80E096E07B
:101210006FE178EF0E94B21E80E096E060E070E03F
:1012200046E950E00E94A61E80E096E061E00E9440
:10123000AC1E80E096E0BE010E945516DF91CF9172
:101240001F910F91FF90EF9008958BEC92E00E9418
:10125000DF0808958F929F92AF92BF92CF92DF9254
:10126000EF92FF920F931F93DF93CF93CDB7DEB72B
:1012700028970FB6F894DEBF0FBECDBF8DB79EB7CF
:101280004091540B5091550B4115510511F09A01A5
:1012900004C02091F9043091FA0460919B0570918B
:1012A0009C05821B930B8617970730F52DB73EB729
:1012B0004115510521F44091F9045091FA0400D0F0
:1012C00000D0EDB7FEB731968CEC92E0ADB7BEB76B
:1012D00012969C938E931197241B350B3383228394
:1012E000758364830E944A07EDB7FEB736960FB642
:1012F000F894FEBF0FBEEDBF80912B06882311F43A
:10130000992404C010922B06992493941A8219826E
:101310001C821B82F894909199058091FF05882486
:10132000981711F0882483947894882009F441C098
:101330003091EE05809199053817E9F020919905D3
:1013400000D000D0EDB7FEB731968DED92E0ADB78D
:10135000BEB712969C938E93119732831382248387
:1013600015820E944A07EDB7FEB736960FB6F8947D
:10137000FEBF0FBEEDBF0E9432064091AA055091FC
:10138000AB05569547958091F3059091F405209112
:10139000AC053091AD05369527956091F5057091B6
:1013A000F605621B730B841B950B0E948504992420
:1013B0009394CE010196BE016D5F7F4F0E94E007BE
:1013C000D82E89819A81892B29F48B819C81892B44
:1013D00009F457C0E090EF05F090F0050091F10599
:1013E0001091F205CE010596BE01695F7F4F0E9404
:1013F0006904882309F445C08D819E818A30910556
:1014000048F4E090EF05F090F00580EE9FEFE80ED5
:10141000F91E0DC08637910510F420E009C0E09058
:10142000EF05F090F005A0E2B0E0EA0EFB1E21E02F
:101430008F8198858A30910538F40091F1051091DB
:10144000F205005210400CC08637910538F000912B
:10145000F1051091F205005E1F4F02C0222339F002
:10146000C701B8010E948504992493940AC00E9480
:10147000B8046B817C8189819A810E943A070E941D
:101480002405DD2009F4ECC1EDB7FEB73A970FB69D
:10149000F894FEBF0FBEEDBF319684EF92E0ADB77A
:1014A000BEB712969C938E9311978091FB059091F5
:1014B000FC05A091FD05B091FE0582839383A48372
:1014C000B5838091F7059091F805A091F905B09149
:1014D000FA0586839783A087B1870E944A07A09068
:1014E000F705B090F805C090F905D090FA05E090A6
:1014F000FB05F090FC050091FD051091FE05EDB790
:10150000FEB73A960FB6F894FEBF0FBEEDBF8091BE
:10151000320690913306892BE1F58DB79EB70A9775
:101520000FB6F8949EBF0FBE8DBFEDB7FEB73196D4
:1015300083E193E0ADB7BEB712969C938E9311975B
:10154000A282B382C482D582E682F78200871187A5
:101550000E944A07E0923806F092390600933A0654
:1015600010933B06A0923406B0923506C092360620
:10157000D092370681E090E0909333068093320654
:10158000EDB7FEB73A960FB6F894FEBF0FBEEDBFAB
:1015900067C18DB79EB70A970FB6F8949EBF0FBE6E
:1015A0008DBFEDB7FEB731968FE293E0ADB7BEB712
:1015B00012969C938E931197A282B382C482D58295
:1015C000E682F782008711870E944A07E092400670
:1015D000F09241060093420610934306A0923C0607
:1015E000B0923D06C0923E06D0923F06109233065E
:1015F00010923206EDB7FEB738970FB6F894FEBFDB
:101600000FBEEDBF319689E493E0ADB7BEB7129639
:101610009C938E9311978091380690913906A091F2
:101620003A06B0913B0682839383A483B58380916D
:10163000340690913506A0913606B0913706868320
:101640009783A087B187E286F38604871587A686ED
:10165000B786C08AD18A0E944A07EDB7FEB7729654
:101660000FB6F894FEBF0FBEEDBF84E898E067E7C1
:1016700073E00E94521640913806509139066091ED
:101680003A0670913B0684E898E02AE030E00E9438
:10169000DF1584E898E06AE773E00E9452164091F3
:1016A000340650913506609136067091370684E80D
:1016B00098E02AE030E00E94DF1584E898E06AE7CD
:1016C00073E00E945216409140065091410660918D
:1016D00042067091430684E898E02AE030E00E94D8
:1016E000DF1584E898E06AE773E00E9452164091A3
:1016F0003C0650913D0660913E0670913F0684E89D
:1017000098E02AE030E00E941F160F920F928CE7BB
:1017100093E0ADB7BEB712969C938E9311970E943B
:101720004A070F900F902091340630913506409172
:1017300036065091370660913806709139068091CF
:101740003A0690913B06A0903C06B0903D06C090B2
:101750003E06D0903F06E0904006F0904106009192
:101760004206109143060E94BE0FBC0118161906CE
:101770000CF076C080912C0690912D068617970765
:1017800028F490932F0680932E0604C070932F06A2
:1017900060932E0640912C0650912D0680913006C4
:1017A000909131060E94620E97FD5CC00F920F92DD
:1017B0008DE893E0EDB7FEB7928381830E944A07DC
:1017C00000E010E0EE24FF240F900F90F3EACF2EFC
:1017D000F3E0DF2E3CC020913006309131062E0D13
:1017E0003F1D8DB79EB70C970FB6F8949EBF0FBEE6
:1017F0008DBFEDB7FEB73196ADB7BEB71296DC928E
:10180000CE92119713830283D90114964D915D9165
:101810006D917C91179744835583668377832D91CF
:101820003D914D915C9120873187428753870E947B
:101830004A070F5F1F4FE8E0F0E0EE0EFF1E8DB786
:101840009EB70C960FB6F8949EBF0FBE8DBF8091C9
:101850002E0690912F060817190708F4BCCF02C076
:101860009920F1F00E94F5040E9424050E942509A8
:101870008820B1F0F8948091EE05809399058093CB
:10188000FF0578940F920F928FEA93E0ADB7BEB741
:1018900012969C938E9311970E944A070F900F9077
:1018A0008091320690913306892B19F48FEB93E0E7
:1018B00002C085EC93E00E94DF0828960FB6F894EA
:1018C000DEBF0FBECDBFCF91DF911F910F91FF9073
:1018D000EF90DF90CF90BF90AF909F908F90089542
:1018E000CF92DF92EF92FF920F931F93CF93DF93EC
:1018F00084E898E040E855E260E070E00E94A018BB
:1019000084E898E069EC73E00E94551684E898E05A
:101910000E9480190E94BB080E9482080E946B08E6
:101920000E942C04C090EE05CC2DD0E074E0CC0FCA
:10193000DD1F7A95E1F769E3C62E65E0D62ECC0E61
:10194000DD1EFE01E35CFA4FD6011C966D917D9180
:101950008D919C911F972081318142815381620F2B
:10196000731F841F951F22E030E040E050E00E948A
:10197000913D79018A01CF5BDA4F688179818A8153
:101980009B81F6012081318142815381620F731F57
:10199000841F951F22E030E040E050E00E94913D1E
:1019A000C801B7010E94D7058091AA059091AB05A7
:1019B000969587954091EF055091F0056091AC05A3
:1019C0007091AD05769567952091F1053091F205FE
:1019D000620F731F840F951F0E94EA0681E08093B7
:1019E0002B0682E060E00E94721382E061E00E94B8
:1019F000251483E060E00E94721383E061E00E949E
:101A0000251481E067ED77E042E050E00E946E111E
:101A100080E06EEC77E042E050E00E946E1168EEEC
:101A200073E080E090E00E94B31084E690E0909331
:101A30002D0680932C068DB79EB72091540B3091C4
:101A4000550B2115310511F0A90104C04091F9048D
:101A50005091FA0460919B0570919C05841B950B35
:101A6000861B970B80529340B0F48DB79EB721151B
:101A7000310521F42091F9043091FA04821B930B73
:101A8000861B970B03E0969587950A95E1F790934F
:101A90002D0680932C0680912C0690912D0613E044
:101AA000880F991F1A95E1F70E94AA378093300694
:101AB0009093310600D00F9285ED93E0ADB7BEB79D
:101AC00012969C938E93119780912C0690912D06DF
:101AD00014969C938E9313970E944A0710922F0698
:101AE00010922E064DB75EB72091540B3091550BD6
:101AF0000F900F900F900F902115310521F4209138
:101B0000F9043091FA0400D00F9286EE93E0EDB71D
:101B1000FEB792838183421B530B548343830E94FD
:101B20004A070F900F900F900F90DF91CF911F9168
:101B30000F91FF90EF90DF90CF900895EF92FF927A
:101B40000F931F93CF93DF93EC0160E070E04AE0C6
:101B500050E00E94DF387B018C0161157105810521
:101B6000910551F52091520B3091530B22323105E2
:101B700019F500D000D0EDB7FEB7319682EF93E0B3
:101B8000ADB7BEB712969C938E9311973383228381
:101B9000D583C4830E944A078DB79EB706960FB6B9
:101BA000F8949EBF0FBE8DBF6091520B7091530B86
:101BB00080E090E00E94031BB701C801DF91CF9144
:101BC0001F910F91FF90EF9008954F925F926F9247
:101BD0007F928F929F92BF92CF92DF92EF92FF926D
:101BE0000F931F93CF93DF934B016A0129013801B3
:101BF0007C01E60EF71E00E010E0E801C80DD91DDB
:101C0000F701B080BB2099F0C201801B910B0297B5
:101C1000A0F06B2D772767FD7095C3010E94263ACF
:101C20000F5F1F4F0894E11CF11C009711F02196E3
:101C300004C0F601B1926F01E0CFF6011082CE012F
:101C4000DF91CF911F910F91FF90EF90DF90CF9098
:101C5000BF909F908F907F906F905F904F9008956E
:101C6000EF92FF920F931F93CF93DF938C017B0131
:101C7000C0E0D0E00894E108F10815C084E898E0DD
:101C80000E942619892BD1F384E898E00E94571905
:101C9000F801EC0FFD1F80838D3041F08A3031F068
:101CA000882321F02196CE15DF0540F30C0F1D1F70
:101CB000F8011082CE01DF91CF911F910F91FF901B
:101CC000EF9008952F923F924F925F926F927F9282
:101CD0008F929F92AF92BF92EF92FF920F931F93BA
:101CE000DF93CF93CDB7DEB72B970FB6F894DEBF57
:101CF0000FBECDBF7C012B018A012DB73EB73B87BC
:101D00002A878DB79EB780970FB6F8949EBF0FBEF7
:101D10008DBF8DB69EB60894811C911CADB7BEB721
:101D200090970FB6F894BEBF0FBEADBF6DB67EB62E
:101D30000894611C711C84E898E06EE174E00E94D4
:101D4000521600D000D0EDB7FEB7319681E294E094
:101D5000ADB7BEB712969C938E9311975382428271
:101D6000158304830E944A07EDB7FEB736960FB677
:101D7000F894FEBF0FBEEDBF1414150414F417FF42
:101D80001EC000D000D0EDB7FEB731968CE494E0D1
:101D9000ADB7BEB712969C938E9311975382428231
:101DA000158304830E944A072FEF3FEFEDB7FEB77C
:101DB00036960FB6F894FEBF0FBEEDBFC0C0382CEC
:101DC000292CB62CA72C470166247724832D922D2D
:101DD00060E270E00E94300E0F920F92ADB7BEB776
:101DE00011963C92119712962C920E944A070F90DE
:101DF0000F90832D922D62E070E04B2D5A2D20E242
:101E000030E004E614E00E94E50D8C018B2D9A2D44
:101E10000E949E0D6E837F8388879987832D922DE4
:101E2000B8014B2D5A2D20E230E004E614E00E9468
:101E3000E50D8B2D9A2D0E949E0D7B018C0184E86F
:101E400098E06EE174E00E9452168E819F81A88511
:101E5000B985F40184839583A683B783D401ED9279
:101E6000FD920D931C9313970894611C711CE8E07C
:101E7000F0E08E0E9F1E641475040CF4A7CF2DB7EE
:101E80003EB7205230400FB6F8943EBF0FBE2DBF74
:101E9000EDB6FEB60894E11CF11C832D922D60E294
:101EA00070E00E94300EBE2CAF2C832D922D60E08E
:101EB00070E0A70120E230E004E614E00E94E50DA6
:101EC0000F920F92ADB7BEB71196EC921197129682
:101ED000FC920E944A07DE011396EBE8F4E083E0EF
:101EE00001900D928150E1F780918E0490918F04C2
:101EF0009A8389830F900F908B2D9A2DBE016D5F71
:101F00007F4F0E94313A0097C1F48B2D9A2DBE016C
:101F10006F5F7F4F0E94313A009779F40F920F92D2
:101F200086E694E0EDB7FEB7928381830E944A076C
:101F300020E030E00F900F9002C021E030E0C901B6
:101F40002A853B850FB6F8943EBF0FBE2DBF2B965A
:101F50000FB6F894DEBF0FBECDBFCF91DF911F91BA
:101F60000F91FF90EF90BF90AF909F908F907F90D8
:101F70006F905F904F903F902F900895AF92BF92D7
:101F8000CF92DF92EF92FF920F931F93DF93CF9345
:101F9000CDB7DEB760970FB6F894DEBF0FBECDBFEA
:101FA00029833A834B835C836D837E838F839887F9
:101FB000A986BA86CB86DC86ED86FE860F87188BCF
:101FC000CDB6DEB68DB79EB780970FB6F8949EBF9C
:101FD0000FBE8DBF0DB71EB70F5F1F4FEDB7FEB71A
:101FE000B0970FB6F894FEBF0FBEEDBFEDB6FEB6CC
:101FF0000894E11CF11C0F920F9280E994E0EDB778
:10200000FEB7928381830E944A070F900F90C80108
:1020100060E270E00E94300E0F920F92EDB7FEB7B3
:10202000018312830E944A070F900F90C80162E05B
:1020300070E0A70120E230E004E614E00E94E50D24
:102040000F920F92EDB7FEB7E182F2820E944A072B
:102050000F900F90C7010E949E0D162F072F00D0E2
:1020600000D02AEA34E0EDB7FEB7328321836383E0
:102070007483858396830E944A078DB79EB7069620
:102080000FB6F8949EBF0FBE8DBF812F902F0FB655
:10209000F894DEBE0FBECDBE60960FB6F894DEBFDC
:1020A0000FBECDBFCF91DF911F910F91FF90EF90A9
:1020B000DF90CF90BF90AF9008951F920F920FB610
:1020C0000F9211242F933F938F939F93AF93BF93BE
:1020D00080914F0690915006A0915106B091520602
:1020E000309153060196A11DB11D232F2D5F2D3771
:1020F00020F02D570196A11DB11D2093530680930A
:102100004F0690935006A0935106B09352068091CB
:102110004B0690914C06A0914D06B0914E0601964B
:10212000A11DB11D80934B0690934C06A0934D06C4
:10213000B0934E06BF91AF919F918F913F912F9198
:102140000F900FBE0F901F9018958FB7F8942091A5
:102150004F063091500640915106509152068FBF64
:10216000B901CA0108959B01AC017FB7F894809131
:102170004B0690914C06A0914D06B0914E0666B567
:10218000A89B05C06F3F19F00196A11DB11D7FBF2F
:10219000BA2FA92F982F8827860F911DA11DB11D39
:1021A00062E0880F991FAA1FBB1F6A95D1F7BC0177
:1021B0002DC0FFB7F89480914B0690914C06A091EA
:1021C0004D06B0914E06E6B5A89B05C0EF3F19F04D
:1021D0000196A11DB11DFFBFBA2FA92F982F8827E7
:1021E0008E0F911DA11DB11DE2E0880F991FAA1F3E
:1021F000BB1FEA95D1F7861B970B885E9340C8F208
:10220000215030404040504068517C4F21153105ED
:102210004105510571F60895789484B5826084BDB6
:1022200084B5816084BD85B5826085BD85B58160DA
:1022300085BDEEE6F0E0808181608083E1E8F0E03A
:102240001082808182608083808181608083E0E869
:10225000F0E0808181608083E1EBF0E08081846048
:102260008083E0EBF0E0808181608083E1E9F0E051
:10227000808182608083808181608083E0E9F0E0FA
:10228000808181608083E1EAF0E0808182608083E8
:10229000808181608083E0EAF0E0808181608083DA
:1022A000E1E2F1E0808182608083808181608083CF
:1022B000E0E2F1E0808181608083EAE7F0E0808104
:1022C000846080838081826080838081816080835C
:1022D0008081806880831092C1000895883008F062
:1022E00078C0E82FF0E0EE0FFF1FEC5AF94F718332
:1022F00060838330D9F0843030F4813009F444C0F5
:10230000823060F439C0853051F18530D8F08630A4
:1023100009F446C0873009F05CC04FC08091690065
:102320008C7F842B80936900E89A089580916900DE
:10233000440F551F440F551F837F842B80936900E2
:10234000E99A08958091690074E0440F551F7A95C9
:10235000E1F78F7C842B80936900EA9A089580913D
:10236000690066E0440F551F6A95E1F78F73842B6F
:1023700080936900EB9A089580916A008C7F842B8A
:1023800080936A00EC9A089580916A00440F551F6B
:10239000440F551F837F842B80936A00ED9A089524
:1023A00080916A0024E0440F551F2A95E1F78F7C45
:1023B000842B80936A00EE9A089580916A0096E0DB
:1023C000440F551F9A95E1F78F73842B80936A0011
:1023D000EF9A08951F920F920FB60F920BB60F92BD
:1023E00011242F933F934F935F936F937F938F931A
:1023F0009F93AF93BF93EF93FF9380915806909173
:102400005906892B29F0E0915806F0915906199543
:10241000FF91EF91BF91AF919F918F917F916F91BC
:102420005F914F913F912F910F900BBE0F900FBE78
:102430000F901F9018951F920F920FB60F920BB628
:102440000F9211242F933F934F935F936F937F933A
:102450008F939F93AF93BF93EF93FF9380915A060F
:1024600090915B06892B29F0E0915A06F0915B066A
:102470001995FF91EF91BF91AF919F918F917F91AE
:102480006F915F914F913F912F910F900BBE0F90E5
:102490000FBE0F901F9018951F920F920FB60F92BC
:1024A0000BB60F9211242F933F934F935F936F932B
:1024B0007F938F939F93AF93BF93EF93FF938091FD
:1024C0005C0690915D06892B29F0E0915C06F09105
:1024D0005D061995FF91EF91BF91AF919F918F91FB
:1024E0007F916F915F914F913F912F910F900BBE14
:1024F0000F900FBE0F901F9018951F920F920FB65E
:102500000F920BB60F9211242F933F934F935F932B
:102510006F937F938F939F93AF93BF93EF93FF93AB
:1025200080915E0690915F06892B29F0E0915E060E
:10253000F0915F061995FF91EF91BF91AF919F9137
:102540008F917F916F915F914F913F912F910F905C
:102550000BBE0F900FBE0F901F9018951F920F92F9
:102560000FB60F920BB60F9211242F933F934F93F8
:102570005F936F937F938F939F93AF93BF93EF93EB
:10258000FF938091540690915506892B29F0E09194
:102590005406F09155061995FF91EF91BF91AF91B7
:1025A0009F918F917F916F915F914F913F912F916B
:1025B0000F900BBE0F900FBE0F901F9018951F929B
:1025C0000F920FB60F920BB60F9211242F933F93D9
:1025D0004F935F936F937F938F939F93AF93BF932B
:1025E000EF93FF938091560690915706892B29F01F
:1025F000E0915606F09157061995FF91EF91BF9122
:10260000AF919F918F917F916F915F914F913F918A
:102610002F910F900BBE0F900FBE0F901F9018952B
:102620001F920F920FB60F920BB60F9211242F9399
:102630003F934F935F936F937F938F939F93AF934A
:10264000BF93EF93FF938091600690916106892B71
:1026500029F0E0916006F09161061995FF91EF91E4
:10266000BF91AF919F918F917F916F915F914F91AA
:102670003F912F910F900BBE0F900FBE0F901F90A8
:1026800018951F920F920FB60F920BB60F9211244E
:102690002F933F934F935F936F937F938F939F936A
:1026A000AF93BF93EF93FF9380916206909163067F
:1026B000892B29F0E0916206F09163061995FF914C
:1026C000EF91BF91AF919F918F917F916F915F91AA
:1026D0004F913F912F910F900BBE0F900FBE0F9017
:1026E0001F901895CF93DF93482F50E0CA01885868
:1026F0009E4FFC0134914E5C5E4FFA018491882319
:1027000069F190E0880F991FFC01EC51FF4FA591F2
:10271000B491FC01E250FF4FC591D491662351F46E
:102720002FB7F8948C91932F909589238C9388815F
:1027300089230BC0623061F42FB7F8948C91932FEA
:10274000909589238C938881832B88832FBF06C023
:102750009FB7F8948C91832B8C939FBFDF91CF917F
:102760000895893009F449C08A30A0F4843051F1C9
:10277000853040F4823079F1833000F5813009F002
:1027800063C026C0873079F1883098F5863009F02B
:102790005BC025C08D3009F442C08E3028F48B30E8
:1027A000B1F18C30C0F52DC0803109F442C08131C7
:1027B00009F445C08F3009F047C037C080918000D0
:1027C0008F7703C0809180008F7D80938000089573
:1027D00084B58F7702C084B58F7D84BD08958091C4
:1027E000B0008F7703C08091B0008F7D8093B000E0
:1027F0000895809190008F7707C0809190008F7D21
:1028000003C080919000877F80939000089580910D
:10281000A0008F7707C08091A0008F7D03C08091BA
:10282000A000877F8093A0000895809120018F777A
:1028300003C0809120018F7D8093200108958091B5
:102840002001877F809320010895FF920F931F93AB
:10285000F62E482F50E0CA0182549E4FFC0124916D
:10286000CA0188589E4FFC0114914E5C5E4FFA01DC
:1028700004910023C9F0222319F0822F0E94B11382
:10288000E02FF0E0EE0FFF1FE250FF4FA591B49153
:102890009FB7F894FF2021F48C911095812302C0FA
:1028A0008C91812B8C939FBF1F910F91FF90089566
:1028B0000F931F93482F50E0CA0182549E4FFC0192
:1028C0002491CA0188589E4FFC0104914E5C5E4FD2
:1028D000FA011491112319F420E030E015C02223ED
:1028E00019F0822F0E94B113812F90E0880F991F59
:1028F000885E9E4FFC01A591B4918C9120E030E060
:10290000802311F021E030E0C9011F910F9108955B
:10291000382F863308F0365320917B00832F86951D
:102920008695869590E08170907043E0880F991F9E
:102930004A95E1F7277F282B20937B003770809101
:10294000A5058295880F880F807C832B80937C005F
:1029500080917A00806480937A0080917A0086FD6D
:10296000FCCF2091780040917900942F80E030E0F6
:10297000282B392BC90108952F923F924F925F92D5
:102980006F927F928F929F92AF92BF92CF92DF927F
:10299000EF92FF920F931F93DF93CF93CDB7DEB7E4
:1029A0003B014C0119012A016E897F89888D998D1F
:1029B0006A197B098C099D09621A730A840A950AAF
:1029C000A40193010E94293DE218F30804091509A6
:1029D000A80197010E94913D2A0D3B1D4C1D5D1DD4
:1029E000B901CA01CF91DF911F910F91FF90EF9034
:1029F000DF90CF90BF90AF909F908F907F906F901F
:102A00005F904F903F902F900895CF92DF92EF927A
:102A1000FF920F931F93CF93DF937C016B018A0189
:102A2000C0E0D0E00FC0D6016D916D01D701ED91EE
:102A3000FC910190F081E02DC7011995C80FD91FB5
:102A4000015010400115110571F7CE01DF91CF91B2
:102A50001F910F91FF90EF90DF90CF900895EF922C
:102A6000FF920F931F938C01DC01ED91FC9101907B
:102A7000F081E02D6DE019957C01D801ED91FC917C
:102A80000190F081E02DC8016AE019959C012E0D9E
:102A90003F1DC9011F910F91FF90EF900895EF9294
:102AA000FF920F931F937C01DC01ED91FC9101904B
:102AB000F081E02D19958C01C7010E942F15080F98
:102AC000191FC8011F910F91FF90EF900895CF93A8
:102AD000DF93DB010D900020E9F71197A61BB70BE0
:102AE000EC01E881F9810280F381E02DAD011995B7
:102AF000DF91CF9108954F925F927F928F929F9234
:102B0000AF92BF92CF92DF92EF92FF920F931F93FB
:102B1000DF93CF93CDB7DEB7A1970FB6F894DEBFA2
:102B20000FBECDBF2C01742ECB01223008F42AE059
:102B300019A231E2C32ED12CCC0EDD1E822E992497
:102B4000AA24BB24672D752FA50194010E946F3D17
:102B500079018A01C801B701A50194010E94293DAC
:102B6000472D461B0894C108D1084A3014F4405D33
:102B700001C0495CF6014083E114F104010511052F
:102B800021F07E2C5F2DC801DDCFC201B6010E946D
:102B90006715A1960FB6F894DEBF0FBECDBFCF91DB
:102BA000DF911F910F91FF90EF90DF90CF90BF903A
:102BB000AF909F908F907F905F904F900895CF92AD
:102BC000DF92EF92FF920F931F93CF93DF93EC016D
:102BD0006A017B012115310541F4E881F9810190F9
:102BE000F081E02D642F19951FC02A303105D1F4F2
:102BF00077FF17C0E881F9810190F081E02D6DE247
:102C000019958C0144275527BA014C195D096E09A5
:102C10007F09CE012AE00E947B159801280F391FF9
:102C200004C02AE00E947B159C01C901DF91CF916D
:102C30001F910F91FF90EF90DF90CF900895EF924A
:102C4000FF920F931F937C010E94DF158C01C70137
:102C50000E942F159C01200F311FC9011F910F9158
:102C6000FF90EF900895CF92DF92EF92FF920F9333
:102C70001F936C017B019A010027F7FC0095102F30
:102C8000B801A7010E94DF158C01C6010E942F1513
:102C9000080F191FC8011F910F91FF90EF90DF904F
:102CA000CF9008950E9467150895EF92FF920F93B9
:102CB0001F937C010E9467158C01C7010E942F158C
:102CC000080F191FC8011F910F91FF90EF900895F1
:102CD000CF93DF930E940C110E94700CCBE5D7E1DB
:102CE0000E942A092097E1F30E945B17F9CF08950B
:102CF0001F920F920FB60F920BB60F9211242F93C3
:102D00003F934F938F939F93EF93FF934091C60010
:102D10002091A4063091A5062F5F3F4F2F7330708E
:102D20008091A6069091A7062817390759F0E091DF
:102D3000A406F091A506EC59F94F40833093A506FF
:102D40002093A406FF91EF919F918F914F913F9116
:102D50002F910F900BBE0F900FBE0F901F901895E4
:102D600008951F920F920FB60F920BB60F92112477
:102D70002F933F934F938F939F93EF93FF934091A4
:102D8000CE0020912C0730912D072F5F3F4F2F73DE
:102D9000307080912E0790912F072817390759F02E
:102DA000E0912C07F0912D07E451F94F40833093C7
:102DB0002D0720932C07FF91EF919F918F914F91B9
:102DC0003F912F910F900BBE0F900FBE0F901F9051
:102DD000189508951F920F920FB60F920BB60F928F
:102DE00011242F933F934F938F939F93EF93FF93D0
:102DF0004091D6002091B4073091B5072F5F3F4F27
:102E00002F7330708091B6079091B7072817390754
:102E100059F0E091B407F091B507EC58F84F4083B2
:102E20003093B5072093B407FF91EF919F918F9155
:102E30004F913F912F910F900BBE0F900FBE0F90AF
:102E40001F90189508951F920F920FB60F920BB610
:102E50000F9211242F933F934F938F939F93EF9350
:102E6000FF934091360120913C0830913D082F5F3F
:102E70003F4F2F73307080913E0890913F08281784
:102E8000390759F0E0913C08F0913D08E450F84FC3
:102E9000408330933D0820933C08FF91EF919F9130
:102EA0008F914F913F912F910F900BBE0F900FBEBE
:102EB0000F901F901895E0919008F0919108E05CB8
:102EC000FF4F8191919120813181821B930B8F73F0
:102ED0009070892B11F00E947716E091AF08F09165
:102EE000B008E05CFF4F8191919120813181821B7C
:102EF000930B8F739070892B11F00E94B016E091A4
:102F0000CE08F091CF08E05CFF4F81919191208134
:102F10003181821B930B8F739070892B11F00E946B
:102F2000E916E091ED08F091EE08E05CFF4F819129
:102F3000919120813181821B930B8F739070892B2B
:102F400011F00E94221708951F920F920FB60F9250
:102F50000BB60F9211242F933F938F939F93EF9370
:102F6000FF932091E8063091E9068091EA0690915E
:102F7000EB062817390731F48091C1008F7D8093CB
:102F8000C10014C0E091EA06F091EB06E855F94F54
:102F900020818091EA069091EB0601968F739070E4
:102FA0009093EB068093EA062093C600FF91EF9181
:102FB0009F918F913F912F910F900BBE0F900FBE5D
:102FC0000F901F9018951F920F920FB60F920BB68D
:102FD0000F9211242F933F938F939F93EF93FF931F
:102FE000209170073091710780917207909173075B
:102FF0002817390731F48091C9008F7D8093C9006B
:1030000014C0E0917207F0917307E05DF84F2081E2
:10301000809172079091730701968F7390709093CF
:103020007307809372072093CE00FF91EF919F91D9
:103030008F913F912F910F900BBE0F900FBE0F906D
:103040001F9018951F920F920FB60F920BB60F920A
:1030500011242F933F938F939F93EF93FF9320918E
:10306000F8073091F9078091FA079091FB0728172C
:10307000390731F48091D1008F7D8093D10014C045
:10308000E091FA07F091FB07E854F84F2081809116
:10309000FA079091FB0701968F7390709093FB074E
:1030A0008093FA072093D600FF91EF919F918F9123
:1030B0003F912F910F900BBE0F900FBE0F901F905E
:1030C00018951F920F920FB60F920BB60F92112404
:1030D0002F933F938F939F93EF93FF9320918008BB
:1030E00030918108809182089091830828173907D0
:1030F00031F4809131018F7D8093310114C0E091D2
:103100008208F0918308E05CF74F2081809182086B
:103110009091830801968F739070909383088093A9
:10312000820820933601FF91EF919F918F913F91FB
:103130002F910F900BBE0F900FBE0F901F90189500
:10314000AF92BF92DF92EF92FF920F931F93CF93B4
:10315000DF93EC017A018B01DD24403081EE5807CA
:1031600080E0680780E0780711F0DD24D39491E0D7
:10317000A92EB12CEC89FD89DD2069F0C5010E8CEA
:1031800002C0880F991F0A94E2F7808360E079E01B
:103190008DE390E005C0108260E874E88EE190E075
:1031A000A80197010E946F3D21503040404050409F
:1031B000569547953795279580E12030380720F0C0
:1031C000DD2011F0DD24D6CFE889F9893083EA8942
:1031D000FB892083EE89FF89408121E030E0C9012D
:1031E0000A8C02C0880F991F0A94E2F7482B40838B
:1031F000EE89FF894081C9010B8C02C0880F991F9D
:103200000A94E2F7482B4083EE89FF894081C90187
:103210000C8C02C0880F991F0A94E2F7482B408358
:10322000EE89FF8980810D8C02C0220F331F0A9422
:10323000E2F7209528232083DF91CF911F910F91F2
:10324000FF90EF90DF90BF90AF900895DC011C9647
:10325000ED91FC911D97E05CFF4F219131918081B0
:103260009181281B390B2F733070C9010895DC013F
:103270001C96ED91FC911D97E05CFF4F2081318100
:10328000E054F040DF01AE5BBF4F8D919C911197F0
:103290002817390719F42FEF3FEF07C08D919C9144
:1032A000E80FF91F8081282F30E0C9010895DC0163
:1032B0001C96ED91FC911D97E05CFF4F20813181C0
:1032C000E054F040DF01AE5BBF4F8D919C911197B0
:1032D0002817390719F42FEF3FEF10C08D919C91FB
:1032E0001197E80FF91F20818D919C9111970196FC
:1032F0008F73907011969C938E9330E0C90108955E
:10330000FC0186859785DC01A05CBF4FFC01EE5B6C
:10331000FF4F2D913C91119780819181281739079A
:10332000C1F70895CF93DF93EC01EE85FF85E05C54
:10333000FF4F20813181E054F0402F5F3F4F2F73CA
:103340003070DF01AE5BBF4F8D919C9111972817B4
:103350003907D1F3E05CFF4F80819181E054F04068
:10336000E80FF91F6083EE85FF85E05CFF4F318336
:103370002083EE89FF89208181E090E00D8C02C0DE
:10338000880F991F0A94E2F7282B208381E090E0B0
:10339000DF91CF9108951F931092870810928608AD
:1033A00028EE33E040E050E020938808309389080D
:1033B00040938A0850938B0862EB75E07093850800
:1033C0006093840884E696E0909391088093900837
:1033D00088EA96E0909393088093920885EC90E0B9
:1033E000909395088093940884EC90E090939708CC
:1033F0008093960880EC90E09093990880939808C9
:1034000081EC90E090939B0880939A0886EC90E082
:1034100090939D0880939C0814E010939E08B3E05D
:10342000B0939F08A7E0A093A008F5E0F093A1084F
:10343000E1E0E093A2081092A6081092A50820935C
:10344000A7083093A8084093A9085093AA0870933E
:10345000A4086093A3088CEE96E09093B008809344
:10346000AF0880E397E09093B2088093B1088DECA9
:1034700090E09093B4088093B3088CEC90E0909324
:10348000B6088093B50888EC90E09093B8088093D4
:10349000B70889EC90E09093BA088093B9088EEC55
:1034A00090E09093BC088093BB081093BD08B09344
:1034B000BE08A093BF08F093C008E093C108109223
:1034C000C5081092C4082093C6083093C7084093DB
:1034D000C8085093C9087093C3086093C20884E772
:1034E00097E09093CF088093CE0888EB97E0909375
:1034F000D1088093D00885ED90E09093D308809315
:10350000D20884ED90E09093D5088093D40880EDA4
:1035100090E09093D7088093D60881ED90E0909347
:10352000D9088093D80886ED90E09093DB088093CB
:10353000DA081093DC08B093DD08A093DE08F0935E
:10354000DF08E093E0081092E4081092E30820936B
:10355000E5083093E6084093E7085093E808709335
:10356000E2086093E1088CEF97E09093EE08809377
:10357000ED0880E498E09093F0088093EF0885E3ED
:1035800091E09093F2088093F10884E391E09093A6
:10359000F4088093F30880E391E09093F608809319
:1035A000F50881E391E09093F8088093F70886E3AB
:1035B00091E09093FA088093F9081093FB08B09378
:1035C000FC08A093FD08F093FE08E093FF081F910C
:1035D0000895CF93DF93C0E0D0E006C0C60FD71F99
:1035E00061507040804090406115710581059105E2
:1035F000A9F784E898E06DEB74E00E945216CE01C2
:10360000DF91CF910895CF93DF93EB01892B39F5AB
:1036100084E898E06EEB74E00E945516F8948DE013
:1036200061E00E94721384E898E0BE014AE050E035
:103630000E9433168DE060E00E94251460E472E47D
:103640008FE090E00E94E91A8DE061E00E9425146D
:1036500060E472E48FE090E00E94E91AE4CFDF9129
:10366000CF910895FC0175836483718760875783C8
:10367000468353874287158A1586148617861686D1
:1036800021E0248B8FEF9FEF938B828B918B808B2C
:10369000268B08952F923F924F925F926F927F9266
:1036A0008F929F92AF92BF92CF92DF92EF92FF9252
:1036B0000F931F93DF93CF93CDB7DEB72E970FB63F
:1036C000F894DEBF0FBECDBF9E878D871B015E8342
:1036D0004D83A701260171E0C72ED12CC21AD30A4F
:1036E000C901880F991F66277727681B790B7A8392
:1036F00069836D807E8008946108710883E0882E5C
:10370000912C8E0C9F1C790181E090E09C838B832F
:10371000AA24BB2410E0D801A170B070B887AF8391
:10372000FA013196FA87E987B801627070707C8778
:103730006B8777C0D7FC0AC00894E108F10889813B
:103740009A8102969A838983C80ED91E0894A11C77
:10375000B11CAB81BC811296BC83AB83EF81F88531
:10376000EF2B41F1AD85BE85ED91FC911197B5012F
:10377000620D731D4D815E814E195F099701220F05
:10378000331F89859A85280F391F0284F385E02D20
:10379000CD0182011995AD85BE85ED91FC91119702
:1037A000B701620D731D0284F385E02DCD01A301E5
:1037B00094011995EB85FC85EF2B41F1AD85BE8514
:1037C000ED91FC911197B1016A197B094D815E81E0
:1037D0004E195F099701220F331F89859A85280F9B
:1037E000391F0284F385E02DCD0182011995AD8545
:1037F000BE85ED91FC911197B1016E197F0902848C
:10380000F385E02DCD01A30194011995EB81FC8195
:10381000CE0EDF1E08946108710862E070E0860E2B
:10382000971EAE14BF040CF485CF2E960FB6F894F5
:10383000DEBF0FBECDBFCF91DF911F910F91FF90E3
:10384000EF90DF90CF90BF90AF909F908F907F9040
:103850006F905F904F903F902F9008956F927F925E
:103860008F929F92AF92BF92CF92DF92EF92FF9290
:103870000F931F937C014B013A0159016801DC0150
:10388000ED91FC91421B530B220F331F2F5F3F4FD3
:103890000284F385E02D1995C701B401A3019501B8
:1038A00003E0EE24FF240E944A1B1F910F91FF901A
:1038B000EF90DF90CF90BF90AF909F908F907F90D0
:1038C0006F9008952F923F924F925F926F927F92E6
:1038D0008F929F92AF92BF92CF92DF92EF92FF9220
:1038E0000F931F93DF93CF9300D00F92CDB7DEB726
:1038F0003C017C836B836A015901FA82E9822224AC
:1039000033249801241B350B37FF03C030952195D4
:103910003F4FC5014B815C81841B950B97FF03C012
:10392000909581959F4F821793075CF481E0282E34
:10393000312CC601CB80DC809C838B83C801850140
:103940005C018B819C81A816B90644F4C501AB804B
:10395000BC809C838B83C80186016C012501AB81EF
:10396000BC814A1A5B0A7801EC18FD08F7FE04C016
:10397000F094E194F108F394C016D10624F0882461
:103980008A94982C03C0B1E08B2E912CC20162E086
:1039900070E00E945C3D8B0125C0D301ED91FC914C
:1039A0002114310441F00480F581E02DC301B601FA
:1039B0004B815C8107C00480F581E02DC3016B81E0
:1039C0007C81A60129813A8119950E191F0917FFDB
:1039D00004C0C80CD91C040D151DEB81FC81319667
:1039E000FC83EB834B815C81A416B506B4F60F9083
:1039F0000F900F900F90CF91DF911F910F91FF903B
:103A0000EF90DF90CF90BF90AF909F908F907F907E
:103A10006F905F904F903F902F9008954F925F92DC
:103A20006F927F928F929F92AF92BF92CF92DF92CE
:103A3000EF92FF920F931F936C015B014A013901D2
:103A40002801DC01ED91FC910484F585E02D8701CE
:103A50001995D601ED91FC91A40141505040440DBF
:103A6000551D0484F585E02DC601B5019301199516
:103A7000D601ED91FC910284F385E02DC601B501DC
:103A8000A40192011995D601ED91FC910894A10829
:103A9000B108A60CB71C0284F385E02DC601B50160
:103AA000A401920119951F910F91FF90EF90DF9063
:103AB000CF90BF90AF909F908F907F906F905F90CE
:103AC0004F9008952F923F924F925F926F927F9204
:103AD0008F929F92AF92BF92CF92DF92EF92FF921E
:103AE0000F931F93DF93CF93CDB7DEB72F970FB60A
:103AF000F894DEBF0FBECDBF5C015E834D83188797
:103B00000F83FA86E986CB86DC0118968D919C910D
:103B10001997681779070CF0A4C01A968D919C919B
:103B20001B97481759070CF09CC0EC2DF0E0FF875D
:103B3000EE87CF01880F991F880F991F8E0F9F1F47
:103B4000860F971F181619060CF08BC0CF01A3E043
:103B5000880F991FAA95E1F7840F951F181619066B
:103B60000CF07FC085E0289FA00111245A8349836F
:103B70002B011B011C825C81553011F480E005C0D3
:103B8000E981FA81EC5FFD4F84912C863D866D8042
:103B90007E8043011B82C82EDD2480FF1CC0D5011E
:103BA000ED91FC91BB85B13049F40480F581E02DA5
:103BB000C501B201A3012F81388522C00088F18997
:103BC000E02DC5016C857D85A4012E853F85890189
:103BD000EF80F88423C0E985FA852F813885E217C4
:103BE000F307E9F0D501ED91FC91BB85B13051F4BB
:103BF0000480F581E02DC501B201A30129853A8534
:103C000019950DC00088F189E02DC5016C857D8571
:103C1000A4012E853F858901E984FA841995EB81F9
:103C2000EF5FEB832E853F85820E931E0894611C07
:103C3000711CE83021F0D594C7948C2DACCF3C8119
:103C40003F5F3C834E855F85240E351E0894411CE2
:103C5000511C89819A8101969A838983363009F0B3
:103C60008ACF2F960FB6F894DEBF0FBECDBFCF918F
:103C7000DF911F910F91FF90EF90DF90CF90BF9059
:103C8000AF909F908F907F906F905F904F903F90FC
:103C90002F900895CF92EF92FF920F931F93CF939F
:103CA000DF93EC01262F6A3061F42C8930E003E0C9
:103CB000220F331F0A95E1F78E859F85820F931F90
:103CC00037C06D30C9F16C857D854E855F8508896B
:103CD0001989EA88FB88CC880E94621D2C8986E0BD
:103CE000289FB00111248C859D85680F791F7D87E1
:103CF0006C878E89882301F1422F50E08AEF9FEF75
:103D00009C01429FC001439F900D529F900D112432
:103D100028853985820F931F861797076CF413E067
:103D2000440F551F1A95E1F78E859F85840F951FC7
:103D30009F878E871D861C8681E090E0DF91CF9162
:103D40001F910F91FF90EF90CF900895FC01758720
:103D50006487578746870895FC01662309F461E06C
:103D6000648B0895FC01718B608B738B628B08955B
:103D7000FC011382128282EC95E09183808360A320
:103D800041A322A381E0878B14A213A20895DC0132
:103D900057968C915797882329F06EBD0DB407FE76
:103DA000FDCF089530E840E050E070E0832F90E0D0
:103DB000862397235896ED91FC91599795962C91CF
:103DC0009597892B21F08081822B808304C080818C
:103DD0002095282320835A96ED91FC915B97808152
:103DE00096969C919697892B80835A96ED91FC919B
:103DF0005B97908196968C91969780958923808386
:103E000036954F5F5F4F4830510581F608950F9307
:103E10001F938C01DC015E96ED91FC915F97908180
:103E200098968C9198978095892380835C96ED91E4
:103E3000FC915D97908197968C91809589238083E2
:103E4000C8010E94C71ED8015C96ED91FC915D9758
:103E5000808197969C91892B80831F910F91089563
:103E60000F931F938C01DC015E96ED91FC915F979F
:103E7000808198969C919897892B80835C96ED9190
:103E8000FC915D97908197968C9180958923808392
:103E9000C8010E94C71ED8015C96ED91FC915D9708
:103EA000808197969C91892B80831F910F91089513
:103EB000CF92DF92EF92FF920F931F937C01162F08
:103EC000C42ED22E6AE20E94071FC70160E00E9442
:103ED000301FF70161A5610FC7010E94301FC701A4
:103EE00060E00E94301FF70161A56D0DC7010E94BF
:103EF000301FC7016BE20E94071FC70160E00E94EC
:103F0000301FF70162A56C0DC7010E94301FC70169
:103F100060E00E94301FF70162A5600FC7010E9498
:103F2000301FC7016CE20E94071F1F910F91FF9085
:103F3000EF90DF90CF900895EF92FF920F931F9331
:103F4000CF93DF93EC017B01288521500A85015036
:103F500060E040E00E94581FEE8DFF8D808198A5A3
:103F6000892B8083EC8DFD8D90818FA18095892395
:103F700080831A850EC0088509C0CE016F2D0E946E
:103F8000C71ECE016E2D0E94C71E01500023A9F747
:103F90001150112381F7EC8DFD8D80819FA1892B1C
:103FA0008083DF91CF911F910F91FF90EF90089543
:103FB000FF920F931F938C01F62E672FDC015E9604
:103FC000ED91FC915F97808198969C919897892BB1
:103FD00080835C96ED91FC915D97908197968C9192
:103FE000809589238083C8010E94C71EC8016F2D58
:103FF0000E94C71ED8015C96ED91FC915D9780816F
:1040000097969C91892B80831F910F91FF90089523
:10401000FF920F931F93CF93DF93EC01F22E132F98
:1040200077FD2EC088859985681779074CF557FD6F
:1040300027C08A859B854817590714F5262F2F5FBF
:10404000042F0F5FCE010E94581FEE8DFF8D8081DF
:1040500098A5892B8083EC8DFD8D90818FA1809513
:1040600089238083CE01612F0E94C71ECE016F2D50
:104070000E94C71EEC8DFD8D80819FA1892B8083BE
:10408000DF91CF911F910F91FF900895DF92EF92F2
:10409000FF920F931F93CF93DF93EC01FB01790104
:1040A000D02E8885998568177907D4F52A853B85B0
:1040B00042175307ACF5C701840F951F281739071E
:1040C0001CF47901E41AF50A042F01500E0DCE01FB
:1040D0006E2F2E2F0E94581FEE8DFF8D808198A588
:1040E000892B8083EC8DFD8D90818FA18095892314
:1040F000808308C0CE01612F0E94C71ECE016D2DA6
:104100000E94C71E0894E108F1088FEFE8168FEFB0
:10411000F80681F7EC8DFD8D80819FA1892B80832E
:10412000DF91CF911F910F91FF90EF90DF90089555
:10413000DF92EF92FF920F931F93CF93DF93EC01E7
:10414000FA017901D02E2885398562177307D4F5D5
:104150008A859B8548175907ACF5C701860F971FBD
:10416000281739071CF47901E61AF70A262F21507F
:104170002E0DCE014E2F0E2F0E94581FEE8DFF8D5B
:10418000808198A5892B8083EC8DFD8D90818FA1F6
:1041900080958923808308C0CE01612F0E94C71EAD
:1041A000CE016D2D0E94C71E0894E108F1088FEF23
:1041B000E8168FEFF80681F7EC8DFD8D80819FA1C9
:1041C000892B8083DF91CF911F910F91FF90EF900A
:1041D000DF900895AF92BF92CF92DF92EF92FF925D
:1041E0000F931F93CF93DF936C015901E801DC011A
:1041F00018962D913C911997621773070CF057C0D0
:104200001A96ED91FC911B974E175F070CF04FC06B
:10421000C501860F971F281739071CF45901A61AE4
:10422000B70ACE01840F951FE817F9071CF4EF01B8
:10423000C41BD50B262F21502A0D042F01500C0F23
:10424000C6010E94581FD6015E96ED91FC915F97C2
:10425000808198969C919897892B80835C96ED91AC
:10426000FC915D97908197968C91809589238083AE
:104270008E010EC0C6016F2D0E94C71EC6016E2D95
:104280000E94C71E21971C161D06A4F30150104062
:104290001016110614F4E501F6CFD6015C96ED91E7
:1042A000FC915D97808197969C91892B8083DF910B
:1042B000CF911F910F91FF90EF90DF90CF90BF9023
:1042C000AF9008951F93CF93DF93EC01162F66E311
:1042D0000E94071F13701D8B113051F0113028F010
:1042E000123049F01330F1F411C0CE0168EC05C072
:1042F000CE0168EA0DC0CE0168E00E94301F80E860
:1043000090E09987888780EA90E00AC0CE0168E64D
:104310000E94301F80EA90E09987888780E890E0CB
:104320009B878A87DF91CF911F910895662311F4AF
:1043300060E201C061E20E94071F0895AF92BF9240
:10434000CF92DF92EF92FF920F931F93CF93DF9361
:104350005C01FB01EB012196D49031C08E010F5F0F
:104360001F4FFE016491C5010E94071F7801089448
:10437000E11CF11CF801C4900C2D0F77E701102F00
:1043800008C0FE012196E491C5016E2F0E94301FE6
:1043900011501123B1F7E701C00FD11DC7FE0EC0A8
:1043A000FE018491682F70E06F3F710511F464EF96
:1043B00071E0219680E090E00E94B310DA94DD2055
:1043C00069F6DF91CF911F910F91FF90EF90DF90F1
:1043D000CF90BF90AF9008950F931F93CF93DF932B
:1043E000EC018B0160E870E040EA50E00E94321B73
:1043F0001AA619A689A161E00E94721388A161E042
:104400000E947213E8A12E2F30E0F901EE5CFE4FFE
:10441000E491F0E0EE0FFF1FE250FF4F8591949181
:104420009D8F8C8F28583E4FF90184918FA3E9A16D
:104430002E2F30E0F901EE5CFE4FE491F0E0EE0F3C
:10444000FF1FE250FF4F859194919F8F8E8F2858C8
:104450003E4FF901849188A78F89882361F00E94DB
:104460003D3680E00E942C3681E00E941E3680E0BE
:104470000E9427363DC08CA161E00E9472138BA17F
:1044800061E00E947213ECA18E2F90E0FC01EE5CC3
:10449000FE4FE491F0E0EE0FFF1FE250FF4FA591B9
:1044A000B491BB8FAA8F88589E4FFC0144914EA3B4
:1044B000EBA12E2F30E0F901EE5CFE4FE491F0E02D
:1044C000EE0FFF1FE250FF4F85919491998F888FD7
:1044D00028583E4FF90184918DA38C914095482333
:1044E0004C93E88DF98D90818DA1809589238083EF
:1044F000EC8DFD8D90818FA18095892380838AA189
:10450000882309F161E00E9472138AA161E00E9490
:10451000251464EF71E080E090E00E94B3108AA15E
:1045200060E00E94251464EF71E080E090E00E945A
:10453000B3108AA161E00E94251464EF71E080E06D
:1045400090E00E94B3100115110521F0CE01B801D1
:104550000E949E21DF91CF911F910F9108951F938B
:10456000CF93DF93EC01162F6FEF76E00E94EC21E2
:10457000112351F4CE016AE377E00E949E2182E08C
:1045800089A781E08AA705C0CE0167E477E00E9491
:104590009E21CE0164E577E00E949E21DF91CF91BC
:1045A0001F91089582E090E0A0E0B0E080930009C0
:1045B00090930109A0930209B0930309109217097F
:1045C00010922109109220098AEE95E090931F091C
:1045D00080931E09109223091092400910924109FC
:1045E000109244091092460908952F923F924F92DB
:1045F0005F926F927F928F929F92AF92BF92CF9273
:10460000DF92EF92FF920F931F93DF93CF93CDB77B
:10461000DEB7C754D0400FB6F894DEBF0FBECDBF93
:10462000582E492EFB013A01190180A191A1998BC5
:10463000888B2AEE35E03F872E8782A18A8B83A163
:104640008B8B84A195A1A6A1B7A18C8B9D8BAE8BE2
:10465000BF8B80A591A5A2A5B3A5888F998FAA8F9E
:10466000BB8F84A595A5A6A5B7A58C8F9D8FAE8F72
:10467000BF8F80A988A381A992A9A3A9B4A989A35E
:104680009AA3ABA3BCA385A996A9A7A9B0AD8DA3F6
:104690009EA3AFA3B8A781AD92AD9AA789A71EA686
:1046A0001DA63CA72BA718AA7A018E01025F1F4FF7
:1046B0003BE2A32EB12CAC0EBD1E4E010894811C12
:1046C000911C35C0D7018C918F3221F40894E11CE4
:1046D000F11C2DC0422F4E194D3008F04CE0C42E75
:1046E000DD24C401B701A6010E943A3AF401EC0DA1
:1046F000FD1D1082C5010E94FD27C501B801A4015E
:1047000021E00E94452D882351F4E52DF42D1382DC
:1047100012828AEE95E091838083158266C0EC0C4C
:10472000FD1CC8010E94FD27C50158018C01C7016D
:104730006FE270E00E94263A9C01009719F6E61895
:10474000F708F101F182E082E52DF42DD8011296EF
:104750008D919C911397938382838AEE95E0918348
:10476000808314968C911497848315968C91159759
:10477000858316962D913D914D915C9119972683D5
:104780003783408751871A962D913D914D915C91C9
:104790001D9722873387448755871E962D913D911B
:1047A0004D915C91519726873787408B518B52965C
:1047B0008C915297828B53962D913D914D915C91A6
:1047C0005697238B348B458B568B57962D913D9165
:1047D0004D915C915A97278B308F418F528F5B960A
:1047E0008D919C915C97948F838F852D942DC95BBF
:1047F000DF4F0FB6F894DEBF0FBECDBFCF91DF9174
:104800001F910F91FF90EF90DF90CF90BF90AF90EE
:104810009F908F907F906F905F904F903F902F90E0
:1048200008959F92AF92BF92CF92DF92EF92FF9244
:104830000F931F93DF93CF93CDB7DEB7C657D0400A
:104840000FB6F894DEBF0FBECDBFC82E992E8A01D9
:10485000D22E43E0A42EB12CAC0EBD1EC501A80182
:104860009E012F5F3F4F0E94F522E980FA80E00E03
:10487000F11EF70180814AEE55E02885882309F072
:104880003FC08D819E819BA38AA359A348A38F819A
:104890008CA32DA389859A85AB85BC858EA39FA308
:1048A000A8A7B9A78D859E85AF85B8898AA79BA73C
:1048B000ACA7BDA789899A89AB89BC898EA79FA718
:1048C000A8ABB9AB8D898AAB8E899F89A88DB98D2C
:1048D0008BAB9CABADABBEAB8A8D9B8DAC8DBD8DD8
:1048E0008FAB98AFA9AFBAAF8E8D9F8D9CAF8BAFBA
:1048F0008C2D992DBE01605E7F4F40ED54E09FC02E
:10490000FE01FF96118210825EAF4DAFFE01EE5B9D
:10491000FF4F10822223A9F02250CE01CD962230E3
:1049200048F46EE179E0A7012D2D0E94452D8823E2
:1049300081F407C0B501A7012D2D0E94452D8823C4
:1049400029F48C2D992D0E9469257BC0C5010E94F8
:10495000FD27F6E0DF2259F0FE01E05BFF4F4081CA
:10496000518162817381CE01CD960E94ED269E0118
:10497000265A3F4FFE01FF9680819181F901938372
:1049800082838AEE95E091838083FE01EF5BFF4F87
:104990008081F9018483FE01EE5BFF4F8081F90184
:1049A0008583FE01ED5BFF4F80819181A281B38100
:1049B000F90186839783A087B187FE01E95BFF4FEA
:1049C00080819181A281B381F90182879387A48735
:1049D000B587FE01E55BFF4F80819181A281B381A4
:1049E000F90186879787A08BB18BFE01E15BFF4FB2
:1049F0008081F901828BFE01E05BFF4F8081918114
:104A0000A281B381F901838B948BA58BB68BFE01B8
:104A1000EC5AFF4F80819181A281B381F901878B8C
:104A2000908FA18FB28FFE01E85AFF4F8081918154
:104A3000F901948F838F8C2D992DB901A7010E94C4
:104A400073268C2D992DCA58DF4F0FB6F894DEBF10
:104A50000FBECDBFCF91DF911F910F91FF90EF90CF
:104A6000DF90CF90BF90AF909F900895EF92FF920C
:104A70000F931F93CF93DF93EC01462F8C01055CBE
:104A80001F4FC80161E00E9486308823D1F0FC2EC0
:104A9000ED2ECE01B80141E00E94F331882339F4B4
:104AA000CE01B80140E00E94F331882351F0CE01DD
:104AB0004E966F2D7E2D0E94332A882319F081E0B7
:104AC00001C080E0DF91CF911F910F91FF90EF9097
:104AD0000895FC011382128288EE93E0A0E0B0E01A
:104AE00084839583A683B7838AED95E09183808341
:104AF000128E118E14860895FC018AED95E0918343
:104B000080830895DF93CF930F92CDB7DEB7FC017A
:104B10006983A081B18112962D913C911397BE01BA
:104B20006F5F7F4F41E050E0F90119950F90CF91F1
:104B3000DF910895DC015996ED91FC915A973097D9
:104B400019F420E030E018C023893489458956895A
:104B500082859385A485B585281B390B4A0B5B0B91
:104B60002030B0E83B07B0E04B07B0E05B0720F037
:104B70002FEF3FE740E050E0C9010895DC0159966E
:104B8000ED91FC915A97309711F480E0089585815A
:104B9000811181E00895CF93DF93EC01898D9A8D87
:104BA000009741F00E94FD27898D9A8D0E94473819
:104BB0001A8E198EDF91CF910895FC01818D928D0F
:104BC000009711F480E008950E94ED260895FC01FD
:104BD000818D928D009711F00E94B3270895FC01FA
:104BE000818D928D009719F420E030E003C00E947F
:104BF000D4289C01C9010895DF93CF930F92CDB7BC
:104C0000DEB7FC01818D928D009749F0BE016F5F88
:104C10007F4F41E050E00E94D428019719F02FEF18
:104C20003FEF03C08981282F30E0C9010F90CF9159
:104C3000DF910895EF92FF920F931F93DF93CF932D
:104C40000F92CDB7DEB77C01DC0159968D919C9116
:104C50005A97009719F400E010E01FC0BE016F5F83
:104C60007F4F41E050E00E94D428019719F00FEFE8
:104C70001FEF13C08981082F10E0D7015996ED91DD
:104C8000FC915A9742855385648575854150504003
:104C900060407040CF010E94ED26C8010F90CF9177
:104CA000DF911F910F91FF90EF900895CF93DF93C5
:104CB000EC01E98DFA8D309761F013821282CF01F9
:104CC0000E94192B9C01E98DFA8D82819381892B99
:104CD00031F081E090E09B838A8320E030E0C901DD
:104CE000DF91CF910895EF92FF920F931F93CF938F
:104CF000DF93EC01F62EE72E8A011B821A8288EEE2
:104D000093E0A0E0B0E08C839D83AE83BF838AED07
:104D100095E0998388838DE190E00E94AA379A8F6D
:104D2000898F009791F0DC018F2D9E2D9C01F90158
:104D30008DE101900D928150E1F7CE010C96B80102
:104D40004CE050E00E943A3A188EDF91CF911F91CB
:104D50000F91FF90EF900895CF93DF93EC01DB016B
:104D600080E090E020E2FD01E80FF91F208301962A
:104D70008B309105C1F757E040E021C02E3219F089
:104D800086EE97E007C05A3019F15AE048E017C0A4
:104D90003217F1F0FC01019634913323C9F754170F
:104DA000B8F02132A8F02F3798F4822F81568A313B
:104DB00008F42052FD01E40FF11D20834F5F29917B
:104DC0002223E1F690E08C91803219F091E001C04D
:104DD00090E0892FDF91CF9108956F927F928F920B
:104DE0009F92AF92BF92CF92DF92EF92FF920F937A
:104DF0001F93CF93DF93EC017A018B012D81222346
:104E000009F480C08B899C89AD89BE898417950778
:104E1000A607B70708F476C085C0E114F1040105C0
:104E2000110549F41E821F82188619861A861B8670
:104E30001C861D8665C02A853B854C855D85EB8D6E
:104E4000FC8D858590E009962150304040405040CF
:104E500039014A01082E04C0969487947794679488
:104E60000A94D2F72F5F3F4F4F4F5F4F0894E108EE
:104E7000F108010911095701680104C0D694C794CB
:104E8000B794A7948A95D2F70894E11CF11C011DF0
:104E9000111DA614B704C804D90428F02115310542
:104EA0004105510549F48F89988DA98DBA8D8E835E
:104EB0009F83A887B98716C0A618B708C808D9085D
:104EC00011C04E815F81688579858B8D9C8D9401A1
:104ED0000E94D4330894A108B108C108D1088823DE
:104EE00031F410C086E0882E912C8C0E9D1EA114EA
:104EF000B104C104D10429F7EA86FB860C871D871B
:104F000081E001C080E0DF91CF911F910F91FF9070
:104F1000EF90DF90CF90BF90AF909F908F907F9059
:104F20006F900895223009F078CFE6CFCF93DF93CA
:104F3000EC01462F6E857F85888999890E94B8315A
:104F4000882319F420E030E00AC08A89282F30E055
:104F500095E0220F331F9A95E1F7255B364FC90183
:104F6000DF91CF9108950F931F93CF93DF938C011F
:104F7000FC0185818823D9F1848187FF35C0C80170
:104F800061E00E949627EC01009789F1F801858184
:104F9000823040F483899489A589B6898C8F9D8F4E
:104FA000AE8FBF8FF8018789908D9B8F8A8F8789FD
:104FB000908DA18DB28DCD01AA27BB279D8B8C8BA7
:104FC000E0914909F0914A09309751F0BE016A5EBB
:104FD0007F4FCE0148961995888D998D9B8B8A8B32
:104FE000F80184818F7784830E94593101C080E069
:104FF000DF91CF911F910F910895CF93DF93EC0133
:105000000E94B327882311F01D8281E0DF91CF91A8
:1050100008956F927F928F929F92AF92BF92CF929C
:10502000DF92EF92FF920F931F93DF93CF9300D005
:105030000F92CDB7DEB77C015A016B01DC011596EA
:105040008C911597813009F08FC014968C9181FF57
:105050008BC09EC00097A105B10511F481E085C009
:10506000F7016284738484849584C701B601A50125
:105070000E94ED26882309F477C0D7015B968D91B5
:105080009C915C97A114B104C104D10489F4579692
:105090004D915D916D917C915A970E944734882380
:1050A00009F462C0F701178A108E118E128E3DC06E
:1050B000D70116964D915D916D917C9119979E0146
:1050C0002F5F3F4F0E94D433882309F44DC0D7018E
:1050D0005B96ED91FC915C9749815A816B817C8153
:1050E0008789803129F088EF9FEFAFEFBFE004C0E0
:1050F00088EF9FEFA0E0B0E0481759076A077B07E9
:10510000A0F4CF010E944734882371F1F701468152
:10511000578160857185838D948D0FEF1FEF2FEF81
:105120003FE00E9438338823F9F0D7015396AD92BF
:10513000BD92CD92DC92569714968C91149780680C
:1051400014968C93C7010E94B327882369F0B60197
:10515000A5016A147B048C049D0410F4B401A3011E
:10516000C7010E94ED2601C080E00F900F900F90C4
:105170000F90CF91DF911F910F91FF90EF90DF90F3
:10518000CF90BF90AF909F908F907F906F90089539
:10519000F70183899489A589B68984179507A6079D
:1051A000B70708F057CFE0CF2F923F924F925F9210
:1051B0006F927F928F929F92AF92BF92CF92DF9227
:1051C000EF92FF920F931F93CF93DF93EC012A018D
:1051D0008D81882309F4C6C08C8180FFC3C0D8C0EC
:1051E00025014E185F084B0176E0272E312C2C0E3E
:1051F0003D1E3201B1C02A853B854C855D856FEF30
:10520000A62E61E0B62EA222B3228D8179018A01F9
:1052100099E016950795F794E7949A95D1F7EB8D59
:10522000FC8D823049F4428D538D648D758D4E0D09
:105230005F1D601F711F3FC0D480DA94DE20A1146F
:10524000B104D9F4DD20C9F421153105410551051A
:1052500049F48F89988DA98DBA8D8E839F83A887F5
:10526000B9870BC04E815F8168857985CF01910137
:105270000E94D433882309F475C0EB8DFC8D4E81D8
:105280005F81688579854250504060407040058458
:1052900004C0440F551F661F771F0A94D2F78685F6
:1052A0009785A089B189480F591F6A1F7B1F4D0D33
:1052B000511D611D711D80E092E08A199B096301F7
:1052C0008615970508F46C018C8186FD06C080E088
:1052D000C81682E0D80609F073C08091A6059091A7
:1052E000A705A091A805B091A905481759076A0715
:1052F0007B0709F465C080914B0B90914C0B950195
:10530000860174010E94D92F882361F18C0C9D1CA9
:1053100012C09501255B364FA9014C0D5D1DD401CE
:10532000F90102C081918D93E417F507D9F7E21BCB
:10533000F30B8E0E9F1E960140E050E08A859B8500
:10534000AC85BD85820F931FA41FB51F8A879B87DD
:10535000AC87BD876C187D086114710409F04BCFD0
:10536000A20102C04FEF5FEFCA01DF91CF911F9101
:105370000F91FF90EF90DF90CF90BF90AF909F90F4
:105380008F907F906F905F904F903F902F900895F7
:10539000AB88BC88CD88DE88EA84FB840C851D85BB
:1053A0009A0140E050E0D601C5018E199F09A00B7B
:1053B000B10B82179307A407B50708F411CF13CFD9
:1053C000CB01BA0140E00E94B831882309F0A1CF97
:1053D000C9CFCF92DF92EF92FF920F931F93DF938B
:1053E000CF930F92CDB7DEB76C01FC01858182307F
:1053F00070F0E284F38404851585C601BE016F5FF9
:105400007F4F41E050E00E94D428019769F020E0EE
:1054100030E0C9010F90CF91DF911F910F91FF9064
:10542000EF90DF90CF900895F60182859385A48553
:10543000B5854F96A11DB11D82879387A487B58737
:10544000F5E016950795F794E794FA95D1F78E2D28
:105450008F70282F30E0E5E0220F331FEA95E1F747
:10546000255B364FD6CF0F931F93CF93DF93EC017D
:105470008B018D81882309F041C0FB018789803130
:10548000B1F482E08D831F8A188E198E1A8E808D5A
:10549000918DA0E0B0E045E0880F991FAA1FBB1FC7
:1054A0004A95D1F78B8B9C8BAD8BBE8B15C0803210
:1054B00029F583E08D83FB01428D538D648D758DBD
:1054C0004F8B588F698F7A8F9E012D5E3F4FC80199
:1054D0000E94A034882391F01C8F0B8F81E08C8375
:1054E0001E821F82188619861A861B861C861D86B8
:1054F0001E861F86188A198A1A8A01C080E0DF91E9
:10550000CF911F910F9108951F93CF93DF93EC01DB
:10551000142FE62FF0E075E0EE0FFF1F7A95E1F70C
:10552000E55BF64F8385817121F0842F827409F049
:1055300054C06A8B8091A6059091A705A091A805FB
:10554000B091A9058E879F87A88BB98B848995898F
:10555000A0E0B0E0BC0155274427828D938DA0E0E8
:10556000B0E0482B592B6A2B7B2B4F8B588F698FC0
:105570007A8F838590E088719070009751F4848DC4
:10558000958DA68DB78D8B8B9C8BAD8BBE8B81E063
:105590000CC0409711F59E012D5E3F4F8B8D9C8D69
:1055A0000E94A0348823C9F084E08D83812F8F70FE
:1055B0008C831E821F82188619861A861B861C867B
:1055C0001D8616FD02C081E009C0CE0140E050E01A
:1055D00060E070E00E94092801C080E0DF91CF9177
:1055E0001F910895CF93DF93EC019C012A5F3F4FF9
:1055F0008B8D9C8D41E050E060E070E00E940F35A3
:105600008823A1F08F89988DA98DBA8D0097A10567
:10561000B10559F48E819F81A885B9858F8B988FAC
:10562000A98FBA8F8C8180688C8381E0DF91CF91C4
:1056300008952F923F924F925F927F928F929F9206
:10564000AF92BF92CF92DF92EF92FF920F931F9390
:10565000DF93CF9300D000D0CDB7DEB76C01162F0B
:10566000072F5E834D83DC0115968C911597813051
:1056700009F070C114968C9181FF6CC18EC1F60146
:10568000438954896589768982859385A485B58502
:1056900084179507A607B70731F0C6010E94ED26CB
:1056A000882309F457C1812F902F9C0129012D8057
:1056B0003E8017C1D6015B96ED91FC915C97DA01B3
:1056C000C90119E0B695A795979587951A95D1F7D1
:1056D00074807A9478227FEF872E71E0972E822251
:1056E0009322772009F04EC08114910409F04AC03A
:1056F000D60116964D915D916D917C91199741154A
:1057000051056105710581F457968D919D910D901C
:10571000BC91A02D0097A105B10549F1F601868342
:105720009783A087B1872EC0CF019E012F5F3F4F87
:105730000E94D433882309F414C129813A814B8112
:105740005C81D6015B96ED91FC915C9787898031F5
:1057500029F088EF9FEFAFEFBFE004C088EF9FEF25
:10576000A0E0B0E0281739074A075B0730F0C60110
:105770000E94F22A882331F4EDC0F6012683378394
:105780004087518780E092E088199909510182157C
:10579000930508F45C01D6015B96ED91FC915C9752
:1057A0001696ED90FD900D911C9119978EEF9FEF3D
:1057B000AFEFBFEFE80EF91E0A1F1B1F058404C0E0
:1057C000EE0CFF1C001F111F0A94D2F786859785E7
:1057D000A089B189E80EF91E0A1F1B1FE70CF11CF6
:1057E000011D111D90E0A91692E0B90651F58091B6
:1057F000A6059091A705A091A805B091A9058E15C1
:105800009F05A007B10761F48FEF9FEFAFEFBFEFE8
:105810008093A6059093A705A093A805B093A9052A
:1058200080914B0B90914C0BB801A70192010E9403
:105830007C2F882309F48EC0A0E0B2E04A0E5B1EE4
:105840003EC08114910409F5F60122853385448513
:10585000558583899489A589B689281739074A0708
:105860005B0798F00E945931882309F473C0E092D5
:10587000A605F092A7050093A8051093A9058091AD
:105880004D0B816080934D0B08C0C801B70141E00A
:105890000E94B831882309F45DC09401255B364F1E
:1058A000A9014A0D5B1DD201F90102C08D918193BE
:1058B000E417F507D9F7E21BF30B4E0E5F1E2A180B
:1058C0003B08950140E050E0F60182859385A48570
:1058D000B585820F931FA41FB51F82879387A48766
:1058E000B587D6011A962D913D914D915C911D97EA
:1058F0002114310409F0DECE53968D919D910D90C7
:10590000BC91A02D82179307A407B50748F4F601B0
:10591000238B348B458B568B84818068848311C0A4
:105920008091490990914A09892B59F08D819E8176
:10593000892B39F0D60114968C91149780681496AF
:105940008C93F601848183FF0EC0C6010E94B327A9
:10595000882349F481E090E0D60113969C938E93BE
:1059600012971E821D828D819E8126960FB6F89415
:10597000DEBF0FBECDBFCF91DF911F910F91FF9082
:10598000EF90DF90CF90BF90AF909F908F907F90DF
:105990005F904F903F902F90089582FD70CE83CE00
:1059A000DF93CF930F92CDB7DEB76983BE016F5FF0
:1059B0007F4F41E050E00E94192B0F90CF91DF9173
:1059C0000895DF92EF92FF920F931F93CF93DF938F
:1059D000EC010E94F22A882309F44EC0EB8DFC8D65
:1059E000EE80FF80088519858EEF9FEFAFEFBFEF48
:1059F000E80EF91E0A1F1B1F058404C0EE0CFF1CD5
:105A0000001F111F0A94D2F786859785A089B18956
:105A1000E80EF91E0A1F1B1FD4800894E108F10844
:105A2000010911090BC0C801B7016D0D711D811D60
:105A3000911D0E9494318823F9F0DA94DD2099F7C2
:105A4000EB8DFC8D20E032E040E050E0058404C0A6
:105A5000220F331F441F551F0A94D2F78B899C894C
:105A6000AD89BE89820F931FA41FB51F8B8B9C8BA2
:105A7000AD8BBE8B81E001C080E0DF91CF911F91A3
:105A80000F91FF90EF90DF9008956F927F928F9229
:105A90009F92AF92BF92CF92DF92EF92FF920F93BD
:105AA0001F93DF93CF93CDB7DEB72B970FB6F89444
:105AB000DEBF0FBECDBF5C016B01822EDC011596EF
:105AC0008C91882309F0D2C0CA018E010F5F1F4F4D
:105AD000B8010E94AC26882309F4C8C0F601838D62
