:100000000C94FE030C944E140C947F140C94B014B6
:100010000C94E1140C9412150C9443150C94741563
:100020000C94A5150C942A040C942A040C942A040C
:100030000C942A040C942A040C942A040C942A0488
:100040000C942A040C942A040C942A040C942A0478
:100050000C942A040C942A040C942A040C94C112C3
:100060000C942A040C94DC180C94081A0C942A049E
:100070000C942A040C942A040C942A040C942A0448
:100080000C942A040C942A040C942A040C942A0438
:100090000C9415190C94471A0C942A040C942A04F5
:1000A0000C942A040C942A040C942A040C942A0418
:1000B0000C942A040C942A040C942A040C942A0408
:1000C0000C942A040C942A040C942A040C944E19BF
:1000D0000C94861A0C942A040C9487190C94C51A53
:1000E0000C942A0400002100240027002A002D007F
:1000F0003000330001010000040107010A01000083
:100100002200250028002B002E00310034000201BF
:100110000000050108010B0100002000230026005B
:1001200029002C002F00320000010000030106010D
:10013000090105050505070508080808020202026D
:100140000A0A080804040404010101010101010173
:100150000303030303030303040707070C0C0C0C3E
:100160000C0C0C0C02020202060606060606060627
:100170000B0B0B0B0B0B0B0B0102102020080810B4
:100180002040102040800201020108040201010207
:1001900004081020408080402010080402018004E0
:1001A000020180402010080402010804020101023B
:1001B0000408102040800102040810204080000044
:1001C000090A02080B0C0D070603040100000000D9
:1001D000000000000000000000000000000000001F
:1001E0000000000000000000000011100F000000DF
:1001F00000000000000000000000000000000000FF
:100200000000000000000000003E5B4F5B3E3E6BC4
:100210004F6B3E1C3E7C3E1C183C7E3C181C577DA0
:10022000571C1C5E7F5E1C00183C1800FFE7C3E7EC
:10023000FF0018241800FFE7DBE7FF30483A060EFE
:100240002629792926407F050507407F05253F5A45
:100250003CE73C5A7F3E1C1C08081C1C3E7F1422B5
:100260007F22145F5F005F5F06097F017F00668960
:10027000956A606060606094A2FFA29408047E04A6
:100280000810207E201008082A1C08081C2A0808CC
:100290001E101010100C1E0C1E0C30383E3830068C
:1002A0000E3E0E06000000000000005F0000000788
:1002B000000700147F147F14242A7F2A12231308B6
:1002C000646236495620500008070300001C224192
:1002D000000041221C002A1C7F1C2A08083E080836
:1002E00000807030000808080808000060600020E6
:1002F000100804023E5149453E00427F40007249C9
:100300004949462141494D331814127F102745456C
:1003100045393C4A49493141211109073649494982
:1003200036464949291E00001400000040340000F0
:100330000008142241141414141400412214080259
:10034000015909063E415D594E7C1211127C7F49CC
:100350004949363E414141227F4141413E7F494921
:1003600049417F090909013E414151737F0808084D
:100370007F00417F41002040413F017F081422411E
:100380007F404040407F021C027F7F0408107F3E78
:100390004141413E7F090909063E4151215E7F09E5
:1003A000192946264949493203017F01033F40404C
:1003B000403F1F2040201F3F4038403F6314081437
:1003C0006303047804036159494D43007F4141416F
:1003D0000204081020004141417F04020102044050
:1003E00040404040000307080020545478407F28D4
:1003F0004444383844444428384444287F385454CA
:10040000541800087E090218A4A49C787F080404EC
:100410007800447D40002040403D007F102844008B
:1004200000417F40007C047804787C08040478381C
:1004300044444438FC1824241818242418FC7C084C
:10044000040408485454542404043F44243C4040C9
:10045000207C1C2040201C3C4030403C442810287C
:10046000444C9090907C4464544C440008364100C5
:100470000000770000004136080002010204023C3F
:100480002623263C1EA1A161123A4040207A38540E
:100490005455592155557941215454784121555489
:1004A000784020545579400C1E52721239555555DA
:1004B00059395454545939555454580000457C41C5
:1004C0000002457D420001457C40F0292429F0F0DE
:1004D000282528F07C545545002054547C547C0A2F
:1004E000097F4932494949323248484832324A48FC
:1004F00048303A4141217A3A42402078009DA0A0FC
:100500007D39444444393D4040403D3C24FF24244F
:10051000487E4943662B2FFC2F2BFF0929F620C06C
:10052000887E090320545479410000447D413048BD
:10053000484A32384040227A007A0A0A727D0D1900
:10054000317D2629292F28262929292630484D4062
:1005500020380808080808080808382F10C8ACBA5E
:100560002F102834FA00007B000008142A142222DD
:10057000142A1408AA005500AAAA55AA55AA0000D0
:1005800000FF00101010FF00141414FF001010FFE3
:1005900000FF1010F010F0141414FC001414F700F5
:1005A000FF0000FF00FF1414F404FC141417101FC4
:1005B00010101F101F1414141F00101010F0000052
:1005C00000001F101010101F10101010F01000006D
:1005D00000FF101010101010101010FF100000007D
:1005E000FF140000FF00FF00001F10170000FC04B4
:1005F000F414141710171414F404F40000FF00F797
:1006000014141414141414F700F7141414171410F9
:10061000101F101F141414F4141010F010F0000028
:100620001F101F0000001F14000000FC140000F049
:1006300010F01010FF10FF141414FF141010101FEE
:1006400000000000F010FFFFFFFFFFF0F0F0F0F0FF
:10065000FFFFFF0000000000FFFF0F0F0F0F0F381C
:10066000444438447C2A2A3E147E02020606027E56
:10067000027E0263554941633844443C04407E2075
:100680001E2006027E020299A5E7A5991C2A492A86
:100690001C4C7201724C304A4D4D30304878483015
:1006A000BC625A463D3E494949007E0101017E2A0D
:1006B0002A2A2A2A44445F444440514A4440404440
:1006C0004A51400000FF0103E080FF000008086B72
:1006D0006B083612362436060F090F06000018186C
:1006E0000000001010003040FF0101001F01011E3A
:1006F00000191D1712003C3C3C3C00000000000F9C
:100700000180961180FFB103012C2DB203012C2D25
:10071000B306012C2D012C2DB40107C003A20284C5
:10072000C101C5C2020A00C3028A2AC4028AEEC5F8
:10073000010E20003601C83A0105022A0400020019
:10074000812B04000100A0022A040000007F2B047A
:100750000000009F04E010021C07123732292D29E7
:10076000252B3900010310E110031D07062E2C294B
:100770002D2E2E373F0000021013800A29806412AC
:100780000180321180FF3A81050AB1830006030A15
:10079000360108B6021502B40100C08202700AC117
:1007A0000105C2020102C5823C380AFC021115E0B3
:1007B0001009160920211B131917151E2B040502F9
:1007C0000EE1900B14081E221D181E1B1A242B0666
:1007D00006020F0A2A04000200812B040002008195
:1007E00013800A2980FF7C3C3E5E2B3D3F2F5B5DE2
:1007F0003B2C2A225C009C072F1C362511241FBE8F
:10080000CFEFD1E2DEBFCDBF00E00CBF16E0A0E02D
:10081000B2E0E0E3F0E800E00BBF02C007900D9209
:10082000AC33B107D9F71BE0ACE3B6E001C01D92D1
:10083000A73AB107E1F717E0CCEFD7E004C0229761
:10084000FE010E941240C63FD107C9F70E94CC1892
:100850000C94723C0C9400001092450610924606CF
:1008600010924706109248061092490610924A06C6
:1008700010924B0610924C061092420610924106BE
:10088000109244061092430610923E0610923D06C6
:100890001092400610923F068091E60580933C0638
:1008A00008958091E605853028F48091E6058F5FF4
:1008B0008093E6058091E60508958091E6058823FA
:1008C00029F08091E60581508093E6058091E60548
:1008D0000895FC01DB018091410690914206209130
:1008E0003D0630913E06821B930B9183808380915D
:1008F00043069091440620913F0630914006821BAA
:10090000930B8D939C9381E0089597FF03C0E0E0E3
:10091000F0E010C0E0913C06F0E0EE0FFF1FE65B58
:10092000FA4F0190F081E02DE058F0408E179F07BC
:1009300008F4FC01F0933E06E0933D0677FF03C008
:1009400060E070E010C0E0913C06F0E0EE0FFF1FA9
:10095000EA5AFA4F0190F081E02DE05AF040E61794
:10096000F70708F4BF017093400660933F060895AF
:10097000AF92BF92CF92DF92EF92FF920F931F93AD
:10098000409141065091420642505040209143060A
:10099000309144062250304080913C0666E0869FAC
:1009A000C001112460913D0670913E068A01061B2C
:1009B000170B60913F06709140067901E61AF70A1D
:1009C0008E599A4F6EE476E0F5E0CF2ED12CE5E01B
:1009D000AE2EB12C0E94C0381F910F91FF90EF9066
:1009E000DF90CF90BF90AF900895AF92BF92CF921B
:1009F000DF92EF92FF920F931F9380913C0626E0C7
:100A0000829FC001112440913D0650913E062091E5
:100A10003F06309140068E599A4F6EE476E000E032
:100A200010E0EE24FF24B0E8CB2ED12CA0EAAA2EB1
:100A3000B12C0E94C0381F910F91FF90EF90DF9072
:100A4000CF90BF90AF9008950F931F936091410690
:100A50007091420680913D0690913E06681B790B8D
:100A6000409143065091440680913F069091400684
:100A7000481B590B8EE496E022E030E000E018EFCE
:100A80000E94921E1F910F910895AF92BF92CF9234
:100A9000DF92EF92FF920F931F935A016B01A82FE1
:100AA000BB27A7FDB09500D00F9266E875E0FD0169
:100AB00084E0EE0FFF1F8A95E1F7E60FF71F208114
:100AC000318142815381AA0FBB1FCD01019613E0F2
:100AD000880F991F1A95E1F7680F791FFB01E080D5
:100AE000F18002811381AA5ABA4F8D919C91A0E0A6
:100AF000B0E0EDB7FEB781839283A383B483C601D0
:100B0000B501AA24BB2465010E9420170F900F9005
:100B10000F900F901F910F91FF90EF90DF90CF906B
:100B2000BF90AF900895AF92BF92CF92DF92EF92B5
:100B3000FF920F931F935A016B01A82FBB27A7FDAC
:100B4000B09500D00F92FD0104E0EE0FFF1F0A9553
:100B5000E1F786E895E0E80FF91F248135814681A9
:100B60005781E484F58406851785AA0FBB1FA65B11
:100B7000BA4F8D919C91A0E0B0E0EDB7FEB78183B4
:100B80009283A383B483C601B501AA24BB24650163
:100B90000E9420170F900F900F900F901F910F91B0
:100BA000FF90EF90DF90CF90BF90AF900895AF92FD
:100BB000BF92CF92DF92EF92FF920F931F937B0130
:100BC0008C0159016A0180913C06B801A7010E947D
:100BD000930570933E0660933D0680913C06B601F6
:100BE000A5010E94450520913D0630913E0637FF44
:100BF00003C0E0E0F0E010C0E0913C06F0E0EE0F52
:100C0000FF1FE65BFA4F0190F081E02DE058F040C5
:100C10002E173F0708F4F901F0933E06E0933D06D6
:100C200077FF03C060E070E010C0E0913C06F0E0A8
:100C3000EE0FFF1FEA5AFA4F0190F081E02DE05AC3
:100C4000F040E617F70708F4BF0170934006609381
:100C50003F061F910F91FF90EF90DF90CF90BF90D4
:100C6000AF9008958091E60580933C06409145063B
:100C70005091460660914706709148060E94930580
:100C800070934206609341064091490650914A068E
:100C900060914B0670914C0680913C060E94450580
:100CA000709344066093430680913C060895AF928A
:100CB000BF92CF92DF92EF92FF920F931F93A82FD4
:100CC000BB27A7FDB09500D00F92CD01880F991FCB
:100CD000FC01EA5AFA4FE080F18000E010E0E6E81B
:100CE000F5E034E0AA0FBB1F3A95E1F7AE0FBF1F46
:100CF000AD90BD90CD90DC90019623E0880F991FB8
:100D00002A95E1F7E80FF91F80819181A281B381D3
:100D1000EDB7FEB781839283A383B483CB01BA017D
:100D200020E030E040E050E00E9420170F900F904C
:100D30000F900F901F910F91FF90EF90DF90CF9049
:100D4000BF90AF900895AF92BF92CF92DF92EF9293
:100D5000FF920F931F93992787FD909500D00F92D4
:100D6000FC01EE0FFF1FE65BFA4FE080F18000E030
:100D700010E0B4E0880F991FBA95E1F7E6E8F5E0D6
:100D8000DF01A80FB91F1496AD90BD90CD90DC90F7
:100D90001797E80FF91F84859585A685B785EDB768
:100DA000FEB781839283A383B483CB01BA0120E091
:100DB00030E040E050E00E9420170F900F900F901D
:100DC0000F901F910F91FF90EF90DF90CF90BF9009
:100DD000AF90089597FF03C080E090E00EC0E091CF
:100DE0003C06F0E0EE0FFF1FE65BFA4F0190F0814A
:100DF000E02DE817F90708F4CF019093420680939D
:100E0000410677FF03C060E070E00EC0E0913C0651
:100E1000F0E0EE0FFF1FEA5AFA4F0190F081E02D4B
:100E2000E617F70708F4BF01709344066093430682
:100E3000AC0160E070E080913C060E94A3066093E4
:100E40004506709346068093470690934806409166
:100E500043065091440660E070E080913C060E9499
:100E600057066093490670934A0680934B06909309
:100E70004C06089540914106509142062091430648
:100E800030914406260F371F840F951FB9010E9429
:100E9000EA060895CF92DF92EF92FF920F931F938D
:100EA000DF93CF93CDB7DEB7EDB6FEB6CEB6809169
:100EB000E705882359F18DB79EB7805091400FB652
:100EC000F8949EBF0FBE8DBF0DB71EB70F5F1F4FAB
:100ED000FE013E96C80160E071E04C855D859F0192
:100EE0000E94AD3C83ED98E06CE372E00E94B6187E
:100EF00083ED98E0B8010E94B9182E2D3C2DC90150
:100F00000FB6F8949EBF0FBE8DBF08C08DB79EB7B9
:100F10009C010FB6F8943EBF0FBE2DBF0FB6F894DC
:100F2000FEBE0FBEEDBECF91DF911F910F91FF90DE
:100F3000EF90DF90CF9008958EE496E066E047E072
:100F400028E00E941C2110928006109283061092C5
:100F500084061092850610928606109287061092DB
:100F600088061092890610928A0610928B061092BB
:100F70008C0610928D0610928E0610928F0610929B
:100F8000900610929106109292060E9409136093A7
:100F90009606709397068093980690939906089505
:100FA00090914D068091E605981711F40E945D041A
:100FB000089590914D068091E605981711F40E94CE
:100FC00051040895EF92FF920F931F93CF93DF93F5
:100FD000EC017B0180E00E94EC162091EA05309143
:100FE000EB058C01021B130B81E00E94EC16209193
:100FF000EC053091ED05821B930B9C01C801049612
:10100000099710F400E010E0C9010496099710F464
:1010100020E030E0C80160E870E00E94C03F7983C2
:101020006883C90160E870E00E94C03FF7017183E6
:1010300060830E9409137B018C0180919606909138
:101040009706A0919806B0919906E816F9060A0746
:101050001B0740F4E0929606F092970600939806DC
:10106000109399068091EE059091EF05A091F005FF
:10107000B091F1052091960630919706409198061F
:1010800050919906820F931FA41FB51F8E159F05BF
:10109000A007B10710F080E019C0E0929606F09228
:1010A0009706009398061093990684E00E94BC1658
:1010B00020E0892B09F421E080919506882321F016
:1010C00080E0222309F481E020939506DF91CF91FF
:1010D0001F910F91FF90EF90089584E060E00E94CF
:1010E000D61584E061E00E94891681E00E94EC162A
:1010F0009093EB058093EA0580E00E94EC169093B4
:10110000ED058093EC0508958FE499E065E00E9479
:101110009A27882329F50F920F928FE392E0EDB77B
:10112000FEB7928381830E944A0787E592E0EDB77C
:10113000FEB7928381830E944A078BE692E0EDB767
:10114000FEB7928381830E944A0783E892E0EDB75D
:10115000FEB7928381830E944A070F900F90FFCFC2
:101160000F920F928CEB92E0EDB7FEB792838183E2
:101170000E944A070F900F9008950F931F930EE45B
:1011800016E0C80161E00E941325C80160E00E94DA
:10119000C623C80160E070E040E050E00E940A21F0
:1011A000C80160E070E00E941621C80161E00E9461
:1011B0001021C8016FE170E00E9400221F910F9181
:1011C0000895EF92FF920F931F93CF93DF93EC015B
:1011D00080919306909194068C179D0789F1D09386
:1011E0009406C09393068EE496E060E070E044E9D4
:1011F00050E020E830E00CE010E0E0EEEE2EE7E01A
:10120000FE2E0E944E238EE496E061E00E941021A3
:101210008EE496E06FE178EF0E9416218EE496E06E
:1012200060E070E046E950E00E940A218EE496E01A
:1012300061E00E9410218EE496E0BE010E94B91880
:10124000DF91CF911F910F91FF90EF9008958BEC5C
:1012500092E00E94E108089504C083ED98E00E94A6
:10126000BB1B83ED98E00E948A1B892BB1F7089580
:10127000EF92FF920F931F93CF93DF93EB0100E068
:1012800010E0FCECEF2EF2E0FF2E50C048815981B7
:101290006A817B8180913C060E94930568837983F3
:1012A0008A839B834C815D816E817F8180913C0626
:1012B0000E9445056C837D838E839F832DB73EB747
:1012C0002E5030400FB6F8943EBF0FBE2DBFEDB785
:1012D000FEB73196ADB7BEB71296FC92EE9211975B
:1012E000288139814A815B812283338344835583FA
:1012F000668377838087918780913D0690913E0633
:101300009387828780913F069091400695878487D6
:101310000E944A070F5F1F4F28962DB73EB7225FE6
:101320003F4F0FB6F8943EBF0FBE2DBF80917C0695
:1013300090917D060817190708F4A8CFDF91CF9187
:101340001F910F91FF90EF9008952F923F924F922F
:101350005F926F927F928F929F92AF92BF92CF9245
:10136000DF92EF92FF920F931F93DF93CF93CDB74E
:10137000DEB72E970FB6F894DEBF0FBECDBF9887AD
:101380008F837A8769871E821D82E2C0A985BA850C
:10139000AD90BD90CD90DC90139714966D907D909C
:1013A0008D909C90179718962D903D904D905C9045
:1013B0001B971C968D919D910D90BC91A02D8983BA
:1013C0009A83AB83BC8380913D0690913E067C015D
:1013D00000E010E081589F4F9C0140E050E0609198
:1013E0003F0670914006CB01A0E0B0E08B879C8760
:1013F000AD87BE87EA14FB040C051D057CF4A2161C
:10140000B306C406D50654F4E214F3040405150526
:101410002CF4221633064406550604F18B859C8570
:10142000AD85BE8586159705A805B9050CF085C064
:1014300062167306840695060CF07FC089819A8136
:10144000AB81BC81E816F9060A071B070CF075C0D2
:1014500082179307A407B5070CF06FC0AE18BF083A
:10146000C00AD10A91E8A916B104C104D1042CF034
:10147000B0E8AB2EB12CC12CD12CA40193018B85EB
:101480009C85AD85BE85281B390B4A0B5B0B213A29
:1014900031054105510524F020EA30E040E050E0FC
:1014A000420131016E187F08800A910A840173019C
:1014B00081E868167104810491042CF0A0E8EA2EFA
:1014C000F12C012D112D89819A81AB81BC816B8416
:1014D0007C848D849E8486199709A809B909813A6C
:1014E0009105A105B10524F080EA90E0A0E0B0E00C
:1014F00035014601D7FE03C066247724430157FF18
:1015000004C020E030E040E050E05701680117FFE0
:1015100003C0AA24BB2465017C018D01B7FF03C071
:10152000EE24FF2487018EE496E0B301A901950122
:101530008701EE24FF240E94C61E2D813E812F5F6D
:101540003F4F3E832D8389859A8508969A878987A0
:1015500080917C0690917D060197AD81BE81A81790
:10156000B90708F413CF81E0EF81F88580832E96C8
:101570000FB6F894DEBF0FBECDBFCF91DF911F91A4
:101580000F91FF90EF90DF90CF90BF90AF909F9022
:101590008F907F906F905F904F903F902F90089525
:1015A0008F929F92AF92BF92CF92DF92EF92FF9273
:1015B0000F931F93DF93CF93CDB7DEB728970FB666
:1015C000F894DEBF0FBECDBF8DB79EB74091A30B81
:1015D0005091A40B4115510511F09A0104C02091BE
:1015E0004605309147056091E8057091E905821B39
:1015F000930B8617970730F52DB73EB74115510568
:1016000021F4409146055091470500D000D0EDB738
:10161000FEB731968DED92E0ADB7BEB712969C93B2
:101620008E931197241B350B338322837583648338
:101630000E944A07EDB7FEB736960FB6F894FEBF84
:101640000FBEEDBF80917906882311F4992404C060
:1016500010927906992493941A8219821C821B8213
:10166000F8949091E60580914D068824981711F022
:10167000882483947894882009F441C030913C06F2
:101680008091E6053817E9F02091E60500D000D0FA
:10169000EDB7FEB731968EEE92E0ADB7BEB71296BB
:1016A0009C938E93119732831382248315820E9418
:1016B0004A07EDB7FEB736960FB6F894FEBF0FBED9
:1016C000EDBF0E9432064091F7055091F8055695FE
:1016D000479580914106909142062091F9053091FD
:1016E000FA05369527956091430670914406621B72
:1016F000730B841B950B0E94850499249394CE014F
:101700000196BE016D5F7F4F0E94E207D82E89814E
:101710009A81892B29F48B819C81892B09F457C0EC
:10172000E0903D06F0903E0600913F061091400685
:10173000CE010596BE01695F7F4F0E946904882330
:1017400009F445C08D819E818A30910548F4E0906E
:101750003D06F0903E0620EE3FEFE20EF31E0DC078
:101760008637910510F420E009C0E0903D06F09026
:101770003E0680E290E0E80EF91E21E08F81988518
:101780008A30910538F400913F06109140060052CE
:1017900010400CC08637910538F000913F0610913B
:1017A0004006005E1F4F02C0222339F0C701B80176
:1017B0000E948504992493940AC00E94B8046B8106
:1017C0007C8189819A810E943A070E942405DD204C
:1017D00009F4BCC1ADB7BEB71A970FB6F894BEBF37
:1017E0000FBEADBFEDB7FEB7319685E093E0129620
:1017F0009C938E9311978091490690914A06A091EF
:101800004B06B0914C0682839383A483B583809169
:10181000450690914606A0914706B09148068683FA
:101820009783A087B1870E944A07A0904506B09091
:101830004606C0904706D0904806E0904906F090D2
:101840004A0600914B0610914C06EDB7FEB73A964A
:101850000FB6F894FEBF0FBEEDBF80918106909148
:101860008206892BE9F52DB73EB72A5030400FB6D6
:10187000F8943EBF0FBE2DBFEDB7FEB7319684E2A0
:1018800093E0ADB7BEB712969C938E931197A28248
:10189000B382C482D582E682F782008711870E94D4
:1018A0004A07E0928706F092880600938906109313
:1018B0008A06A0928306B0928406C0928506D092D2
:1018C000860681E090E09093820680938106EDB7D2
:1018D000FEB73A960FB6F894FEBF0FBEEDBF30C10B
:1018E0002DB73EB72A5030400FB6F8943EBF0FBE1A
:1018F0002DBFEDB7FEB7319680E493E0ADB7BEB72C
:1019000012969C938E931197A282B382C482D58241
:10191000E682F782008711870E944A07E0928F06CD
:10192000F09290060093910610939206A0928B0677
:10193000B0928C06C0928D06D0928E0610928206CE
:1019400010928106EDB7FEB738970FB6F894FEBF38
:101950000FBEEDBF31968AE593E0ADB7BEB71296E4
:101960009C938E9311978091870690918806A09101
:101970008906B0918A0682839383A483B58380917C
:10198000830690918406A0918506B0918606868391
:101990009783A087B187E286F38604871587A6869A
:1019A000B786C08AD18A0E944A07EDB7FEB7729601
:1019B0000FB6F894FEBF0FBEEDBF83ED98E068E868
:1019C00073E00E94B6184091870650918806609196
:1019D000890670918A0683ED98E02AE030E00E9443
:1019E000431883ED98E06BE873E00E94B6184091CD
:1019F000830650918406609185067091860683ED7A
:101A000098E02AE030E00E94431883ED98E06BE80C
:101A100073E00E94B61840918F0650919006609135
:101A200091067091920683ED98E02AE030E00E94E2
:101A3000431883ED98E06BE873E00E94B61840917C
:101A40008B0650918C0660918D0670918E0683ED09
:101A500098E02AE030E00E948318209183063091BC
:101A600084064091850650918606609187067091A4
:101A700088068091890690918A06A0908B06B09086
:101A80008C06C0908D06D0908E06E0908F06F09068
:101A9000900600919106109192060E9403128C010B
:101AA00000D00F928DE893E0ADB7BEB712969C932D
:101AB0008E93119714961C930E9313970E944A07C6
:101AC0000F900F900F900F9010161106BCF580919B
:101AD0007A0690917B068017910728F490937D06F3
:101AE00080937C0604C010937D0600937C06409191
:101AF0007A0650917B0680917E0690917F06B80110
:101B00000E94931097FD15C00F920F928DE993E0FC
:101B1000EDB7FEB7928381830E944A070F900F9022
:101B200060917E0670917F0680E896E00E943809F9
:101B300002C00E942C099924939402C00E942C098F
:101B40000E942C0983ED98E00E94E41B992009F47F
:101B5000A8C00E94F5040E94240580917C06909103
:101B60007D06029740F060917E0670917F0680E8C6
:101B700096E00E94A5090E942709882009F491C0D7
:101B800000917E0610917F06EE24FF248CECC82E77
:101B900082E0D82E54C080914D06D8014D915D91C0
:101BA0006D917C910E94A306F8016083718382830A
:101BB000938380914D0644815581668177810E948F
:101BC0005706D80114966D937D938D939C93179728
:101BD000EDB7FEB73E970FB6F894FEBF0FBEEDBF50
:101BE0003196ADB7BEB71296DC92CE921197D8015E
:101BF0002D913D914D915C91228333834483558394
:101C0000668377838087918780913D0690913E0619
:101C10009387828780913F069091400695878487BD
:101C20000E944A070894E11CF11C085F1F4FEDB7A2
:101C3000FEB73E960FB6F894FEBF0FBEEDBF809183
:101C40007C0690917D06E816F90608F4A4CFF89476
:101C500080913C068093E60580934D0678940F9220
:101C60000F9283EB93E0ADB7BEB712969C938E9321
:101C700011970E944A070F900F9080918006882349
:101C800081F060917E0670917F0680E896E00E9468
:101C9000380960917E0670917F0680E896E00E9488
:101CA000A5098091810690918206892B19F483EC15
:101CB00093E002C089EC93E00E94E10828960FB6F9
:101CC000F894DEBF0FBECDBFCF91DF911F910F9172
:101CD000FF90EF90DF90CF90BF90AF909F908F904C
:101CE0000895CF92DF92EF92FF920F931F93CF93BD
:101CF000DF9383ED98E040E855E260E070E00E94F9
:101D0000041B83ED98E06DEC73E00E94B91883ED3D
:101D100098E00E94E41B0E94BD080E9484080E9473
:101D20006D080E942C04C0903C06CC2DD0E034E01D
:101D3000CC0FDD1F3A95E1F726E8C22E25E0D22E22
:101D4000CC0EDD1EFE01E657FA4FD6011C966D91B2
:101D50007D918D919C911F9720813181428153818A
:101D6000620F731F841F951F22E030E040E050E0B7
:101D70000E94F53F79018A01C257DA4F6881798163
:101D80008A819B81F6012081318142815381620FDA
:101D9000731F841F951F22E030E040E050E00E9456
:101DA000F53FC801B7010E94D7058091F7059091D2
:101DB000F8059695879540913D0650913E066091B5
:101DC000F9057091FA057695679520913F06309157
:101DD0004006620F731F840F951F0E94EA0681E080
:101DE0008093790682E060E00E94D61582E061E08F
:101DF0000E94891683E060E00E94D61583E061E0CE
:101E00000E94891681E069ED77E042E050E00E948F
:101E1000D21380E060ED77E042E050E00E94D21300
:101E200068EE73E080E090E00E9417138CE291E08E
:101E300090937B0680937A068DB79EB72091A30B73
:101E40003091A40B2115310511F0A90104C0409176
:101E50004605509147056091E8057091E905841B9E
:101E6000950B861B970B80569940B0F48DB79EB7A3
:101E70002115310521F42091460530914705821B3B
:101E8000930B861B970BF3E096958795FA95E1F7F0
:101E900090937B0680937A0680917A0690917B06D8
:101EA000E3E0880F991FEA95E1F70E940E3A8093CC
:101EB0007E0690937F0600D00F9289ED93E0ADB738
:101EC000BEB712969C938E93119780917A0690914B
:101ED0007B0614969C938E9313970E944A07109248
:101EE0007D0610927C064DB75EB72091A30B309112
:101EF000A40B0F900F900F900F902115310521F436
:101F0000209146053091470500D00F928AEE93E06C
:101F1000EDB7FEB792838183421B530B54834383F7
:101F20000E944A070F900F900F900F90DF91CF9172
:101F30001F910F91FF90EF90DF90CF900895EF9257
:101F4000FF920F931F93CF93DF93EC0160E070E05B
:101F50004AE050E00E94433B7B018C016115710512
:101F60008105910551F52091A10B3091A20B2232F0
:101F7000310519F500D000D0EDB7FEB7319686EFE8
:101F800093E0ADB7BEB712969C938E9311973383AF
:101F90002283D583C4830E944A078DB79EB70696D5
:101FA0000FB6F8949EBF0FBE8DBF6091A10B7091CC
:101FB000A20B80E090E00E94671DB701C801DF918D
:101FC000CF911F910F91FF90EF9008954F925F92E4
:101FD0006F927F928F929F92BF92CF92DF92EF92F9
:101FE000FF920F931F93CF93DF934B016A01290157
:101FF00038017C01E60EF71E00E010E0E801C80D94
:10200000D91DF701B080BB2099F0C201801B910B54
:102010000297A0F06B2D772767FD7095C3010E9492
:102020008A3C0F5F1F4F0894E11CF11C009711F0D0
:10203000219604C0F601B1926F01E0CFF601108243
:10204000CE01DF91CF911F910F91FF90EF90DF9024
:10205000CF90BF909F908F907F906F905F904F90A8
:1020600008956F927F928F929F92AF92BF92CF927C
:10207000DF92EF92FF920F931F93CF93DF934C0168
:102080003B0179018A010E9409135B016C01AE0CCE
:10209000BF1CC01ED11EC0E0D0E0089461087108CA
:1020A0002BC00E940913A616B706C806D9067CF4F1
:1020B0000F920F9282E294E0EDB7FEB79283818394
:1020C0000E944A07C0E0D0E00F900F901CC083ED43
:1020D00098E00E948A1B892B21F383ED98E00E94EF
:1020E000BB1BF401EC0FFD1F80838D3041F08A3063
:1020F00031F0882321F02196C615D70540F38C0EC8
:102100009D1EF4011082CE01DF91CF911F910F919E
:10211000FF90EF90DF90CF90BF90AF909F908F9007
:102120007F906F9008952F923F924F925F926F929F
:102130007F928F929F92AF92BF92CF92DF92EF9257
:10214000FF920F931F93DF93CF93CDB7DEB72997FD
:102150000FB6F894DEBF0FBECDBFE82E792E2B014F
:102160001A012DB73EB7398728878DB79EB780975C
:102170000FB6F8949EBF0FBE8DBF0DB71EB70F5F91
:102180001F4FADB7BEB790970FB6F894BEBF0FBE46
:10219000ADBF8DB69EB60894811C911C83ED98E06E
:1021A0006AE274E00E94B61800D000D0EDB7FEB726
:1021B00031968DE294E0ADB7BEB712969C938E93A4
:1021C000119753824282358224820E944A07EDB7DA
:1021D000FEB736960FB6F894FEBF0FBEEDBF1414CF
:1021E000150414F437FE1EC000D000D0EDB7FEB7C2
:1021F000319688E594E0ADB7BEB712969C938E9366
:10220000119753824282358224820E944A072FEF1F
:102210003FEFEDB7FEB736960FB6F894FEBF0FBE90
:10222000EDBFD0C06801B82CA92C8E2D972D9C0134
:10223000490166247724C60160E270E028EE33E0AD
:1022400040E050E00E943110892B29F40F920F9248
:1022500080E794E06FC00F920F922EE834E0EDB764
:10226000FEB7328321830E944A070F900F904214D9
:102270005304C9F1C60162E070E04B2D5A2D20E2F3
:1022800030E00CE914E00E94E60F8C018B2D9A2DB2
:102290000E949F0F6C837D838E839F83C601B8014C
:1022A0004B2D5A2D20E230E00CE914E00E94E60F9D
:1022B0008B2D9A2D0E949F0F7B018C0183ED98E05E
:1022C0006AE274E00E94B6188C819D81AE81BF8164
:1022D000F40184839583A683B783D401ED92FD92A4
:1022E0000D931C9313970894611C711CE8E0F0E0B7
:1022F0008E0E9F1E641475040CF49DCF2DB73EB74F
:10230000205230400FB6F8943EBF0FBE2DBF0DB720
:102310001EB70F5F1F4FC60160E270E028EE33E08A
:1023200040E050E00E943110892B79F40F920F9217
:102330008EE994E0ADB7BEB712969C938E93119739
:102340000E944A072FEF3FEF3BC00F920F928EE89B
:1023500094E0EDB7FEB7928381830E944A07E02E96
:10236000B12E0F900F90C60160E070E0A80120E24E
:1023700030E00CE914E00E94E60FDE011196E4ED76
:10238000F4E083E001900D928150E1F78E2D9B2DBA
:10239000BE016F5F7F4F0E94953C009719F021E0CE
:1023A00030E010C00F920F928FEA94E0ADB7BEB745
:1023B00012969C938E9311970E944A0720E030E07A
:1023C0000F900F90C901E885F9850FB6F894FEBF0C
:1023D0000FBEEDBF29960FB6F894DEBF0FBECDBF7E
:1023E000CF91DF911F910F91FF90EF90DF90CF90F1
:1023F000BF90AF909F908F907F906F905F904F9025
:102400003F902F900895AF92BF92CF92DF92EF92BC
:10241000FF920F931F93DF93CF93CDB7DEB76297F1
:102420000FB6F894DEBF0FBECDBF2B833C834D8328
:102430005E836F83788789879A87AB86BC86CD86D3
:10244000DE86EF86F88A098B1A8BADB6BEB68DB7DD
:102450009EB780970FB6F8949EBF0FBE8DBFCDB6C6
:10246000DEB60894C11CD11CEDB7FEB7B0970FB60D
:10247000F894FEBF0FBEEDBFEDB6FEB60894E11CAA
:10248000F11C80910805909109059A838983C60102
:1024900060E270E020E137E240E050E00E9431105D
:1024A000892B29F40F920F9282E294E049C0C60171
:1024B00060E070E0A70120E230E00CE914E00E9447
:1024C000E60F8C01C701BE016F5F7F4F0E94953CF4
:1024D000009791F50F920F9287ED94E0EDB7FEB75C
:1024E000928381830E944A070F900F90C601B80122
:1024F000A70120E230E00CE914E00E94E60FC701DA
:102500000E949F0F7B018C0100D000D085EE94E0EB
:10251000EDB7FEB792838183E382F482058316834D
:102520000E944A0797018DB79EB706960FB6F8949A
:102530009EBF0FBE8DBF0EC00F920F9288EF94E02A
:10254000EDB7FEB7928381830E944A072FEF3FEFDA
:102550000F900F90C9010FB6F894BEBE0FBEADBE6E
:1025600062960FB6F894DEBF0FBECDBFCF91DF915C
:102570001F910F91FF90EF90DF90CF90BF90AF90A1
:1025800008951F920F920FB60F9211242F933F932D
:102590008F939F93AF93BF9380919E0690919F06D8
:1025A000A091A006B091A1063091A2060196A11DAE
:1025B000B11D232F2D5F2D3720F02D570196A11D22
:1025C000B11D2093A20680939E0690939F06A09330
:1025D000A006B093A10680919A0690919B06A091C7
:1025E0009C06B0919D060196A11DB11D80939A068F
:1025F00090939B06A0939C06B0939D06BF91AF91CC
:102600009F918F913F912F910F900FBE0F901F9030
:1026100018958FB7F89420919E0630919F064091AF
:10262000A0065091A1068FBFB901CA0108959B0170
:10263000AC017FB7F89480919A0690919B06A09187
:102640009C06B0919D0666B5A89B05C06F3F19F02A
:102650000196A11DB11D7FBFBA2FA92F982F8827E2
:10266000860F911DA11DB11D62E0880F991FAA1F41
:10267000BB1F6A95D1F7BC012DC0FFB7F8948091BC
:102680009A0690919B06A0919C06B0919D06E6B596
:10269000A89B05C0EF3F19F00196A11DB11DFFBF1A
:1026A000BA2FA92F982F88278E0F911DA11DB11D1C
:1026B000E2E0880F991FAA1FBB1FEA95D1F7861B7E
:1026C000970B885E9340C8F2215030404040504004
:1026D00068517C4F211531054105510571F608956A
:1026E000789484B5826084BD84B5816084BD85B5ED
:1026F000826085BD85B5816085BDEEE6F0E08081B4
:1027000081608083E1E8F0E01082808182608083D4
:10271000808181608083E0E8F0E080818160808357
:10272000E1EBF0E0808184608083E0EBF0E0808189
:1027300081608083E1E9F0E0808182608083808134
:1027400081608083E0E9F0E0808181608083E1EA5C
:10275000F0E0808182608083808181608083E0EA14
:10276000F0E0808181608083E1E2F1E0808182603D
:102770008083808181608083E0E2F1E080818160FC
:102780008083EAE7F0E080818460808380818260DA
:1027900080838081816080838081806880831092C3
:1027A000C1000895883008F078C0E82FF0E0EE0FFF
:1027B000FF1FED55F94F718360838330D9F084306A
:1027C00030F4813009F444C0823060F439C085307F
:1027D00051F18530D8F0863009F446C0873009F0D1
:1027E0005CC04FC0809169008C7F842B809369000E
:1027F000E89A089580916900440F551F440F551FB2
:10280000837F842B80936900E99A08958091690001
:1028100074E0440F551F7A95E1F78F7C842B8093E9
:102820006900EA9A08958091690066E0440F551F97
:102830006A95E1F78F73842B80936900EB9A089572
:1028400080916A008C7F842B80936A00EC9A0895B3
:1028500080916A00440F551F440F551F837F842BBE
:1028600080936A00ED9A089580916A0024E0440FF5
:10287000551F2A95E1F78F7C842B80936A00EE9A8E
:10288000089580916A0096E0440F551F9A95E1F7EC
:102890008F73842B80936A00EF9A08951F920F9292
:1028A0000FB60F920BB60F9211242F933F934F93B5
:1028B0005F936F937F938F939F93AF93BF93EF93A8
:1028C000FF938091A7069091A806892B29F0E091AB
:1028D000A706F091A8061995FF91EF91BF91AF91CE
:1028E0009F918F917F916F915F914F913F912F9128
:1028F0000F900BBE0F900FBE0F901F9018951F9258
:102900000F920FB60F920BB60F9211242F933F9395
:102910004F935F936F937F938F939F93AF93BF93E7
:10292000EF93FF938091A9069091AA06892B29F035
:10293000E091A906F091AA061995FF91EF91BF9138
:10294000AF919F918F917F916F915F914F913F9147
:102950002F910F900BBE0F900FBE0F901F901895E8
:102960001F920F920FB60F920BB60F9211242F9356
:102970003F934F935F936F937F938F939F93AF9307
:10298000BF93EF93FF938091AB069091AC06892B98
:1029900029F0E091AB06F091AC061995FF91EF910B
:1029A000BF91AF919F918F917F916F915F914F9167
:1029B0003F912F910F900BBE0F900FBE0F901F9065
:1029C00018951F920F920FB60F920BB60F9211240B
:1029D0002F933F934F935F936F937F938F939F9327
:1029E000AF93BF93EF93FF938091AD069091AE06A6
:1029F000892B29F0E091AD06F091AE061995FF9173
:102A0000EF91BF91AF919F918F917F916F915F9166
:102A10004F913F912F910F900BBE0F900FBE0F90D3
:102A20001F9018951F920F920FB60F920BB60F9230
:102A300011242F933F934F935F936F937F938F93C3
:102A40009F93AF93BF93EF93FF938091A3069091D1
:102A5000A406892B29F0E091A306F091A40619950C
:102A6000FF91EF91BF91AF919F918F917F916F9166
:102A70005F914F913F912F910F900BBE0F900FBE22
:102A80000F901F9018951F920F920FB60F920BB6D2
:102A90000F9211242F933F934F935F936F937F93E4
:102AA0008F939F93AF93BF93EF93FF938091A5066E
:102AB0009091A606892B29F0E091A506F091A60633
:102AC0001995FF91EF91BF91AF919F918F917F9158
:102AD0006F915F914F913F912F910F900BBE0F908F
:102AE0000FBE0F901F9018951F920F920FB60F9266
:102AF0000BB60F9211242F933F934F935F936F93D5
:102B00007F938F939F93AF93BF93EF93FF938091A6
:102B1000AF069091B006892B29F0E091AF06F091B5
:102B2000B0061995FF91EF91BF91AF919F918F9151
:102B30007F916F915F914F913F912F910F900BBEBD
:102B40000F900FBE0F901F9018951F920F920FB607
:102B50000F920BB60F9211242F933F934F935F93D5
:102B60006F937F938F939F93AF93BF93EF93FF9355
:102B70008091B1069091B206892B29F0E091B106BF
:102B8000F091B2061995FF91EF91BF91AF919F918E
:102B90008F917F916F915F914F913F912F910F9006
:102BA0000BBE0F900FBE0F901F901895CF93DF9321
:102BB000482F50E0CA0188589E4FFC0134914E5C6A
:102BC0005E4FFA018491882369F190E0880F991F84
:102BD000FC01EC51FF4FA591B491FC01E250FF4F75
:102BE000C591D491662351F42FB7F8948C91932F0B
:102BF000909589238C93888189230BC0623061F47E
:102C00002FB7F8948C91932F909589238C9388817A
:102C1000832B88832FBF06C09FB7F8948C91832B9A
:102C20008C939FBFDF91CF910895893009F449C0FB
:102C30008A30A0F4843051F1853040F4823079F14B
:102C4000833000F5813009F063C026C0873079F108
:102C5000883098F5863009F05BC025C08D3009F4C6
:102C600042C08E3028F48B30B1F18C30C0F52DC0CD
:102C7000803109F442C0813109F445C08F3009F038
:102C800047C037C0809180008F7703C0809180005B
:102C90008F7D80938000089584B58F7702C084B5BE
:102CA0008F7D84BD08958091B0008F7703C080919F
:102CB000B0008F7D8093B0000895809190008F7751
:102CC00007C0809190008F7D03C080919000877F26
:102CD0008093900008958091A0008F7707C0809125
:102CE000A0008F7D03C08091A000877F8093A0000B
:102CF0000895809120018F7703C0809120018F7DFE
:102D000080932001089580912001877F8093200186
:102D10000895FF920F931F93F62E482F50E0CA019B
:102D200082549E4FFC012491CA0188589E4FFC0199
:102D300014914E5C5E4FFA0104910023C9F02223E6
:102D400019F0822F0E941516E02FF0E0EE0FFF1F02
:102D5000E250FF4FA591B4919FB7F894FF2021F462
:102D60008C911095812302C08C91812B8C939FBFF5
:102D70001F910F91FF9008950F931F93482F50E0DC
:102D8000CA0182549E4FFC012491CA0188589E4F6B
:102D9000FC0104914E5C5E4FFA011491112319F469
:102DA00020E030E015C0222319F0822F0E94151672
:102DB000812F90E0880F991F885E9E4FFC01A5919E
:102DC000B4918C9120E030E0802311F021E030E0DC
:102DD000C9011F910F910895382F863308F036539B
:102DE00020917B00832F86958695869590E0817053
:102DF000907043E0880F991F4A95E1F7277F282BB1
:102E000020937B0037708091F2058295880F880FA0
:102E1000807C832B80937C0080917A0080648093F7
:102E20007A0080917A0086FDFCCF20917800409155
:102E30007900942F80E030E0282B392BC9010895C8
:102E40002F923F924F925F926F927F928F929F92BA
:102E5000AF92BF92CF92DF92EF92FF920F931F93A8
:102E6000DF93CF93CDB7DEB73B014C0119012A01A7
:102E70006E897F89888D998D6A197B098C099D09D6
:102E8000621A730A840A950AA40193010E948D3F75
:102E9000E218F30804091509A80197010E94F53FFB
:102EA0002A0D3B1D4C1D5D1DB901CA01CF91DF915B
:102EB0001F910F91FF90EF90DF90CF90BF90AF9058
:102EC0009F908F907F906F905F904F903F902F904A
:102ED0000895CF92DF92EF92FF920F931F93CF93BB
:102EE000DF937C016B018A01C0E0D0E00FC0D60106
:102EF0006D916D01D701ED91FC910190F081E02D74
:102F0000C7011995C80FD91F0150104001151105AF
:102F100071F7CE01DF91CF911F910F91FF90EF904C
:102F2000DF90CF900895EF92FF920F931F938C0143
:102F3000DC01ED91FC910190F081E02D6DE019959F
:102F40007C01D801ED91FC910190F081E02DC80148
:102F50006AE019959C012E0D3F1DC9011F910F912B
:102F6000FF90EF900895EF92FF920F931F937C01D3
:102F7000DC01ED91FC910190F081E02D19958C011F
:102F8000C7010E949317080F191FC8011F910F91C5
:102F9000FF90EF900895CF93DF93DB010D90002019
:102FA000E9F71197A61BB70BEC01E881F9810280C4
:102FB000F381E02DAD011995DF91CF9108954F92E6
:102FC0005F927F928F929F92AF92BF92CF92DF9249
:102FD000EF92FF920F931F93DF93CF93CDB7DEB79E
:102FE000A1970FB6F894DEBF0FBECDBF2C01742E93
:102FF000CB01223008F42AE019A231E2C32ED12CF1
:10300000CC0EDD1E822E9924AA24BB24672D752F99
:10301000A50194010E94D33F79018A01C801B7013B
:10302000A50194010E948D3F472D461B0894C108BD
:10303000D1084A3014F4405D01C0495CF601408378
:10304000E114F1040105110521F07E2C5F2DC8016A
:10305000DDCFC201B6010E94CB17A1960FB6F8943E
:10306000DEBF0FBECDBFCF91DF911F910F91FF90BB
:10307000EF90DF90CF90BF90AF909F908F907F9018
:103080005F904F900895CF92DF92EF92FF920F934F
:103090001F93CF93DF93EC016A017B01211531056A
:1030A00041F4E881F9810190F081E02D642F1995B8
:1030B0001FC02A303105D1F477FF17C0E881F981AC
:1030C0000190F081E02D6DE219958C014427552780
:1030D000BA014C195D096E097F09CE012AE00E94F0
:1030E000DF179801280F391F04C02AE00E94DF175C
:1030F0009C01C901DF91CF911F910F91FF90EF903B
:10310000DF90CF900895EF92FF920F931F937C0171
:103110000E9443188C01C7010E9493179C01200F45
:10312000311FC9011F910F91FF90EF900895CF9229
:10313000DF92EF92FF920F931F936C017B019A0134
:103140000027F7FC0095102FB801A7010E94431833
:103150008C01C6010E949317080F191FC8011F9107
:103160000F91FF90EF90DF90CF9008950E94CB17C2
:103170000895EF92FF920F931F937C010E94CB174B
:103180008C01C7010E949317080F191FC8011F91D6
:103190000F91FF90EF900895CF93DF930E947013EB
:1031A0000E94710ECFEBD9E10E94D00A2097E1F383
:1031B0000E94BF19F9CF08951F920F920FB60F9278
:1031C0000BB60F9211242F933F934F938F939F939E
:1031D000EF93FF934091C6002091F3063091F406DF
:1031E0002F5F3F4F2F7330708091F5069091F60658
:1031F0002817390759F0E091F306F091F406ED54E1
:10320000F94F40833093F4062093F306FF91EF913A
:103210009F918F914F913F912F910F900BBE0F90E7
:103220000FBE0F901F90189508951F920F920FB622
:103230000F920BB60F9211242F933F934F938F93BE
:103240009F93EF93FF934091CE0020917B073091A5
:103250007C072F5F3F4F2F73307080917D079091D7
:103260007E072817390759F0E0917B07F0917C071A
:10327000E55CF84F408330937C0720937B07FF91F8
:10328000EF919F918F914F913F912F910F900BBE96
:103290000F900FBE0F901F90189508951F920F92D8
:1032A0000FB60F920BB60F9211242F933F934F93AB
:1032B0008F939F93EF93FF934091D6002091030843
:1032C000309104082F5F3F4F2F73307080910508B5
:1032D000909106082817390759F0E0910308F091FA
:1032E0000408ED53F84F40833093040820930308FB
:1032F000FF91EF919F918F914F913F912F910F905F
:103300000BBE0F900FBE0F901F90189508951F923F
:103310000F920FB60F920BB60F9211242F933F937B
:103320004F938F939F93EF93FF934091360120919A
:103330008B0830918C082F5F3F4F2F733070809136
:103340008D0890918E082817390759F0E0918B0865
:10335000F0918C08E55BF74F408330938C08209305
:103360008B08FF91EF919F918F914F913F912F91FA
:103370000F900BBE0F900FBE0F901F901895E0910D
:10338000DF08F091E008E05CFF4F8191919120818E
:103390003181821B930B8F739070892B11F00E94E7
:1033A000DB18E091FE08F091FF08E05CFF4F81918F
:1033B000919120813181821B930B8F739070892BA7
:1033C00011F00E941419E0911D09F0911E09E05CB2
:1033D000FF4F8191919120813181821B930B8F73DB
:1033E0009070892B11F00E944D19E0913C09F091E9
:1033F0003D09E05CFF4F8191919120813181821BD9
:10340000930B8F739070892B11F00E948619089589
:103410001F920F920FB60F920BB60F9211242F939B
:103420003F938F939F93EF93FF93209137073091B2
:1034300038078091390790913A072817390731F4F6
:103440008091C1008F7D8093C10014C0E091390745
:10345000F0913A07E950F94F208180913907909116
:103460003A0701968F73907090933A0780933907CB
:103470002093C600FF91EF919F918F913F912F91E3
:103480000F900BBE0F900FBE0F901F9018951F92BC
:103490000F920FB60F920BB60F9211242F933F93FA
:1034A0008F939F93EF93FF932091BF073091C007B5
:1034B0008091C1079091C2072817390731F4809194
:1034C000C9008F7D8093C90014C0E091C107F091BD
:1034D000C207E158F84F20818091C1079091C2073F
:1034E00001968F7390709093C2078093C1072093C9
:1034F000CE00FF91EF919F918F913F912F910F906F
:103500000BBE0F900FBE0F901F9018951F920F9239
:103510000FB60F920BB60F9211242F933F938F93F8
:103520009F93EF93FF932091470830914808809133
:10353000490890914A082817390731F48091D10041
:103540008F7D8093D10014C0E0914908F0914A0822
:10355000E95FF74F20818091490890914A080196D0
:103560008F73907090934A08809349082093D600F7
:10357000FF91EF919F918F913F912F910F900BBEF3
:103580000F900FBE0F901F9018951F920F920FB6BD
:103590000F920BB60F9211242F933F938F939F930B
:1035A000EF93FF932091CF083091D0088091D108FC
:1035B0009091D2082817390731F4809131018F7D1D
:1035C0008093310114C0E091D108F091D208E15705
:1035D000F74F20818091D1089091D20801968F7386
:1035E00090709093D2088093D10820933601FF9178
:1035F000EF919F918F913F912F910F900BBE0F9064
:103600000FBE0F901F901895AF92BF92DF92EF926E
:10361000FF920F931F93CF93DF93EC017A018B01FD
:10362000DD24403081EE580780E0680780E07807AD
:1036300011F0DD24D39491E0A92EB12CEC89FD8901
:10364000DD2069F0C5010E8C02C0880F991F0A9415
:10365000E2F7808360E079E08DE390E005C01082BE
:1036600060E874E88EE190E0A80197010E94D33FE2
:10367000215030404040504056954795379527950A
:1036800080E12030380720F0DD2011F0DD24D6CF96
:10369000E889F9893083EA89FB892083EE89FF89EB
:1036A000408121E030E0C9010A8C02C0880F991FD7
:1036B0000A94E2F7482B4083EE89FF894081C901D3
:1036C0000B8C02C0880F991F0A94E2F7482B4083A5
:1036D000EE89FF894081C9010C8C02C0880F991FB7
:1036E0000A94E2F7482B4083EE89FF8980810D8C94
:1036F00002C0220F331F0A94E2F72095282320836B
:10370000DF91CF911F910F91FF90EF90DF90BF90CD
:10371000AF900895DC011C96ED91FC911D97E05C43
:10372000FF4F2191319180819181281B390B2F739B
:103730003070C9010895DC011C96ED91FC911D9734
:10374000E05CFF4F20813181E054F040DF01AE5B4F
:10375000BF4F8D919C9111972817390719F42FEFBE
:103760003FEF07C08D919C91E80FF91F8081282FB2
:1037700030E0C9010895DC011C96ED91FC911D9784
:10378000E05CFF4F20813181E054F040DF01AE5B0F
:10379000BF4F8D919C9111972817390719F42FEF7E
:1037A0003FEF10C08D919C911197E80FF91F208178
:1037B0008D919C91119701968F73907011969C93A7
:1037C0008E9330E0C9010895FC0186859785DC0160
:1037D000A05CBF4FFC01EE5BFF4F2D913C91119718
:1037E0008081918128173907C1F70895CF93DF931E
:1037F000EC01EE85FF85E05CFF4F20813181E054D4
:10380000F0402F5F3F4F2F733070DF01AE5BBF4F33
:103810008D919C91119728173907D1F3E05CFF4FE8
:1038200080819181E054F040E80FF91F6083EE85BC
:10383000FF85E05CFF4F31832083EE89FF89208183
:1038400081E090E00D8C02C0880F991F0A94E2F786
:10385000282B208381E090E0DF91CF9108951F9382
:103860001092D6081092D50828EE33E040E050E0E0
:103870002093D7083093D8084093D9085093DA089A
:103880006FEF75E07093D4086093D30883EB96E0F4
:103890009093E0088093DF0887EF96E09093E2082A
:1038A0008093E10885EC90E09093E4088093E3082E
:1038B00084EC90E09093E6088093E50880EC90E03B
:1038C0009093E8088093E70881EC90E09093EA08F1
:1038D0008093E90886EC90E09093EC088093EB08E5
:1038E00014E01093ED08B3E0B093EE08A7E0A093C6
:1038F000EF08F5E0F093F008E1E0E093F1081092B2
:10390000F5081092F4082093F6083093F7084093D6
:10391000F8085093F9087093F3086093F2088BE36A
:1039200097E09093FF088093FE088FE797E09093CD
:103930000109809300098DEC90E090930309809336
:1039400002098CEC90E0909305098093040988ECBF
:1039500090E0909307098093060989EC90E090939A
:103960000909809308098EEC90E090930B098093ED
:103970000A0910930C09B0930D09A0930E09F09356
:103980000F09E09310091092140910921309209363
:10399000150930931609409317095093180970932D
:1039A00012096093110983EC97E090931E098093AC
:1039B0001D0987E098E09093200980931F0985ED09
:1039C00090E0909322098093210984ED90E09093F8
:1039D00024098093230980ED90E090932609809339
:1039E000250981ED90E0909328098093270986EDC1
:1039F00090E090932A098093290910932B09B093A2
:103A00002C09A0932D09F0932E09E0932F09109211
:103A100033091092320920933409309335094093C9
:103A200036095093370970933109609330098BE45C
:103A300098E090933D0980933C098FE898E090933B
:103A40003F0980933E0985E391E09093410980937B
:103A5000400984E391E0909343098093420980E315
:103A600091E0909345098093440981E391E090931C
:103A700047098093460986E391E090934909809332
:103A8000480910934A09B0934B09A0934C09F0934D
:103A90004D09E0934E091F910895CF93DF93C0E045
:103AA000D0E006C0C60FD71F6150704080409040E4
:103AB0006115710581059105A9F783ED98E06AE02C
:103AC00075E00E94B618CE01DF91CF910895CF9393
:103AD000DF93EB01892B39F583ED98E06BE075E01E
:103AE0000E94B918F8948DE061E00E94D61583ED2C
:103AF00098E0BE014AE050E00E9497188DE060E037
:103B00000E94891660E472E48FE090E00E944D1DEF
:103B10008DE061E00E94891660E472E48FE090E03D
:103B20000E944D1DE4CFDF91CF910895FC01758374
:103B30006483718760875783468353874287158ADA
:103B4000158614861786168621E0248B8FEF9FEF4B
:103B5000938B828B918B808B268B08952F923F9233
:103B60004F925F926F927F928F929F92AF92BF928D
:103B7000CF92DF92EF92FF920F931F93DF93CF9339
:103B8000CDB7DEB72E970FB6F894DEBF0FBECDBF10
:103B90009E878D871B015E834D83A701260171E0FF
:103BA000C72ED12CC21AD30AC901880F991F6627C4
:103BB0007727681B790B7A8369836D807E800894F0
:103BC0006108710883E0882E912C8E0C9F1C79016E
:103BD00081E090E09C838B83AA24BB2410E0D80171
:103BE000A170B070B887AF83FA013196FA87E98780
:103BF000B801627070707C876B8777C0D7FC0AC091
:103C00000894E108F10889819A8102969A83898350
:103C1000C80ED91E0894A11CB11CAB81BC811296A0
:103C2000BC83AB83EF81F885EF2B41F1AD85BE8579
:103C3000ED91FC911197B501620D731D4D815E816F
:103C40004E195F099701220F331F89859A85280F26
:103C5000391F0284F385E02DCD0182011995AD85D0
:103C6000BE85ED91FC911197B701620D731D028421
:103C7000F385E02DCD01A30194011995EB85FC8519
:103C8000EF2B41F1AD85BE85ED91FC911197B1010E
:103C90006A197B094D815E814E195F099701220FD8
:103CA000331F89859A85280F391F0284F385E02DFB
:103CB000CD0182011995AD85BE85ED91FC911197DD
:103CC000B1016E197F090284F385E02DCD01A301B6
:103CD00094011995EB81FC81CE0EDF1E08946108DA
:103CE000710862E070E0860E971EAE14BF040CF4FB
:103CF00085CF2E960FB6F894DEBF0FBECDBFCF9105
:103D0000DF911F910F91FF90EF90DF90CF90BF90C8
:103D1000AF909F908F907F906F905F904F903F906B
:103D20002F9008956F927F928F929F92AF92BF9241
:103D3000CF92DF92EF92FF920F931F937C014B0182
:103D40003A0159016801DC01ED91FC91421B530BD2
:103D5000220F331F2F5F3F4F0284F385E02D19950B
:103D6000C701B401A301950103E0EE24FF240E94E2
:103D7000AE1D1F910F91FF90EF90DF90CF90BF90FD
:103D8000AF909F908F907F906F9008952F923F9269
:103D90004F925F926F927F928F929F92AF92BF925B
:103DA000CF92DF92EF92FF920F931F93DF93CF9307
:103DB00000D00F92CDB7DEB73C017C836B836A01E4
:103DC0005901FA82E982222433249801241B350BFD
:103DD00037FF03C0309521953F4FC5014B815C8172
:103DE000841B950B97FF03C0909581959F4F821779
:103DF00093075CF481E0282E312CC601CB80DC8057
:103E00009C838B83C80185015C018B819C81A816F2
:103E1000B90644F4C501AB80BC809C838B83C80188
:103E200086016C012501AB81BC814A1A5B0A7801CD
:103E3000EC18FD08F7FE04C0F094E194F108F39447
:103E4000C016D10624F088248A94982C03C0B1E0CF
:103E50008B2E912CC20162E070E00E94C03F8B016A
:103E600025C0D301ED91FC912114310441F004806F
:103E7000F581E02DC301B6014B815C8107C0048050
:103E8000F581E02DC3016B817C81A60129813A81F6
:103E900019950E191F0917FF04C0C80CD91C040D71
:103EA000151DEB81FC813196FC83EB834B815C819A
:103EB000A416B506B4F60F900F900F900F90CF9107
:103EC000DF911F910F91FF90EF90DF90CF90BF9007
:103ED000AF909F908F907F906F905F904F903F90AA
:103EE0002F9008954F925F926F927F928F929F9240
:103EF000AF92BF92CF92DF92EF92FF920F931F93F8
:103F00006C015B014A0139012801DC01ED91FC9152
:103F10000484F585E02D87011995D601ED91FC917A
:103F2000A40141505040440D551D0484F585E02DF9
:103F3000C601B50193011995D601ED91FC9102845A
:103F4000F385E02DC601B501A40192011995D601B2
:103F5000ED91FC910894A108B108A60CB71C02844D
:103F6000F385E02DC601B501A401920119951F91B9
:103F70000F91FF90EF90DF90CF90BF90AF909F9008
:103F80008F907F906F905F904F9008952F923F9207
:103F90004F925F926F927F928F929F92AF92BF9259
:103FA000CF92DF92EF92FF920F931F93DF93CF9305
:103FB000CDB7DEB72F970FB6F894DEBF0FBECDBFDB
:103FC0005C015E834D8318870F83FA86E986CB8672
:103FD000DC0118968D919C911997681779070CF060
:103FE000A4C01A968D919C911B97481759070CF005
:103FF0009CC0EC2DF0E0FF87EE87CF01880F991F62
:10400000880F991F8E0F9F1F860F971F181619066E
:104010000CF08BC0CF01A3E0880F991FAA95E1F7A0
:10402000840F951F181619060CF07FC085E0289F95
:10403000A00111245A8349832B011B011C825C813E
:10404000553011F480E005C0E981FA81EC5FFD4F45
:1040500084912C863D866D807E8043011B82C82E14
:10406000DD2480FF1CC0D501ED91FC91BB85B130F2
:1040700049F40480F581E02DC501B201A3012F812F
:10408000388522C00088F189E02DC5016C857D85C9
:10409000A4012E853F858901EF80F88423C0E9853E
:1040A000FA852F813885E217F307E9F0D501ED9104
:1040B000FC91BB85B13051F40480F581E02DC50140
:1040C000B201A30129853A8519950DC00088F189AF
:1040D000E02DC5016C857D85A4012E853F85890174
:1040E000E984FA841995EB81EF5FEB832E853F8598
:1040F000820E931E0894611C711CE83021F0D59447
:10410000C7948C2DACCF3C813F5F3C834E855F854F
:10411000240E351E0894411C511C89819A810196F8
:104120009A838983363009F08ACF2F960FB6F89498
:10413000DEBF0FBECDBFCF91DF911F910F91FF90DA
:10414000EF90DF90CF90BF90AF909F908F907F9037
:104150006F905F904F903F902F900895CF92EF9285
:10416000FF920F931F93CF93DF93EC01262F6A30BA
:1041700061F42C8930E003E0220F331F0A95E1F748
:104180008E859F85820F931F37C06D30C9F16C8576
:104190007D854E855F8508891989EA88FB88CC88EA
:1041A0000E94C61F2C8986E0289FB00111248C85AF
:1041B0009D85680F791F7D876C878E89882301F123
:1041C000422F50E08AEF9FEF9C01429FC001439F26
:1041D000900D529F900D112428853985820F931FD1
:1041E000861797076CF413E0440F551F1A95E1F7F3
:1041F0008E859F85840F951F9F878E871D861C86C1
:1042000081E090E0DF91CF911F910F91FF90EF90AF
:10421000CF900895FC017587648757874687089576
:10422000FC01662309F461E0648B0895FC01718B45
:10423000608B738B628B0895FC01138212828FE076
:1042400096E09183808360A341A322A381E0878BC2
:1042500014A213A20895DC0157968C9157978823D6
:1042600029F06EBD0DB407FEFDCF089530E840E0A3
:1042700050E070E0832F90E0862397235896ED91CD
:10428000FC91599795962C919597892B21F08081D7
:10429000822B808304C080812095282320835A9616
:1042A000ED91FC915B97808196969C919697892BD6
:1042B00080835A96ED91FC915B97908196968C91B4
:1042C000969780958923808336954F5F5F4F48305E
:1042D000510581F608950F931F938C01DC015E96C2
:1042E000ED91FC915F97908198968C91989780952D
:1042F000892380835C96ED91FC915D9790819796E0
:104300008C91809589238083C8010E942B21D8013C
:104310005C96ED91FC915D97808197969C91892B9D
:1043200080831F910F9108950F931F938C01DC01DF
:104330005E96ED91FC915F97808198969C919897FD
:10434000892B80835C96ED91FC915D979081979687
:104350008C91809589238083C8010E942B21D801EC
:104360005C96ED91FC915D97808197969C91892B4D
:1043700080831F910F910895CF92DF92EF92FF9269
:104380000F931F937C01162FC42ED22E6AE20E9437
:104390006B21C70160E00E949421F70161A5610FC4
:1043A000C7010E949421C70160E00E949421F70197
:1043B00061A56D0DC7010E949421C7016BE20E94A7
:1043C0006B21C70160E00E949421F70162A56C0D8A
:1043D000C7010E949421C70160E00E949421F70167
:1043E00062A5600FC7010E949421C7016CE20E9480
:1043F0006B211F910F91FF90EF90DF90CF90089568
:10440000EF92FF920F931F93CF93DF93EC017B0109
:10441000288521500A85015060E040E00E94BC21BF
:10442000EE8DFF8D808198A5892B8083EC8DFD8D8D
:1044300090818FA18095892380831A850EC008857D
:1044400009C0CE016F2D0E942B21CE016E2D0E943E
:104450002B2101500023A9F71150112381F7EC8D76
:10446000FD8D80819FA1892B8083DF91CF911F914A
:104470000F91FF90EF900895FF920F931F938C017F
:10448000F62E672FDC015E96ED91FC915F9780819F
:1044900098969C919897892B80835C96ED91FC91DE
:1044A0005D97908197968C91809589238083C80130
:1044B0000E942B21C8016F2D0E942B21D8015C96F0
:1044C000ED91FC915D97808197969C91892B8083DB
:1044D0001F910F91FF900895FF920F931F93CF9319
:1044E000DF93EC01F22E132F77FD2EC0888599857E
:1044F000681779074CF557FD27C08A859B854817B3
:10450000590714F5262F2F5F042F0F5FCE010E944D
:10451000BC21EE8DFF8D808198A5892B8083EC8D49
:10452000FD8D90818FA1809589238083CE01612F9D
:104530000E942B21CE016F2D0E942B21EC8DFD8D31
:1045400080819FA1892B8083DF91CF911F910F9153
:10455000FF900895DF92EF92FF920F931F93CF93F6
:10456000DF93EC01FB017901D02E888599856817CE
:104570007907D4F52A853B8542175307ACF5C70167
:10458000840F951F281739071CF47901E41AF50ADE
:10459000042F01500E0DCE016E2F2E2F0E94BC2134
:1045A000EE8DFF8D808198A5892B8083EC8DFD8D0C
:1045B00090818FA180958923808308C0CE01612FCF
:1045C0000E942B21CE016D2D0E942B210894E10821
:1045D000F1088FEFE8168FEFF80681F7EC8DFD8D6F
:1045E00080819FA1892B8083DF91CF911F910F91B3
:1045F000FF90EF90DF900895DF92EF92FF920F937C
:104600001F93CF93DF93EC01FA017901D02E288517
:10461000398562177307D4F58A859B854817590732
:10462000ACF5C701860F971F281739071CF47901CD
:10463000E61AF70A262F21502E0DCE014E2F0E2FEF
:104640000E94BC21EE8DFF8D808198A5892B8083EF
:10465000EC8DFD8D90818FA180958923808308C08A
:10466000CE01612F0E942B21CE016D2D0E942B21A6
:104670000894E108F1088FEFE8168FEFF80681F74C
:10468000EC8DFD8D80819FA1892B8083DF91CF915F
:104690001F910F91FF90EF90DF900895AF92BF921E
:1046A000CF92DF92EF92FF920F931F93CF93DF93FE
:1046B0006C015901E801DC0118962D913C91199784
:1046C000621773070CF057C01A96ED91FC911B9777
:1046D0004E175F070CF04FC0C501860F971F2817B4
:1046E00039071CF45901A61AB70ACE01840F951F89
:1046F000E817F9071CF4EF01C41BD50B262F215036
:104700002A0D042F01500C0FC6010E94BC21D601B6
:104710005E96ED91FC915F97808198969C91989719
:10472000892B80835C96ED91FC915D9790819796A3
:104730008C918095892380838E010EC0C6016F2DD8
:104740000E942B21C6016E2D0E942B2121971C1641
:104750001D06A4F3015010401016110614F4E501D3
:10476000F6CFD6015C96ED91FC915D97808197968E
:104770009C91892B8083DF91CF911F910F91FF90A6
:10478000EF90DF90CF90BF90AF9008951F93CF939D
:10479000DF93EC01162F66E30E946B2113701D8BD3
:1047A000113051F0113028F0123049F01330F1F48B
:1047B00011C0CE0168EC05C0CE0168EA0DC0CE0183
:1047C00068E00E94942180E890E09987888780EAD9
:1047D00090E00AC0CE0168E60E94942180EA90E051
:1047E0009987888780E890E09B878A87DF91CF91BF
:1047F0001F910895662311F460E201C061E20E94F6
:104800006B210895AF92BF92CF92DF92EF92FF9209
:104810000F931F93CF93DF935C01FB01EB01219674
:10482000D49031C08E010F5F1F4FFE016491C5010E
:104830000E946B2178010894E11CF11CF801C490DE
:104840000C2D0F77E701102F08C0FE012196E4918F
:10485000C5016E2F0E94942111501123B1F7E70179
:10486000C00FD11DC7FE0EC0FE018491682F70E0FD
:104870006F3F710511F464EF71E0219680E090E0E4
:104880000E941713DA94DD2069F6DF91CF911F9112
:104890000F91FF90EF90DF90CF90BF90AF90089571
:1048A0000F931F93CF93DF93EC018B0160E870E0CF
:1048B00040EA50E00E94961D1AA619A689A161E05F
:1048C0000E94D61588A161E00E94D615E8A12E2F7E
:1048D00030E0F901EE5CFE4FE491F0E0EE0FFF1FD7
:1048E000E250FF4F859194919D8F8C8F28583E4FB9
:1048F000F90184918FA3E9A12E2F30E0F901EE5C3C
:10490000FE4FE491F0E0EE0FFF1FE250FF4F859164
:1049100094919F8F8E8F28583E4FF901849188A7DC
:104920008F89882361F00E94A13880E00E9490382E
:1049300081E00E94823880E00E948B383DC08CA1CB
:1049400061E00E94D6158BA161E00E94D615ECA112
:104950008E2F90E0FC01EE5CFE4FE491F0E0EE0F54
:10496000FF1FE250FF4FA591B491BB8FAA8F8858CB
:104970009E4FFC0144914EA3EBA12E2F30E0F90194
:10498000EE5CFE4FE491F0E0EE0FFF1FE250FF4FB0
:1049900085919491998F888F28583E4FF901849181
:1049A0008DA38C91409548234C93E88DF98D90818F
:1049B0008DA1809589238083EC8DFD8D90818FA1C1
:1049C0008095892380838AA1882309F161E00E9470
:1049D000D6158AA161E00E94891664EF71E080E03B
:1049E00090E00E9417138AA160E00E94891664EF8C
:1049F00071E080E090E00E9417138AA161E00E94BC
:104A0000891664EF71E080E090E00E9417130115B1
:104A1000110521F0CE01B8010E940224DF91CF914F
:104A20001F910F9108951F93CF93DF93EC01162FE1
:104A30006FEF76E00E945024112351F4CE016AE317
:104A400077E00E94022482E089A781E08AA705C05E
:104A5000CE0167E477E00E940224CE0164E577E0AE
:104A60000E940224DF91CF911F91089582E090E08F
:104A7000A0E0B0E080934F0990935009A0935109B2
:104A8000B0935209109266091092700910926F0942
:104A900087E396E090936E0980936D0910927209F6
:104AA00010928F0910929009109293091092950913
:104AB00008952F923F924F925F926F927F928F92C2
:104AC0009F92AF92BF92CF92DF92EF92FF920F939D
:104AD0001F93DF93CF93CDB7DEB7C754D0400FB647
:104AE000F894DEBF0FBECDBF582E492EFB013A0110
:104AF000190180A191A1998B888B27E336E03F872C
:104B00002E8782A18A8B83A18B8B84A195A1A6A1DC
:104B1000B7A18C8B9D8BAE8BBF8B80A591A5A2A5D9
:104B2000B3A5888F998FAA8FBB8F84A595A5A6A5BD
:104B3000B7A58C8F9D8FAE8FBF8F80A988A381A9C9
:104B400092A9A3A9B4A989A39AA3ABA3BCA385A93D
:104B500096A9A7A9B0AD8DA39EA3AFA3B8A781AD19
:104B600092AD9AA789A71EA61DA63CA72BA718AA97
:104B70007A018E01025F1F4F3BE2A32EB12CAC0ED7
:104B8000BD1E4E010894811C911C35C0D7018C912B
:104B90008F3221F40894E11CF11C2DC0422F4E19D4
:104BA0004D3008F04CE0C42EDD24C401B701A6014D
:104BB0000E949E3CF401EC0DFD1D1082C5010E9477
:104BC000612AC501B801A40121E00E94A92F882310
:104BD00051F4E52DF42D1382128287E396E0918340
:104BE0008083158266C0EC0CFD1CC8010E94612AFE
:104BF000C50158018C01C7016FE270E00E948A3C38
:104C00009C01009719F6E618F708F101F182E0829D
:104C1000E52DF42DD80112968D919C9113979383D5
:104C2000828387E396E09183808314968C91149716
:104C3000848315968C911597858316962D913D91B9
:104C40004D915C91199726833783408751871A9637
:104C50002D913D914D915C911D972287338744871B
:104C600055871E962D913D914D915C9151972687C8
:104C70003787408B518B52968C915297828B5396EB
:104C80002D913D914D915C915697238B348B458BA3
:104C9000568B57962D913D914D915C915A97278B4C
:104CA000308F418F528F5B968D919C915C97948F42
:104CB000838F852D942DC95BDF4F0FB6F894DEBF2F
:104CC0000FBECDBFCF91DF911F910F91FF90EF905D
:104CD000DF90CF90BF90AF909F908F907F906F901C
:104CE0005F904F903F902F9008959F92AF92BF9208
:104CF000CF92DF92EF92FF920F931F93DF93CF93A8
:104D0000CDB7DEB7C657D0400FB6F894DEBF0FBEA2
:104D1000CDBFC82E992E8A01D22E43E0A42EB12CED
:104D2000AC0EBD1EC501A8019E012F5F3F4F0E9422
:104D30005925E980FA80E00EF11EF701808147E3F2
:104D400056E02885882309F03FC08D819E819BA372
:104D50008AA359A348A38F818CA32DA389859A8503
:104D6000AB85BC858EA39FA3A8A7B9A78D859E857B
:104D7000AF85B8898AA79BA7ACA7BDA789899A895F
:104D8000AB89BC898EA79FA7A8ABB9AB8D898AAB2D
:104D90008E899F89A88DB98D8BAB9CABADABBEAB1B
:104DA0008A8D9B8DAC8DBD8D8FAB98AFA9AFBAAFFF
:104DB0008E8D9F8D9CAF8BAF8C2D992DBE01605E2B
:104DC0007F4F4DE155E09FC0FE01FF96118210829A
:104DD0005EAF4DAFFE01EE5BFF4F10822223A9F0C4
:104DE0002250CE01CD96223048F46DE679E0A7013D
:104DF0002D2D0E94A92F882381F407C0B501A7019A
:104E00002D2D0E94A92F882329F48C2D992D0E94E5
:104E1000CD277BC0C5010E94612AF6E0DF2259F050
:104E2000FE01E05BFF4F4081518162817381CE01C1
:104E3000CD960E9451299E01265A3F4FFE01FF96B2
:104E400080819181F9019383828387E396E0918346
:104E50008083FE01EF5BFF4F8081F9018483FE01B7
:104E6000EE5BFF4F8081F9018583FE01ED5BFF4F13
:104E700080819181A281B381F90186839783A08784
:104E8000B187FE01E95BFF4F80819181A281B381EF
:104E9000F90182879387A487B587FE01E55BFF4F01
:104EA00080819181A281B381F90186879787A08B48
:104EB000B18BFE01E15BFF4F8081F901828BFE0126
:104EC000E05BFF4F80819181A281B381F901838BE7
:104ED000948BA58BB68BFE01EC5AFF4F808191819C
:104EE000A281B381F901878B908FA18FB28FFE01D0
:104EF000E85AFF4F80819181F901948F838F8C2D27
:104F0000992DB901A7010E94D7288C2D992DCA5837
:104F1000DF4F0FB6F894DEBF0FBECDBFCF91DF914C
:104F20001F910F91FF90EF90DF90CF90BF90AF90C7
:104F30009F900895EF92FF920F931F93CF93DF936B
:104F4000EC01462F8C01055C1F4FC80161E00E94F7
:104F5000EA328823D1F0FC2EED2ECE01B80141E0DB
:104F60000E945734882339F4CE01B80140E00E94F2
:104F70005734882351F0CE014E966F2D7E2D0E941E
:104F8000972C882319F081E001C080E0DF91CF9158
:104F90001F910F91FF90EF900895FC0113821282F0
:104FA00088EE93E0A0E0B0E084839583A683B78386
:104FB00087E296E091838083128E118E1486089585
:104FC000FC0187E296E0918380830895DF93CF937D
:104FD0000F92CDB7DEB7FC016983A081B181129633
:104FE0002D913C911397BE016F5F7F4F41E050E0E0
:104FF000F90119950F90CF91DF910895DC01599631
:10500000ED91FC915A97309719F420E030E018C0E8
:10501000238934894589568982859385A485B585F8
:10502000281B390B4A0B5B0B2030B0E83B07B0E084
:105030004B07B0E05B0720F02FEF3FE740E050E088
:10504000C9010895DC015996ED91FC915A9730976A
:1050500011F480E008958581811181E00895CF9356
:10506000DF93EC01898D9A8D009741F00E94612AAF
:10507000898D9A8D0E94AB3A1A8E198EDF91CF914D
:105080000895FC01818D928D009711F480E00895C0
:105090000E9451290895FC01818D928D009711F095
:1050A0000E94172A0895FC01818D928D009719F4B2
:1050B00020E030E003C00E94382B9C01C901089514
:1050C000DF93CF930F92CDB7DEB7FC01818D928D28
:1050D000009749F0BE016F5F7F4F41E050E00E94B2
:1050E000382B019719F02FEF3FEF03C08981282F4C
:1050F00030E0C9010F90CF91DF910895EF92FF92B8
:105100000F931F93DF93CF930F92CDB7DEB77C0140
:10511000DC0159968D919C915A97009719F400E003
:1051200010E01FC0BE016F5F7F4F41E050E00E9462
:10513000382B019719F00FEF1FEF13C08981082F4B
:1051400010E0D7015996ED91FC915A97428553850D
:10515000648575854150504060407040CF010E9489
:105160005129C8010F90CF91DF911F910F91FF90AE
:10517000EF900895CF93DF93EC01E98DFA8D30978E
:1051800061F013821282CF010E947D2D9C01E98D76
:10519000FA8D82819381892B31F081E090E09B83AD
:1051A0008A8320E030E0C901DF91CF910895EF922A
:1051B000FF920F931F93CF93DF93EC01F62EE72E10
:1051C0008A011B821A8288EE93E0A0E0B0E08C8313
:1051D0009D83AE83BF8387E296E0998388838DE1C8
:1051E00090E00E940E3A9A8F898F009791F0DC012F
:1051F0008F2D9E2D9C01F9018DE101900D92815022
:10520000E1F7CE010C96B8014CE050E00E949E3CC4
:10521000188EDF91CF911F910F91FF90EF9008951D
:10522000CF93DF93EC01DB0180E090E020E2FD0111
:10523000E80FF91F208301968B309105C1F757E0E5
:1052400040E021C02E3219F086EE97E007C05A30B8
:1052500019F15AE048E017C03217F1F0FC0101964D
:1052600034913323C9F75417B8F02132A8F02F37FF
:1052700098F4822F81568A3108F42052FD01E40F00
:10528000F11D20834F5F29912223E1F690E08C915C
:10529000803219F091E001C090E0892FDF91CF9129
:1052A00008956F927F928F929F92AF92BF92CF920A
:1052B000DF92EF92FF920F931F93CF93DF93EC0156
:1052C0007A018B012D81222309F480C08B899C896E
:1052D000AD89BE8984179507A607B70708F476C07D
:1052E00085C0E114F1040105110549F41E821F82F5
:1052F000188619861A861B861C861D8665C02A8517
:105300003B854C855D85EB8DFC8D858590E0099610
:10531000215030404040504039014A01082E04C01D
:1053200096948794779467940A94D2F72F5F3F4FAF
:105330004F4F5F4F0894E108F10801091109570127
:10534000680104C0D694C794B794A7948A95D2F7FD
:105350000894E11CF11C011D111DA614B704C8041A
:10536000D90428F0211531054105510549F48F89EB
:10537000988DA98DBA8D8E839F83A887B98716C013
:10538000A618B708C808D90811C04E815F81688582
:1053900079858B8D9C8D94010E9438360894A108E4
:1053A000B108C108D108882331F410C086E0882EE6
:1053B000912C8C0E9D1EA114B104C104D10429F7B7
:1053C000EA86FB860C871D8781E001C080E0DF91C3
:1053D000CF911F910F91FF90EF90DF90CF90BF90F2
:1053E000AF909F908F907F906F900895223009F03A
:1053F00078CFE6CFCF93DF93EC01462F6E857F8584
:10540000888999890E941C34882319F420E030E0AF
:105410000AC08A89282F30E095E0220F331F9A9521
:10542000E1F72656364FC901DF91CF9108950F93CA
:105430001F93CF93DF938C01FC0185818823D9F1E1
:10544000848187FF35C0C80161E00E94FA29EC0120
:10545000009789F1F8018581823040F4838994892D
:10546000A589B6898C8F9D8FAE8FBF8FF8018789F4
:10547000908D9B8F8A8F8789908DA18DB28DCD0164
:10548000AA27BB279D8B8C8BE0919809F0919909F5
:10549000309751F0BE016A5E7F4FCE014896199554
:1054A000888D998D9B8B8A8BF80184818F7784837B
:1054B0000E94BD3301C080E0DF91CF911F910F9119
:1054C0000895CF93DF93EC010E94172A882311F0EF
:1054D0001D8281E0DF91CF9108956F927F928F922C
:1054E0009F92AF92BF92CF92DF92EF92FF920F9373
:1054F0001F93DF93CF9300D00F92CDB7DEB77C011F
:105500005A016B01DC0115968C911597813009F0D9
:105510008FC014968C9181FF8BC09EC00097A1050F
:10552000B10511F481E085C0F7016284738484843D
:105530009584C701B601A5010E945129882309F469
:1055400077C0D7015B968D919C915C97A114B104B3
:10555000C104D10489F457964D915D916D917C9170
:105560005A970E94AB36882309F462C0F701178A64
:10557000108E118E128E3DC0D70116964D915D9101
:105580006D917C9119979E012F5F3F4F0E94383695
:10559000882309F44DC0D7015B96ED91FC915C978F
:1055A00049815A816B817C818789803129F088EF1C
:1055B0009FEFAFEFBFE004C088EF9FEFA0E0B0E047
:1055C000481759076A077B07A0F4CF010E94AB3642
:1055D000882371F1F7014681578160857185838D3C
:1055E000948D0FEF1FEF2FEF3FE00E949C35882333
:1055F000F9F0D7015396AD92BD92CD92DC925697B9
:1056000014968C911497806814968C93C7010E940D
:10561000172A882369F0B601A5016A147B048C045B
:105620009D0410F4B401A301C7010E94512901C0D7
:1056300080E00F900F900F900F90CF91DF911F910E
:105640000F91FF90EF90DF90CF90BF90AF909F9021
:105650008F907F906F900895F70183899489A58931
:10566000B68984179507A607B70708F057CFE0CF8C
:105670002F923F924F925F926F927F928F929F9262
:10568000AF92BF92CF92DF92EF92FF920F931F9350
:10569000CF93DF93EC012A018D81882309F4C6C0E2
:1056A0008C8180FFC3C0D8C025014E185F084B0114
:1056B00076E0272E312C2C0E3D1E3201B1C02A85FA
:1056C0003B854C855D856FEFA62E61E0B62EA2224C
:1056D000B3228D8179018A0199E016950795F79497
:1056E000E7949A95D1F7EB8DFC8D823049F4428D89
:1056F000538D648D758D4E0D5F1D601F711F3FC0F2
:10570000D480DA94DE20A114B104D9F4DD20C9F4E8
:10571000211531054105510549F48F89988DA98DD1
:10572000BA8D8E839F83A887B9870BC04E815F8116
:1057300068857985CF0191010E943836882309F464
:1057400075C0EB8DFC8D4E815F81688579854250F7
:10575000504060407040058404C0440F551F661FD0
:10576000771F0A94D2F786859785A089B189480F5B
:10577000591F6A1F7B1F4D0D511D611D711D80E05A
:1057800092E08A199B0963018615970508F46C015C
:105790008C8186FD06C080E0C81682E0D80609F03C
:1057A00073C08091F3059091F405A091F505B09137
:1057B000F605481759076A077B0709F465C0809109
:1057C0009A0B90919B0B9501860174010E943D32CA
:1057D000882361F18C0C9D1C12C095012656364F12
:1057E000A9014C0D5D1DD401F90102C081918D9379
:1057F000E417F507D9F7E21BF30B8E0E9F1E9601F7
:1058000040E050E08A859B85AC85BD85820F931F63
:10581000A41FB51F8A879B87AC87BD876C187D083E
:105820006114710409F04BCFA20102C04FEF5FEF8A
:10583000CA01DF91CF911F910F91FF90EF90DF9000
:10584000CF90BF90AF909F908F907F906F905F9020
:105850004F903F902F900895AB88BC88CD88DE880C
:10586000EA84FB840C851D859A0140E050E0D60156
:10587000C5018E199F09A00BB10B82179307A407CE
:10588000B50708F411CF13CFCB01BA0140E00E9455
:105890001C34882309F0A1CFC9CFCF92DF92EF92B9
:1058A000FF920F931F93DF93CF930F92CDB7DEB785
:1058B0006C01FC018581823070F0E284F384048500
:1058C0001585C601BE016F5F7F4F41E050E00E9429
:1058D000382B019769F020E030E0C9010F90CF919B
:1058E000DF911F910F91FF90EF90DF90CF9008957F
:1058F000F60182859385A485B5854F96A11DB11DBE
:1059000082879387A487B587F5E016950795F79466
:10591000E794FA95D1F78E2D8F70282F30E0E5E0CF
:10592000220F331FEA95E1F72656364FD6CF0F9355
:105930001F93CF93DF93EC018B018D81882309F0B6
:1059400041C0FB0187898031B1F482E08D831F8AD9
:10595000188E198E1A8E808D918DA0E0B0E045E0F2
:10596000880F991FAA1FBB1F4A95D1F78B8B9C8B61
:10597000AD8BBE8B15C0803229F583E08D83FB0192
:10598000428D538D648D758D4F8B588F698F7A8FB3
:105990009E012D5E3F4FC8010E940437882391F07D
:1059A0001C8F0B8F81E08C831E821F8218861986C4
:1059B0001A861B861C861D861E861F86188A198AD3
:1059C0001A8A01C080E0DF91CF911F910F91089555
:1059D0001F93CF93DF93EC01142FE62FF0E075E0D7
:1059E000EE0FFF1F7A95E1F7E656F64F838581713A
:1059F00021F0842F827409F054C06A8B8091F305E2
:105A00009091F405A091F505B091F6058E879F87DA
:105A1000A88BB98B84899589A0E0B0E0BC0155279B
:105A20004427828D938DA0E0B0E0482B592B6A2B40
:105A30007B2B4F8B588F698F7A8F838590E088718D
:105A40009070009751F4848D958DA68DB78D8B8BBA
:105A50009C8BAD8BBE8B81E00CC0409711F59E01F5
:105A60002D5E3F4F8B8D9C8D0E9404378823C9F09B
:105A700084E08D83812F8F708C831E821F82188615
:105A800019861A861B861C861D8616FD02C081E0BB
:105A900009C0CE0140E050E060E070E00E946D2A55
:105AA00001C080E0DF91CF911F910895CF93DF93E4
:105AB000EC019C012A5F3F4F8B8D9C8D41E050E0B3
:105AC00060E070E00E9473378823A1F08F89988D81
:105AD000A98DBA8D0097A105B10559F48E819F81DA
