:100000000C94FE030C940B150C943C150C946D157C
:100010000C949E150C94CF150C9400160C9431166C
:100020000C9462160C942A040C942A040C942A044E
:100030000C942A040C942A040C942A040C942A0488
:100040000C942A040C942A040C942A040C942A0478
:100050000C942A040C942A040C942A040C947E1305
:100060000C942A040C9499190C94C51A0C942A0423
:100070000C942A040C942A040C942A040C942A0448
:100080000C942A040C942A040C942A040C942A0438
:100090000C94D2190C94041B0C942A040C942A047A
:1000A0000C942A040C942A040C942A040C942A0418
:1000B0000C942A040C942A040C942A040C942A0408
:1000C0000C942A040C942A040C942A040C940B1A01
:1000D0000C94431B0C942A040C94441A0C94821B19
:1000E0000C942A0400002100240027002A002D007F
:1000F0003000330001010000040107010A01000083
:100100002200250028002B002E00310034000201BF
:100110000000050108010B0100002000230026005B
:1001200029002C002F00320000010000030106010D
:10013000090105050505070508080808020202026D
:100140000A0A080804040404010101010101010173
:100150000303030303030303040707070C0C0C0C3E
:100160000C0C0C0C02020202060606060606060627
:100170000B0B0B0B0B0B0B0B0102102020080810B4
:100180002040102040800201020108040201010207
:1001900004081020408080402010080402018004E0
:1001A000020180402010080402010804020101023B
:1001B0000408102040800102040810204080000044
:1001C000090A02080B0C0D070603040100000000D9
:1001D000000000000000000000000000000000001F
:1001E0000000000000000000000011100F000000DF
:1001F00000000000000000000000000000000000FF
:100200000000000000000000003E5B4F5B3E3E6BC4
:100210004F6B3E1C3E7C3E1C183C7E3C181C577DA0
:10022000571C1C5E7F5E1C00183C1800FFE7C3E7EC
:10023000FF0018241800FFE7DBE7FF30483A060EFE
:100240002629792926407F050507407F05253F5A45
:100250003CE73C5A7F3E1C1C08081C1C3E7F1422B5
:100260007F22145F5F005F5F06097F017F00668960
:10027000956A606060606094A2FFA29408047E04A6
:100280000810207E201008082A1C08081C2A0808CC
:100290001E101010100C1E0C1E0C30383E3830068C
:1002A0000E3E0E06000000000000005F0000000788
:1002B000000700147F147F14242A7F2A12231308B6
:1002C000646236495620500008070300001C224192
:1002D000000041221C002A1C7F1C2A08083E080836
:1002E00000807030000808080808000060600020E6
:1002F000100804023E5149453E00427F40007249C9
:100300004949462141494D331814127F102745456C
:1003100045393C4A49493141211109073649494982
:1003200036464949291E00001400000040340000F0
:100330000008142241141414141400412214080259
:10034000015909063E415D594E7C1211127C7F49CC
:100350004949363E414141227F4141413E7F494921
:1003600049417F090909013E414151737F0808084D
:100370007F00417F41002040413F017F081422411E
:100380007F404040407F021C027F7F0408107F3E78
:100390004141413E7F090909063E4151215E7F09E5
:1003A000192946264949493203017F01033F40404C
:1003B000403F1F2040201F3F4038403F6314081437
:1003C0006303047804036159494D43007F4141416F
:1003D0000204081020004141417F04020102044050
:1003E00040404040000307080020545478407F28D4
:1003F0004444383844444428384444287F385454CA
:10040000541800087E090218A4A49C787F080404EC
:100410007800447D40002040403D007F102844008B
:1004200000417F40007C047804787C08040478381C
:1004300044444438FC1824241818242418FC7C084C
:10044000040408485454542404043F44243C4040C9
:10045000207C1C2040201C3C4030403C442810287C
:10046000444C9090907C4464544C440008364100C5
:100470000000770000004136080002010204023C3F
:100480002623263C1EA1A161123A4040207A38540E
:100490005455592155557941215454784121555489
:1004A000784020545579400C1E52721239555555DA
:1004B00059395454545939555454580000457C41C5
:1004C0000002457D420001457C40F0292429F0F0DE
:1004D000282528F07C545545002054547C547C0A2F
:1004E000097F4932494949323248484832324A48FC
:1004F00048303A4141217A3A42402078009DA0A0FC
:100500007D39444444393D4040403D3C24FF24244F
:10051000487E4943662B2FFC2F2BFF0929F620C06C
:10052000887E090320545479410000447D413048BD
:10053000484A32384040227A007A0A0A727D0D1900
:10054000317D2629292F28262929292630484D4062
:1005500020380808080808080808382F10C8ACBA5E
:100560002F102834FA00007B000008142A142222DD
:10057000142A1408AA005500AAAA55AA55AA0000D0
:1005800000FF00101010FF00141414FF001010FFE3
:1005900000FF1010F010F0141414FC001414F700F5
:1005A000FF0000FF00FF1414F404FC141417101FC4
:1005B00010101F101F1414141F00101010F0000052
:1005C00000001F101010101F10101010F01000006D
:1005D00000FF101010101010101010FF100000007D
:1005E000FF140000FF00FF00001F10170000FC04B4
:1005F000F414141710171414F404F40000FF00F797
:1006000014141414141414F700F7141414171410F9
:10061000101F101F141414F4141010F010F0000028
:100620001F101F0000001F14000000FC140000F049
:1006300010F01010FF10FF141414FF141010101FEE
:1006400000000000F010FFFFFFFFFFF0F0F0F0F0FF
:10065000FFFFFF0000000000FFFF0F0F0F0F0F381C
:10066000444438447C2A2A3E147E02020606027E56
:10067000027E0263554941633844443C04407E2075
:100680001E2006027E020299A5E7A5991C2A492A86
:100690001C4C7201724C304A4D4D30304878483015
:1006A000BC625A463D3E494949007E0101017E2A0D
:1006B0002A2A2A2A44445F444440514A4440404440
:1006C0004A51400000FF0103E080FF000008086B72
:1006D0006B083612362436060F090F06000018186C
:1006E0000000001010003040FF0101001F01011E3A
:1006F00000191D1712003C3C3C3C00000000000F9C
:100700000180961180FFB103012C2DB203012C2D25
:10071000B306012C2D012C2DB40107C003A20284C5
:10072000C101C5C2020A00C3028A2AC4028AEEC5F8
:10073000010E20003601C83A0105022A0400020019
:10074000812B04000100A0022A040000007F2B047A
:100750000000009F04E010021C07123732292D29E7
:10076000252B3900010310E110031D07062E2C294B
:100770002D2E2E373F0000021013800A29806412AC
:100780000180321180FF3A81050AB1830006030A15
:10079000360108B6021502B40100C08202700AC117
:1007A0000105C2020102C5823C380AFC021115E0B3
:1007B0001009160920211B131917151E2B040502F9
:1007C0000EE1900B14081E221D181E1B1A242B0666
:1007D00006020F0A2A04000200812B040002008195
:1007E00013800A2980FF7C3C3E5E2B3D3F2F5B5DE2
:1007F0003B2C2A225C009C07EC1CF32511241FBE15
:10080000CFEFD1E2DEBFCDBF00E00CBF16E0A0E02D
:10081000B2E0EAEAF1E800E00BBF02C007900D92F7
:10082000A639B107D9F71CE0A6E9B6E001C01D92D0
:10083000A130B107E1F717E0CCEFD7E004C0229771
:10084000FE010E94CF40C63FD107C9F70E94891917
:100850000C942F3D0C94000010929F061092A0065D
:100860001092A1061092A2061092A3061092A4065E
:100870001092A5061092A60610929C0610929B0656
:1008800010929E0610929D0610929806109297065E
:1008900010929A06109299068091400680939606CF
:1008A000089580914006853028F4809140068F5F3E
:1008B00080934006809140060895809140068823E9
:1008C00029F0809140068150809340068091400637
:1008D0000895FC01DB0180919B0690919C0620917C
:1008E000970630919806821B930B918380838091A9
:1008F0009D0690919E062091990630919A06821B42
:10090000930B8D939C9381E0089597FF03C0E0E0E3
:10091000F0E010C0E0919606F0E0EE0FFF1FEC55FE
:10092000FA4F0190F081E02DE058F0408E179F07BC
:1009300008F4FC01F0939806E093970677FF03C054
:1009400060E070E010C0E0919606F0E0EE0FFF1F4F
:10095000E055FA4F0190F081E02DE05AF040E617A3
:10096000F70708F4BF0170939A06609399060895FB
:10097000AF92BF92CF92DF92EF92FF920F931F93AD
:1009800040919B0650919C064250504020919D06FC
:1009900030919E06225030408091960666E0869FF8
:1009A000C001112460919706709198068A01061B78
:1009B000170B6091990670919A067901E61AF70A69
:1009C00084549A4F68EA76E0F5E0CF2ED12CE5E02A
:1009D000AE2EB12C0E947D391F910F91FF90EF90A8
:1009E000DF90CF90BF90AF900895AF92BF92CF921B
:1009F000DF92EF92FF920F931F938091960626E06D
:100A0000829FC00111244091970650919806209131
:100A1000990630919A0684549A4F68EA76E000E08D
:100A200010E0EE24FF24B0E8CB2ED12CA0EAAA2EB1
:100A3000B12C0E947D391F910F91FF90EF90DF90B4
:100A4000CF90BF90AF9008950F931F9360919B0636
:100A500070919C068091970690919806681B790B7F
:100A600040919D0650919E068091990690919A061C
:100A7000481B590B88EA96E022E030E000E018EFCE
:100A80000E944F1F1F910F910895AF92BF92CF9276
:100A9000DF92EF92FF920F931F935A016B01A82FE1
:100AA000BB27A7FDB09500D00F9260EE75E0FD0169
:100AB00084E0EE0FFF1F8A95E1F7E60FF71F208114
:100AC000318142815381AA0FBB1FCD01019613E0F2
:100AD000880F991F1A95E1F7680F791FFB01E080D5
:100AE000F18002811381A055BA4F8D919C91A0E0B5
:100AF000B0E0EDB7FEB781839283A383B483C601D0
:100B0000B501AA24BB2465010E94DD170F900F9048
:100B10000F900F901F910F91FF90EF90DF90CF906B
:100B2000BF90AF900895AF92BF92CF92DF92EF92B5
:100B3000FF920F931F935A016B01A82FBB27A7FDAC
:100B4000B09500D00F92FD0104E0EE0FFF1F0A9553
:100B5000E1F780EE95E0E80FF91F248135814681A9
:100B60005781E484F58406851785AA0FBB1FAC5511
:100B7000BA4F8D919C91A0E0B0E0EDB7FEB78183B4
:100B80009283A383B483C601B501AA24BB24650163
:100B90000E94DD170F900F900F900F901F910F91F3
:100BA000FF90EF90DF90CF90BF90AF900895AF92FD
:100BB000BF92CF92DF92EF92FF920F931F937B0130
:100BC0008C0159016A0180919606B801A7010E9423
:100BD0009305709398066093970680919606B601E8
:100BE000A5010E944505209197063091980637FF90
:100BF00003C0E0E0F0E010C0E0919606F0E0EE0FF8
:100C0000FF1FEC55FA4F0190F081E02DE058F040C5
:100C10002E173F0708F4F901F0939806E093970622
:100C200077FF03C060E070E010C0E0919606F0E04E
:100C3000EE0FFF1FE055FA4F0190F081E02DE05AD2
:100C4000F040E617F70708F4BF0170939A06609327
:100C500099061F910F91FF90EF90DF90CF90BF907A
:100C6000AF900895809140068093960640919F062C
:100C70005091A0066091A1067091A2060E94930572
:100C800070939C0660939B064091A3065091A40626
:100C90006091A5067091A606809196060E94450572
:100CA00070939E0660939D06809196060895AF927C
:100CB000BF92CF92DF92EF92FF920F931F93A82FD4
:100CC000BB27A7FDB09500D00F92CD01880F991FCB
:100CD000FC01E055FA4FE080F18000E010E0E0EE2A
:100CE000F5E034E0AA0FBB1F3A95E1F7AE0FBF1F46
:100CF000AD90BD90CD90DC90019623E0880F991FB8
:100D00002A95E1F7E80FF91F80819181A281B381D3
:100D1000EDB7FEB781839283A383B483CB01BA017D
:100D200020E030E040E050E00E94DD170F900F908F
:100D30000F900F901F910F91FF90EF90DF90CF9049
:100D4000BF90AF900895AF92BF92CF92DF92EF9293
:100D5000FF920F931F93992787FD909500D00F92D4
:100D6000FC01EE0FFF1FEC55FA4FE080F18000E030
:100D700010E0B4E0880F991FBA95E1F7E0EEF5E0D6
:100D8000DF01A80FB91F1496AD90BD90CD90DC90F7
:100D90001797E80FF91F84859585A685B785EDB768
:100DA000FEB781839283A383B483CB01BA0120E091
:100DB00030E040E050E00E94DD170F900F900F9060
:100DC0000F901F910F91FF90EF90DF90CF90BF9009
:100DD000AF90089597FF03C080E090E00EC0E091CF
:100DE0009606F0E0EE0FFF1FEC55FA4F0190F081F0
:100DF000E02DE817F90708F4CF0190939C06809343
:100E00009B0677FF03C060E070E00EC0E09196069D
:100E1000F0E0EE0FFF1FE055FA4F0190F081E02D5A
:100E2000E617F70708F4BF0170939E0660939D06CE
:100E3000AC0160E070E0809196060E94A30660938A
:100E40009F067093A0068093A1069093A2064091FE
:100E50009D0650919E0660E070E0809196060E948B
:100E600057066093A3067093A4068093A5069093FB
:100E7000A606089540919B0650919C0620919D06E0
:100E800030919E06260F371F840F951FB9010E94CF
:100E9000EA060895CF92DF92EF92FF920F931F938D
:100EA000DF93CF93CDB7DEB7EDB6FEB6CEB6809169
:100EB0004106882359F18DB79EB7805091400FB6F7
:100EC000F8949EBF0FBE8DBF0DB71EB70F5F1F4FAB
:100ED000FE013E96C80160E071E04C855D859F0192
:100EE0000E946A3D8DE299E06CE372E00E94731902
:100EF0008DE299E0B8010E9476192E2D3C2DC90192
:100F00000FB6F8949EBF0FBE8DBF08C08DB79EB7B9
:100F10009C010FB6F8943EBF0FBE2DBF0FB6F894DC
:100F2000FEBE0FBEEDBECF91DF911F910F91FF90DE
:100F3000EF90DF90CF90089588EA96E066E047E072
:100F400028E00E94D9211092DA061092DD06109254
:100F5000DE061092DF061092E0061092E106109273
:100F6000E2061092E3061092E4061092E506109253
:100F7000E6061092E7061092E8061092E906109233
:100F8000EA061092EB061092EC060E94C6136093DC
:100F9000F0067093F1068093F2069093F30608959D
:100FA0009091A70680914006981711F40E945D0465
:100FB00008959091A70680914006981711F40E9419
:100FC00051040895EF92FF920F931F93CF93DF93F5
:100FD000EC017B0180E00E94A9172091440630912A
:100FE00045068C01021B130B81E00E94A91720917A
:100FF000460630914706821B930B9C01C80104965C
:10100000099710F400E010E0C9010496099710F464
:1010100020E030E0C80160E870E00E947D40798304
:101020006883C90160E870E00E947D40F701718328
:1010300060830E94C6137B018C018091F006909121
:10104000F106A091F206B091F306E816F9060A0738
:101050001B0740F4E092F006F092F1060093F206CE
:101060001093F3068091480690914906A0914A0694
:10107000B0914B062091F0063091F1064091F206B6
:101080005091F306820F931FA41FB51F8E159F0565
:10109000A007B10710F080E019C0E092F006F092CE
:1010A000F1060093F2061093F30684E00E9479178C
:1010B00020E0892B09F421E08091EF06882321F0BC
:1010C00080E0222309F481E02093EF06DF91CF91A5
:1010D0001F910F91FF90EF90089584E060E00E94CF
:1010E000931684E061E00E94461781E00E94A917F0
:1010F000909345068093440680E00E94A917909340
:10110000470680934606089589EA99E065E00E94C3
:101110005728882329F50F920F928FE392E0EDB7BD
:10112000FEB7928381830E944A0787E592E0EDB77C
:10113000FEB7928381830E944A078BE692E0EDB767
:10114000FEB7928381830E944A0783E892E0EDB75D
:10115000FEB7928381830E944A070F900F90FFCFC2
:101160000F920F928CEB92E0EDB7FEB792838183E2
:101170000E944A070F900F9008950F931F9308EA5B
:1011800016E0C80161E00E94D025C80160E00E941D
:101190008324C80160E070E040E050E00E94C72175
:1011A000C80160E070E00E94D321C80161E00E94A4
:1011B000CD21C8016FE170E00E94BD221F910F9107
:1011C0000895EF92FF920F931F93CF93DF93EC015B
:1011D0008091ED069091EE068C179D0789F1D093D2
:1011E000EE06C093ED0688EA96E060E070E044E920
:1011F00050E020E830E00CE010E0E0EEEE2EE7E01A
:10120000FE2E0E940B2488EA96E061E00E94CD2128
:1012100088EA96E06FE178EF0E94D32188EA96E0B1
:1012200060E070E046E950E00E94C72188EA96E05D
:1012300061E00E94CD2188EA96E0BE010E94761905
:10124000DF91CF911F910F91FF90EF9008958BEC5C
:1012500092E00E94E108089504C08DE299E00E94A6
:10126000781C8DE299E00E94471C892BB1F7089504
:10127000EF92FF920F931F93CF93DF93EB0100E068
:1012800010E0FCECEF2EF2E0FF2E50C048815981B7
:101290006A817B81809196060E9493056883798399
:1012A0008A839B834C815D816E817F8180919606CC
:1012B0000E9445056C837D838E839F832DB73EB747
:1012C0002E5030400FB6F8943EBF0FBE2DBFEDB785
:1012D000FEB73196ADB7BEB71296FC92EE9211975B
:1012E000288139814A815B812283338344835583FA
:1012F000668377838087918780919706909198067F
:10130000938782878091990690919A069587848722
:101310000E944A070F5F1F4F28962DB73EB7225FE6
:101320003F4F0FB6F8943EBF0FBE2DBF8091D6063B
:101330009091D7060817190708F4A8CFDF91CF912D
:101340001F910F91FF90EF9008952F923F924F922F
:101350005F926F927F928F929F92AF92BF92CF9245
:10136000DF92EF92FF920F931F93DF93CF93CDB74E
:10137000DEB72E970FB6F894DEBF0FBECDBF9887AD
:101380008F837A8769871E821D82E2C0A985BA850C
:10139000AD90BD90CD90DC90139714966D907D909C
:1013A0008D909C90179718962D903D904D905C9045
:1013B0001B971C968D919D910D90BC91A02D8983BA
:1013C0009A83AB83BC8380919706909198067C01A9
:1013D00000E010E081589F4F9C0140E050E0609198
:1013E000990670919A06CB01A0E0B0E08B879C87AC
:1013F000AD87BE87EA14FB040C051D057CF4A2161C
:10140000B306C406D50654F4E214F3040405150526
:101410002CF4221633064406550604F18B859C8570
:10142000AD85BE8586159705A805B9050CF085C064
:1014300062167306840695060CF07FC089819A8136
:10144000AB81BC81E816F9060A071B070CF075C0D2
:1014500082179307A407B5070CF06FC0AE18BF083A
:10146000C00AD10A91E8A916B104C104D1042CF034
:10147000B0E8AB2EB12CC12CD12CA40193018B85EB
:101480009C85AD85BE85281B390B4A0B5B0B213A29
:1014900031054105510524F020EA30E040E050E0FC
:1014A000420131016E187F08800A910A840173019C
:1014B00081E868167104810491042CF0A0E8EA2EFA
:1014C000F12C012D112D89819A81AB81BC816B8416
:1014D0007C848D849E8486199709A809B909813A6C
:1014E0009105A105B10524F080EA90E0A0E0B0E00C
:1014F00035014601D7FE03C066247724430157FF18
:1015000004C020E030E040E050E05701680117FFE0
:1015100003C0AA24BB2465017C018D01B7FF03C071
:10152000EE24FF24870188EA96E0B301A901950122
:101530008701EE24FF240E94831F2D813E812F5FAF
:101540003F4F3E832D8389859A8508969A878987A0
:101550008091D6069091D7060197AD81BE81A817DC
:10156000B90708F413CF81E0EF81F88580832E96C8
:101570000FB6F894DEBF0FBECDBFCF91DF911F91A4
:101580000F91FF90EF90DF90CF90BF90AF909F9022
:101590008F907F906F905F904F903F902F90089525
:1015A0008F929F92AF92BF92CF92DF92EF92FF9273
:1015B0000F931F93DF93CF93CDB7DEB728970FB666
:1015C000F894DEBF0FBECDBF8DB79EB74091FD0B27
:1015D0005091FE0B4115510511F09A0104C0209164
:1015E000A0053091A1056091420670914306821BCF
:1015F000930B8617970730F52DB73EB74115510568
:1016000021F44091A0055091A10500D000D0EDB784
:10161000FEB731968DED92E0ADB7BEB712969C93B2
:101620008E931197241B350B338322837583648338
:101630000E944A07EDB7FEB736960FB6F894FEBF84
:101640000FBEEDBF8091D306882311F4992404C006
:101650001092D306992493941A8219821C821B82B9
:10166000F894909140068091A7068824981711F06D
:10167000882483947894882009F441C03091960698
:10168000809140063817E9F02091400600D000D044
:10169000EDB7FEB731968EEE92E0ADB7BEB71296BB
:1016A0009C938E93119732831382248315820E9418
:1016B0004A07EDB7FEB736960FB6F894FEBF0FBED9
:1016C000EDBF0E9432064091510650915206569548
:1016D000479580919B0690919C06209153063091EE
:1016E00054063695279560919D0670919E06621B63
:1016F000730B841B950B0E94850499249394CE014F
:101700000196BE016D5F7F4F0E94E207D82E89814E
:101710009A81892B29F48B819C81892B09F457C0EC
:10172000E0909706F09098060091990610919A061D
:10173000CE010596BE01695F7F4F0E946904882330
:1017400009F445C08D819E818A30910548F4E0906E
:101750009706F090980620EE3FEFE20EF31E0DC0C4
:101760008637910510F420E009C0E0909706F090CC
:10177000980680E290E0E80EF91E21E08F819885BE
:101780008A30910538F40091990610919A0600521A
:1017900010400CC08637910538F0009199061091E1
:1017A0009A06005E1F4F02C0222339F0C701B8011C
:1017B0000E948504992493940AC00E94B8046B8106
:1017C0007C8189819A810E943A070E942405DD204C
:1017D00009F423C2ADB7BEB71A970FB6F894BEBFCF
:1017E0000FBEADBFEDB7FEB7319685E093E0129620
:1017F0009C938E9311978091A3069091A406A0913B
:10180000A506B091A60682839383A483B5838091B5
:101810009F069091A006A091A106B091A206868392
:101820009783A087B1870E944A07E0909F06F090B7
:10183000A0060091A1061091A206A090A306B09068
:10184000A406C090A506D090A606EDB7FEB73A96BE
:101850000FB6F894FEBF0FBEEDBF8091DB069091EE
:10186000DC06892BE9F52DB73EB72A5030400FB67C
:10187000F8943EBF0FBE2DBFEDB7FEB7319684E2A0
:1018800093E0ADB7BEB712969C938E931197E28208
:10189000F38204831583A682B782C086D1860E9414
:1018A0004A07A092E106B092E206C092E306D09207
:1018B000E406E092DD06F092DE060093DF06109368
:1018C000E00681E090E09093DC068093DB06EDB7C4
:1018D000FEB73A960FB6F894FEBF0FBEEDBF97C1A4
:1018E0002DB73EB72A5030400FB6F8943EBF0FBE1A
:1018F0002DBFEDB7FEB7319680E493E0ADB7BEB72C
:1019000012969C938E931197E282F382048315833F
:10191000A682B782C086D1860E944A07A092E906B5
:10192000B092EA06C092EB06D092EC06E092E50691
:10193000F092E6060093E7061093E8061092DC06A4
:101940001092DB06EDB7FEB738970FB6F894FEBFDE
:101950000FBEEDBF31968AE593E0ADB7BEB71296E4
:101960009C938E9311978091E1069091E206A0914D
:10197000E306B091E40682839383A483B5838091C8
:10198000DD069091DE06A091DF06B091E006868329
:101990009783A087B187A286B386C486D5868091B7
:1019A000E5069091E606A091E706B091E8068687E5
:1019B0009787A08BB18B0E944A07EDB7FEB772964E
:1019C0000FB6F894FEBF0FBEEDBF8DE299E068E858
:1019D00073E00E9473194091E1065091E206609114
:1019E000E3067091E4068DE299E02AE030E00E947F
:1019F00000198DE299E06BE873E00E947319409141
:101A0000DD065091DE066091DF067091E0068DE202
:101A100099E02AE030E00E9400198DE299E06BE83D
:101A200073E00E9473194091E9065091EA066091B3
:101A3000EB067091EC068DE299E02AE030E00E941E
:101A400000198DE299E06BE873E00E9473194091F0
:101A5000E5065091E6066091E7067091E8068DE292
:101A600099E02AE030E00E9440190F920F928DE831
:101A700093E0ADB7BEB712969C938E9311970E94D8
:101A80004A070F900F902091DD063091DE064091BD
:101A9000DF065091E0066091E1067091E2068091C8
:101AA000E3069091E406A090E506B090E606C090AB
:101AB000E706D090E806E090E906F090EA0600918B
:101AC000EB061091EC060E948E12BC011816190646
:101AD0000CF08FC08091D4069091D5068617970799
:101AE00028F49093D7068093D60604C07093D70647
:101AF0006093D6064091D4065091D5068091D806C1
:101B00009091D9060E94FA1097FD60C00F920F9233
:101B10008EE993E0EDB7FEB7928381830E944A0776
:101B200000E010E0EE24FF240F900F9094EBC92EFC
:101B300093E0D92E3AC09B012E0D3F1D8DB79EB765
:101B40000C970FB6F8949EBF0FBE8DBFEDB7FEB7D2
:101B50003196ADB7BEB71296DC92CE921197138331
:101B60000283D90114964D915D916D917C911797E7
:101B700044835583668377832D913D914D915C918C
:101B800020873187428753870E944A070F5F1F4F84
:101B9000E8E0F0E0EE0EFF1E2DB73EB7245F3F4FAA
:101BA0000FB6F8943EBF0FBE2DBF8091D606909120
:101BB000D7066091D8067091D9060817190708F45E
:101BC000BACF8AED96E00E94380910C00F920F92AA
:101BD00080EC93E0ADB7BEB712969C938E931197AD
:101BE0000E944A070F900F900E942C099924939409
:101BF0000EC00F920F9281EE93E0EDB7FEB7928385
:101C000081830E944A070F900F900E942C090E9426
:101C10002C098DE299E00E94A11C992009F4A8C02A
:101C20000E94F5040E9424058091D6069091D70663
:101C3000029740F06091D8067091D9068AED96E03F
:101C40000E94A5090E942709882009F491C00091EB
:101C5000D8061091D906EE24FF248CECC82E82E021
:101C6000D82E54C08091A706D8014D915D916D91F9
:101C70007C910E94A306F801608371838283938321
:101C80008091A70644815581668177810E9457061D
:101C9000D80114966D937D938D939C931797EDB710
:101CA000FEB73E970FB6F894FEBF0FBEEDBF31965C
:101CB000ADB7BEB71296DC92CE921197D8012D9196
:101CC0003D914D915C912283338344835583668398
:101CD0007783808791878091970690919806938764
:101CE00082878091990690919A06958784870E94B1
:101CF0004A070894E11CF11C085F1F4FEDB7FEB7BF
:101D00003E960FB6F894FEBF0FBEEDBF8091D6068B
:101D10009091D706E816F90608F4A4CFF8948091BC
:101D20009606809340068093A70678940F920F92B0
:101D300081EF93E0ADB7BEB712969C938E93119747
:101D40000E944A070F900F908091DA06882381F055
:101D50006091D8067091D9068AED96E00E94380904
:101D60006091D8067091D9068AED96E00E94A50987
:101D70008091DB069091DC06892B19F481E094E0D8
:101D800002C087E094E00E94E10828960FB6F8941C
:101D9000DEBF0FBECDBFCF91DF911F910F91FF909E
:101DA000EF90DF90CF90BF90AF909F908F9008956D
:101DB000CF92DF92EF92FF920F931F93CF93DF9317
:101DC0008DE299E040E855E260E070E00E94C11BBE
:101DD0008DE299E06BE074E00E9476198DE299E063
:101DE0000E94A11C0E94BD080E9484080E946D08E8
:101DF0000E942C04C0909606CC2DD0E034E0CC0F8D
:101E0000DD1F3A95E1F720EEC22E25E0D22ECC0E52
:101E1000DD1EFE01EC51FA4FD6011C966D917D91AD
:101E20008D919C911F972081318142815381620F56
:101E3000731F841F951F22E030E040E050E00E94B5
:101E4000B24079018A01C851DA4F688179818A816B
:101E50009B81F6012081318142815381620F731F82
:101E6000841F951F22E030E040E050E00E94B24025
:101E7000C801B7010E94D705809151069091520682
:101E800096958795409197065091980660915306D4
:101E900070915406769567952091990630919A062F
:101EA000620F731F840F951F0E94EA0681E08093E2
:101EB000D30682E060E00E94931682E061E00E9417
:101EC000461783E060E00E94931683E061E00E9481
:101ED000461781E069ED77E042E050E00E948F1400
:101EE00080E060ED77E042E050E00E948F1468EE01
:101EF00073E080E090E00E94D4138CE291E0909334
:101F0000D5068093D4068DB79EB72091FD0B3091F6
:101F1000FE0B2115310511F0A90104C04091A00567
:101F20005091A1056091420670914306841B950B68
:101F3000861B970B80569940B0F48DB79EB721153C
:101F4000310521F42091A0053091A105821B930B4E
:101F5000861B970BF3E096958795FA95E1F790939A
:101F6000D5068093D4068091D4069091D506E3E0FF
:101F7000880F991FEA95E1F70E94CB3A8093D80623
:101F80009093D90600D00F9287E194E0ADB7BEB729
:101F900012969C938E9311978091D4069091D506BA
:101FA00014969C938E9313970E944A071092D7061B
:101FB0001092D6064DB75EB72091FD0B3091FE0B07
:101FC0000F900F900F900F902115310521F4209163
:101FD000A0053091A10500D00F9288E294E0EDB702
:101FE000FEB792838183421B530B548343830E9429
:101FF0004A070F900F900F900F90DF91CF911F9194
:102000000F91FF90EF90DF90CF900895EF92FF92A5
:102010000F931F93CF93DF93EC0160E070E04AE0F1
:1020200050E00E94003C7B018C0161157105810527
:10203000910551F52091FB0B3091FC0B22323105BB
:1020400019F500D000D0EDB7FEB7319684E394E0E7
:10205000ADB7BEB712969C938E93119733832283AC
:10206000D583C4830E944A078DB79EB706960FB6E4
:10207000F8949EBF0FBE8DBF6091FB0B7091FC0B5F
:1020800080E090E00E94241EB701C801DF91CF914B
:102090001F910F91FF90EF9008954F925F926F9272
:1020A0007F928F929F92BF92CF92DF92EF92FF9298
:1020B0000F931F93CF93DF934B016A0129013801DE
:1020C0007C01E60EF71E00E010E0E801C80DD91D06
:1020D000F701B080BB2099F0C201801B910B0297E1
:1020E000A0F06B2D772767FD7095C3010E94473DD7
:1020F0000F5F1F4F0894E11CF11C009711F021960F
:1021000004C0F601B1926F01E0CFF6011082CE015A
:10211000DF91CF911F910F91FF90EF90DF90CF90C3
:10212000BF909F908F907F906F905F904F90089599
:102130006F927F928F929F92AF92BF92CF92DF92D7
:10214000EF92FF920F931F93CF93DF934C013B01CC
:1021500079018A010E94C6135B016C01AE0CBF1CA1
:10216000C01ED11EC0E0D0E00894610871082BC0E9
:102170000E94C613A616B706C806D9067CF40F92AD
:102180000F9280E694E0EDB7FEB7928381830E94C0
:102190004A07C0E0D0E00F900F901CC08DE299E09C
:1021A0000E94471C892B21F38DE299E00E94781C44
:1021B000F401EC0FFD1F80838D3041F08A3031F047
:1021C000882321F02196C615D70540F38C0E9D1E5D
:1021D000F4011082CE01DF91CF911F910F91FF90FA
:1021E000EF90DF90CF90BF90AF909F908F907F90B7
:1021F0006F9008952F923F924F925F926F927F92CD
:102200008F929F92AF92BF92EF92FF920F931F9384
:10221000DF93CF93CDB7DEB72B970FB6F894DEBF21
:102220000FBECDBF782E692E2B018A012DB73EB788
:102230003B872A878DB79EB780970FB6F8949EBFCD
:102240000FBE8DBFEDB6FEB60894E11CF11CADB714
:10225000BEB790970FB6F894BEBF0FBEADBF8DB698
:102260009EB60894811C911C8DE299E068E674E0AA
:102270000E94731900D000D0EDB7FEB731968BE6FF
:1022800094E0ADB7BEB712969C938E93119753828C
:102290004282158304830E944A07EDB7FEB7369643
:1022A0000FB6F894FEBF0FBEEDBF1414150414F45E
:1022B00017FF1EC000D000D0EDB7FEB7319686E9FB
:1022C00094E0ADB7BEB712969C938E93119753824C
:1022D0004282158304830E944A072FEF3FEFEDB738
:1022E000FEB736960FB6F894FEBF0FBEEDBFF7C02F
:1022F0003E2C2F2CB82CA92C872D962D9C01490102
:1023000066247724832D922D60E270E020E137E28D
:1023100040E050E00E949810892B29F40F920F9210
:102320008EEA94E079C00F920F922CEC34E0EDB776
:10233000FEB7328321830E944A07ADB7BEB711961C
:102340003C92119712962C920E944A070F900F9080
:10235000832D922D62E070E04B2D5A2D20E230E06B
:102360000AED14E00E944D108C018B2D9A2D0E94D5
:1023700006106E837F8388879987832D922DB801FD
:102380004B2D5A2D20E230E00AED14E00E944D1052
:102390008B2D9A2D0E9406107B018C018DE299E015
:1023A00068E674E00E9473198E819F81A885B985C3
:1023B000F40184839583A683B783D401ED92FD92C3
:1023C0000D931C9313970894611C711CE8E0F0E0D6
:1023D0008E0E9F1E641475040CF494CF2DB73EB777
:1023E000205230400FB6F8943EBF0FBE2DBFEDB661
:1023F000FEB60894E11CF11C832D922D60E270E082
:1024000020E137E240E050E00E949810892B89F4E7
:102410000F920F928CED94E0ADB7BEB712969C93DD
:102420008E9311970E944A072FEF3FEF0F900F9066
:1024300056C00F920F922CEC34E0EDB7FEB732830A
:1024400021830E944A07BE2CAF2C0F900F90832D42
:10245000922D60E070E0A70120E230E00AED14E088
:102460000E944D100F920F92ADB7BEB71196EC922D
:1024700011971296FC920E944A07DE011396E2E140
:10248000F5E083E001900D928150E1F78091150510
:10249000909116059A8389830F900F908B2D9A2D1A
:1024A000BE016D5F7F4F0E94523D0097B1F48B2DAE
:1024B0009A2DBE016F5F7F4F0E94523D009769F4D5
:1024C0000F920F928DEE94E0EDB7FEB79283818369
:1024D0000E944A0720E030E0A9CF21E030E0C901A6
:1024E0002A853B850FB6F8943EBF0FBE2DBF2B96B5
:1024F0000FB6F894DEBF0FBECDBFCF91DF911F9115
:102500000F91FF90EF90BF90AF909F908F907F9032
:102510006F905F904F903F902F900895AF92BF9231
:10252000CF92DF92EF92FF920F931F93DF93CF939F
:10253000CDB7DEB762970FB6F894DEBF0FBECDBF42
:102540002B833C834D835E836F83788789879A874B
:10255000AB86BC86CD86DE86EF86F88A098B1A8B21
:10256000ADB6BEB68DB79EB780970FB6F8949EBF36
:102570000FBE8DBFCDB6DEB60894C11CD11CEDB721
:10258000FEB7B0970FB6F894FEBF0FBEEDBFEDB625
:10259000FEB60894E11CF11C8091620590916305E0
:1025A0009A8389830F920F9287E195E0EDB7FEB78A
:1025B000928381830E944A070F900F90C60160E2C8
:1025C00070E028EE33E040E050E00E949810892B44
:1025D00029F40F920F928CED94E06FC00F920F923E
:1025E0008CEC94E0EDB7FEB7928381830E944A079A
:1025F000EDB7FEB7C182D2820E944A070F900F90BA
:10260000C60160E070E0A70120E230E00AED14E0CE
:102610000E944D108C010F920F92EDB7FEB7E18230
:10262000F2820E944A070F900F90C701BE016F5FB0
:102630007F4F0E94523D0097E1F50F920F9281E388
:1026400095E0EDB7FEB7928381830E944A070F9011
:102650000F90C601B801A70120E230E00AED14E0B6
:102660000E944D100F920F92EDB7FEB7E182F282F9
:102670000E944A070F900F90C7010E9406107B012D
:102680008C0100D000D08FE395E0EDB7FEB79283C8
:102690008183E382F482058316830E944A079701AF
:1026A0008DB79EB706960FB6F8949EBF0FBE8DBF2E
:1026B0000EC00F920F9282E595E0EDB7FEB79283C0
:1026C00081830E944A072FEF3FEF0F900F90C901BF
:1026D0000FB6F894BEBE0FBEADBE62960FB6F894AC
:1026E000DEBF0FBECDBFCF91DF911F910F91FF9045
:1026F000EF90DF90CF90BF90AF9008951F920F9210
:102700000FB60F9211242F933F938F939F93AF9304
:10271000BF938091F8069091F906A091FA06B091C6
:10272000FB063091FC060196A11DB11D232F2D5FE4
:102730002D3720F02D570196A11DB11D2093FC06C9
:102740008093F8069093F906A093FA06B093FB06DF
:102750008091F4069091F506A091F606B091F706E7
:102760000196A11DB11D8093F4069093F506A093E8
:10277000F606B093F706BF91AF919F918F913F916D
:102780002F910F900FBE0F901F9018958FB7F89450
:102790002091F8063091F9064091FA065091FB0617
:1027A0008FBFB901CA0108959B01AC017FB7F894AE
:1027B0008091F4069091F506A091F606B091F70687
:1027C00066B5A89B05C06F3F19F00196A11DB11D0C
:1027D0007FBFBA2FA92F982F8827860F911DA11D83
:1027E000B11D62E0880F991FAA1FBB1F6A95D1F720
:1027F000BC012DC0FFB7F8948091F4069091F506C6
:10280000A091F606B091F706E6B5A89B05C0EF3F8C
:1028100019F00196A11DB11DFFBFBA2FA92F982F46
:1028200088278E0F911DA11DB11DE2E0880F991F11
:10283000AA1FBB1FEA95D1F7861B970B885E9340B2
:10284000C8F2215030404040504068517C4F211523
:1028500031054105510571F60895789484B582607B
:1028600084BD84B5816084BD85B5826085BD85B534
:10287000816085BDEEE6F0E0808181608083E1E8E3
:10288000F0E010828081826080838081816080831B
:10289000E0E8F0E0808181608083E1EBF0E080811E
:1028A00084608083E0EBF0E0808181608083E1E9F7
:1028B000F0E0808182608083808181608083E0E9B4
:1028C000F0E0808181608083E1EAF0E080818260D5
:1028D0008083808181608083E0EAF0E08081816094
:1028E0008083E1E2F1E08081826080838081816089
:1028F0008083E0E2F1E0808181608083EAE7F0E0BC
:102900008081846080838081826080838081816017
:1029100080838081806880831092C1000895883010
:1029200008F078C0E82FF0E0EE0FFF1FE350F94FFA
:10293000718360838330D9F0843030F4813009F4BE
:1029400044C0823060F439C0853051F18530D8F010
:10295000863009F446C0873009F05CC04FC08091D2
:1029600069008C7F842B80936900E89A0895809198
:102970006900440F551F440F551F837F842B80939C
:102980006900E99A08958091690074E0440F551F29
:102990007A95E1F78F7C842B80936900EA9A0895F9
:1029A0008091690066E0440F551F6A95E1F78F73C7
:1029B000842B80936900EB9A089580916A008C7F44
:1029C000842B80936A00EC9A089580916A00440FEA
:1029D000551F440F551F837F842B80936A00ED9A07
:1029E000089580916A0024E0440F551F2A95E1F76D
:1029F0008F7C842B80936A00EE9A089580916A0000
:102A000096E0440F551F9A95E1F78F73842B8093BE
:102A10006A00EF9A08951F920F920FB60F920BB6AD
:102A20000F9211242F933F934F935F936F937F9354
:102A30008F939F93AF93BF93EF93FF938091010781
:102A400090910207892B29F0E0910107F09102078C
:102A50001995FF91EF91BF91AF919F918F917F91C8
:102A60006F915F914F913F912F910F900BBE0F90FF
:102A70000FBE0F901F9018951F920F920FB60F92D6
:102A80000BB60F9211242F933F934F935F936F9345
:102A90007F938F939F93AF93BF93EF93FF93809117
:102AA000030790910407892B29F0E0910307F09127
:102AB00004071995FF91EF91BF91AF919F918F916D
:102AC0007F916F915F914F913F912F910F900BBE2E
:102AD0000F900FBE0F901F9018951F920F920FB678
:102AE0000F920BB60F9211242F933F934F935F9346
:102AF0006F937F938F939F93AF93BF93EF93FF93C6
:102B00008091050790910607892B29F0E091050730
:102B1000F09106071995FF91EF91BF91AF919F91A9
:102B20008F917F916F915F914F913F912F910F9076
:102B30000BBE0F900FBE0F901F9018951F920F9213
:102B40000FB60F920BB60F9211242F933F934F9312
:102B50005F936F937F938F939F93AF93BF93EF9305
:102B6000FF938091070790910807892B29F0E09146
:102B70000707F09108071995FF91EF91BF91AF9169
:102B80009F918F917F916F915F914F913F912F9185
:102B90000F900BBE0F900FBE0F901F9018951F92B5
:102BA0000F920FB60F920BB60F9211242F933F93F3
:102BB0004F935F936F937F938F939F93AF93BF9345
:102BC000EF93FF938091FD069091FE06892B29F0EB
:102BD000E091FD06F091FE061995FF91EF91BF91EE
:102BE000AF919F918F917F916F915F914F913F91A5
:102BF0002F910F900BBE0F900FBE0F901F90189546
:102C00001F920F920FB60F920BB60F9211242F93B3
:102C10003F934F935F936F937F938F939F93AF9364
:102C2000BF93EF93FF938091FF0690910007892B4C
:102C300029F0E091FF06F09100071995FF91EF91BF
:102C4000BF91AF919F918F917F916F915F914F91C4
:102C50003F912F910F900BBE0F900FBE0F901F90C2
:102C600018951F920F920FB60F920BB60F92112468
:102C70002F933F934F935F936F937F938F939F9384
:102C8000AF93BF93EF93FF938091090790910A0749
:102C9000892B29F0E0910907F0910A071995FF9116
:102CA000EF91BF91AF919F918F917F916F915F91C4
:102CB0004F913F912F910F900BBE0F900FBE0F9031
:102CC0001F9018951F920F920FB60F920BB60F928E
:102CD00011242F933F934F935F936F937F938F9321
:102CE0009F93AF93BF93EF93FF9380910B079091C6
:102CF0000C07892B29F0E0910B07F0910C0719952F
:102D0000FF91EF91BF91AF919F918F917F916F91C3
:102D10005F914F913F912F910F900BBE0F900FBE7F
:102D20000F901F901895CF93DF93482F50E0CA0162
:102D300088589E4FFC0134914E5C5E4FFA0184919D
:102D4000882369F190E0880F991FFC01EC51FF4F37
:102D5000A591B491FC01E250FF4FC591D491662337
:102D600051F42FB7F8948C91932F909589238C93DD
:102D7000888189230BC0623061F42FB7F8948C915D
:102D8000932F909589238C938881832B88832FBFE1
:102D900006C09FB7F8948C91832B8C939FBFDF91D3
:102DA000CF910895893009F449C08A30A0F4843065
:102DB00051F1853040F4823079F1833000F5813073
:102DC00009F063C026C0873079F1883098F58630E5
:102DD00009F05BC025C08D3009F442C08E3028F464
:102DE0008B30B1F18C30C0F52DC0803109F442C078
:102DF000813109F445C08F3009F047C037C0809158
:102E000080008F7703C0809180008F7D8093800049
:102E1000089584B58F7702C084B58F7D84BD0895F1
:102E20008091B0008F7703C08091B0008F7D809338
:102E3000B0000895809190008F7707C08091900036
:102E40008F7D03C080919000877F809390000895CC
:102E50008091A0008F7707C08091A0008F7D03C074
:102E60008091A000877F8093A00008958091200129
:102E70008F7703C0809120018F7D8093200108957A
:102E800080912001877F809320010895FF920F9306
:102E90001F93F62E482F50E0CA0182549E4FFC012A
:102EA0002491CA0188589E4FFC0114914E5C5E4FDC
:102EB000FA0104910023C9F0222319F0822F0E9405
:102EC000D216E02FF0E0EE0FFF1FE250FF4FA5916A
:102ED000B4919FB7F894FF2021F48C911095812331
:102EE00002C08C91812B8C939FBF1F910F91FF90FB
:102EF00008950F931F93482F50E0CA0182549E4FAC
:102F0000FC012491CA0188589E4FFC0104914E5C3B
:102F10005E4FFA011491112319F420E030E015C03E
:102F2000222319F0822F0E94D216812F90E0880F61
:102F3000991F885E9E4FFC01A591B4918C9120E071
:102F400030E0802311F021E030E0C9011F910F91A2
:102F50000895382F863308F0365320917B00832F55
:102F600086958695869590E08170907043E0880FF5
:102F7000991F4A95E1F7277F282B20937B00377014
:102F800080914C068295880F880F807C832B8093DC
:102F90007C0080917A00806480937A0080917A002E
:102FA00086FDFCCF2091780040917900942F80E03D
:102FB00030E0282B392BC90108952F923F924F9270
:102FC0005F926F927F928F929F92AF92BF92CF92B9
:102FD000DF92EF92FF920F931F93DF93CF93CDB7C2
:102FE000DEB73B014C0119012A016E897F89888D6A
:102FF000998D6A197B098C099D09621A730A840AE2
:10300000950AA40193010E944A40E218F3080409BA
:103010001509A80197010E94B2402A0D3B1D4C1DC5
:103020005D1DB901CA01CF91DF911F910F91FF90F2
:10303000EF90DF90CF90BF90AF909F908F907F9058
:103040006F905F904F903F902F900895CF92DF92B6
:10305000EF92FF920F931F93CF93DF937C016B014D
:103060008A01C0E0D0E00FC0D6016D916D01D7019B
:10307000ED91FC910190F081E02DC7011995C80FE9
:10308000D91F015010400115110571F7CE01DF91D4
:10309000CF911F910F91FF90EF90DF90CF90089507
:1030A000EF92FF920F931F938C01DC01ED91FC9145
:1030B0000190F081E02D6DE019957C01D801ED9132
:1030C000FC910190F081E02DC8016AE019959C0106
:1030D0002E0D3F1DC9011F910F91FF90EF90089594
:1030E000EF92FF920F931F937C01DC01ED91FC9115
:1030F0000190F081E02D19958C01C7010E945018B4
:10310000080F191FC8011F910F91FF90EF900895AC
:10311000CF93DF93DB010D900020E9F71197A61BF9
:10312000B70BEC01E881F9810280F381E02DAD015C
:103130001995DF91CF9108954F925F927F928F9270
:103140009F92AF92BF92CF92DF92EF92FF920F9336
:103150001F93DF93CF93CDB7DEB7A1970FB6F89447
:10316000DEBF0FBECDBF2C01742ECB01223008F480
:103170002AE019A231E2C32ED12CCC0EDD1E822E04
:103180009924AA24BB24672D752FA50194010E94C0
:10319000904079018A01C801B701A50194010E94FC
:1031A0004A40472D461B0894C108D1084A3014F400
:1031B000405D01C0495CF6014083E114F104010562
:1031C000110521F07E2C5F2DC801DDCFC201B601B3
:1031D0000E948818A1960FB6F894DEBF0FBECDBF2F
:1031E000CF91DF911F910F91FF90EF90DF90CF90E3
:1031F000BF90AF909F908F907F905F904F90089579
:10320000CF92DF92EF92FF920F931F93CF93DF93B2
:10321000EC016A017B012115310541F4E881F98156
:103220000190F081E02D642F19951FC02A303105DF
:10323000D1F477FF17C0E881F9810190F081E02D8A
:103240006DE219958C0144275527BA014C195D0987
:103250006E097F09CE012AE00E949C189801280F70
:10326000391F04C02AE00E949C189C01C901DF910B
:10327000CF911F910F91FF90EF90DF90CF90089525
:10328000EF92FF920F931F937C010E9400198C0113
:10329000C7010E9450189C01200F311FC9011F91C6
:1032A0000F91FF90EF900895CF92DF92EF92FF92EF
:1032B0000F931F936C017B019A010027F7FC009587
:1032C000102FB801A7010E9400198C01C6010E94AD
:1032D0005018080F191FC8011F910F91FF90EF9010
:1032E000DF90CF9008950E9488180895EF92FF9282
:1032F0000F931F937C010E9488188C01C7010E94C4
:103300005018080F191FC8011F910F91FF90EF90DF
:103310000895CF93DF930E942D140E94D80ECCE71E
:10332000DAE10E94D00A2097E1F30E947C1AF9CFDB
:1033300008951F920F920FB60F920BB60F921124A1
:103340002F933F934F938F939F93EF93FF934091CE
:10335000C60020914D0730914E072F5F3F4F2F73CE
:10336000307080914F07909150072817390759F016
:10337000E0914D07F0914E07E35FF84F40833093A3
:103380004E0720934D07FF91EF919F918F914F91A1
:103390003F912F910F900BBE0F900FBE0F901F907B
:1033A000189508951F920F920FB60F920BB60F92B9
:1033B00011242F933F934F938F939F93EF93FF93FA
:1033C0004091CE002091D5073091D6072F5F3F4F17
:1033D0002F7330708091D7079091D807281739073D
:1033E00059F0E091D507F091D607EB56F84F40839E
:1033F0003093D6072093D507FF91EF919F918F913E
:103400004F913F912F910F900BBE0F900FBE0F90D9
:103410001F90189508951F920F920FB60F920BB63A
:103420000F9211242F933F934F938F939F93EF937A
:10343000FF934091D60020915D0830915E082F5F88
:103440003F4F2F73307080915F089091600828176C
:10345000390759F0E0915D08F0915E08E35EF74F9F
:10346000408330935E0820935D08FF91EF919F9118
:103470008F914F913F912F910F900BBE0F900FBEE8
:103480000F901F90189508951F920F920FB60F92EC
:103490000BB60F9211242F933F934F938F939F93CB
:1034A000EF93FF93409136012091E5083091E608B3
:1034B0002F5F3F4F2F7330708091E7089091E8089D
:1034C0002817390759F0E091E508F091E608EB5527
:1034D000F74F40833093E6082093E508FF91EF9182
:1034E0009F918F914F913F912F910F900BBE0F9015
:1034F0000FBE0F901F901895E0913909F0913A098D
:10350000E05CFF4F8191919120813181821B930B6F
:103510008F739070892B11F00E949819E0915809CF
:10352000F0915909E05CFF4F8191919120813181A7
:10353000821B930B8F739070892B11F00E94D1190D
:10354000E0917709F0917809E05CFF4F81919191CA
:1035500020813181821B930B8F739070892B11F026
:103560000E940A1AE0919609F0919709E05CFF4FDA
:103570008191919120813181821B930B8F73907087
:10358000892B11F00E94431A08951F920F920FB6D3
:103590000F920BB60F9211242F933F938F939F930B
:1035A000EF93FF93209191073091920780919307B9
:1035B000909194072817390731F48091C1008F7DCD
:1035C0008093C10014C0E0919307F0919407EF5AE3
:1035D000F84F2081809193079091940701968F7303
:1035E000907090939407809393072093C600FF9167
:1035F000EF919F918F913F912F910F900BBE0F9064
:103600000FBE0F901F9018951F920F920FB60F923A
:103610000BB60F9211242F933F938F939F93EF93A9
:10362000FF932091190830911A0880911B089091FE
:103630001C082817390731F48091C9008F7D8093C9
:10364000C90014C0E0911B08F0911C08E752F84F24
:10365000208180911B0890911C0801968F739070B7
:1036600090931C0880931B082093CE00FF91EF914C
:103670009F918F913F912F910F900BBE0F900FBE96
:103680000F901F9018951F920F920FB60F920BB6C6
:103690000F9211242F933F938F939F93EF93FF9358
:1036A0002091A1083091A2088091A3089091A408CC
:1036B0002817390731F48091D1008F7D8093D10094
:1036C00014C0E091A308F091A408EF59F74F2081AE
:1036D0008091A3089091A40801968F7390709093A5
:1036E000A4088093A3082093D600FF91EF919F91A7
:1036F0008F913F912F910F900BBE0F900FBE0F90A7
:103700001F9018951F920F920FB60F920BB60F9243
:1037100011242F933F938F939F93EF93FF932091C7
:10372000290930912A0980912B0990912C09281799
:10373000390731F4809131018F7D8093310114C0BC
:10374000E0912B09F0912C09E751F74F20818091EE
:103750002B0990912C0901968F73907090932C09EE
:1037600080932B0920933601FF91EF919F918F91C8
:103770003F912F910F900BBE0F900FBE0F901F9097
:103780001895AF92BF92DF92EF92FF920F931F9323
:10379000CF93DF93EC017A018B01DD24403081EE81
:1037A000580780E0680780E0780711F0DD24D394A3
:1037B00091E0A92EB12CEC89FD89DD2069F0C501CD
:1037C0000E8C02C0880F991F0A94E2F7808360E094
:1037D00079E08DE390E005C0108260E874E88EE146
:1037E00090E0A80197010E94904021503040404055
:1037F0005040569547953795279580E120303807FA
:1038000020F0DD2011F0DD24D6CFE889F98930835E
:10381000EA89FB892083EE89FF89408121E030E03D
:10382000C9010A8C02C0880F991F0A94E2F7482B3D
:103830004083EE89FF894081C9010B8C02C0880F4B
:10384000991F0A94E2F7482B4083EE89FF89408153
:10385000C9010C8C02C0880F991F0A94E2F7482B0B
:103860004083EE89FF8980810D8C02C0220F331FB7
:103870000A94E2F7209528232083DF91CF911F91AE
:103880000F91FF90EF90DF90BF90AF900895DC0113
:103890001C96ED91FC911D97E05CFF4F21913191B9
:1038A00080819181281B390B2F733070C9010895D5
:1038B000DC011C96ED91FC911D97E05CFF4F20818F
:1038C0003181E054F040DF01AE5BBF4F8D919C91A0
:1038D00011972817390719F42FEF3FEF07C08D9183
:1038E0009C91E80FF91F8081282F30E0C9010895CD
:1038F000DC011C96ED91FC911D97E05CFF4F20814F
:103900003181E054F040DF01AE5BBF4F8D919C915F
:1039100011972817390719F42FEF3FEF10C08D9139
:103920009C911197E80FF91F20818D919C9111971F
:1039300001968F73907011969C938E9330E0C9011D
:103940000895FC0186859785DC01A05CBF4FFC01D2
:10395000EE5BFF4F2D913C9111978081918128174B
:103960003907C1F70895CF93DF93EC01EE85FF850A
:10397000E05CFF4F20813181E054F0402F5F3F4FEA
:103980002F733070DF01AE5BBF4F8D919C9111970B
:1039900028173907D1F3E05CFF4F80819181E05413
:1039A000F040E80FF91F6083EE85FF85E05CFF4F74
:1039B00031832083EE89FF89208181E090E00D8CA6
:1039C00002C0880F991F0A94E2F7282B208381E018
:1039D00090E0DF91CF9108951F93109230091092DB
:1039E0002F0928EE33E040E050E020933109309376
:1039F0003209409333095093340969E576E07093B6
:103A00002E0960932D098DE097E090933A098093F9
:103A1000390981E597E090933C0980933B0985EC57
:103A200090E090933E0980933D0984EC90E0909360
:103A3000400980933F0980EC90E090934209809385
:103A4000410981EC90E0909344098093430986EC0E
:103A500090E0909346098093450914E0109347093C
:103A6000B3E0B0934809A7E0A0934909F5E0F093CB
:103A70004A09E1E0E0934B0910924F0910924E0978
:103A800020935009309351094093520950935309A0
:103A900070934D0960934C0985E997E0909359091B
:103AA0008093580989ED97E090935B0980935A09B8
:103AB0008DEC90E090935D0980935C098CEC90E034
:103AC00090935F0980935E0988EC90E09093610980
:103AD0008093600989EC90E0909363098093620978
:103AE0008EEC90E0909365098093640910936609C9
:103AF000B0936709A0936809F0936909E0936A0994
:103B000010926E0910926D0920936F09309370091D
:103B1000409371095093720970936C0960936B091B
:103B20008DE198E0909378098093770981E698E099
:103B300090937A098093790985ED90E090937C09C0
:103B400080937B0984ED90E090937E0980937D09BA
:103B500080ED90E09093800980937F0981ED90E063
:103B6000909382098093810986ED90E09093840977
:103B70008093830910938509B0938609A0938709E0
:103B8000F0938809E093890910928D0910928C09AD
:103B900020938E0930938F09409390095093910997
:103BA00070938B0960938A0985EA98E0909397094E
:103BB0008093960989EE98E09093990980939809EB
:103BC00085E391E090939B0980939A0984E391E0C7
:103BD00090939D0980939C0980E391E090939F09C5
:103BE00080939E0981E391E09093A1098093A009BD
:103BF00086E391E09093A3098093A2091093A4090E
:103C0000B093A509A093A609F093A709E093A8098A
:103C10001F910895CF93DF93C0E0D0E006C0C60F98
:103C2000D71F61507040804090406115710581053B
:103C30009105A9F78DE299E064E675E00E94731999
:103C4000CE01DF91CF910895CF93DF93EB01892BC4
:103C500039F58DE299E065E675E00E947619F894F1
:103C60008DE061E00E9493168DE299E0BE014AE08A
:103C700050E00E9454198DE060E00E94461760E415
:103C800072E48FE090E00E940A1E8DE061E00E94E5
:103C9000461760E472E48FE090E00E940A1EE4CFD1
:103CA000DF91CF910895FC017583648371876087EC
:103CB0005783468353874287158A1586148617864D
:103CC000168621E0248B8FEF9FEF938B828B918B55
:103CD000808B268B08952F923F924F925F926F9226
:103CE0007F928F929F92AF92BF92CF92DF92EF928C
:103CF000FF920F931F93DF93CF93CDB7DEB72E972D
:103D00000FB6F894DEBF0FBECDBF9E878D871B0117
:103D10005E834D83A701260171E0C72ED12CC21A04
:103D2000D30AC901880F991F66277727681B790B6B
:103D30007A8369836D807E8008946108710883E0CE
:103D4000882E912C8E0C9F1C790181E090E09C8341
:103D50008B83AA24BB2410E0D801A170B070B8876F
:103D6000AF83FA013196FA87E987B8016270707003
:103D70007C876B8777C0D7FC0AC00894E108F108FC
:103D800089819A8102969A838983C80ED91E0894E4
:103D9000A11CB11CAB81BC811296BC83AB83EF81AB
:103DA000F885EF2B41F1AD85BE85ED91FC91119722
:103DB000B501620D731D4D815E814E195F0997013A
:103DC000220F331F89859A85280F391F0284F385B6
:103DD000E02DCD0182011995AD85BE85ED91FC9157
:103DE0001197B701620D731D0284F385E02DCD019B
:103DF000A30194011995EB85FC85EF2B41F1AD856D
:103E0000BE85ED91FC911197B1016A197B094D8135
:103E10005E814E195F099701220F331F89859A85AC
:103E2000280F391F0284F385E02DCD0182011995F9
:103E3000AD85BE85ED91FC911197B1016E197F0999
:103E40000284F385E02DCD01A30194011995EB8146
:103E5000FC81CE0EDF1E08946108710862E070E0FC
:103E6000860E971EAE14BF040CF485CF2E960FB6A7
:103E7000F894DEBF0FBECDBFCF91DF911F910F91A0
:103E8000FF90EF90DF90CF90BF90AF909F908F907A
:103E90007F906F905F904F903F902F9008956F921A
:103EA0007F928F929F92AF92BF92CF92DF92EF92CA
:103EB000FF920F931F937C014B013A015901680156
:103EC000DC01ED91FC91421B530B220F331F2F5F3E
:103ED0003F4F0284F385E02D1995C701B401A3017A
:103EE000950103E0EE24FF240E946B1E1F910F91A9
:103EF000FF90EF90DF90CF90BF90AF909F908F900A
:103F00007F906F9008952F923F924F925F926F92A1
:103F10007F928F929F92AF92BF92CF92DF92EF9259
:103F2000FF920F931F93DF93CF9300D00F92CDB7E3
:103F3000DEB73C017C836B836A015901FA82E98216
:103F4000222433249801241B350B37FF03C03095FE
:103F500021953F4FC5014B815C81841B950B97FFD9
:103F600003C0909581959F4F821793075CF481E081
:103F7000282E312CC601CB80DC809C838B83C8012A
:103F800085015C018B819C81A816B90644F4C501AA
:103F9000AB80BC809C838B83C80186016C012501AA
:103FA000AB81BC814A1A5B0A7801EC18FD08F7FE68
:103FB00004C0F094E194F108F394C016D10624F003
:103FC00088248A94982C03C0B1E08B2E912CC201D6
:103FD00062E070E00E947D408B0125C0D301ED912D
:103FE000FC912114310441F00480F581E02DC301DE
:103FF000B6014B815C8107C00480F581E02DC301CF
:104000006B817C81A60129813A8119950E191F09BE
:1040100017FF04C0C80CD91C040D151DEB81FC81D1
:104020003196FC83EB834B815C81A416B506B4F614
:104030000F900F900F900F90CF91DF911F910F91E4
:10404000FF90EF90DF90CF90BF90AF909F908F90B8
:104050007F906F905F904F903F902F9008954F9278
:104060005F926F927F928F929F92AF92BF92CF9208
:10407000DF92EF92FF920F931F936C015B014A0155
:1040800039012801DC01ED91FC910484F585E02DD6
:1040900087011995D601ED91FC91A4014150504042
:1040A000440D551D0484F585E02DC601B50193012D
:1040B0001995D601ED91FC910284F385E02DC6019E
:1040C000B501A40192011995D601ED91FC910894D6
:1040D000A108B108A60CB71C0284F385E02DC60127
:1040E000B501A401920119951F910F91FF90EF90D6
:1040F000DF90CF90BF90AF909F908F907F906F9008
:104100005F904F9008952F923F924F925F926F92DF
:104110007F928F929F92AF92BF92CF92DF92EF9257
:10412000FF920F931F93DF93CF93CDB7DEB72F97F7
:104130000FB6F894DEBF0FBECDBF5C015E834D832A
:1041400018870F83FA86E986CB86DC0118968D9155
:104150009C911997681779070CF0A4C01A968D9155
:104160009C911B97481759070CF09CC0EC2DF0E070
:10417000FF87EE87CF01880F991F880F991F8E0F39
:104180009F1F860F971F181619060CF08BC0CF01C2
:10419000A3E0880F991FAA95E1F7840F951F1816C1
:1041A00019060CF07FC085E0289FA00111245A83D6
:1041B00049832B011B011C825C81553011F480E086
:1041C00005C0E981FA81EC5FFD4F84912C863D8624
:1041D0006D807E8043011B82C82EDD2480FF1CC0C1
:1041E000D501ED91FC91BB85B13049F40480F58196
:1041F000E02DC501B201A3012F81388522C00088BE
:10420000F189E02DC5016C857D85A4012E853F8552
:104210008901EF80F88423C0E985FA852F813885EC
:10422000E217F307E9F0D501ED91FC91BB85B130C0
:1042300051F40480F581E02DC501B201A301298567
:104240003A8519950DC00088F189E02DC5016C856E
:104250007D85A4012E853F858901E984FA8419951D
:10426000EB81EF5FEB832E853F85820E931E0894D2
:10427000611C711CE83021F0D594C7948C2DACCF13
:104280003C813F5F3C834E855F85240E351E08943C
:10429000411C511C89819A8101969A838983363009
:1042A00009F08ACF2F960FB6F894DEBF0FBECDBFB0
:1042B000CF91DF911F910F91FF90EF90DF90CF9002
:1042C000BF90AF909F908F907F906F905F904F9036
:1042D0003F902F900895CF92EF92FF920F931F93EC
:1042E000CF93DF93EC01262F6A3061F42C8930E004
:1042F00003E0220F331F0A95E1F78E859F85820F19
:10430000931F37C06D30C9F16C857D854E855F8503
:1043100008891989EA88FB88CC880E9483202C8927
:1043200086E0289FB00111248C859D85680F791F38
:104330007D876C878E89882301F1422F50E08AEFB8
:104340009FEF9C01429FC001439F900D529F900D93
:10435000112428853985820F931F861797076CF4DF
:1043600013E0440F551F1A95E1F78E859F85840F42
:10437000951F9F878E871D861C8681E090E0DF91C8
:10438000CF911F910F91FF90EF90CF900895FC0176
:1043900075876487578746870895FC01662309F46B
:1043A00061E0648B0895FC01718B608B738B628B71
:1043B0000895FC011382128289E696E0918380833E
:1043C00060A341A322A381E0878B14A213A20895C6
:1043D000DC0157968C915797882329F06EBD0DB458
:1043E00007FEFDCF089530E840E050E070E0832FF5
:1043F00090E0862397235896ED91FC9159979596D6
:104400002C919597892B21F08081822B808304C089
:1044100080812095282320835A96ED91FC915B970B
:10442000808196969C919697892B80835A96ED91E0
:10443000FC915B97908196968C91969780958923B5
:10444000808336954F5F5F4F4830510581F6089560
:104450000F931F938C01DC015E96ED91FC915F97A9
:10446000908198968C9198978095892380835C960B
:10447000ED91FC915D97908197968C918095892321
:104480008083C8010E94E821D8015C96ED91FC91DF
:104490005D97808197969C91892B80831F910F91C6
:1044A00008950F931F938C01DC015E96ED91FC91B2
:1044B0005F97808198969C919897892B80835C96D2
:1044C000ED91FC915D97908197968C9180958923D1
:1044D0008083C8010E94E821D8015C96ED91FC918F
:1044E0005D97808197969C91892B80831F910F9176
:1044F0000895CF92DF92EF92FF920F931F937C016A
:10450000162FC42ED22E6AE20E942822C70160E034
:104510000E945122F70161A5610FC7010E9451223B
:10452000C70160E00E945122F70161A56D0DC7012E
:104530000E945122C7016BE20E942822C70160E05D
:104540000E945122F70162A56C0DC7010E94512201
:10455000C70160E00E945122F70162A5600FC70108
:104560000E945122C7016CE20E9428221F910F91E4
:10457000FF90EF90DF90CF900895EF92FF920F930E
:104580001F93CF93DF93EC017B01288521500A858F
:10459000015060E040E00E947922EE8DFF8D808125
:1045A00098A5892B8083EC8DFD8D90818FA18095BE
:1045B000892380831A850EC0088509C0CE016F2D1E
:1045C0000E94E821CE016E2D0E94E82101500023B7
:1045D000A9F71150112381F7EC8DFD8D80819FA1EA
:1045E000892B8083DF91CF911F910F91FF90EF90E6
:1045F0000895FF920F931F938C01F62E672FDC0115
:104600005E96ED91FC915F97808198969C9198972A
:10461000892B80835C96ED91FC915D9790819796B4
:104620008C91809589238083C8010E94E821C8016C
:104630006F2D0E94E821D8015C96ED91FC915D9769
:10464000808197969C91892B80831F910F91FF9079
:104650000895FF920F931F93CF93DF93EC01F22EF7
:10466000132F77FD2EC088859985681779074CF53B
:1046700057FD27C08A859B854817590714F5262FB3
:104680002F5F042F0F5FCE010E947922EE8DFF8DE8
:10469000808198A5892B8083EC8DFD8D90818FA1E1
:1046A000809589238083CE01612F0E94E821CE016D
:1046B0006F2D0E94E821EC8DFD8D80819FA1892BBB
:1046C0008083DF91CF911F910F91FF900895DF922A
:1046D000EF92FF920F931F93CF93DF93EC01FB01B7
:1046E0007901D02E8885998568177907D4F52A85B0
:1046F0003B8542175307ACF5C701840F951F281758
:1047000039071CF47901E41AF50A042F01500E0D43
:10471000CE016E2F2E2F0E947922EE8DFF8D80818B
:1047200098A5892B8083EC8DFD8D90818FA180953C
:104730008923808308C0CE01612F0E94E821CE0129
:104740006D2D0E94E8210894E108F1088FEFE8162A
:104750008FEFF80681F7EC8DFD8D80819FA1892B6D
:104760008083DF91CF911F910F91FF90EF90DF90A9
:104770000895DF92EF92FF920F931F93CF93DF93F1
:10478000EC01FA017901D02E28853985621773076B
:10479000D4F58A859B8548175907ACF5C701860F64
:1047A000971F281739071CF47901E61AF70A262FF4
:1047B00021502E0DCE014E2F0E2F0E947922EE8D0C
:1047C000FF8D808198A5892B8083EC8DFD8D908154
:1047D0008FA180958923808308C0CE01612F0E941C
:1047E000E821CE016D2D0E94E8210894E108F1082E
:1047F0008FEFE8168FEFF80681F7EC8DFD8D808145
:104800009FA1892B8083DF91CF911F910F91FF9002
:10481000EF90DF900895AF92BF92CF92DF92EF9228
:10482000FF920F931F93CF93DF936C015901E8011F
:10483000DC0118962D913C911997621773070CF0C3
:1048400057C01A96ED91FC911B974E175F070CF01D
:104850004FC0C501860F971F281739071CF459014F
:10486000A61AB70ACE01840F951FE817F9071CF4A2
:10487000EF01C41BD50B262F21502A0D042F015008
:104880000C0FC6010E947922D6015E96ED91FC9133
:104890005F97808198969C919897892B80835C96EE
:1048A000ED91FC915D97908197968C9180958923ED
:1048B00080838E010EC0C6016F2D0E94E821C601C3
:1048C0006E2D0E94E82121971C161D06A4F30150AD
:1048D00010401016110614F4E501F6CFD6015C96CF
:1048E000ED91FC915D97808197969C91892B8083B7
:1048F000DF91CF911F910F91FF90EF90DF90CF90BC
:10490000BF90AF9008951F93CF93DF93EC01162FC4
:1049100066E30E94282213701D8B113051F0113074
:1049200028F0123049F01330F1F411C0CE0168ECD8
:1049300005C0CE0168EA0DC0CE0168E00E94512298
:1049400080E890E09987888780EA90E00AC0CE01ED
:1049500068E60E94512280EA90E09987888780E883
:1049600090E09B878A87DF91CF911F9108956623FE
:1049700011F460E201C061E20E9428220895AF9222
:10498000BF92CF92DF92EF92FF920F931F93CF933C
:10499000DF935C01FB01EB012196D49031C08E01C5
:1049A0000F5F1F4FFE016491C5010E94282278010C
:1049B0000894E11CF11CF801C4900C2D0F77E7015D
:1049C000102F08C0FE012196E491C5016E2F0E94B0
:1049D000512211501123B1F7E701C00FD11DC7FEBD
:1049E0000EC0FE018491682F70E06F3F710511F4D5
:1049F00064EF71E0219680E090E00E94D413DA9495
:104A0000DD2069F6DF91CF911F910F91FF90EF901C
:104A1000DF90CF90BF90AF9008950F931F93CF93E7
:104A2000DF93EC018B0160E870E040EA50E00E9407
:104A3000531E1AA619A689A161E00E94931688A1A7
:104A400061E00E949316E8A12E2F30E0F901EE5CA0
:104A5000FE4FE491F0E0EE0FFF1FE250FF4F859113
:104A600094919D8F8C8F28583E4FF90184918FA38C
:104A7000E9A12E2F30E0F901EE5CFE4FE491F0E069
:104A8000EE0FFF1FE250FF4F859194919F8F8E8F05
:104A900028583E4FF901849188A78F89882361F0B7
:104AA0000E945E3980E00E944D3981E00E943F39CA
:104AB00080E00E9448393DC08CA161E00E949316BD
:104AC0008BA161E00E949316ECA18E2F90E0FC0177
:104AD000EE5CFE4FE491F0E0EE0FFF1FE250FF4F5F
:104AE000A591B491BB8FAA8F88589E4FFC01449129
:104AF0004EA3EBA12E2F30E0F901EE5CFE4FE491C6
:104B0000F0E0EE0FFF1FE250FF4F85919491998FD7
:104B1000888F28583E4FF90184918DA38C91409540
:104B200048234C93E88DF98D90818DA18095892340
:104B30008083EC8DFD8D90818FA18095892380836A
:104B40008AA1882309F161E00E9493168AA161E09D
:104B50000E94461764EF71E080E090E00E94D41359
:104B60008AA160E00E94461764EF71E080E090E067
:104B70000E94D4138AA161E00E94461764EF71E09D
:104B800080E090E00E94D4130115110521F0CE01C0
:104B9000B8010E94BF24DF91CF911F910F9108951A
:104BA0001F93CF93DF93EC01162F6FEF76E00E94F7
:104BB0000D25112351F4CE016AE377E00E94BF2452
:104BC00082E089A781E08AA705C0CE0167E477E08B
:104BD0000E94BF24CE0164E577E00E94BF24DF91EC
:104BE000CF911F91089582E090E0A0E0B0E0809323
:104BF000A9099093AA09A093AB09B093AC091092AC
:104C0000C0091092CA091092C90981E996E09093EF
:104C1000C8098093C7091092CC091092E909109233
:104C2000EA091092ED091092EF0908952F923F9230
:104C30004F925F926F927F928F929F92AF92BF92AC
:104C4000CF92DF92EF92FF920F931F93DF93CF9358
:104C5000CDB7DEB7C754D0400FB6F894DEBF0FBE55
:104C6000CDBF582E492EFB013A01190180A191A117
:104C7000998B888B21E936E03F872E8782A18A8B2A
:104C800083A18B8B84A195A1A6A1B7A18C8B9D8BB1
:104C9000AE8BBF8B80A591A5A2A5B3A5888F998F58
:104CA000AA8FBB8F84A595A5A6A5B7A58C8F9D8F30
:104CB000AE8FBF8F80A988A381A992A9A3A9B4A907
:104CC00089A39AA3ABA3BCA385A996A9A7A9B0ADB4
:104CD0008DA39EA3AFA3B8A781AD92AD9AA789A7D4
:104CE0001EA61DA63CA72BA718AA7A018E01025F5B
:104CF0001F4F3BE2A32EB12CAC0EBD1E4E010894FB
:104D0000811C911C35C0D7018C918F3221F40894FD
:104D1000E11CF11C2DC0422F4E194D3008F04CE023
:104D2000C42EDD24C401B701A6010E945B3DF4013D
:104D3000EC0DFD1D1082C5010E941E2BC501B8019E
:104D4000A40121E00E946630882351F4E52DF42D62
:104D50001382128281E996E091838083158266C076
:104D6000EC0CFD1CC8010E941E2BC50158018C01D2
:104D7000C7016FE270E00E94473D9C01009719F661
:104D8000E618F708F101F182E082E52DF42DD80153
:104D900012968D919C9113979383828381E996E07B
:104DA0009183808314968C911497848315968C91AB
:104DB0001597858316962D913D914D915C9119978C
:104DC00026833783408751871A962D913D914D91C7
:104DD0005C911D9722873387448755871E962D91B6
:104DE0003D914D915C91519726873787408B518B30
:104DF00052968C915297828B53962D913D914D9165
:104E00005C915697238B348B458B568B57962D91FF
:104E10003D914D915C915A97278B308F418F528FE6
:104E20005B968D919C915C97948F838F852D942DAB
:104E3000C95BDF4F0FB6F894DEBF0FBECDBFCF9179
:104E4000DF911F910F91FF90EF90DF90CF90BF9077
:104E5000AF909F908F907F906F905F904F903F901A
:104E60002F9008959F92AF92BF92CF92DF92EF92D0
:104E7000FF920F931F93DF93CF93CDB7DEB7C65743
:104E8000D0400FB6F894DEBF0FBECDBFC82E992E0E
:104E90008A01D22E43E0A42EB12CAC0EBD1EC5015A
:104EA000A8019E012F5F3F4F0E941626E980FA80DD
:104EB000E00EF11EF701808141E956E02885882344
:104EC00009F03FC08D819E819BA38AA359A348A36B
:104ED0008F818CA32DA389859A85AB85BC858EA3F4
:104EE0009FA3A8A7B9A78D859E85AF85B8898AA7F6
:104EF0009BA7ACA7BDA789899A89AB89BC898EA7D6
:104F00009FA7A8ABB9AB8D898AAB8E899F89A88DE5
:104F1000B98D8BAB9CABADABBEAB8A8D9B8DAC8D95
:104F2000BD8D8FAB98AFA9AFBAAF8E8D9F8D9CAF63
:104F30008BAF8C2D992DBE01605E7F4F47E755E00A
:104F40009FC0FE01FF96118210825EAF4DAFFE0141
:104F5000EE5BFF4F10822223A9F02250CE01CD96A6
:104F6000223048F467EC79E0A7012D2D0E946630CD
:104F7000882381F407C0B501A7012D2D0E9466305A
:104F8000882329F48C2D992D0E948A287BC0C50185
:104F90000E941E2BF6E0DF2259F0FE01E05BFF4F7E
:104FA0004081518162817381CE01CD960E940E2A8B
:104FB0009E01265A3F4FFE01FF9680819181F901A3
:104FC0009383828381E996E091838083FE01EF5B86
:104FD000FF4F8081F9018483FE01EE5BFF4F8081EA
:104FE000F9018583FE01ED5BFF4F80819181A281F4
:104FF000B381F90186839783A087B187FE01E95BBE
:10500000FF4F80819181A281B381F90182879387CB
:10501000A487B587FE01E55BFF4F80819181A28166
:10502000B381F90186879787A08BB18BFE01E15B85
:10503000FF4F8081F901828BFE01E05BFF4F808191
:105040009181A281B381F901838B948BA58BB68B5F
:10505000FE01EC5AFF4F80819181A281B381F90159
:10506000878B908FA18FB28FFE01E85AFF4F80810E
:105070009181F901948F838F8C2D992DB901A7010E
:105080000E9494298C2D992DCA58DF4F0FB6F894A1
:10509000DEBF0FBECDBFCF91DF911F910F91FF906B
:1050A000EF90DF90CF90BF90AF909F900895EF92D8
:1050B000FF920F931F93CF93DF93EC01462F8C0148
:1050C000055C1F4FC80161E00E94A7338823D1F01F
:1050D000FC2EED2ECE01B80141E00E94143588234C
:1050E00039F4CE01B80140E00E941435882351F014
:1050F000CE014E966F2D7E2D0E94542D882319F0DF
:1051000081E001C080E0DF91CF911F910F91FF906E
:10511000EF900895FC011382128288EE93E0A0E0E4
:10512000B0E084839583A683B78381E896E091837A
:105130008083128E118E14860895FC0181E896E01A
:10514000918380830895DF93CF930F92CDB7DEB71D
:10515000FC016983A081B18112962D913C91139736
:10516000BE016F5F7F4F41E050E0F90119950F904C
:10517000CF91DF910895DC015996ED91FC915A97FA
:10518000309719F420E030E018C02389348945892C
:10519000568982859385A485B585281B390B4A0BD2
:1051A0005B0B2030B0E83B07B0E04B07B0E05B079B
:1051B00020F02FEF3FE740E050E0C9010895DC0107
:1051C0005996ED91FC915A97309711F480E008952B
:1051D0008581811181E00895CF93DF93EC01898D62
:1051E0009A8D009741F00E941E2B898D9A8D0E9406
:1051F000683B1A8E198EDF91CF910895FC01818D45
:10520000928D009711F480E008950E940E2A08956F
:10521000FC01818D928D009711F00E94D42A08958F
:10522000FC01818D928D009719F420E030E003C0DD
:105230000E94F52B9C01C9010895DF93CF930F9233
:10524000CDB7DEB7FC01818D928D009749F0BE018C
:105250006F5F7F4F41E050E00E94F52B019719F0FE
:105260002FEF3FEF03C08981282F30E0C9010F9055
:10527000CF91DF910895EF92FF920F931F93DF93E9
:10528000CF930F92CDB7DEB77C01DC0159968D919B
:105290009C915A97009719F400E010E01FC0BE01DE
:1052A0006F5F7F4F41E050E00E94F52B019719F0AE
:1052B0000FEF1FEF13C08981082F10E0D701599617
:1052C000ED91FC915A9742855385648575854150CF
:1052D000504060407040CF010E940E2AC8010F90DC
:1052E000CF91DF911F910F91FF90EF900895CF9391
:1052F000DF93EC01E98DFA8D309761F01382128211
:10530000CF010E943A2E9C01E98DFA8D8281938112
:10531000892B31F081E090E09B838A8320E030E0AC
:10532000C901DF91CF910895EF92FF920F931F93E0
:10533000CF93DF93EC01F62EE72E8A011B821A82AF
:1053400088EE93E0A0E0B0E08C839D83AE83BF83C2
:1053500081E896E0998388838DE190E00E94CB3AC2
:105360009A8F898F009791F0DC018F2D9E2D9C01E3
:10537000F9018DE101900D928150E1F7CE010C967B
:10538000B8014CE050E00E945B3D188EDF91CF9158
:105390001F910F91FF90EF900895CF93DF93EC0151
:1053A000DB0180E090E020E2FD01E80FF91F20839F
:1053B00001968B309105C1F757E040E021C02E32B5
:1053C00019F086EE97E007C05A3019F15AE048E02C
:1053D00017C03217F1F0FC01019634913323C9F75D
:1053E0005417B8F02132A8F02F3798F4822F815645
:1053F0008A3108F42052FD01E40FF11D20834F5F34
:1054000029912223E1F690E08C91803219F091E00D
:1054100001C090E0892FDF91CF9108956F927F9224
:105420008F929F92AF92BF92CF92DF92EF92FF92B4
:105430000F931F93CF93DF93EC017A018B012D81A2
:10544000222309F480C08B899C89AD89BE89841789
:105450009507A607B70708F476C085C0E114F104E4
:105460000105110549F41E821F82188619861A86C5
:105470001B861C861D8665C02A853B854C855D85FF
:10548000EB8DFC8D858590E00996215030404040A1
:10549000504039014A01082E04C0969487947794AD
:1054A00067940A94D2F72F5F3F4F4F4F5F4F089496
:1054B000E108F108010911095701680104C0D694F7
:1054C000C794B794A7948A95D2F70894E11CF11C6D
:1054D000011D111DA614B704C804D90428F0211514
:1054E00031054105510549F48F89988DA98DBA8DF3
:1054F0008E839F83A887B98716C0A618B708C808E7
:10550000D90811C04E815F81688579858B8D9C8D0E
:1055100094010E94F5360894A108B108C108D10889
:10552000882331F410C086E0882E912C8C0E9D1EAD
:10553000A114B104C104D10429F7EA86FB860C87C3
:105540001D8781E001C080E0DF91CF911F910F9115
:10555000FF90EF90DF90CF90BF90AF909F908F9093
:105560007F906F900895223009F078CFE6CFCF93E7
:10557000DF93EC01462F6E857F85888999890E948B
:10558000D934882319F420E030E00AC08A89282F12
:1055900030E095E0220F331F9A95E1F72C50364FFB
:1055A000C901DF91CF9108950F931F93CF93DF939C
:1055B0008C01FC0185818823D9F1848187FF35C066
:1055C000C80161E00E94B72AEC01009789F1F80157
:1055D0008581823040F483899489A589B6898C8F2E
:1055E0009D8FAE8FBF8FF8018789908D9B8F8A8F9B
:1055F0008789908DA18DB28DCD01AA27BB279D8B68
:105600008C8BE091F209F091F309309751F0BE01D3
:105610006A5E7F4FCE0148961995888D998D9B8B38
:105620008A8BF80184818F7784830E947A3401C049
:1056300080E0DF91CF911F910F910895CF93DF9379
:10564000EC010E94D42A882311F01D8281E0DF91B1
:10565000CF9108956F927F928F929F92AF92BF9257
:10566000CF92DF92EF92FF920F931F93DF93CF932E
:1056700000D00F92CDB7DEB77C015A016B01DC017F
:1056800015968C911597813009F08FC014968C91E6
:1056900081FF8BC09EC00097A105B10511F481E088
:1056A00085C0F7016284738484849584C701B60140
:1056B000A5010E940E2A882309F477C0D7015B96C2
:1056C0008D919C915C97A114B104C104D10489F41B
:1056D00057964D915D916D917C915A970E946837D4
:1056E000882309F462C0F701178A108E118E128E7A
:1056F0003DC0D70116964D915D916D917C911997A2
:105700009E012F5F3F4F0E94F536882309F44DC05C
:10571000D7015B96ED91FC915C9749815A816B8131
:105720007C818789803129F088EF9FEFAFEFBFE060
:1057300004C088EF9FEFA0E0B0E0481759076A0760
:105740007B07A0F4CF010E946837882371F1F7012D
:105750004681578160857185838D948D0FEF1FEF92
:105760002FEF3FE00E9459368823F9F0D701539676
:10577000AD92BD92CD92DC92569714968C9114976F
:10578000806814968C93C7010E94D42A882369F0FC
:10579000B601A5016A147B048C049D0410F4B401C5
:1057A000A301C7010E940E2A01C080E00F900F9054
:1057B0000F900F90CF91DF911F910F91FF90EF907D
:1057C000DF90CF90BF90AF909F908F907F906F9021
:1057D0000895F70183899489A589B6898417950767
:1057E000A607B70708F057CFE0CF2F923F924F920E
:1057F0005F926F927F928F929F92AF92BF92CF9261
:10580000DF92EF92FF920F931F93CF93DF93EC0100
:105810002A018D81882309F4C6C08C8180FFC3C012
:10582000D8C025014E185F084B0176E0272E312C99
:105830002C0E3D1E3201B1C02A853B854C855D850D
:105840006FEFA62E61E0B62EA222B3228D817901E0
:105850008A0199E016950795F794E7949A95D1F700
:10586000EB8DFC8D823049F4428D538D648D758DA6
:105870004E0D5F1D601F711F3FC0D480DA94DE2083
:10588000A114B104D9F4DD20C9F421153105410575
:10589000510549F48F89988DA98DBA8D8E839F8388
:1058A000A887B9870BC04E815F8168857985CF0154
:1058B00091010E94F536882309F475C0EB8DFC8DAB
:1058C0004E815F81688579854250504060407040CC
:1058D000058404C0440F551F661F771F0A94D2F732
:1058E00086859785A089B189480F591F6A1F7B1F3C
:1058F0004D0D511D611D711D80E092E08A199B09BB
:1059000063018615970508F46C018C8186FD06C03D
:1059100080E0C81682E0D80609F073C080914D0679
:1059200090914E06A0914F06B09150064817590726
:105930006A077B0709F465C08091F40B9091F50B21
:105940009501860174010E94FA32882361F18C0C62
:105950009D1C12C095012C50364FA9014C0D5D1DA8
:10596000D401F90102C081918D93E417F507D9F7AD
:10597000E21BF30B8E0E9F1E960140E050E08A85DD
:105980009B85AC85BD85820F931FA41FB51F8A8799
:105990009B87AC87BD876C187D086114710409F082
:1059A0004BCFA20102C04FEF5FEFCA01DF91CF9151
:1059B0001F910F91FF90EF90DF90CF90BF90AF902D
:1059C0009F908F907F906F905F904F903F902F901F
:1059D0000895AB88BC88CD88DE88EA84FB840C857A
:1059E0001D859A0140E050E0D601C5018E199F093E
:1059F000A00BB10B82179307A407B50708F411CFCA
:105A000013CFCB01BA0140E00E94D934882309F0BA
:105A1000A1CFC9CFCF92DF92EF92FF920F931F9346
:105A2000DF93CF930F92CDB7DEB76C01FC01858178
:105A3000823070F0E284F38404851585C601BE01CE
:105A40006F5F7F4F41E050E00E94F52B019769F0B6
:105A500020E030E0C9010F90CF91DF911F910F91AD
:105A6000FF90EF90DF90CF900895F60182859385A7
:105A7000A485B5854F96A11DB11D82879387A48704
:105A8000B587F5E016950795F794E794FA95D1F761
:105A90008E2D8F70282F30E0E5E0220F331FEA951E
:105AA000E1F72C50364FD6CF0F931F93CF93DF9350
:105AB000EC018B018D81882309F041C0FB018789AE
:105AC0008031B1F482E08D831F8A188E198E1A8E70
:105AD000808D918DA0E0B0E045E0880F991FAA1F4E
